{
  "_format": "hh-sol-artifact-1",
  "contractName": "Frens",
  "sourceName": "contracts/Frens.sol",
  "abi": [
    {
      "inputs": [
        {
          "internalType": "address",
          "name": "forwarder",
          "type": "address"
        }
      ],
      "stateMutability": "nonpayable",
      "type": "constructor"
    },
    {
      "anonymous": false,
      "inputs": [
        {
          "indexed": false,
          "internalType": "uint256",
          "name": "_index",
          "type": "uint256"
        },
        {
          "indexed": false,
          "internalType": "uint8",
          "name": "_contractType",
          "type": "uint8"
        },
        {
          "indexed": false,
          "internalType": "address",
          "name": "_tokenAddress",
          "type": "address"
        },
        {
          "indexed": false,
          "internalType": "uint256",
          "name": "_amount",
          "type": "uint256"
        },
        {
          "indexed": true,
          "internalType": "address",
          "name": "_senderAddress",
          "type": "address"
        }
      ],
      "name": "DepositEvent",
      "type": "event"
    },
    {
      "anonymous": false,
      "inputs": [
        {
          "indexed": true,
          "internalType": "address",
          "name": "previousOwner",
          "type": "address"
        },
        {
          "indexed": true,
          "internalType": "address",
          "name": "newOwner",
          "type": "address"
        }
      ],
      "name": "OwnershipTransferred",
      "type": "event"
    },
    {
      "anonymous": false,
      "inputs": [
        {
          "indexed": false,
          "internalType": "uint256",
          "name": "_index",
          "type": "uint256"
        },
        {
          "indexed": false,
          "internalType": "uint8",
          "name": "_contractType",
          "type": "uint8"
        },
        {
          "indexed": false,
          "internalType": "address",
          "name": "_tokenAddress",
          "type": "address"
        },
        {
          "indexed": false,
          "internalType": "uint256",
          "name": "_amount",
          "type": "uint256"
        },
        {
          "indexed": true,
          "internalType": "address",
          "name": "_recipientAddress",
          "type": "address"
        }
      ],
      "name": "WithdrawEvent",
      "type": "event"
    },
    {
      "anonymous": false,
      "inputs": [
        {
          "indexed": true,
          "internalType": "address",
          "name": "payee",
          "type": "address"
        },
        {
          "indexed": false,
          "internalType": "uint256",
          "name": "weiAmount",
          "type": "uint256"
        }
      ],
      "name": "WithdrawnProfit",
      "type": "event"
    },
    {
      "inputs": [],
      "name": "defaultGasLimit",
      "outputs": [
        {
          "internalType": "uint256",
          "name": "",
          "type": "uint256"
        }
      ],
      "stateMutability": "view",
      "type": "function"
    },
    {
      "inputs": [
        {
          "internalType": "uint256",
          "name": "",
          "type": "uint256"
        }
      ],
      "name": "deposits",
      "outputs": [
        {
          "internalType": "address",
          "name": "pubKey",
          "type": "address"
        },
        {
          "internalType": "uint256",
          "name": "amount",
          "type": "uint256"
        },
        {
          "internalType": "address",
          "name": "tokenAddress",
          "type": "address"
        },
        {
          "internalType": "uint8",
          "name": "contractType",
          "type": "uint8"
        },
        {
          "internalType": "uint256",
          "name": "tokenId",
          "type": "uint256"
        },
        {
          "internalType": "address",
          "name": "sender",
          "type": "address"
        },
        {
          "internalType": "uint256",
          "name": "depositedAt",
          "type": "uint256"
        }
      ],
      "stateMutability": "view",
      "type": "function"
    },
    {
      "inputs": [
        {
          "internalType": "address",
          "name": "_token",
          "type": "address"
        }
      ],
      "name": "estimateFee",
      "outputs": [
        {
          "internalType": "uint256",
          "name": "",
          "type": "uint256"
        }
      ],
      "stateMutability": "view",
      "type": "function"
    },
    {
      "inputs": [
        {
          "internalType": "address",
          "name": "",
          "type": "address"
        }
      ],
      "name": "gasLimits",
      "outputs": [
        {
          "internalType": "uint256",
          "name": "",
          "type": "uint256"
        }
      ],
      "stateMutability": "view",
      "type": "function"
    },
    {
      "inputs": [],
      "name": "getDepositCount",
      "outputs": [
        {
          "internalType": "uint256",
          "name": "",
          "type": "uint256"
        }
      ],
      "stateMutability": "view",
      "type": "function"
    },
    {
      "inputs": [],
      "name": "getTrustedForwarder",
      "outputs": [
        {
          "internalType": "address",
          "name": "forwarder",
          "type": "address"
        }
      ],
      "stateMutability": "view",
      "type": "function"
    },
    {
      "inputs": [
        {
          "internalType": "address",
          "name": "forwarder",
          "type": "address"
        }
      ],
      "name": "isTrustedForwarder",
      "outputs": [
        {
          "internalType": "bool",
          "name": "",
          "type": "bool"
        }
      ],
      "stateMutability": "view",
      "type": "function"
    },
    {
      "inputs": [],
      "name": "lockBlocks",
      "outputs": [
        {
          "internalType": "uint256",
          "name": "",
          "type": "uint256"
        }
      ],
      "stateMutability": "view",
      "type": "function"
    },
    {
      "inputs": [
        {
          "internalType": "address",
          "name": "_tokenAddress",
          "type": "address"
        },
        {
          "internalType": "uint8",
          "name": "_contractType",
          "type": "uint8"
        },
        {
          "internalType": "uint256",
          "name": "_amount",
          "type": "uint256"
        },
        {
          "internalType": "uint256",
          "name": "_tokenId",
          "type": "uint256"
        },
        {
          "internalType": "address",
          "name": "_pubKey",
          "type": "address"
        }
      ],
      "name": "makeDeposit",
      "outputs": [
        {
          "internalType": "uint256",
          "name": "",
          "type": "uint256"
        }
      ],
      "stateMutability": "payable",
      "type": "function"
    },
    {
      "inputs": [],
      "name": "minGasPrice",
      "outputs": [
        {
          "internalType": "uint256",
          "name": "",
          "type": "uint256"
        }
      ],
      "stateMutability": "view",
      "type": "function"
    },
    {
      "inputs": [
        {
          "internalType": "address",
          "name": "_operator",
          "type": "address"
        },
        {
          "internalType": "address",
          "name": "_from",
          "type": "address"
        },
        {
          "internalType": "uint256[]",
          "name": "_ids",
          "type": "uint256[]"
        },
        {
          "internalType": "uint256[]",
          "name": "_values",
          "type": "uint256[]"
        },
        {
          "internalType": "bytes",
          "name": "_data",
          "type": "bytes"
        }
      ],
      "name": "onERC1155BatchReceived",
      "outputs": [
        {
          "internalType": "bytes4",
          "name": "",
          "type": "bytes4"
        }
      ],
      "stateMutability": "nonpayable",
      "type": "function"
    },
    {
      "inputs": [
        {
          "internalType": "address",
          "name": "_operator",
          "type": "address"
        },
        {
          "internalType": "address",
          "name": "_from",
          "type": "address"
        },
        {
          "internalType": "uint256",
          "name": "_tokenId",
          "type": "uint256"
        },
        {
          "internalType": "uint256",
          "name": "_value",
          "type": "uint256"
        },
        {
          "internalType": "bytes",
          "name": "_data",
          "type": "bytes"
        }
      ],
      "name": "onERC1155Received",
      "outputs": [
        {
          "internalType": "bytes4",
          "name": "",
          "type": "bytes4"
        }
      ],
      "stateMutability": "nonpayable",
      "type": "function"
    },
    {
      "inputs": [
        {
          "internalType": "address",
          "name": "_operator",
          "type": "address"
        },
        {
          "internalType": "address",
          "name": "_from",
          "type": "address"
        },
        {
          "internalType": "uint256",
          "name": "_tokenId",
          "type": "uint256"
        },
        {
          "internalType": "bytes",
          "name": "_data",
          "type": "bytes"
        }
      ],
      "name": "onERC721Received",
      "outputs": [
        {
          "internalType": "bytes4",
          "name": "",
          "type": "bytes4"
        }
      ],
      "stateMutability": "nonpayable",
      "type": "function"
    },
    {
      "inputs": [],
      "name": "owner",
      "outputs": [
        {
          "internalType": "address",
          "name": "",
          "type": "address"
        }
      ],
      "stateMutability": "view",
      "type": "function"
    },
    {
      "inputs": [],
      "name": "profit",
      "outputs": [
        {
          "internalType": "uint256",
          "name": "",
          "type": "uint256"
        }
      ],
      "stateMutability": "view",
      "type": "function"
    },
    {
      "inputs": [],
      "name": "protocolFee",
      "outputs": [
        {
          "internalType": "uint256",
          "name": "",
          "type": "uint256"
        }
      ],
      "stateMutability": "view",
      "type": "function"
    },
    {
      "inputs": [],
      "name": "renounceOwnership",
      "outputs": [],
      "stateMutability": "nonpayable",
      "type": "function"
    },
    {
      "inputs": [
        {
          "internalType": "uint256",
          "name": "_gasLimit",
          "type": "uint256"
        }
      ],
      "name": "setDefaultGasLimit",
      "outputs": [],
      "stateMutability": "nonpayable",
      "type": "function"
    },
    {
      "inputs": [
        {
          "internalType": "address",
          "name": "_token",
          "type": "address"
        },
        {
          "internalType": "uint256",
          "name": "_gasLimit",
          "type": "uint256"
        }
      ],
      "name": "setGasLimit",
      "outputs": [],
      "stateMutability": "nonpayable",
      "type": "function"
    },
    {
      "inputs": [
        {
          "internalType": "uint256",
          "name": "_lockBlocks",
          "type": "uint256"
        }
      ],
      "name": "setLockBlocks",
      "outputs": [],
      "stateMutability": "nonpayable",
      "type": "function"
    },
    {
      "inputs": [
        {
          "internalType": "uint256",
          "name": "_minGasPrice",
          "type": "uint256"
        }
      ],
      "name": "setMinGasPrice",
      "outputs": [],
      "stateMutability": "nonpayable",
      "type": "function"
    },
    {
      "inputs": [
        {
          "internalType": "uint256",
          "name": "_protocolFee",
          "type": "uint256"
        }
      ],
      "name": "setProtocolFee",
      "outputs": [],
      "stateMutability": "nonpayable",
      "type": "function"
    },
    {
      "inputs": [
        {
          "internalType": "address",
          "name": "_forwarder",
          "type": "address"
        }
      ],
      "name": "setTrustedForwarder",
      "outputs": [],
      "stateMutability": "nonpayable",
      "type": "function"
    },
    {
      "inputs": [
        {
          "internalType": "bytes4",
          "name": "_interfaceId",
          "type": "bytes4"
        }
      ],
      "name": "supportsInterface",
      "outputs": [
        {
          "internalType": "bool",
          "name": "",
          "type": "bool"
        }
      ],
      "stateMutability": "pure",
      "type": "function"
    },
    {
      "inputs": [
        {
          "internalType": "address",
          "name": "newOwner",
          "type": "address"
        }
      ],
      "name": "transferOwnership",
      "outputs": [],
      "stateMutability": "nonpayable",
      "type": "function"
    },
    {
      "inputs": [
        {
          "internalType": "uint256",
          "name": "_index",
          "type": "uint256"
        },
        {
          "internalType": "address",
          "name": "_recipientAddress",
          "type": "address"
        },
        {
          "internalType": "bytes32",
          "name": "_recipientAddressHash",
          "type": "bytes32"
        },
        {
          "internalType": "bytes",
          "name": "_signature",
          "type": "bytes"
        }
      ],
      "name": "withdrawDeposit",
      "outputs": [
        {
          "internalType": "bool",
          "name": "",
          "type": "bool"
        }
      ],
      "stateMutability": "nonpayable",
      "type": "function"
    },
    {
      "inputs": [
        {
          "internalType": "address payable",
          "name": "payee",
          "type": "address"
        }
      ],
      "name": "withdrawProfit",
      "outputs": [],
      "stateMutability": "nonpayable",
      "type": "function"
    },
    {
      "inputs": [
        {
          "internalType": "uint256",
          "name": "_index",
          "type": "uint256"
        }
      ],
      "name": "withdrawSender",
      "outputs": [],
      "stateMutability": "nonpayable",
      "type": "function"
    }
  ],
  "bytecode": "0x6080604052600c6002556152086004556601c6bf52634000600555600060065560006007553480156200003157600080fd5b5060405162004c3e38038062004c3e83398181016040528101906200005791906200026d565b620000776200006b6200009660201b60201c565b620000b260201b60201c565b62000088816200017860201b60201c565b3a60078190555050620002e7565b6000620000ad620001bb60201b62002c891760201c565b905090565b6000600160009054906101000a900473ffffffffffffffffffffffffffffffffffffffff16905081600160006101000a81548173ffffffffffffffffffffffffffffffffffffffff021916908373ffffffffffffffffffffffffffffffffffffffff1602179055508173ffffffffffffffffffffffffffffffffffffffff168173ffffffffffffffffffffffffffffffffffffffff167f8be0079c531659141344cd1fd0a4f28419497f9722a3daafe3b4186f6b6457e060405160405180910390a35050565b806000806101000a81548173ffffffffffffffffffffffffffffffffffffffff021916908373ffffffffffffffffffffffffffffffffffffffff16021790555050565b60006014600036905010158015620001e05750620001df33620001fd60201b60201c565b5b15620001f657601436033560601c9050620001fa565b3390505b90565b60008060009054906101000a900473ffffffffffffffffffffffffffffffffffffffff1673ffffffffffffffffffffffffffffffffffffffff168273ffffffffffffffffffffffffffffffffffffffff16149050919050565b6000815190506200026781620002cd565b92915050565b6000602082840312156200028057600080fd5b6000620002908482850162000256565b91505092915050565b6000620002a682620002ad565b9050919050565b600073ffffffffffffffffffffffffffffffffffffffff82169050919050565b620002d88162000299565b8114620002e457600080fd5b50565b61494780620002f76000396000f3fe6080604052600436106101b75760003560e01c806395368d2e116100ec578063d96ed5051161008a578063f23a6e6111610064578063f23a6e6114610636578063f2fde38b14610673578063f34780111461069c578063f3e0dfc2146106cc576101b7565b8063d96ed505146105b9578063da742228146105e4578063e32bb67b1461060d576101b7565b8063bc197c81116100c6578063bc197c81146104eb578063c7c8459a14610528578063ce1b815f14610551578063ce5ac3271461057c576101b7565b806395368d2e14610452578063b02c43d01461047d578063b0e21e8a146104c0576101b7565b806363d83b4211610159578063787dce3d11610133578063787dce3d146103aa5780638da5cb5b146103d357806390ac1866146103fe5780639363a14114610427576101b7565b806363d83b421461033f57806366d16cc314610368578063715018a614610393576101b7565b806324e262411161019557806324e262411461025f57806330c7a3bb14610288578063572b6c05146102c557806357463d3514610302576101b7565b806301ffc9a7146101bc578063150b7a02146101f95780631f41288314610236575b600080fd5b3480156101c857600080fd5b506101e360048036038101906101de919061378d565b6106f7565b6040516101f09190613e39565b60405180910390f35b34801561020557600080fd5b50610220600480360381019061021b919061359f565b610899565b60405161022d9190613e99565b60405180910390f35b34801561024257600080fd5b5061025d600480360381019061025891906137b6565b610b97565b005b34801561026b57600080fd5b5061028660048036038101906102819190613481565b6111ec565b005b34801561029457600080fd5b506102af60048036038101906102aa9190613808565b6112dd565b6040516102bc9190613e39565b60405180910390f35b3480156102d157600080fd5b506102ec60048036038101906102e79190613458565b611985565b6040516102f99190613e39565b60405180910390f35b34801561030e57600080fd5b5061032960048036038101906103249190613458565b6119de565b6040516103369190614114565b60405180910390f35b34801561034b57600080fd5b50610366600480360381019061036191906137b6565b611a71565b005b34801561037457600080fd5b5061037d611a83565b60405161038a9190614114565b60405180910390f35b34801561039f57600080fd5b506103a8611a89565b005b3480156103b657600080fd5b506103d160048036038101906103cc91906137b6565b611a9d565b005b3480156103df57600080fd5b506103e8611aaf565b6040516103f59190613c2c565b60405180910390f35b34801561040a57600080fd5b50610425600480360381019061042091906137b6565b611ad9565b005b34801561043357600080fd5b5061043c611aeb565b6040516104499190614114565b60405180910390f35b34801561045e57600080fd5b50610467611af8565b6040516104749190614114565b60405180910390f35b34801561048957600080fd5b506104a4600480360381019061049f91906137b6565b611afe565b6040516104b79796959493929190613dca565b60405180910390f35b3480156104cc57600080fd5b506104d5611bbd565b6040516104e29190614114565b60405180910390f35b3480156104f757600080fd5b50610512600480360381019061050d91906134d3565b611bc3565b60405161051f9190613e99565b60405180910390f35b34801561053457600080fd5b5061054f600480360381019061054a91906136b1565b6120df565b005b34801561055d57600080fd5b5061056661212f565b6040516105739190613c2c565b60405180910390f35b34801561058857600080fd5b506105a3600480360381019061059e9190613458565b612158565b6040516105b09190614114565b60405180910390f35b3480156105c557600080fd5b506105ce612170565b6040516105db9190614114565b60405180910390f35b3480156105f057600080fd5b5061060b60048036038101906106069190613458565b612176565b005b34801561061957600080fd5b50610634600480360381019061062f91906137b6565b61218a565b005b34801561064257600080fd5b5061065d6004803603810190610658919061361f565b61219c565b60405161066a9190613e99565b60405180910390f35b34801561067f57600080fd5b5061069a60048036038101906106959190613458565b61249a565b005b6106b660048036038101906106b191906136ed565b61251e565b6040516106c39190614114565b60405180910390f35b3480156106d857600080fd5b506106e1612c83565b6040516106ee9190614114565b60405180910390f35b60007f01ffc9a7000000000000000000000000000000000000000000000000000000007bffffffffffffffffffffffffffffffffffffffffffffffffffffffff1916827bffffffffffffffffffffffffffffffffffffffffffffffffffffffff191614806107c257507f150b7a02000000000000000000000000000000000000000000000000000000007bffffffffffffffffffffffffffffffffffffffffffffffffffffffff1916827bffffffffffffffffffffffffffffffffffffffffffffffffffffffff1916145b8061082a57507f4e2312e0000000000000000000000000000000000000000000000000000000007bffffffffffffffffffffffffffffffffffffffffffffffffffffffff1916827bffffffffffffffffffffffffffffffffffffffffffffffffffffffff1916145b8061089257507f572b6c05000000000000000000000000000000000000000000000000000000007bffffffffffffffffffffffffffffffffffffffffffffffffffffffff1916827bffffffffffffffffffffffffffffffffffffffffffffffffffffffff1916145b9050919050565b60007fbe9026ad5baa968e00aac2255a31276c279344b5c00065fec9ea38e7c9d41c0883836040516108cc929190613c13565b604051809103902014156108e95763150b7a0260e01b9050610b8e565b6014838390501461092f576040517f08c379a000000000000000000000000000000000000000000000000000000000815260040161092690613f74565b60405180910390fd5b6000610939612cc0565b9050600060029050600060019050600086868101906109589190613481565b905060086040518060e001604052808373ffffffffffffffffffffffffffffffffffffffff1681526020018481526020018673ffffffffffffffffffffffffffffffffffffffff1681526020018560ff1681526020018a81526020016109bc612cc0565b73ffffffffffffffffffffffffffffffffffffffff16815260200142815250908060018154018082558091505060019003906000526020600020906006020160009091909190915060008201518160000160006101000a81548173ffffffffffffffffffffffffffffffffffffffff021916908373ffffffffffffffffffffffffffffffffffffffff1602179055506020820151816001015560408201518160020160006101000a81548173ffffffffffffffffffffffffffffffffffffffff021916908373ffffffffffffffffffffffffffffffffffffffff16021790555060608201518160020160146101000a81548160ff021916908360ff1602179055506080820151816003015560a08201518160040160006101000a81548173ffffffffffffffffffffffffffffffffffffffff021916908373ffffffffffffffffffffffffffffffffffffffff16021790555060c0820151816005015550508973ffffffffffffffffffffffffffffffffffffffff167f0ff0c92c63b7eee4d6ef05afdf24fe4ed28ea37f6cbb91962ec869e642d8a02a6001600880549050610b6491906142a7565b858786604051610b77949392919061412f565b60405180910390a263150b7a0260e01b9450505050505b95945050505050565b6008805490508110610bde576040517f08c379a0000000000000000000000000000000000000000000000000000000008152600401610bd5906140f4565b60405180910390fd5b600060088281548110610c1a577f4e487b7100000000000000000000000000000000000000000000000000000000600052603260045260246000fd5b90600052602060002090600602016040518060e00160405290816000820160009054906101000a900473ffffffffffffffffffffffffffffffffffffffff1673ffffffffffffffffffffffffffffffffffffffff1673ffffffffffffffffffffffffffffffffffffffff168152602001600182015481526020016002820160009054906101000a900473ffffffffffffffffffffffffffffffffffffffff1673ffffffffffffffffffffffffffffffffffffffff1673ffffffffffffffffffffffffffffffffffffffff1681526020016002820160149054906101000a900460ff1660ff1660ff168152602001600382015481526020016004820160009054906101000a900473ffffffffffffffffffffffffffffffffffffffff1673ffffffffffffffffffffffffffffffffffffffff1673ffffffffffffffffffffffffffffffffffffffff16815260200160058201548152505090506002548160c00151610d8491906141f7565b431015610dc6576040517f08c379a0000000000000000000000000000000000000000000000000000000008152600401610dbd90614014565b60405180910390fd5b610dce612cc0565b73ffffffffffffffffffffffffffffffffffffffff168160a0015173ffffffffffffffffffffffffffffffffffffffff1614610e3f576040517f08c379a0000000000000000000000000000000000000000000000000000000008152600401610e3690614034565b60405180910390fd5b6000816060015160ff161415610ea657610e57612cc0565b73ffffffffffffffffffffffffffffffffffffffff166108fc82602001519081150290604051600060405180830381858888f19350505050158015610ea0573d6000803e3d6000fd5b50611095565b6001816060015160ff161415610f5e576000816040015190508073ffffffffffffffffffffffffffffffffffffffff1663a9059cbb610ee3612cc0565b84602001516040518363ffffffff1660e01b8152600401610f05929190613da1565b602060405180830381600087803b158015610f1f57600080fd5b505af1158015610f33573d6000803e3d6000fd5b505050506040513d601f19601f82011682018060405250810190610f579190613764565b5050611094565b6002816060015160ff161415610ff7576000816040015190508073ffffffffffffffffffffffffffffffffffffffff166323b872dd30610f9c612cc0565b85608001516040518463ffffffff1660e01b8152600401610fbf93929190613c70565b600060405180830381600087803b158015610fd957600080fd5b505af1158015610fed573d6000803e3d6000fd5b5050505050611093565b6003816060015160ff161415611092576000816040015190508073ffffffffffffffffffffffffffffffffffffffff1663f242432a30611035612cc0565b856080015186602001516040518563ffffffff1660e01b815260040161105e9493929190613d49565b600060405180830381600087803b15801561107857600080fd5b505af115801561108c573d6000803e3d6000fd5b50505050505b5b5b5b61109d612cc0565b73ffffffffffffffffffffffffffffffffffffffff167fdd4d77fcb81062c183b4956dfcb3a37fcef2bea1fc9b861e5b2caf67fca071f7838360600151846040015185602001516040516110f4949392919061412f565b60405180910390a260088281548110611136577f4e487b7100000000000000000000000000000000000000000000000000000000600052603260045260246000fd5b9060005260206000209060060201600080820160006101000a81549073ffffffffffffffffffffffffffffffffffffffff021916905560018201600090556002820160006101000a81549073ffffffffffffffffffffffffffffffffffffffff02191690556002820160146101000a81549060ff021916905560038201600090556004820160006101000a81549073ffffffffffffffffffffffffffffffffffffffff0219169055600582016000905550505050565b6111f4612ccf565b600060065411611239576040517f08c379a000000000000000000000000000000000000000000000000000000000815260040161123090613f54565b60405180910390fd5b8073ffffffffffffffffffffffffffffffffffffffff166108fc6006549081150290604051600060405180830381858888f19350505050158015611281573d6000803e3d6000fd5b5060006006819055508073ffffffffffffffffffffffffffffffffffffffff167f9acd446c7c5d67289e9ab24bf8d274c3e60b36709aad13c9ccefec55a25c00bb6006546040516112d29190614114565b60405180910390a250565b60006008805490508510611326576040517f08c379a000000000000000000000000000000000000000000000000000000000815260040161131d906140f4565b60405180910390fd5b600060088681548110611362577f4e487b7100000000000000000000000000000000000000000000000000000000600052603260045260246000fd5b90600052602060002090600602016040518060e00160405290816000820160009054906101000a900473ffffffffffffffffffffffffffffffffffffffff1673ffffffffffffffffffffffffffffffffffffffff1673ffffffffffffffffffffffffffffffffffffffff168152602001600182015481526020016002820160009054906101000a900473ffffffffffffffffffffffffffffffffffffffff1673ffffffffffffffffffffffffffffffffffffffff1673ffffffffffffffffffffffffffffffffffffffff1681526020016002820160149054906101000a900460ff1660ff1660ff168152602001600382015481526020016004820160009054906101000a900473ffffffffffffffffffffffffffffffffffffffff1673ffffffffffffffffffffffffffffffffffffffff1673ffffffffffffffffffffffffffffffffffffffff16815260200160058201548152505090506000816020015111611501576040517f08c379a00000000000000000000000000000000000000000000000000000000081526004016114f8906140d4565b60405180910390fd5b611530856040516020016115159190613bf8565b60405160208183030381529060405280519060200120612d4d565b8414611571576040517f08c379a000000000000000000000000000000000000000000000000000000000815260040161156890614094565b60405180910390fd5b600061157d8585612d83565b9050816000015173ffffffffffffffffffffffffffffffffffffffff168173ffffffffffffffffffffffffffffffffffffffff16146115f1576040517f08c379a00000000000000000000000000000000000000000000000000000000081526004016115e890613f14565b60405180910390fd5b6000826060015160ff161415611651578573ffffffffffffffffffffffffffffffffffffffff166108fc83602001519081150290604051600060405180830381858888f1935050505015801561164b573d6000803e3d6000fd5b5061182b565b6001826060015160ff161415611702576000826040015190508073ffffffffffffffffffffffffffffffffffffffff1663a9059cbb8885602001516040518363ffffffff1660e01b81526004016116a9929190613da1565b602060405180830381600087803b1580156116c357600080fd5b505af11580156116d7573d6000803e3d6000fd5b505050506040513d601f19601f820116820180604052508101906116fb9190613764565b505061182a565b6002826060015160ff161415611794576000826040015190508073ffffffffffffffffffffffffffffffffffffffff166323b872dd308986608001516040518463ffffffff1660e01b815260040161175c93929190613c70565b600060405180830381600087803b15801561177657600080fd5b505af115801561178a573d6000803e3d6000fd5b5050505050611829565b6003826060015160ff161415611828576000826040015190508073ffffffffffffffffffffffffffffffffffffffff1663f242432a3089866080015187602001516040518563ffffffff1660e01b81526004016117f49493929190613d49565b600060405180830381600087803b15801561180e57600080fd5b505af1158015611822573d6000803e3d6000fd5b50505050505b5b5b5b8573ffffffffffffffffffffffffffffffffffffffff167fdd4d77fcb81062c183b4956dfcb3a37fcef2bea1fc9b861e5b2caf67fca071f788846060015185604001518660200151604051611883949392919061412f565b60405180910390a2600887815481106118c5577f4e487b7100000000000000000000000000000000000000000000000000000000600052603260045260246000fd5b9060005260206000209060060201600080820160006101000a81549073ffffffffffffffffffffffffffffffffffffffff021916905560018201600090556002820160006101000a81549073ffffffffffffffffffffffffffffffffffffffff02191690556002820160146101000a81549060ff021916905560038201600090556004820160006101000a81549073ffffffffffffffffffffffffffffffffffffffff021916905560058201600090555050600192505050949350505050565b60008060009054906101000a900473ffffffffffffffffffffffffffffffffffffffff1673ffffffffffffffffffffffffffffffffffffffff168273ffffffffffffffffffffffffffffffffffffffff16149050919050565b600080600360008473ffffffffffffffffffffffffffffffffffffffff1673ffffffffffffffffffffffffffffffffffffffff1681526020019081526020016000205490506000811415611a325760045490505b60003a60075411611a43573a611a47565b6007545b905060008282611a57919061424d565b905060055481611a6791906141f7565b9350505050919050565b611a79612ccf565b8060028190555050565b60065481565b611a91612ccf565b611a9b6000612d9c565b565b611aa5612ccf565b8060058190555050565b6000600160009054906101000a900473ffffffffffffffffffffffffffffffffffffffff16905090565b611ae1612ccf565b8060078190555050565b6000600880549050905090565b60045481565b60088181548110611b0e57600080fd5b90600052602060002090600602016000915090508060000160009054906101000a900473ffffffffffffffffffffffffffffffffffffffff16908060010154908060020160009054906101000a900473ffffffffffffffffffffffffffffffffffffffff16908060020160149054906101000a900460ff16908060030154908060040160009054906101000a900473ffffffffffffffffffffffffffffffffffffffff16908060050154905087565b60055481565b60007fbe9026ad5baa968e00aac2255a31276c279344b5c00065fec9ea38e7c9d41c088383604051611bf6929190613c13565b60405180910390201415611c135763bc197c8160e01b90506120d3565b601487879050611c23919061424d565b8383905014611c67576040517f08c379a0000000000000000000000000000000000000000000000000000000008152600401611c5e90613f74565b60405180910390fd5b6000611c71612cc0565b9050600060049050600080600080600090505b8c8c90508110156120c2578a8a82818110611cc8577f4e487b7100000000000000000000000000000000000000000000000000000000600052603260045260246000fd5b9050602002013592508c8c82818110611d0a577f4e487b7100000000000000000000000000000000000000000000000000000000600052603260045260246000fd5b9050602002013591506000601482611d22919061424d565b90506000601467ffffffffffffffff811115611d67577f4e487b7100000000000000000000000000000000000000000000000000000000600052604160045260246000fd5b6040519080825280601f01601f191660200182016040528015611d995781602001600182028036833780820191505090505b50905060005b6014811015611e71578b8b8285611db691906141f7565b818110611dec577f4e487b7100000000000000000000000000000000000000000000000000000000600052603260045260246000fd5b9050013560f81c60f81b828281518110611e2f577f4e487b7100000000000000000000000000000000000000000000000000000000600052603260045260246000fd5b60200101907effffffffffffffffffffffffffffffffffffffffffffffffffffffffffffff1916908160001a9053508080611e69906143b8565b915050611d9f565b5080806020019051810190611e8691906134aa565b955060086040518060e001604052808873ffffffffffffffffffffffffffffffffffffffff1681526020018781526020018a73ffffffffffffffffffffffffffffffffffffffff1681526020018960ff168152602001868152602001611eea612cc0565b73ffffffffffffffffffffffffffffffffffffffff16815260200142815250908060018154018082558091505060019003906000526020600020906006020160009091909190915060008201518160000160006101000a81548173ffffffffffffffffffffffffffffffffffffffff021916908373ffffffffffffffffffffffffffffffffffffffff1602179055506020820151816001015560408201518160020160006101000a81548173ffffffffffffffffffffffffffffffffffffffff021916908373ffffffffffffffffffffffffffffffffffffffff16021790555060608201518160020160146101000a81548160ff021916908360ff1602179055506080820151816003015560a08201518160040160006101000a81548173ffffffffffffffffffffffffffffffffffffffff021916908373ffffffffffffffffffffffffffffffffffffffff16021790555060c0820151816005015550508f73ffffffffffffffffffffffffffffffffffffffff167f0ff0c92c63b7eee4d6ef05afdf24fe4ed28ea37f6cbb91962ec869e642d8a02a600160088054905061209291906142a7565b898b896040516120a5949392919061412f565b60405180910390a2505080806120ba906143b8565b915050611c84565b5063bc197c8160e01b955050505050505b98975050505050505050565b6120e7612ccf565b80600360008473ffffffffffffffffffffffffffffffffffffffff1673ffffffffffffffffffffffffffffffffffffffff168152602001908152602001600020819055505050565b60008060009054906101000a900473ffffffffffffffffffffffffffffffffffffffff16905090565b60036020528060005260406000206000915090505481565b60075481565b61217e612ccf565b61218781612e62565b50565b612192612ccf565b8060048190555050565b60007fbe9026ad5baa968e00aac2255a31276c279344b5c00065fec9ea38e7c9d41c0883836040516121cf929190613c13565b604051809103902014156121ec5763f23a6e6160e01b9050612490565b60148383905014612232576040517f08c379a000000000000000000000000000000000000000000000000000000000815260040161222990613f74565b60405180910390fd5b600061223c612cc0565b905060006003905060008690506000868681019061225a9190613481565b905060086040518060e001604052808373ffffffffffffffffffffffffffffffffffffffff1681526020018481526020018673ffffffffffffffffffffffffffffffffffffffff1681526020018560ff1681526020018b81526020016122be612cc0565b73ffffffffffffffffffffffffffffffffffffffff16815260200142815250908060018154018082558091505060019003906000526020600020906006020160009091909190915060008201518160000160006101000a81548173ffffffffffffffffffffffffffffffffffffffff021916908373ffffffffffffffffffffffffffffffffffffffff1602179055506020820151816001015560408201518160020160006101000a81548173ffffffffffffffffffffffffffffffffffffffff021916908373ffffffffffffffffffffffffffffffffffffffff16021790555060608201518160020160146101000a81548160ff021916908360ff1602179055506080820151816003015560a08201518160040160006101000a81548173ffffffffffffffffffffffffffffffffffffffff021916908373ffffffffffffffffffffffffffffffffffffffff16021790555060c0820151816005015550508973ffffffffffffffffffffffffffffffffffffffff167f0ff0c92c63b7eee4d6ef05afdf24fe4ed28ea37f6cbb91962ec869e642d8a02a600160088054905061246691906142a7565b858786604051612479949392919061412f565b60405180910390a263f23a6e6160e01b9450505050505b9695505050505050565b6124a2612ccf565b600073ffffffffffffffffffffffffffffffffffffffff168173ffffffffffffffffffffffffffffffffffffffff161415612512576040517f08c379a000000000000000000000000000000000000000000000000000000000815260040161250990613ef4565b60405180910390fd5b61251b81612d9c565b50565b60008061252a876119de565b90508034101561256f576040517f08c379a000000000000000000000000000000000000000000000000000000000815260040161256690613fd4565b60405180910390fd5b60048660ff16106125b5576040517f08c379a00000000000000000000000000000000000000000000000000000000081526004016125ac90613ff4565b60405180910390fd5b60008660ff1614156126305780346125cd91906142a7565b945060008511612612576040517f08c379a0000000000000000000000000000000000000000000000000000000008152600401612609906140b4565b60405180910390fd5b806006600082825461262491906141f7565b92505081905550612a39565b60018660ff161415612905576000851161267f576040517f08c379a0000000000000000000000000000000000000000000000000000000008152600401612676906140b4565b60405180910390fd5b6000879050858173ffffffffffffffffffffffffffffffffffffffff166370a082316126a9612cc0565b6040518263ffffffff1660e01b81526004016126c59190613c2c565b60206040518083038186803b1580156126dd57600080fd5b505afa1580156126f1573d6000803e3d6000fd5b505050506040513d601f19601f8201168201806040525081019061271591906137df565b1015612756576040517f08c379a000000000000000000000000000000000000000000000000000000000815260040161274d90614074565b60405180910390fd5b858173ffffffffffffffffffffffffffffffffffffffff1663dd62ed3e61277b612cc0565b306040518363ffffffff1660e01b8152600401612799929190613c47565b60206040518083038186803b1580156127b157600080fd5b505afa1580156127c5573d6000803e3d6000fd5b505050506040513d601f19601f820116820180604052508101906127e991906137df565b101561282a576040517f08c379a000000000000000000000000000000000000000000000000000000000815260040161282190614054565b60405180910390fd5b8073ffffffffffffffffffffffffffffffffffffffff166323b872dd61284e612cc0565b30896040518463ffffffff1660e01b815260040161286e93929190613c70565b602060405180830381600087803b15801561288857600080fd5b505af115801561289c573d6000803e3d6000fd5b505050506040513d601f19601f820116820180604052508101906128c09190613764565b6128ff576040517f08c379a00000000000000000000000000000000000000000000000000000000081526004016128f690613f94565b60405180910390fd5b50612a1f565b60028660ff1614156129925760008790508073ffffffffffffffffffffffffffffffffffffffff1663b88d4fde61293a612cc0565b30886040518463ffffffff1660e01b815260040161295a93929190613ca7565b600060405180830381600087803b15801561297457600080fd5b505af1158015612988573d6000803e3d6000fd5b5050505050612a1e565b60038660ff161415612a1d5760008790508073ffffffffffffffffffffffffffffffffffffffff1663f242432a6129c7612cc0565b30888a6040518563ffffffff1660e01b81526004016129e99493929190613cf1565b600060405180830381600087803b158015612a0357600080fd5b505af1158015612a17573d6000803e3d6000fd5b50505050505b5b5b3460066000828254612a3191906141f7565b925050819055505b60086040518060e001604052808573ffffffffffffffffffffffffffffffffffffffff1681526020018781526020018973ffffffffffffffffffffffffffffffffffffffff1681526020018860ff168152602001868152602001612a9b612cc0565b73ffffffffffffffffffffffffffffffffffffffff16815260200142815250908060018154018082558091505060019003906000526020600020906006020160009091909190915060008201518160000160006101000a81548173ffffffffffffffffffffffffffffffffffffffff021916908373ffffffffffffffffffffffffffffffffffffffff1602179055506020820151816001015560408201518160020160006101000a81548173ffffffffffffffffffffffffffffffffffffffff021916908373ffffffffffffffffffffffffffffffffffffffff16021790555060608201518160020160146101000a81548160ff021916908360ff1602179055506080820151816003015560a08201518160040160006101000a81548173ffffffffffffffffffffffffffffffffffffffff021916908373ffffffffffffffffffffffffffffffffffffffff16021790555060c082015181600501555050612c01612cc0565b73ffffffffffffffffffffffffffffffffffffffff167f0ff0c92c63b7eee4d6ef05afdf24fe4ed28ea37f6cbb91962ec869e642d8a02a6001600880549050612c4a91906142a7565b888a89604051612c5d949392919061412f565b60405180910390a26001600880549050612c7791906142a7565b91505095945050505050565b60025481565b60006014600036905010158015612ca55750612ca433611985565b5b15612cb957601436033560601c9050612cbd565b3390505b90565b6000612cca612c89565b905090565b612cd7612cc0565b73ffffffffffffffffffffffffffffffffffffffff16612cf5611aaf565b73ffffffffffffffffffffffffffffffffffffffff1614612d4b576040517f08c379a0000000000000000000000000000000000000000000000000000000008152600401612d4290613fb4565b60405180910390fd5b565b60007f19457468657265756d205369676e6564204d6573736167653a0a33320000000060005281601c52603c6000209050919050565b600080612d908484612ea5565b90508091505092915050565b6000600160009054906101000a900473ffffffffffffffffffffffffffffffffffffffff16905081600160006101000a81548173ffffffffffffffffffffffffffffffffffffffff021916908373ffffffffffffffffffffffffffffffffffffffff1602179055508173ffffffffffffffffffffffffffffffffffffffff168173ffffffffffffffffffffffffffffffffffffffff167f8be0079c531659141344cd1fd0a4f28419497f9722a3daafe3b4186f6b6457e060405160405180910390a35050565b806000806101000a81548173ffffffffffffffffffffffffffffffffffffffff021916908373ffffffffffffffffffffffffffffffffffffffff16021790555050565b6000806000612eb48585612ecc565b91509150612ec181612f1e565b819250505092915050565b600080604183511415612f0e5760008060006020860151925060408601519150606086015160001a9050612f02878285856131bc565b94509450505050612f17565b60006002915091505b9250929050565b60006004811115612f58577f4e487b7100000000000000000000000000000000000000000000000000000000600052602160045260246000fd5b816004811115612f91577f4e487b7100000000000000000000000000000000000000000000000000000000600052602160045260246000fd5b1415612f9c576131b9565b60016004811115612fd6577f4e487b7100000000000000000000000000000000000000000000000000000000600052602160045260246000fd5b81600481111561300f577f4e487b7100000000000000000000000000000000000000000000000000000000600052602160045260246000fd5b1415613050576040517f08c379a000000000000000000000000000000000000000000000000000000000815260040161304790613eb4565b60405180910390fd5b6002600481111561308a577f4e487b7100000000000000000000000000000000000000000000000000000000600052602160045260246000fd5b8160048111156130c3577f4e487b7100000000000000000000000000000000000000000000000000000000600052602160045260246000fd5b1415613104576040517f08c379a00000000000000000000000000000000000000000000000000000000081526004016130fb90613ed4565b60405180910390fd5b6003600481111561313e577f4e487b7100000000000000000000000000000000000000000000000000000000600052602160045260246000fd5b816004811115613177577f4e487b7100000000000000000000000000000000000000000000000000000000600052602160045260246000fd5b14156131b8576040517f08c379a00000000000000000000000000000000000000000000000000000000081526004016131af90613f34565b60405180910390fd5b5b50565b6000807f7fffffffffffffffffffffffffffffff5d576e7357a4501ddfe92f46681b20a08360001c11156131f7576000600391509150613296565b60006001878787876040516000815260200160405260405161321c9493929190613e54565b6020604051602081039080840390855afa15801561323e573d6000803e3d6000fd5b505050602060405103519050600073ffffffffffffffffffffffffffffffffffffffff168173ffffffffffffffffffffffffffffffffffffffff16141561328d57600060019250925050613296565b80600092509250505b94509492505050565b60006132b26132ad84614199565b614174565b9050828152602081018484840111156132ca57600080fd5b6132d5848285614378565b509392505050565b6000813590506132ec81614870565b92915050565b60008135905061330181614887565b92915050565b60008151905061331681614887565b92915050565b60008083601f84011261332e57600080fd5b8235905067ffffffffffffffff81111561334757600080fd5b60208301915083602082028301111561335f57600080fd5b9250929050565b6000815190506133758161489e565b92915050565b60008135905061338a816148b5565b92915050565b60008135905061339f816148cc565b92915050565b60008083601f8401126133b757600080fd5b8235905067ffffffffffffffff8111156133d057600080fd5b6020830191508360018202830111156133e857600080fd5b9250929050565b600082601f83011261340057600080fd5b813561341084826020860161329f565b91505092915050565b600081359050613428816148e3565b92915050565b60008151905061343d816148e3565b92915050565b600081359050613452816148fa565b92915050565b60006020828403121561346a57600080fd5b6000613478848285016132dd565b91505092915050565b60006020828403121561349357600080fd5b60006134a1848285016132f2565b91505092915050565b6000602082840312156134bc57600080fd5b60006134ca84828501613307565b91505092915050565b60008060008060008060008060a0898b0312156134ef57600080fd5b60006134fd8b828c016132dd565b985050602061350e8b828c016132dd565b975050604089013567ffffffffffffffff81111561352b57600080fd5b6135378b828c0161331c565b9650965050606089013567ffffffffffffffff81111561355657600080fd5b6135628b828c0161331c565b9450945050608089013567ffffffffffffffff81111561358157600080fd5b61358d8b828c016133a5565b92509250509295985092959890939650565b6000806000806000608086880312156135b757600080fd5b60006135c5888289016132dd565b95505060206135d6888289016132dd565b94505060406135e788828901613419565b935050606086013567ffffffffffffffff81111561360457600080fd5b613610888289016133a5565b92509250509295509295909350565b60008060008060008060a0878903121561363857600080fd5b600061364689828a016132dd565b965050602061365789828a016132dd565b955050604061366889828a01613419565b945050606061367989828a01613419565b935050608087013567ffffffffffffffff81111561369657600080fd5b6136a289828a016133a5565b92509250509295509295509295565b600080604083850312156136c457600080fd5b60006136d2858286016132dd565b92505060206136e385828601613419565b9150509250929050565b600080600080600060a0868803121561370557600080fd5b6000613713888289016132dd565b955050602061372488828901613443565b945050604061373588828901613419565b935050606061374688828901613419565b9250506080613757888289016132dd565b9150509295509295909350565b60006020828403121561377657600080fd5b600061378484828501613366565b91505092915050565b60006020828403121561379f57600080fd5b60006137ad84828501613390565b91505092915050565b6000602082840312156137c857600080fd5b60006137d684828501613419565b91505092915050565b6000602082840312156137f157600080fd5b60006137ff8482850161342e565b91505092915050565b6000806000806080858703121561381e57600080fd5b600061382c87828801613419565b945050602061383d878288016132dd565b935050604061384e8782880161337b565b925050606085013567ffffffffffffffff81111561386b57600080fd5b613877878288016133ef565b91505092959194509250565b61388c816142db565b82525050565b6138a361389e826142db565b614401565b82525050565b6138b2816142ff565b82525050565b6138c18161430b565b82525050565b6138d081614315565b82525050565b60006138e283856141db565b93506138ef838584614378565b82840190509392505050565b60006139086018836141e6565b9150613913826144a1565b602082019050919050565b600061392b601f836141e6565b9150613936826144ca565b602082019050919050565b600061394e6026836141e6565b9150613959826144f3565b604082019050919050565b6000613971600f836141e6565b915061397c82614542565b602082019050919050565b60006139946022836141e6565b915061399f8261456b565b604082019050919050565b60006139b76009836141e6565b91506139c2826145ba565b602082019050919050565b60006139da6010836141e6565b91506139e5826145e3565b602082019050919050565b60006139fd602a836141e6565b9150613a088261460c565b604082019050919050565b6000613a206020836141e6565b9150613a2b8261465b565b602082019050919050565b6000613a436017836141e6565b9150613a4e82614684565b602082019050919050565b6000613a666015836141e6565b9150613a71826146ad565b602082019050919050565b6000613a89602e836141e6565b9150613a94826146d6565b604082019050919050565b6000613aac6011836141ca565b9150613ab782614725565b602082019050919050565b6000613acf601a836141e6565b9150613ada8261474e565b602082019050919050565b6000613af26000836141ca565b9150613afd82614777565b600082019050919050565b6000613b156016836141e6565b9150613b208261477a565b602082019050919050565b6000613b38601a836141e6565b9150613b43826147a3565b602082019050919050565b6000613b5b6013836141e6565b9150613b66826147cc565b602082019050919050565b6000613b7e601b836141e6565b9150613b89826147f5565b602082019050919050565b6000613ba16019836141e6565b9150613bac8261481e565b602082019050919050565b6000613bc4601c836141e6565b9150613bcf82614847565b602082019050919050565b613be381614361565b82525050565b613bf28161436b565b82525050565b6000613c048284613892565b60148201915081905092915050565b6000613c208284866138d6565b91508190509392505050565b6000602082019050613c416000830184613883565b92915050565b6000604082019050613c5c6000830185613883565b613c696020830184613883565b9392505050565b6000606082019050613c856000830186613883565b613c926020830185613883565b613c9f6040830184613bda565b949350505050565b6000608082019050613cbc6000830186613883565b613cc96020830185613883565b613cd66040830184613bda565b8181036060830152613ce781613a9f565b9050949350505050565b600060a082019050613d066000830187613883565b613d136020830186613883565b613d206040830185613bda565b613d2d6060830184613bda565b8181036080830152613d3e81613a9f565b905095945050505050565b600060a082019050613d5e6000830187613883565b613d6b6020830186613883565b613d786040830185613bda565b613d856060830184613bda565b8181036080830152613d9681613ae5565b905095945050505050565b6000604082019050613db66000830185613883565b613dc36020830184613bda565b9392505050565b600060e082019050613ddf600083018a613883565b613dec6020830189613bda565b613df96040830188613883565b613e066060830187613be9565b613e136080830186613bda565b613e2060a0830185613883565b613e2d60c0830184613bda565b98975050505050505050565b6000602082019050613e4e60008301846138a9565b92915050565b6000608082019050613e6960008301876138b8565b613e766020830186613be9565b613e8360408301856138b8565b613e9060608301846138b8565b95945050505050565b6000602082019050613eae60008301846138c7565b92915050565b60006020820190508181036000830152613ecd816138fb565b9050919050565b60006020820190508181036000830152613eed8161391e565b9050919050565b60006020820190508181036000830152613f0d81613941565b9050919050565b60006020820190508181036000830152613f2d81613964565b9050919050565b60006020820190508181036000830152613f4d81613987565b9050919050565b60006020820190508181036000830152613f6d816139aa565b9050919050565b60006020820190508181036000830152613f8d816139cd565b9050919050565b60006020820190508181036000830152613fad816139f0565b9050919050565b60006020820190508181036000830152613fcd81613a13565b9050919050565b60006020820190508181036000830152613fed81613a36565b9050919050565b6000602082019050818103600083015261400d81613a59565b9050919050565b6000602082019050818103600083015261402d81613a7c565b9050919050565b6000602082019050818103600083015261404d81613ac2565b9050919050565b6000602082019050818103600083015261406d81613b08565b9050919050565b6000602082019050818103600083015261408d81613b2b565b9050919050565b600060208201905081810360008301526140ad81613b4e565b9050919050565b600060208201905081810360008301526140cd81613b71565b9050919050565b600060208201905081810360008301526140ed81613b94565b9050919050565b6000602082019050818103600083015261410d81613bb7565b9050919050565b60006020820190506141296000830184613bda565b92915050565b60006080820190506141446000830187613bda565b6141516020830186613be9565b61415e6040830185613883565b61416b6060830184613bda565b95945050505050565b600061417e61418f565b905061418a8282614387565b919050565b6000604051905090565b600067ffffffffffffffff8211156141b4576141b3614454565b5b6141bd82614483565b9050602081019050919050565b600082825260208201905092915050565b600081905092915050565b600082825260208201905092915050565b600061420282614361565b915061420d83614361565b9250827fffffffffffffffffffffffffffffffffffffffffffffffffffffffffffffffff0382111561424257614241614425565b5b828201905092915050565b600061425882614361565b915061426383614361565b9250817fffffffffffffffffffffffffffffffffffffffffffffffffffffffffffffffff048311821515161561429c5761429b614425565b5b828202905092915050565b60006142b282614361565b91506142bd83614361565b9250828210156142d0576142cf614425565b5b828203905092915050565b60006142e682614341565b9050919050565b60006142f882614341565b9050919050565b60008115159050919050565b6000819050919050565b60007fffffffff0000000000000000000000000000000000000000000000000000000082169050919050565b600073ffffffffffffffffffffffffffffffffffffffff82169050919050565b6000819050919050565b600060ff82169050919050565b82818337600083830152505050565b61439082614483565b810181811067ffffffffffffffff821117156143af576143ae614454565b5b80604052505050565b60006143c382614361565b91507fffffffffffffffffffffffffffffffffffffffffffffffffffffffffffffffff8214156143f6576143f5614425565b5b600182019050919050565b600061440c82614413565b9050919050565b600061441e82614494565b9050919050565b7f4e487b7100000000000000000000000000000000000000000000000000000000600052601160045260246000fd5b7f4e487b7100000000000000000000000000000000000000000000000000000000600052604160045260246000fd5b6000601f19601f8301169050919050565b60008160601b9050919050565b7f45434453413a20696e76616c6964207369676e61747572650000000000000000600082015250565b7f45434453413a20696e76616c6964207369676e6174757265206c656e67746800600082015250565b7f4f776e61626c653a206e6577206f776e657220697320746865207a65726f206160008201527f6464726573730000000000000000000000000000000000000000000000000000602082015250565b7f57524f4e47205349474e41545552450000000000000000000000000000000000600082015250565b7f45434453413a20696e76616c6964207369676e6174757265202773272076616c60008201527f7565000000000000000000000000000000000000000000000000000000000000602082015250565b7f4e6f2070726f6669740000000000000000000000000000000000000000000000600082015250565b7f494e56414c49442043414c4c4441544100000000000000000000000000000000600082015250565b7f5452414e53464552204641494c45442e20434845434b20414c4c4f57414e434560008201527f20262042414c414e434500000000000000000000000000000000000000000000602082015250565b7f4f776e61626c653a2063616c6c6572206973206e6f7420746865206f776e6572600082015250565b7f4e4f5420454e4f5547482050524f544f434f4c20464545000000000000000000600082015250565b7f494e56414c494420434f4e545241435420545950450000000000000000000000600082015250565b7f53454e444552204d555354205741495420414654455220534f4d4520424c4f4360008201527f4b5320544f205749544844524157000000000000000000000000000000000000602082015250565b7f496e7465726e616c207472616e73666572000000000000000000000000000000600082015250565b7f4d5553542042452053454e44455220544f205749544844524157000000000000600082015250565b50565b7f494e53554646494349454e5420414c4c4f57414e434500000000000000000000600082015250565b7f494e53554646494349454e5420544f4b454e2042414c414e4345000000000000600082015250565b7f48415348455320444f204e4f54204d4154434800000000000000000000000000600082015250565b7f594f552043414e204e4f542053454e44205a45524f20544f4b454e0000000000600082015250565b7f4445504f53495420414c52454144592057495448445241574e00000000000000600082015250565b7f4445504f53495420494e44455820444f4553204e4f5420455849535400000000600082015250565b614879816142db565b811461488457600080fd5b50565b614890816142ed565b811461489b57600080fd5b50565b6148a7816142ff565b81146148b257600080fd5b50565b6148be8161430b565b81146148c957600080fd5b50565b6148d581614315565b81146148e057600080fd5b50565b6148ec81614361565b81146148f757600080fd5b50565b6149038161436b565b811461490e57600080fd5b5056fea2646970667358221220e60ddc6ab163de9df6f00eac077a9547f285ba9eddc3b55354d1ae2224798faf64736f6c63430008020033",
  "linkReferences": {},
  "deployedLinkReferences": {}
}