{
  "_format": "hh-sol-artifact-1",
  "contractName": "Frens",
  "sourceName": "contracts/Frens.sol",
  "abi": [
    {
      "inputs": [
        {
          "internalType": "address",
          "name": "forwarder",
          "type": "address"
        }
      ],
      "stateMutability": "nonpayable",
      "type": "constructor"
    },
    {
      "anonymous": false,
      "inputs": [
        {
          "indexed": false,
          "internalType": "uint256",
          "name": "_index",
          "type": "uint256"
        },
        {
          "indexed": false,
          "internalType": "uint8",
          "name": "_contractType",
          "type": "uint8"
        },
        {
          "indexed": false,
          "internalType": "uint256",
          "name": "_amount",
          "type": "uint256"
        },
        {
          "indexed": true,
          "internalType": "address",
          "name": "_senderAddress",
          "type": "address"
        }
      ],
      "name": "DepositEvent",
      "type": "event"
    },
    {
      "anonymous": false,
      "inputs": [
        {
          "indexed": true,
          "internalType": "address",
          "name": "previousOwner",
          "type": "address"
        },
        {
          "indexed": true,
          "internalType": "address",
          "name": "newOwner",
          "type": "address"
        }
      ],
      "name": "OwnershipTransferred",
      "type": "event"
    },
    {
      "anonymous": false,
      "inputs": [
        {
          "indexed": false,
          "internalType": "uint256",
          "name": "_index",
          "type": "uint256"
        },
        {
          "indexed": false,
          "internalType": "uint8",
          "name": "_contractType",
          "type": "uint8"
        },
        {
          "indexed": false,
          "internalType": "uint256",
          "name": "_amount",
          "type": "uint256"
        },
        {
          "indexed": true,
          "internalType": "address",
          "name": "_recipientAddress",
          "type": "address"
        }
      ],
      "name": "WithdrawEvent",
      "type": "event"
    },
    {
      "anonymous": false,
      "inputs": [
        {
          "indexed": true,
          "internalType": "address",
          "name": "payee",
          "type": "address"
        },
        {
          "indexed": false,
          "internalType": "uint256",
          "name": "weiAmount",
          "type": "uint256"
        }
      ],
      "name": "WithdrawnProfit",
      "type": "event"
    },
    {
      "inputs": [],
      "name": "defaultGasLimit",
      "outputs": [
        {
          "internalType": "uint256",
          "name": "",
          "type": "uint256"
        }
      ],
      "stateMutability": "view",
      "type": "function"
    },
    {
      "inputs": [
        {
          "internalType": "address",
          "name": "_token",
          "type": "address"
        }
      ],
      "name": "estimateFee",
      "outputs": [
        {
          "internalType": "uint256",
          "name": "",
          "type": "uint256"
        }
      ],
      "stateMutability": "view",
      "type": "function"
    },
    {
      "inputs": [
        {
          "internalType": "address",
          "name": "",
          "type": "address"
        }
      ],
      "name": "gasLimits",
      "outputs": [
        {
          "internalType": "uint256",
          "name": "",
          "type": "uint256"
        }
      ],
      "stateMutability": "view",
      "type": "function"
    },
    {
      "inputs": [],
      "name": "getDepositCount",
      "outputs": [
        {
          "internalType": "uint256",
          "name": "",
          "type": "uint256"
        }
      ],
      "stateMutability": "view",
      "type": "function"
    },
    {
      "inputs": [],
      "name": "getTrustedForwarder",
      "outputs": [
        {
          "internalType": "address",
          "name": "forwarder",
          "type": "address"
        }
      ],
      "stateMutability": "view",
      "type": "function"
    },
    {
      "inputs": [
        {
          "internalType": "address",
          "name": "forwarder",
          "type": "address"
        }
      ],
      "name": "isTrustedForwarder",
      "outputs": [
        {
          "internalType": "bool",
          "name": "",
          "type": "bool"
        }
      ],
      "stateMutability": "view",
      "type": "function"
    },
    {
      "inputs": [],
      "name": "lockBlocks",
      "outputs": [
        {
          "internalType": "uint256",
          "name": "",
          "type": "uint256"
        }
      ],
      "stateMutability": "view",
      "type": "function"
    },
    {
      "inputs": [
        {
          "internalType": "address",
          "name": "_tokenAddress",
          "type": "address"
        },
        {
          "internalType": "uint8",
          "name": "_contractType",
          "type": "uint8"
        },
        {
          "internalType": "uint256",
          "name": "_amount",
          "type": "uint256"
        },
        {
          "internalType": "uint256",
          "name": "_tokenId",
          "type": "uint256"
        },
        {
          "internalType": "address",
          "name": "_pubKey",
          "type": "address"
        }
      ],
      "name": "makeDeposit",
      "outputs": [
        {
          "internalType": "uint256",
          "name": "",
          "type": "uint256"
        }
      ],
      "stateMutability": "payable",
      "type": "function"
    },
    {
      "inputs": [],
      "name": "minGasPrice",
      "outputs": [
        {
          "internalType": "uint256",
          "name": "",
          "type": "uint256"
        }
      ],
      "stateMutability": "view",
      "type": "function"
    },
    {
      "inputs": [
        {
          "internalType": "address",
          "name": "_operator",
          "type": "address"
        },
        {
          "internalType": "address",
          "name": "_from",
          "type": "address"
        },
        {
          "internalType": "uint256[]",
          "name": "_ids",
          "type": "uint256[]"
        },
        {
          "internalType": "uint256[]",
          "name": "_values",
          "type": "uint256[]"
        },
        {
          "internalType": "bytes",
          "name": "_data",
          "type": "bytes"
        }
      ],
      "name": "onERC1155BatchReceived",
      "outputs": [
        {
          "internalType": "bytes4",
          "name": "",
          "type": "bytes4"
        }
      ],
      "stateMutability": "nonpayable",
      "type": "function"
    },
    {
      "inputs": [
        {
          "internalType": "address",
          "name": "_operator",
          "type": "address"
        },
        {
          "internalType": "address",
          "name": "_from",
          "type": "address"
        },
        {
          "internalType": "uint256",
          "name": "_tokenId",
          "type": "uint256"
        },
        {
          "internalType": "uint256",
          "name": "_value",
          "type": "uint256"
        },
        {
          "internalType": "bytes",
          "name": "_data",
          "type": "bytes"
        }
      ],
      "name": "onERC1155Received",
      "outputs": [
        {
          "internalType": "bytes4",
          "name": "",
          "type": "bytes4"
        }
      ],
      "stateMutability": "nonpayable",
      "type": "function"
    },
    {
      "inputs": [
        {
          "internalType": "address",
          "name": "_operator",
          "type": "address"
        },
        {
          "internalType": "address",
          "name": "_from",
          "type": "address"
        },
        {
          "internalType": "uint256",
          "name": "_tokenId",
          "type": "uint256"
        },
        {
          "internalType": "bytes",
          "name": "_data",
          "type": "bytes"
        }
      ],
      "name": "onERC721Received",
      "outputs": [
        {
          "internalType": "bytes4",
          "name": "",
          "type": "bytes4"
        }
      ],
      "stateMutability": "nonpayable",
      "type": "function"
    },
    {
      "inputs": [],
      "name": "owner",
      "outputs": [
        {
          "internalType": "address",
          "name": "",
          "type": "address"
        }
      ],
      "stateMutability": "view",
      "type": "function"
    },
    {
      "inputs": [],
      "name": "profit",
      "outputs": [
        {
          "internalType": "uint256",
          "name": "",
          "type": "uint256"
        }
      ],
      "stateMutability": "view",
      "type": "function"
    },
    {
      "inputs": [],
      "name": "protocolFee",
      "outputs": [
        {
          "internalType": "uint256",
          "name": "",
          "type": "uint256"
        }
      ],
      "stateMutability": "view",
      "type": "function"
    },
    {
      "inputs": [],
      "name": "renounceOwnership",
      "outputs": [],
      "stateMutability": "nonpayable",
      "type": "function"
    },
    {
      "inputs": [
        {
          "internalType": "uint256",
          "name": "_gasLimit",
          "type": "uint256"
        }
      ],
      "name": "setDefaultGasLimit",
      "outputs": [],
      "stateMutability": "nonpayable",
      "type": "function"
    },
    {
      "inputs": [
        {
          "internalType": "address",
          "name": "_token",
          "type": "address"
        },
        {
          "internalType": "uint256",
          "name": "_gasLimit",
          "type": "uint256"
        }
      ],
      "name": "setGasLimit",
      "outputs": [],
      "stateMutability": "nonpayable",
      "type": "function"
    },
    {
      "inputs": [
        {
          "internalType": "uint256",
          "name": "_lockBlocks",
          "type": "uint256"
        }
      ],
      "name": "setLockBlocks",
      "outputs": [],
      "stateMutability": "nonpayable",
      "type": "function"
    },
    {
      "inputs": [
        {
          "internalType": "uint256",
          "name": "_minGasPrice",
          "type": "uint256"
        }
      ],
      "name": "setMinGasPrice",
      "outputs": [],
      "stateMutability": "nonpayable",
      "type": "function"
    },
    {
      "inputs": [
        {
          "internalType": "uint256",
          "name": "_protocolFee",
          "type": "uint256"
        }
      ],
      "name": "setProtocolFee",
      "outputs": [],
      "stateMutability": "nonpayable",
      "type": "function"
    },
    {
      "inputs": [
        {
          "internalType": "address",
          "name": "_forwarder",
          "type": "address"
        }
      ],
      "name": "setTrustedForwarder",
      "outputs": [],
      "stateMutability": "nonpayable",
      "type": "function"
    },
    {
      "inputs": [
        {
          "internalType": "bytes4",
          "name": "_interfaceId",
          "type": "bytes4"
        }
      ],
      "name": "supportsInterface",
      "outputs": [
        {
          "internalType": "bool",
          "name": "",
          "type": "bool"
        }
      ],
      "stateMutability": "pure",
      "type": "function"
    },
    {
      "inputs": [
        {
          "internalType": "address",
          "name": "newOwner",
          "type": "address"
        }
      ],
      "name": "transferOwnership",
      "outputs": [],
      "stateMutability": "nonpayable",
      "type": "function"
    },
    {
      "inputs": [
        {
          "internalType": "uint256",
          "name": "_index",
          "type": "uint256"
        },
        {
          "internalType": "address",
          "name": "_recipientAddress",
          "type": "address"
        },
        {
          "internalType": "bytes32",
          "name": "_recipientAddressHash",
          "type": "bytes32"
        },
        {
          "internalType": "bytes",
          "name": "_signature",
          "type": "bytes"
        }
      ],
      "name": "withdrawDeposit",
      "outputs": [
        {
          "internalType": "bool",
          "name": "",
          "type": "bool"
        }
      ],
      "stateMutability": "nonpayable",
      "type": "function"
    },
    {
      "inputs": [
        {
          "internalType": "address payable",
          "name": "payee",
          "type": "address"
        }
      ],
      "name": "withdrawProfit",
      "outputs": [],
      "stateMutability": "nonpayable",
      "type": "function"
    },
    {
      "inputs": [
        {
          "internalType": "uint256",
          "name": "_index",
          "type": "uint256"
        }
      ],
      "name": "withdrawSender",
      "outputs": [],
      "stateMutability": "nonpayable",
      "type": "function"
    }
  ],
  "bytecode": "0x6080604052600c6002556152086004556601c6bf52634000600555600060065560006007553480156200003157600080fd5b50604051620050d5380380620050d583398181016040528101906200005791906200026d565b620000776200006b6200009660201b60201c565b620000b260201b60201c565b62000088816200017860201b60201c565b3a60078190555050620002e7565b6000620000ad620001bb60201b620032091760201c565b905090565b6000600160009054906101000a900473ffffffffffffffffffffffffffffffffffffffff16905081600160006101000a81548173ffffffffffffffffffffffffffffffffffffffff021916908373ffffffffffffffffffffffffffffffffffffffff1602179055508173ffffffffffffffffffffffffffffffffffffffff168173ffffffffffffffffffffffffffffffffffffffff167f8be0079c531659141344cd1fd0a4f28419497f9722a3daafe3b4186f6b6457e060405160405180910390a35050565b806000806101000a81548173ffffffffffffffffffffffffffffffffffffffff021916908373ffffffffffffffffffffffffffffffffffffffff16021790555050565b60006014600036905010158015620001e05750620001df33620001fd60201b60201c565b5b15620001f657601436033560601c9050620001fa565b3390505b90565b60008060009054906101000a900473ffffffffffffffffffffffffffffffffffffffff1673ffffffffffffffffffffffffffffffffffffffff168273ffffffffffffffffffffffffffffffffffffffff16149050919050565b6000815190506200026781620002cd565b92915050565b6000602082840312156200028057600080fd5b6000620002908482850162000256565b91505092915050565b6000620002a682620002ad565b9050919050565b600073ffffffffffffffffffffffffffffffffffffffff82169050919050565b620002d88162000299565b8114620002e457600080fd5b50565b614dde80620002f76000396000f3fe60806040526004361061019c5760003560e01c80639363a141116100ec578063d96ed5051161008a578063f23a6e6111610064578063f23a6e61146105d8578063f2fde38b14610615578063f34780111461063e578063f3e0dfc21461066e5761019c565b8063d96ed5051461055b578063da74222814610586578063e32bb67b146105af5761019c565b8063bc197c81116100c6578063bc197c811461048d578063c7c8459a146104ca578063ce1b815f146104f3578063ce5ac3271461051e5761019c565b80639363a1411461040c57806395368d2e14610437578063b0e21e8a146104625761019c565b806357463d3511610159578063715018a611610133578063715018a614610378578063787dce3d1461038f5780638da5cb5b146103b857806390ac1866146103e35761019c565b806357463d35146102e757806363d83b421461032457806366d16cc31461034d5761019c565b806301ffc9a7146101a1578063150b7a02146101de5780631f4128831461021b57806324e262411461024457806330c7a3bb1461026d578063572b6c05146102aa575b600080fd5b3480156101ad57600080fd5b506101c860048036038101906101c39190613d0d565b610699565b6040516101d59190614327565b60405180910390f35b3480156101ea57600080fd5b5061020560048036038101906102009190613b1f565b61083b565b6040516102129190614387565b60405180910390f35b34801561022757600080fd5b50610242600480360381019061023d9190613d36565b610b37565b005b34801561025057600080fd5b5061026b60048036038101906102669190613a01565b611522565b005b34801561027957600080fd5b50610294600480360381019061028f9190613d88565b611613565b6040516102a19190614327565b60405180910390f35b3480156102b657600080fd5b506102d160048036038101906102cc91906139d8565b612051565b6040516102de9190614327565b60405180910390f35b3480156102f357600080fd5b5061030e600480360381019061030991906139d8565b6120aa565b60405161031b91906145e2565b60405180910390f35b34801561033057600080fd5b5061034b60048036038101906103469190613d36565b61213d565b005b34801561035957600080fd5b5061036261214f565b60405161036f91906145e2565b60405180910390f35b34801561038457600080fd5b5061038d612155565b005b34801561039b57600080fd5b506103b660048036038101906103b19190613d36565b612169565b005b3480156103c457600080fd5b506103cd61217b565b6040516103da9190614189565b60405180910390f35b3480156103ef57600080fd5b5061040a60048036038101906104059190613d36565b6121a5565b005b34801561041857600080fd5b506104216121b7565b60405161042e91906145e2565b60405180910390f35b34801561044357600080fd5b5061044c6121c4565b60405161045991906145e2565b60405180910390f35b34801561046e57600080fd5b506104776121ca565b60405161048491906145e2565b60405180910390f35b34801561049957600080fd5b506104b460048036038101906104af9190613a53565b6121d0565b6040516104c19190614387565b60405180910390f35b3480156104d657600080fd5b506104f160048036038101906104ec9190613c31565b6126ea565b005b3480156104ff57600080fd5b5061050861273a565b6040516105159190614189565b60405180910390f35b34801561052a57600080fd5b50610545600480360381019061054091906139d8565b612763565b60405161055291906145e2565b60405180910390f35b34801561056757600080fd5b5061057061277b565b60405161057d91906145e2565b60405180910390f35b34801561059257600080fd5b506105ad60048036038101906105a891906139d8565b612781565b005b3480156105bb57600080fd5b506105d660048036038101906105d19190613d36565b612795565b005b3480156105e457600080fd5b506105ff60048036038101906105fa9190613b9f565b6127a7565b60405161060c9190614387565b60405180910390f35b34801561062157600080fd5b5061063c600480360381019061063791906139d8565b612aa3565b005b61065860048036038101906106539190613c6d565b612b27565b60405161066591906145e2565b60405180910390f35b34801561067a57600080fd5b50610683613203565b60405161069091906145e2565b60405180910390f35b60007f01ffc9a7000000000000000000000000000000000000000000000000000000007bffffffffffffffffffffffffffffffffffffffffffffffffffffffff1916827bffffffffffffffffffffffffffffffffffffffffffffffffffffffff1916148061076457507f150b7a02000000000000000000000000000000000000000000000000000000007bffffffffffffffffffffffffffffffffffffffffffffffffffffffff1916827bffffffffffffffffffffffffffffffffffffffffffffffffffffffff1916145b806107cc57507f4e2312e0000000000000000000000000000000000000000000000000000000007bffffffffffffffffffffffffffffffffffffffffffffffffffffffff1916827bffffffffffffffffffffffffffffffffffffffffffffffffffffffff1916145b8061083457507f572b6c05000000000000000000000000000000000000000000000000000000007bffffffffffffffffffffffffffffffffffffffffffffffffffffffff1916827bffffffffffffffffffffffffffffffffffffffffffffffffffffffff1916145b9050919050565b60007fbe9026ad5baa968e00aac2255a31276c279344b5c00065fec9ea38e7c9d41c08838360405161086e929190614170565b6040518091039020141561088b5763150b7a0260e01b9050610b2e565b601483839050146108d1576040517f08c379a00000000000000000000000000000000000000000000000000000000081526004016108c890614482565b60405180910390fd5b60006108db613240565b9050600060029050600060019050600086868101906108fa9190613a01565b905060086040518060e001604052808373ffffffffffffffffffffffffffffffffffffffff1681526020018481526020018673ffffffffffffffffffffffffffffffffffffffff1681526020018560ff1681526020018a815260200161095e613240565b73ffffffffffffffffffffffffffffffffffffffff16815260200142815250908060018154018082558091505060019003906000526020600020906006020160009091909190915060008201518160000160006101000a81548173ffffffffffffffffffffffffffffffffffffffff021916908373ffffffffffffffffffffffffffffffffffffffff1602179055506020820151816001015560408201518160020160006101000a81548173ffffffffffffffffffffffffffffffffffffffff021916908373ffffffffffffffffffffffffffffffffffffffff16021790555060608201518160020160146101000a81548160ff021916908360ff1602179055506080820151816003015560a08201518160040160006101000a81548173ffffffffffffffffffffffffffffffffffffffff021916908373ffffffffffffffffffffffffffffffffffffffff16021790555060c0820151816005015550508973ffffffffffffffffffffffffffffffffffffffff167f6cfb6f205ed755f233c83bfe7f03aee5e1d993139ce47aead6d4fe25f7ec30666001600880549050610b069190614767565b8585604051610b17939291906145fd565b60405180910390a263150b7a0260e01b9450505050505b95945050505050565b6008805490508110610b7e576040517f08c379a0000000000000000000000000000000000000000000000000000000008152600401610b75906145c2565b60405180910390fd5b60025460088281548110610bbb577f4e487b7100000000000000000000000000000000000000000000000000000000600052603260045260246000fd5b906000526020600020906006020160050154610bd791906146b7565b431015610c19576040517f08c379a0000000000000000000000000000000000000000000000000000000008152600401610c1090614502565b60405180910390fd5b610c21613240565b73ffffffffffffffffffffffffffffffffffffffff1660088281548110610c71577f4e487b7100000000000000000000000000000000000000000000000000000000600052603260045260246000fd5b906000526020600020906006020160040160009054906101000a900473ffffffffffffffffffffffffffffffffffffffff1673ffffffffffffffffffffffffffffffffffffffff1614610cf9576040517f08c379a0000000000000000000000000000000000000000000000000000000008152600401610cf090614522565b60405180910390fd5b600060088281548110610d35577f4e487b7100000000000000000000000000000000000000000000000000000000600052603260045260246000fd5b906000526020600020906006020160020160149054906101000a900460ff1660ff161415610dfb57610d65613240565b73ffffffffffffffffffffffffffffffffffffffff166108fc60088381548110610db8577f4e487b7100000000000000000000000000000000000000000000000000000000600052603260045260246000fd5b9060005260206000209060060201600101549081150290604051600060405180830381858888f19350505050158015610df5573d6000803e3d6000fd5b50611337565b600160088281548110610e37577f4e487b7100000000000000000000000000000000000000000000000000000000600052603260045260246000fd5b906000526020600020906006020160020160149054906101000a900460ff1660ff161415610fb557600060088281548110610e9b577f4e487b7100000000000000000000000000000000000000000000000000000000600052603260045260246000fd5b906000526020600020906006020160020160009054906101000a900473ffffffffffffffffffffffffffffffffffffffff1690508073ffffffffffffffffffffffffffffffffffffffff1663a9059cbb610ef3613240565b60088581548110610f2d577f4e487b7100000000000000000000000000000000000000000000000000000000600052603260045260246000fd5b9060005260206000209060060201600101546040518363ffffffff1660e01b8152600401610f5c9291906142fe565b602060405180830381600087803b158015610f7657600080fd5b505af1158015610f8a573d6000803e3d6000fd5b505050506040513d601f19601f82011682018060405250810190610fae9190613ce4565b5050611336565b600260088281548110610ff1577f4e487b7100000000000000000000000000000000000000000000000000000000600052603260045260246000fd5b906000526020600020906006020160020160149054906101000a900460ff1660ff16141561115057600060088281548110611055577f4e487b7100000000000000000000000000000000000000000000000000000000600052603260045260246000fd5b906000526020600020906006020160020160009054906101000a900473ffffffffffffffffffffffffffffffffffffffff1690508073ffffffffffffffffffffffffffffffffffffffff166323b872dd306110ae613240565b600886815481106110e8577f4e487b7100000000000000000000000000000000000000000000000000000000600052603260045260246000fd5b9060005260206000209060060201600301546040518463ffffffff1660e01b8152600401611118939291906141cd565b600060405180830381600087803b15801561113257600080fd5b505af1158015611146573d6000803e3d6000fd5b5050505050611335565b60036008828154811061118c577f4e487b7100000000000000000000000000000000000000000000000000000000600052603260045260246000fd5b906000526020600020906006020160020160149054906101000a900460ff1660ff161415611334576000600882815481106111f0577f4e487b7100000000000000000000000000000000000000000000000000000000600052603260045260246000fd5b906000526020600020906006020160020160009054906101000a900473ffffffffffffffffffffffffffffffffffffffff1690508073ffffffffffffffffffffffffffffffffffffffff1663f242432a30611249613240565b60088681548110611283577f4e487b7100000000000000000000000000000000000000000000000000000000600052603260045260246000fd5b906000526020600020906006020160030154600887815481106112cf577f4e487b7100000000000000000000000000000000000000000000000000000000600052603260045260246000fd5b9060005260206000209060060201600101546040518563ffffffff1660e01b815260040161130094939291906142a6565b600060405180830381600087803b15801561131a57600080fd5b505af115801561132e573d6000803e3d6000fd5b50505050505b5b5b5b61133f613240565b73ffffffffffffffffffffffffffffffffffffffff167f235d68982221ffd040e3bd99e15b4685603afab51b957b8745963fe82cc6d4d682600884815481106113b1577f4e487b7100000000000000000000000000000000000000000000000000000000600052603260045260246000fd5b906000526020600020906006020160020160149054906101000a900460ff166008858154811061140a577f4e487b7100000000000000000000000000000000000000000000000000000000600052603260045260246000fd5b90600052602060002090600602016001015460405161142b939291906145fd565b60405180910390a26008818154811061146d577f4e487b7100000000000000000000000000000000000000000000000000000000600052603260045260246000fd5b9060005260206000209060060201600080820160006101000a81549073ffffffffffffffffffffffffffffffffffffffff021916905560018201600090556002820160006101000a81549073ffffffffffffffffffffffffffffffffffffffff02191690556002820160146101000a81549060ff021916905560038201600090556004820160006101000a81549073ffffffffffffffffffffffffffffffffffffffff02191690556005820160009055505050565b61152a61324f565b60006006541161156f576040517f08c379a000000000000000000000000000000000000000000000000000000000815260040161156690614442565b60405180910390fd5b8073ffffffffffffffffffffffffffffffffffffffff166108fc6006549081150290604051600060405180830381858888f193505050501580156115b7573d6000803e3d6000fd5b5060006006819055508073ffffffffffffffffffffffffffffffffffffffff167f9acd446c7c5d67289e9ab24bf8d274c3e60b36709aad13c9ccefec55a25c00bb60065460405161160891906145e2565b60405180910390a250565b6000600880549050851061165c576040517f08c379a0000000000000000000000000000000000000000000000000000000008152600401611653906145c2565b60405180910390fd5b600060088681548110611698577f4e487b7100000000000000000000000000000000000000000000000000000000600052603260045260246000fd5b906000526020600020906006020160010154116116ea576040517f08c379a00000000000000000000000000000000000000000000000000000000081526004016116e1906145a2565b60405180910390fd5b611719846040516020016116fe9190614155565b604051602081830303815290604052805190602001206132cd565b831461175a576040517f08c379a000000000000000000000000000000000000000000000000000000000815260040161175190614582565b60405180910390fd5b60006117668484613303565b9050600886815481106117a2577f4e487b7100000000000000000000000000000000000000000000000000000000600052603260045260246000fd5b906000526020600020906006020160000160009054906101000a900473ffffffffffffffffffffffffffffffffffffffff1673ffffffffffffffffffffffffffffffffffffffff168173ffffffffffffffffffffffffffffffffffffffff1614611841576040517f08c379a000000000000000000000000000000000000000000000000000000000815260040161183890614402565b60405180910390fd5b60006008878154811061187d577f4e487b7100000000000000000000000000000000000000000000000000000000600052603260045260246000fd5b906000526020600020906006020160020160149054906101000a900460ff1660ff16141561193c578473ffffffffffffffffffffffffffffffffffffffff166108fc600888815481106118f9577f4e487b7100000000000000000000000000000000000000000000000000000000600052603260045260246000fd5b9060005260206000209060060201600101549081150290604051600060405180830381858888f19350505050158015611936573d6000803e3d6000fd5b50611e63565b600160088781548110611978577f4e487b7100000000000000000000000000000000000000000000000000000000600052603260045260246000fd5b906000526020600020906006020160020160149054906101000a900460ff1660ff161415611aef576000600887815481106119dc577f4e487b7100000000000000000000000000000000000000000000000000000000600052603260045260246000fd5b906000526020600020906006020160020160009054906101000a900473ffffffffffffffffffffffffffffffffffffffff1690508073ffffffffffffffffffffffffffffffffffffffff1663a9059cbb8760088a81548110611a67577f4e487b7100000000000000000000000000000000000000000000000000000000600052603260045260246000fd5b9060005260206000209060060201600101546040518363ffffffff1660e01b8152600401611a969291906142fe565b602060405180830381600087803b158015611ab057600080fd5b505af1158015611ac4573d6000803e3d6000fd5b505050506040513d601f19601f82011682018060405250810190611ae89190613ce4565b5050611e62565b600260088781548110611b2b577f4e487b7100000000000000000000000000000000000000000000000000000000600052603260045260246000fd5b906000526020600020906006020160020160149054906101000a900460ff1660ff161415611c8357600060088781548110611b8f577f4e487b7100000000000000000000000000000000000000000000000000000000600052603260045260246000fd5b906000526020600020906006020160020160009054906101000a900473ffffffffffffffffffffffffffffffffffffffff1690508073ffffffffffffffffffffffffffffffffffffffff166323b872dd308860088b81548110611c1b577f4e487b7100000000000000000000000000000000000000000000000000000000600052603260045260246000fd5b9060005260206000209060060201600301546040518463ffffffff1660e01b8152600401611c4b939291906141cd565b600060405180830381600087803b158015611c6557600080fd5b505af1158015611c79573d6000803e3d6000fd5b5050505050611e61565b600360088781548110611cbf577f4e487b7100000000000000000000000000000000000000000000000000000000600052603260045260246000fd5b906000526020600020906006020160020160149054906101000a900460ff1660ff161415611e6057600060088781548110611d23577f4e487b7100000000000000000000000000000000000000000000000000000000600052603260045260246000fd5b906000526020600020906006020160020160009054906101000a900473ffffffffffffffffffffffffffffffffffffffff1690508073ffffffffffffffffffffffffffffffffffffffff1663f242432a308860088b81548110611daf577f4e487b7100000000000000000000000000000000000000000000000000000000600052603260045260246000fd5b90600052602060002090600602016003015460088c81548110611dfb577f4e487b7100000000000000000000000000000000000000000000000000000000600052603260045260246000fd5b9060005260206000209060060201600101546040518563ffffffff1660e01b8152600401611e2c94939291906142a6565b600060405180830381600087803b158015611e4657600080fd5b505af1158015611e5a573d6000803e3d6000fd5b50505050505b5b5b5b8473ffffffffffffffffffffffffffffffffffffffff167f235d68982221ffd040e3bd99e15b4685603afab51b957b8745963fe82cc6d4d68760088981548110611ed6577f4e487b7100000000000000000000000000000000000000000000000000000000600052603260045260246000fd5b906000526020600020906006020160020160149054906101000a900460ff1660088a81548110611f2f577f4e487b7100000000000000000000000000000000000000000000000000000000600052603260045260246000fd5b906000526020600020906006020160010154604051611f50939291906145fd565b60405180910390a260088681548110611f92577f4e487b7100000000000000000000000000000000000000000000000000000000600052603260045260246000fd5b9060005260206000209060060201600080820160006101000a81549073ffffffffffffffffffffffffffffffffffffffff021916905560018201600090556002820160006101000a81549073ffffffffffffffffffffffffffffffffffffffff02191690556002820160146101000a81549060ff021916905560038201600090556004820160006101000a81549073ffffffffffffffffffffffffffffffffffffffff0219169055600582016000905550506001915050949350505050565b60008060009054906101000a900473ffffffffffffffffffffffffffffffffffffffff1673ffffffffffffffffffffffffffffffffffffffff168273ffffffffffffffffffffffffffffffffffffffff16149050919050565b600080600360008473ffffffffffffffffffffffffffffffffffffffff1673ffffffffffffffffffffffffffffffffffffffff16815260200190815260200160002054905060008114156120fe5760045490505b60003a6007541161210f573a612113565b6007545b905060008282612123919061470d565b90506005548161213391906146b7565b9350505050919050565b61214561324f565b8060028190555050565b60065481565b61215d61324f565b612167600061331c565b565b61217161324f565b8060058190555050565b6000600160009054906101000a900473ffffffffffffffffffffffffffffffffffffffff16905090565b6121ad61324f565b8060078190555050565b6000600880549050905090565b60045481565b60055481565b60007fbe9026ad5baa968e00aac2255a31276c279344b5c00065fec9ea38e7c9d41c088383604051612203929190614170565b604051809103902014156122205763bc197c8160e01b90506126de565b601487879050612230919061470d565b8383905014612274576040517f08c379a000000000000000000000000000000000000000000000000000000000815260040161226b90614482565b60405180910390fd5b600061227e613240565b9050600060049050600080600080600090505b8c8c90508110156126cd578a8a828181106122d5577f4e487b7100000000000000000000000000000000000000000000000000000000600052603260045260246000fd5b9050602002013592508c8c82818110612317577f4e487b7100000000000000000000000000000000000000000000000000000000600052603260045260246000fd5b905060200201359150600060148261232f919061470d565b90506000601467ffffffffffffffff811115612374577f4e487b7100000000000000000000000000000000000000000000000000000000600052604160045260246000fd5b6040519080825280601f01601f1916602001820160405280156123a65781602001600182028036833780820191505090505b50905060005b601481101561247e578b8b82856123c391906146b7565b8181106123f9577f4e487b7100000000000000000000000000000000000000000000000000000000600052603260045260246000fd5b9050013560f81c60f81b82828151811061243c577f4e487b7100000000000000000000000000000000000000000000000000000000600052603260045260246000fd5b60200101907effffffffffffffffffffffffffffffffffffffffffffffffffffffffffffff1916908160001a905350808061247690614878565b9150506123ac565b50808060200190518101906124939190613a2a565b955060086040518060e001604052808873ffffffffffffffffffffffffffffffffffffffff1681526020018781526020018a73ffffffffffffffffffffffffffffffffffffffff1681526020018960ff1681526020018681526020016124f7613240565b73ffffffffffffffffffffffffffffffffffffffff16815260200142815250908060018154018082558091505060019003906000526020600020906006020160009091909190915060008201518160000160006101000a81548173ffffffffffffffffffffffffffffffffffffffff021916908373ffffffffffffffffffffffffffffffffffffffff1602179055506020820151816001015560408201518160020160006101000a81548173ffffffffffffffffffffffffffffffffffffffff021916908373ffffffffffffffffffffffffffffffffffffffff16021790555060608201518160020160146101000a81548160ff021916908360ff1602179055506080820151816003015560a08201518160040160006101000a81548173ffffffffffffffffffffffffffffffffffffffff021916908373ffffffffffffffffffffffffffffffffffffffff16021790555060c0820151816005015550508f73ffffffffffffffffffffffffffffffffffffffff167f6cfb6f205ed755f233c83bfe7f03aee5e1d993139ce47aead6d4fe25f7ec3066600160088054905061269f9190614767565b89886040516126b0939291906145fd565b60405180910390a2505080806126c590614878565b915050612291565b5063bc197c8160e01b955050505050505b98975050505050505050565b6126f261324f565b80600360008473ffffffffffffffffffffffffffffffffffffffff1673ffffffffffffffffffffffffffffffffffffffff168152602001908152602001600020819055505050565b60008060009054906101000a900473ffffffffffffffffffffffffffffffffffffffff16905090565b60036020528060005260406000206000915090505481565b60075481565b61278961324f565b612792816133e2565b50565b61279d61324f565b8060048190555050565b60007fbe9026ad5baa968e00aac2255a31276c279344b5c00065fec9ea38e7c9d41c0883836040516127da929190614170565b604051809103902014156127f75763f23a6e6160e01b9050612a99565b6014838390501461283d576040517f08c379a000000000000000000000000000000000000000000000000000000000815260040161283490614482565b60405180910390fd5b6000612847613240565b90506000600390506000869050600086868101906128659190613a01565b905060086040518060e001604052808373ffffffffffffffffffffffffffffffffffffffff1681526020018481526020018673ffffffffffffffffffffffffffffffffffffffff1681526020018560ff1681526020018b81526020016128c9613240565b73ffffffffffffffffffffffffffffffffffffffff16815260200142815250908060018154018082558091505060019003906000526020600020906006020160009091909190915060008201518160000160006101000a81548173ffffffffffffffffffffffffffffffffffffffff021916908373ffffffffffffffffffffffffffffffffffffffff1602179055506020820151816001015560408201518160020160006101000a81548173ffffffffffffffffffffffffffffffffffffffff021916908373ffffffffffffffffffffffffffffffffffffffff16021790555060608201518160020160146101000a81548160ff021916908360ff1602179055506080820151816003015560a08201518160040160006101000a81548173ffffffffffffffffffffffffffffffffffffffff021916908373ffffffffffffffffffffffffffffffffffffffff16021790555060c0820151816005015550508973ffffffffffffffffffffffffffffffffffffffff167f6cfb6f205ed755f233c83bfe7f03aee5e1d993139ce47aead6d4fe25f7ec30666001600880549050612a719190614767565b8585604051612a82939291906145fd565b60405180910390a263f23a6e6160e01b9450505050505b9695505050505050565b612aab61324f565b600073ffffffffffffffffffffffffffffffffffffffff168173ffffffffffffffffffffffffffffffffffffffff161415612b1b576040517f08c379a0000000000000000000000000000000000000000000000000000000008152600401612b12906143e2565b60405180910390fd5b612b248161331c565b50565b600080612b33876120aa565b9050803411612b77576040517f08c379a0000000000000000000000000000000000000000000000000000000008152600401612b6e90614462565b60405180910390fd5b60048660ff1610612bbd576040517f08c379a0000000000000000000000000000000000000000000000000000000008152600401612bb4906144e2565b60405180910390fd5b60008660ff161415612bf5578034612bd59190614767565b94508060066000828254612be991906146b7565b92505081905550612fbb565b60018660ff161415612e87576000879050858173ffffffffffffffffffffffffffffffffffffffff166370a08231612c2b613240565b6040518263ffffffff1660e01b8152600401612c479190614189565b60206040518083038186803b158015612c5f57600080fd5b505afa158015612c73573d6000803e3d6000fd5b505050506040513d601f19601f82011682018060405250810190612c979190613d5f565b1015612cd8576040517f08c379a0000000000000000000000000000000000000000000000000000000008152600401612ccf90614562565b60405180910390fd5b858173ffffffffffffffffffffffffffffffffffffffff1663dd62ed3e612cfd613240565b306040518363ffffffff1660e01b8152600401612d1b9291906141a4565b60206040518083038186803b158015612d3357600080fd5b505afa158015612d47573d6000803e3d6000fd5b505050506040513d601f19601f82011682018060405250810190612d6b9190613d5f565b1015612dac576040517f08c379a0000000000000000000000000000000000000000000000000000000008152600401612da390614542565b60405180910390fd5b8073ffffffffffffffffffffffffffffffffffffffff166323b872dd612dd0613240565b30896040518463ffffffff1660e01b8152600401612df0939291906141cd565b602060405180830381600087803b158015612e0a57600080fd5b505af1158015612e1e573d6000803e3d6000fd5b505050506040513d601f19601f82011682018060405250810190612e429190613ce4565b612e81576040517f08c379a0000000000000000000000000000000000000000000000000000000008152600401612e78906144a2565b60405180910390fd5b50612fa1565b60028660ff161415612f145760008790508073ffffffffffffffffffffffffffffffffffffffff1663b88d4fde612ebc613240565b30886040518463ffffffff1660e01b8152600401612edc93929190614204565b600060405180830381600087803b158015612ef657600080fd5b505af1158015612f0a573d6000803e3d6000fd5b5050505050612fa0565b60038660ff161415612f9f5760008790508073ffffffffffffffffffffffffffffffffffffffff1663f242432a612f49613240565b30888a6040518563ffffffff1660e01b8152600401612f6b949392919061424e565b600060405180830381600087803b158015612f8557600080fd5b505af1158015612f99573d6000803e3d6000fd5b50505050505b5b5b3460066000828254612fb391906146b7565b925050819055505b60086040518060e001604052808573ffffffffffffffffffffffffffffffffffffffff1681526020018781526020018973ffffffffffffffffffffffffffffffffffffffff1681526020018860ff16815260200186815260200161301d613240565b73ffffffffffffffffffffffffffffffffffffffff16815260200142815250908060018154018082558091505060019003906000526020600020906006020160009091909190915060008201518160000160006101000a81548173ffffffffffffffffffffffffffffffffffffffff021916908373ffffffffffffffffffffffffffffffffffffffff1602179055506020820151816001015560408201518160020160006101000a81548173ffffffffffffffffffffffffffffffffffffffff021916908373ffffffffffffffffffffffffffffffffffffffff16021790555060608201518160020160146101000a81548160ff021916908360ff1602179055506080820151816003015560a08201518160040160006101000a81548173ffffffffffffffffffffffffffffffffffffffff021916908373ffffffffffffffffffffffffffffffffffffffff16021790555060c082015181600501555050613183613240565b73ffffffffffffffffffffffffffffffffffffffff167f6cfb6f205ed755f233c83bfe7f03aee5e1d993139ce47aead6d4fe25f7ec306660016008805490506131cc9190614767565b88886040516131dd939291906145fd565b60405180910390a260016008805490506131f79190614767565b91505095945050505050565b60025481565b60006014600036905010158015613225575061322433612051565b5b1561323957601436033560601c905061323d565b3390505b90565b600061324a613209565b905090565b613257613240565b73ffffffffffffffffffffffffffffffffffffffff1661327561217b565b73ffffffffffffffffffffffffffffffffffffffff16146132cb576040517f08c379a00000000000000000000000000000000000000000000000000000000081526004016132c2906144c2565b60405180910390fd5b565b60007f19457468657265756d205369676e6564204d6573736167653a0a33320000000060005281601c52603c6000209050919050565b6000806133108484613425565b90508091505092915050565b6000600160009054906101000a900473ffffffffffffffffffffffffffffffffffffffff16905081600160006101000a81548173ffffffffffffffffffffffffffffffffffffffff021916908373ffffffffffffffffffffffffffffffffffffffff1602179055508173ffffffffffffffffffffffffffffffffffffffff168173ffffffffffffffffffffffffffffffffffffffff167f8be0079c531659141344cd1fd0a4f28419497f9722a3daafe3b4186f6b6457e060405160405180910390a35050565b806000806101000a81548173ffffffffffffffffffffffffffffffffffffffff021916908373ffffffffffffffffffffffffffffffffffffffff16021790555050565b6000806000613434858561344c565b915091506134418161349e565b819250505092915050565b60008060418351141561348e5760008060006020860151925060408601519150606086015160001a90506134828782858561373c565b94509450505050613497565b60006002915091505b9250929050565b600060048111156134d8577f4e487b7100000000000000000000000000000000000000000000000000000000600052602160045260246000fd5b816004811115613511577f4e487b7100000000000000000000000000000000000000000000000000000000600052602160045260246000fd5b141561351c57613739565b60016004811115613556577f4e487b7100000000000000000000000000000000000000000000000000000000600052602160045260246000fd5b81600481111561358f577f4e487b7100000000000000000000000000000000000000000000000000000000600052602160045260246000fd5b14156135d0576040517f08c379a00000000000000000000000000000000000000000000000000000000081526004016135c7906143a2565b60405180910390fd5b6002600481111561360a577f4e487b7100000000000000000000000000000000000000000000000000000000600052602160045260246000fd5b816004811115613643577f4e487b7100000000000000000000000000000000000000000000000000000000600052602160045260246000fd5b1415613684576040517f08c379a000000000000000000000000000000000000000000000000000000000815260040161367b906143c2565b60405180910390fd5b600360048111156136be577f4e487b7100000000000000000000000000000000000000000000000000000000600052602160045260246000fd5b8160048111156136f7577f4e487b7100000000000000000000000000000000000000000000000000000000600052602160045260246000fd5b1415613738576040517f08c379a000000000000000000000000000000000000000000000000000000000815260040161372f90614422565b60405180910390fd5b5b50565b6000807f7fffffffffffffffffffffffffffffff5d576e7357a4501ddfe92f46681b20a08360001c1115613777576000600391509150613816565b60006001878787876040516000815260200160405260405161379c9493929190614342565b6020604051602081039080840390855afa1580156137be573d6000803e3d6000fd5b505050602060405103519050600073ffffffffffffffffffffffffffffffffffffffff168173ffffffffffffffffffffffffffffffffffffffff16141561380d57600060019250925050613816565b80600092509250505b94509492505050565b600061383261382d84614659565b614634565b90508281526020810184848401111561384a57600080fd5b613855848285614838565b509392505050565b60008135905061386c81614d07565b92915050565b60008135905061388181614d1e565b92915050565b60008151905061389681614d1e565b92915050565b60008083601f8401126138ae57600080fd5b8235905067ffffffffffffffff8111156138c757600080fd5b6020830191508360208202830111156138df57600080fd5b9250929050565b6000815190506138f581614d35565b92915050565b60008135905061390a81614d4c565b92915050565b60008135905061391f81614d63565b92915050565b60008083601f84011261393757600080fd5b8235905067ffffffffffffffff81111561395057600080fd5b60208301915083600182028301111561396857600080fd5b9250929050565b600082601f83011261398057600080fd5b813561399084826020860161381f565b91505092915050565b6000813590506139a881614d7a565b92915050565b6000815190506139bd81614d7a565b92915050565b6000813590506139d281614d91565b92915050565b6000602082840312156139ea57600080fd5b60006139f88482850161385d565b91505092915050565b600060208284031215613a1357600080fd5b6000613a2184828501613872565b91505092915050565b600060208284031215613a3c57600080fd5b6000613a4a84828501613887565b91505092915050565b60008060008060008060008060a0898b031215613a6f57600080fd5b6000613a7d8b828c0161385d565b9850506020613a8e8b828c0161385d565b975050604089013567ffffffffffffffff811115613aab57600080fd5b613ab78b828c0161389c565b9650965050606089013567ffffffffffffffff811115613ad657600080fd5b613ae28b828c0161389c565b9450945050608089013567ffffffffffffffff811115613b0157600080fd5b613b0d8b828c01613925565b92509250509295985092959890939650565b600080600080600060808688031215613b3757600080fd5b6000613b458882890161385d565b9550506020613b568882890161385d565b9450506040613b6788828901613999565b935050606086013567ffffffffffffffff811115613b8457600080fd5b613b9088828901613925565b92509250509295509295909350565b60008060008060008060a08789031215613bb857600080fd5b6000613bc689828a0161385d565b9650506020613bd789828a0161385d565b9550506040613be889828a01613999565b9450506060613bf989828a01613999565b935050608087013567ffffffffffffffff811115613c1657600080fd5b613c2289828a01613925565b92509250509295509295509295565b60008060408385031215613c4457600080fd5b6000613c528582860161385d565b9250506020613c6385828601613999565b9150509250929050565b600080600080600060a08688031215613c8557600080fd5b6000613c938882890161385d565b9550506020613ca4888289016139c3565b9450506040613cb588828901613999565b9350506060613cc688828901613999565b9250506080613cd78882890161385d565b9150509295509295909350565b600060208284031215613cf657600080fd5b6000613d04848285016138e6565b91505092915050565b600060208284031215613d1f57600080fd5b6000613d2d84828501613910565b91505092915050565b600060208284031215613d4857600080fd5b6000613d5684828501613999565b91505092915050565b600060208284031215613d7157600080fd5b6000613d7f848285016139ae565b91505092915050565b60008060008060808587031215613d9e57600080fd5b6000613dac87828801613999565b9450506020613dbd8782880161385d565b9350506040613dce878288016138fb565b925050606085013567ffffffffffffffff811115613deb57600080fd5b613df78782880161396f565b91505092959194509250565b613e0c8161479b565b82525050565b613e23613e1e8261479b565b6148c1565b82525050565b613e32816147bf565b82525050565b613e41816147cb565b82525050565b613e50816147d5565b82525050565b6000613e62838561469b565b9350613e6f838584614838565b82840190509392505050565b6000613e886018836146a6565b9150613e9382614961565b602082019050919050565b6000613eab601f836146a6565b9150613eb68261498a565b602082019050919050565b6000613ece6026836146a6565b9150613ed9826149b3565b604082019050919050565b6000613ef1600f836146a6565b9150613efc82614a02565b602082019050919050565b6000613f146022836146a6565b9150613f1f82614a2b565b604082019050919050565b6000613f376009836146a6565b9150613f4282614a7a565b602082019050919050565b6000613f5a600e836146a6565b9150613f6582614aa3565b602082019050919050565b6000613f7d6010836146a6565b9150613f8882614acc565b602082019050919050565b6000613fa0602a836146a6565b9150613fab82614af5565b604082019050919050565b6000613fc36020836146a6565b9150613fce82614b44565b602082019050919050565b6000613fe66015836146a6565b9150613ff182614b6d565b602082019050919050565b6000614009602e836146a6565b915061401482614b96565b604082019050919050565b600061402c60118361468a565b915061403782614be5565b602082019050919050565b600061404f601a836146a6565b915061405a82614c0e565b602082019050919050565b600061407260008361468a565b915061407d82614c37565b600082019050919050565b60006140956016836146a6565b91506140a082614c3a565b602082019050919050565b60006140b8601a836146a6565b91506140c382614c63565b602082019050919050565b60006140db6013836146a6565b91506140e682614c8c565b602082019050919050565b60006140fe6019836146a6565b915061410982614cb5565b602082019050919050565b6000614121601c836146a6565b915061412c82614cde565b602082019050919050565b61414081614821565b82525050565b61414f8161482b565b82525050565b60006141618284613e12565b60148201915081905092915050565b600061417d828486613e56565b91508190509392505050565b600060208201905061419e6000830184613e03565b92915050565b60006040820190506141b96000830185613e03565b6141c66020830184613e03565b9392505050565b60006060820190506141e26000830186613e03565b6141ef6020830185613e03565b6141fc6040830184614137565b949350505050565b60006080820190506142196000830186613e03565b6142266020830185613e03565b6142336040830184614137565b81810360608301526142448161401f565b9050949350505050565b600060a0820190506142636000830187613e03565b6142706020830186613e03565b61427d6040830185614137565b61428a6060830184614137565b818103608083015261429b8161401f565b905095945050505050565b600060a0820190506142bb6000830187613e03565b6142c86020830186613e03565b6142d56040830185614137565b6142e26060830184614137565b81810360808301526142f381614065565b905095945050505050565b60006040820190506143136000830185613e03565b6143206020830184614137565b9392505050565b600060208201905061433c6000830184613e29565b92915050565b60006080820190506143576000830187613e38565b6143646020830186614146565b6143716040830185613e38565b61437e6060830184613e38565b95945050505050565b600060208201905061439c6000830184613e47565b92915050565b600060208201905081810360008301526143bb81613e7b565b9050919050565b600060208201905081810360008301526143db81613e9e565b9050919050565b600060208201905081810360008301526143fb81613ec1565b9050919050565b6000602082019050818103600083015261441b81613ee4565b9050919050565b6000602082019050818103600083015261443b81613f07565b9050919050565b6000602082019050818103600083015261445b81613f2a565b9050919050565b6000602082019050818103600083015261447b81613f4d565b9050919050565b6000602082019050818103600083015261449b81613f70565b9050919050565b600060208201905081810360008301526144bb81613f93565b9050919050565b600060208201905081810360008301526144db81613fb6565b9050919050565b600060208201905081810360008301526144fb81613fd9565b9050919050565b6000602082019050818103600083015261451b81613ffc565b9050919050565b6000602082019050818103600083015261453b81614042565b9050919050565b6000602082019050818103600083015261455b81614088565b9050919050565b6000602082019050818103600083015261457b816140ab565b9050919050565b6000602082019050818103600083015261459b816140ce565b9050919050565b600060208201905081810360008301526145bb816140f1565b9050919050565b600060208201905081810360008301526145db81614114565b9050919050565b60006020820190506145f76000830184614137565b92915050565b60006060820190506146126000830186614137565b61461f6020830185614146565b61462c6040830184614137565b949350505050565b600061463e61464f565b905061464a8282614847565b919050565b6000604051905090565b600067ffffffffffffffff82111561467457614673614914565b5b61467d82614943565b9050602081019050919050565b600082825260208201905092915050565b600081905092915050565b600082825260208201905092915050565b60006146c282614821565b91506146cd83614821565b9250827fffffffffffffffffffffffffffffffffffffffffffffffffffffffffffffffff03821115614702576147016148e5565b5b828201905092915050565b600061471882614821565b915061472383614821565b9250817fffffffffffffffffffffffffffffffffffffffffffffffffffffffffffffffff048311821515161561475c5761475b6148e5565b5b828202905092915050565b600061477282614821565b915061477d83614821565b9250828210156147905761478f6148e5565b5b828203905092915050565b60006147a682614801565b9050919050565b60006147b882614801565b9050919050565b60008115159050919050565b6000819050919050565b60007fffffffff0000000000000000000000000000000000000000000000000000000082169050919050565b600073ffffffffffffffffffffffffffffffffffffffff82169050919050565b6000819050919050565b600060ff82169050919050565b82818337600083830152505050565b61485082614943565b810181811067ffffffffffffffff8211171561486f5761486e614914565b5b80604052505050565b600061488382614821565b91507fffffffffffffffffffffffffffffffffffffffffffffffffffffffffffffffff8214156148b6576148b56148e5565b5b600182019050919050565b60006148cc826148d3565b9050919050565b60006148de82614954565b9050919050565b7f4e487b7100000000000000000000000000000000000000000000000000000000600052601160045260246000fd5b7f4e487b7100000000000000000000000000000000000000000000000000000000600052604160045260246000fd5b6000601f19601f8301169050919050565b60008160601b9050919050565b7f45434453413a20696e76616c6964207369676e61747572650000000000000000600082015250565b7f45434453413a20696e76616c6964207369676e6174757265206c656e67746800600082015250565b7f4f776e61626c653a206e6577206f776e657220697320746865207a65726f206160008201527f6464726573730000000000000000000000000000000000000000000000000000602082015250565b7f57524f4e47205349474e41545552450000000000000000000000000000000000600082015250565b7f45434453413a20696e76616c6964207369676e6174757265202773272076616c60008201527f7565000000000000000000000000000000000000000000000000000000000000602082015250565b7f4e6f2070726f6669740000000000000000000000000000000000000000000000600082015250565b7f4e4f5420454e4f55474820455448000000000000000000000000000000000000600082015250565b7f494e56414c49442043414c4c4441544100000000000000000000000000000000600082015250565b7f5452414e53464552204641494c45442e20434845434b20414c4c4f57414e434560008201527f20262042414c414e434500000000000000000000000000000000000000000000602082015250565b7f4f776e61626c653a2063616c6c6572206973206e6f7420746865206f776e6572600082015250565b7f494e56414c494420434f4e545241435420545950450000000000000000000000600082015250565b7f53454e444552204d555354205741495420414654455220534f4d4520424c4f4360008201527f4b5320544f205749544844524157000000000000000000000000000000000000602082015250565b7f496e7465726e616c207472616e73666572000000000000000000000000000000600082015250565b7f4d5553542042452053454e44455220544f205749544844524157000000000000600082015250565b50565b7f494e53554646494349454e5420414c4c4f57414e434500000000000000000000600082015250565b7f494e53554646494349454e5420544f4b454e2042414c414e4345000000000000600082015250565b7f48415348455320444f204e4f54204d4154434800000000000000000000000000600082015250565b7f4445504f53495420414c52454144592057495448445241574e00000000000000600082015250565b7f4445504f53495420494e44455820444f4553204e4f5420455849535400000000600082015250565b614d108161479b565b8114614d1b57600080fd5b50565b614d27816147ad565b8114614d3257600080fd5b50565b614d3e816147bf565b8114614d4957600080fd5b50565b614d55816147cb565b8114614d6057600080fd5b50565b614d6c816147d5565b8114614d7757600080fd5b50565b614d8381614821565b8114614d8e57600080fd5b50565b614d9a8161482b565b8114614da557600080fd5b5056fea2646970667358221220b12f55af4bd324d74accb9695a760410e11f8575b370afacc6792187092d11cf64736f6c63430008020033",
  "linkReferences": {},
  "deployedLinkReferences": {}
}