{
  "_format": "hh-sol-artifact-1",
  "contractName": "Frens",
  "sourceName": "contracts/Frens.sol",
  "abi": [
    {
      "inputs": [
        {
          "internalType": "address",
          "name": "forwarder",
          "type": "address"
        }
      ],
      "stateMutability": "nonpayable",
      "type": "constructor"
    },
    {
      "anonymous": false,
      "inputs": [
        {
          "indexed": false,
          "internalType": "uint256",
          "name": "_index",
          "type": "uint256"
        },
        {
          "indexed": false,
          "internalType": "uint8",
          "name": "_contractType",
          "type": "uint8"
        },
        {
          "indexed": false,
          "internalType": "address",
          "name": "_tokenAddress",
          "type": "address"
        },
        {
          "indexed": false,
          "internalType": "uint256",
          "name": "_amount",
          "type": "uint256"
        },
        {
          "indexed": true,
          "internalType": "address",
          "name": "_senderAddress",
          "type": "address"
        }
      ],
      "name": "DepositEvent",
      "type": "event"
    },
    {
      "anonymous": false,
      "inputs": [
        {
          "indexed": true,
          "internalType": "address",
          "name": "previousOwner",
          "type": "address"
        },
        {
          "indexed": true,
          "internalType": "address",
          "name": "newOwner",
          "type": "address"
        }
      ],
      "name": "OwnershipTransferred",
      "type": "event"
    },
    {
      "anonymous": false,
      "inputs": [
        {
          "indexed": false,
          "internalType": "uint256",
          "name": "_index",
          "type": "uint256"
        },
        {
          "indexed": false,
          "internalType": "uint8",
          "name": "_contractType",
          "type": "uint8"
        },
        {
          "indexed": false,
          "internalType": "address",
          "name": "_tokenAddress",
          "type": "address"
        },
        {
          "indexed": false,
          "internalType": "uint256",
          "name": "_amount",
          "type": "uint256"
        },
        {
          "indexed": true,
          "internalType": "address",
          "name": "_recipientAddress",
          "type": "address"
        }
      ],
      "name": "WithdrawEvent",
      "type": "event"
    },
    {
      "anonymous": false,
      "inputs": [
        {
          "indexed": true,
          "internalType": "address",
          "name": "payee",
          "type": "address"
        },
        {
          "indexed": false,
          "internalType": "uint256",
          "name": "weiAmount",
          "type": "uint256"
        }
      ],
      "name": "WithdrawnProfit",
      "type": "event"
    },
    {
      "inputs": [],
      "name": "defaultGasLimit",
      "outputs": [
        {
          "internalType": "uint256",
          "name": "",
          "type": "uint256"
        }
      ],
      "stateMutability": "view",
      "type": "function"
    },
    {
      "inputs": [
        {
          "internalType": "uint256",
          "name": "",
          "type": "uint256"
        }
      ],
      "name": "deposits",
      "outputs": [
        {
          "internalType": "address",
          "name": "pubKey",
          "type": "address"
        },
        {
          "internalType": "uint256",
          "name": "amount",
          "type": "uint256"
        },
        {
          "internalType": "address",
          "name": "tokenAddress",
          "type": "address"
        },
        {
          "internalType": "uint8",
          "name": "contractType",
          "type": "uint8"
        },
        {
          "internalType": "uint256",
          "name": "tokenId",
          "type": "uint256"
        },
        {
          "internalType": "address",
          "name": "sender",
          "type": "address"
        },
        {
          "internalType": "uint256",
          "name": "depositedAt",
          "type": "uint256"
        }
      ],
      "stateMutability": "view",
      "type": "function"
    },
    {
      "inputs": [
        {
          "internalType": "address",
          "name": "_token",
          "type": "address"
        }
      ],
      "name": "estimateFee",
      "outputs": [
        {
          "internalType": "uint256",
          "name": "",
          "type": "uint256"
        }
      ],
      "stateMutability": "view",
      "type": "function"
    },
    {
      "inputs": [
        {
          "internalType": "address",
          "name": "",
          "type": "address"
        }
      ],
      "name": "gasLimits",
      "outputs": [
        {
          "internalType": "uint256",
          "name": "",
          "type": "uint256"
        }
      ],
      "stateMutability": "view",
      "type": "function"
    },
    {
      "inputs": [],
      "name": "getDepositCount",
      "outputs": [
        {
          "internalType": "uint256",
          "name": "",
          "type": "uint256"
        }
      ],
      "stateMutability": "view",
      "type": "function"
    },
    {
      "inputs": [],
      "name": "getTrustedForwarder",
      "outputs": [
        {
          "internalType": "address",
          "name": "forwarder",
          "type": "address"
        }
      ],
      "stateMutability": "view",
      "type": "function"
    },
    {
      "inputs": [
        {
          "internalType": "address",
          "name": "forwarder",
          "type": "address"
        }
      ],
      "name": "isTrustedForwarder",
      "outputs": [
        {
          "internalType": "bool",
          "name": "",
          "type": "bool"
        }
      ],
      "stateMutability": "view",
      "type": "function"
    },
    {
      "inputs": [],
      "name": "lockBlocks",
      "outputs": [
        {
          "internalType": "uint256",
          "name": "",
          "type": "uint256"
        }
      ],
      "stateMutability": "view",
      "type": "function"
    },
    {
      "inputs": [
        {
          "internalType": "address",
          "name": "_tokenAddress",
          "type": "address"
        },
        {
          "internalType": "uint8",
          "name": "_contractType",
          "type": "uint8"
        },
        {
          "internalType": "uint256",
          "name": "_amount",
          "type": "uint256"
        },
        {
          "internalType": "uint256",
          "name": "_tokenId",
          "type": "uint256"
        },
        {
          "internalType": "address",
          "name": "_pubKey",
          "type": "address"
        }
      ],
      "name": "makeDeposit",
      "outputs": [
        {
          "internalType": "uint256",
          "name": "",
          "type": "uint256"
        }
      ],
      "stateMutability": "payable",
      "type": "function"
    },
    {
      "inputs": [],
      "name": "minGasPrice",
      "outputs": [
        {
          "internalType": "uint256",
          "name": "",
          "type": "uint256"
        }
      ],
      "stateMutability": "view",
      "type": "function"
    },
    {
      "inputs": [
        {
          "internalType": "address",
          "name": "_operator",
          "type": "address"
        },
        {
          "internalType": "address",
          "name": "_from",
          "type": "address"
        },
        {
          "internalType": "uint256[]",
          "name": "_ids",
          "type": "uint256[]"
        },
        {
          "internalType": "uint256[]",
          "name": "_values",
          "type": "uint256[]"
        },
        {
          "internalType": "bytes",
          "name": "_data",
          "type": "bytes"
        }
      ],
      "name": "onERC1155BatchReceived",
      "outputs": [
        {
          "internalType": "bytes4",
          "name": "",
          "type": "bytes4"
        }
      ],
      "stateMutability": "nonpayable",
      "type": "function"
    },
    {
      "inputs": [
        {
          "internalType": "address",
          "name": "_operator",
          "type": "address"
        },
        {
          "internalType": "address",
          "name": "_from",
          "type": "address"
        },
        {
          "internalType": "uint256",
          "name": "_tokenId",
          "type": "uint256"
        },
        {
          "internalType": "uint256",
          "name": "_value",
          "type": "uint256"
        },
        {
          "internalType": "bytes",
          "name": "_data",
          "type": "bytes"
        }
      ],
      "name": "onERC1155Received",
      "outputs": [
        {
          "internalType": "bytes4",
          "name": "",
          "type": "bytes4"
        }
      ],
      "stateMutability": "nonpayable",
      "type": "function"
    },
    {
      "inputs": [
        {
          "internalType": "address",
          "name": "_operator",
          "type": "address"
        },
        {
          "internalType": "address",
          "name": "_from",
          "type": "address"
        },
        {
          "internalType": "uint256",
          "name": "_tokenId",
          "type": "uint256"
        },
        {
          "internalType": "bytes",
          "name": "_data",
          "type": "bytes"
        }
      ],
      "name": "onERC721Received",
      "outputs": [
        {
          "internalType": "bytes4",
          "name": "",
          "type": "bytes4"
        }
      ],
      "stateMutability": "nonpayable",
      "type": "function"
    },
    {
      "inputs": [],
      "name": "owner",
      "outputs": [
        {
          "internalType": "address",
          "name": "",
          "type": "address"
        }
      ],
      "stateMutability": "view",
      "type": "function"
    },
    {
      "inputs": [],
      "name": "profit",
      "outputs": [
        {
          "internalType": "uint256",
          "name": "",
          "type": "uint256"
        }
      ],
      "stateMutability": "view",
      "type": "function"
    },
    {
      "inputs": [],
      "name": "protocolFee",
      "outputs": [
        {
          "internalType": "uint256",
          "name": "",
          "type": "uint256"
        }
      ],
      "stateMutability": "view",
      "type": "function"
    },
    {
      "inputs": [],
      "name": "renounceOwnership",
      "outputs": [],
      "stateMutability": "nonpayable",
      "type": "function"
    },
    {
      "inputs": [
        {
          "internalType": "uint256",
          "name": "_gasLimit",
          "type": "uint256"
        }
      ],
      "name": "setDefaultGasLimit",
      "outputs": [],
      "stateMutability": "nonpayable",
      "type": "function"
    },
    {
      "inputs": [
        {
          "internalType": "address",
          "name": "_token",
          "type": "address"
        },
        {
          "internalType": "uint256",
          "name": "_gasLimit",
          "type": "uint256"
        }
      ],
      "name": "setGasLimit",
      "outputs": [],
      "stateMutability": "nonpayable",
      "type": "function"
    },
    {
      "inputs": [
        {
          "internalType": "uint256",
          "name": "_lockBlocks",
          "type": "uint256"
        }
      ],
      "name": "setLockBlocks",
      "outputs": [],
      "stateMutability": "nonpayable",
      "type": "function"
    },
    {
      "inputs": [
        {
          "internalType": "uint256",
          "name": "_minGasPrice",
          "type": "uint256"
        }
      ],
      "name": "setMinGasPrice",
      "outputs": [],
      "stateMutability": "nonpayable",
      "type": "function"
    },
    {
      "inputs": [
        {
          "internalType": "uint256",
          "name": "_protocolFee",
          "type": "uint256"
        }
      ],
      "name": "setProtocolFee",
      "outputs": [],
      "stateMutability": "nonpayable",
      "type": "function"
    },
    {
      "inputs": [
        {
          "internalType": "address",
          "name": "_forwarder",
          "type": "address"
        }
      ],
      "name": "setTrustedForwarder",
      "outputs": [],
      "stateMutability": "nonpayable",
      "type": "function"
    },
    {
      "inputs": [
        {
          "internalType": "bytes4",
          "name": "_interfaceId",
          "type": "bytes4"
        }
      ],
      "name": "supportsInterface",
      "outputs": [
        {
          "internalType": "bool",
          "name": "",
          "type": "bool"
        }
      ],
      "stateMutability": "pure",
      "type": "function"
    },
    {
      "inputs": [
        {
          "internalType": "address",
          "name": "newOwner",
          "type": "address"
        }
      ],
      "name": "transferOwnership",
      "outputs": [],
      "stateMutability": "nonpayable",
      "type": "function"
    },
    {
      "inputs": [
        {
          "internalType": "uint256",
          "name": "_index",
          "type": "uint256"
        },
        {
          "internalType": "address",
          "name": "_recipientAddress",
          "type": "address"
        },
        {
          "internalType": "bytes32",
          "name": "_recipientAddressHash",
          "type": "bytes32"
        },
        {
          "internalType": "bytes",
          "name": "_signature",
          "type": "bytes"
        }
      ],
      "name": "withdrawDeposit",
      "outputs": [
        {
          "internalType": "bool",
          "name": "",
          "type": "bool"
        }
      ],
      "stateMutability": "nonpayable",
      "type": "function"
    },
    {
      "inputs": [
        {
          "internalType": "address payable",
          "name": "payee",
          "type": "address"
        }
      ],
      "name": "withdrawProfit",
      "outputs": [],
      "stateMutability": "nonpayable",
      "type": "function"
    },
    {
      "inputs": [
        {
          "internalType": "uint256",
          "name": "_index",
          "type": "uint256"
        }
      ],
      "name": "withdrawSender",
      "outputs": [],
      "stateMutability": "nonpayable",
      "type": "function"
    }
  ],
  "bytecode": "0x6080604052600c6002556152086004556601c6bf52634000600555600060065560006007553480156200003157600080fd5b5060405162004b4b38038062004b4b83398181016040528101906200005791906200026d565b620000776200006b6200009660201b60201c565b620000b260201b60201c565b62000088816200017860201b60201c565b3a60078190555050620002e7565b6000620000ad620001bb60201b62002c021760201c565b905090565b6000600160009054906101000a900473ffffffffffffffffffffffffffffffffffffffff16905081600160006101000a81548173ffffffffffffffffffffffffffffffffffffffff021916908373ffffffffffffffffffffffffffffffffffffffff1602179055508173ffffffffffffffffffffffffffffffffffffffff168173ffffffffffffffffffffffffffffffffffffffff167f8be0079c531659141344cd1fd0a4f28419497f9722a3daafe3b4186f6b6457e060405160405180910390a35050565b806000806101000a81548173ffffffffffffffffffffffffffffffffffffffff021916908373ffffffffffffffffffffffffffffffffffffffff16021790555050565b60006014600036905010158015620001e05750620001df33620001fd60201b60201c565b5b15620001f657601436033560601c9050620001fa565b3390505b90565b60008060009054906101000a900473ffffffffffffffffffffffffffffffffffffffff1673ffffffffffffffffffffffffffffffffffffffff168273ffffffffffffffffffffffffffffffffffffffff16149050919050565b6000815190506200026781620002cd565b92915050565b6000602082840312156200028057600080fd5b6000620002908482850162000256565b91505092915050565b6000620002a682620002ad565b9050919050565b600073ffffffffffffffffffffffffffffffffffffffff82169050919050565b620002d88162000299565b8114620002e457600080fd5b50565b61485480620002f76000396000f3fe6080604052600436106101b75760003560e01c806395368d2e116100ec578063d96ed5051161008a578063f23a6e6111610064578063f23a6e6114610636578063f2fde38b14610673578063f34780111461069c578063f3e0dfc2146106cc576101b7565b8063d96ed505146105b9578063da742228146105e4578063e32bb67b1461060d576101b7565b8063bc197c81116100c6578063bc197c81146104eb578063c7c8459a14610528578063ce1b815f14610551578063ce5ac3271461057c576101b7565b806395368d2e14610452578063b02c43d01461047d578063b0e21e8a146104c0576101b7565b806363d83b4211610159578063787dce3d11610133578063787dce3d146103aa5780638da5cb5b146103d357806390ac1866146103fe5780639363a14114610427576101b7565b806363d83b421461033f57806366d16cc314610368578063715018a614610393576101b7565b806324e262411161019557806324e262411461025f57806330c7a3bb14610288578063572b6c05146102c557806357463d3514610302576101b7565b806301ffc9a7146101bc578063150b7a02146101f95780631f41288314610236575b600080fd5b3480156101c857600080fd5b506101e360048036038101906101de9190613706565b6106f7565b6040516101f09190613d8f565b60405180910390f35b34801561020557600080fd5b50610220600480360381019061021b9190613518565b610899565b60405161022d9190613def565b60405180910390f35b34801561024257600080fd5b5061025d6004803603810190610258919061372f565b610b97565b005b34801561026b57600080fd5b50610286600480360381019061028191906133fa565b6111ec565b005b34801561029457600080fd5b506102af60048036038101906102aa9190613781565b6112dd565b6040516102bc9190613d8f565b60405180910390f35b3480156102d157600080fd5b506102ec60048036038101906102e791906133d1565b611985565b6040516102f99190613d8f565b60405180910390f35b34801561030e57600080fd5b50610329600480360381019061032491906133d1565b6119de565b604051610336919061404a565b60405180910390f35b34801561034b57600080fd5b506103666004803603810190610361919061372f565b611a71565b005b34801561037457600080fd5b5061037d611a83565b60405161038a919061404a565b60405180910390f35b34801561039f57600080fd5b506103a8611a89565b005b3480156103b657600080fd5b506103d160048036038101906103cc919061372f565b611a9d565b005b3480156103df57600080fd5b506103e8611aaf565b6040516103f59190613b82565b60405180910390f35b34801561040a57600080fd5b506104256004803603810190610420919061372f565b611ad9565b005b34801561043357600080fd5b5061043c611aeb565b604051610449919061404a565b60405180910390f35b34801561045e57600080fd5b50610467611af8565b604051610474919061404a565b60405180910390f35b34801561048957600080fd5b506104a4600480360381019061049f919061372f565b611afe565b6040516104b79796959493929190613d20565b60405180910390f35b3480156104cc57600080fd5b506104d5611bbd565b6040516104e2919061404a565b60405180910390f35b3480156104f757600080fd5b50610512600480360381019061050d919061344c565b611bc3565b60405161051f9190613def565b60405180910390f35b34801561053457600080fd5b5061054f600480360381019061054a919061362a565b6120df565b005b34801561055d57600080fd5b5061056661212f565b6040516105739190613b82565b60405180910390f35b34801561058857600080fd5b506105a3600480360381019061059e91906133d1565b612158565b6040516105b0919061404a565b60405180910390f35b3480156105c557600080fd5b506105ce612170565b6040516105db919061404a565b60405180910390f35b3480156105f057600080fd5b5061060b600480360381019061060691906133d1565b612176565b005b34801561061957600080fd5b50610634600480360381019061062f919061372f565b61218a565b005b34801561064257600080fd5b5061065d60048036038101906106589190613598565b61219c565b60405161066a9190613def565b60405180910390f35b34801561067f57600080fd5b5061069a600480360381019061069591906133d1565b61249a565b005b6106b660048036038101906106b19190613666565b61251e565b6040516106c3919061404a565b60405180910390f35b3480156106d857600080fd5b506106e1612bfc565b6040516106ee919061404a565b60405180910390f35b60007f01ffc9a7000000000000000000000000000000000000000000000000000000007bffffffffffffffffffffffffffffffffffffffffffffffffffffffff1916827bffffffffffffffffffffffffffffffffffffffffffffffffffffffff191614806107c257507f150b7a02000000000000000000000000000000000000000000000000000000007bffffffffffffffffffffffffffffffffffffffffffffffffffffffff1916827bffffffffffffffffffffffffffffffffffffffffffffffffffffffff1916145b8061082a57507f4e2312e0000000000000000000000000000000000000000000000000000000007bffffffffffffffffffffffffffffffffffffffffffffffffffffffff1916827bffffffffffffffffffffffffffffffffffffffffffffffffffffffff1916145b8061089257507f572b6c05000000000000000000000000000000000000000000000000000000007bffffffffffffffffffffffffffffffffffffffffffffffffffffffff1916827bffffffffffffffffffffffffffffffffffffffffffffffffffffffff1916145b9050919050565b60007fbe9026ad5baa968e00aac2255a31276c279344b5c00065fec9ea38e7c9d41c0883836040516108cc929190613b69565b604051809103902014156108e95763150b7a0260e01b9050610b8e565b6014838390501461092f576040517f08c379a000000000000000000000000000000000000000000000000000000000815260040161092690613eea565b60405180910390fd5b6000610939612c39565b90506000600290506000600190506000868681019061095891906133fa565b905060086040518060e001604052808373ffffffffffffffffffffffffffffffffffffffff1681526020018481526020018673ffffffffffffffffffffffffffffffffffffffff1681526020018560ff1681526020018a81526020016109bc612c39565b73ffffffffffffffffffffffffffffffffffffffff16815260200142815250908060018154018082558091505060019003906000526020600020906006020160009091909190915060008201518160000160006101000a81548173ffffffffffffffffffffffffffffffffffffffff021916908373ffffffffffffffffffffffffffffffffffffffff1602179055506020820151816001015560408201518160020160006101000a81548173ffffffffffffffffffffffffffffffffffffffff021916908373ffffffffffffffffffffffffffffffffffffffff16021790555060608201518160020160146101000a81548160ff021916908360ff1602179055506080820151816003015560a08201518160040160006101000a81548173ffffffffffffffffffffffffffffffffffffffff021916908373ffffffffffffffffffffffffffffffffffffffff16021790555060c0820151816005015550508973ffffffffffffffffffffffffffffffffffffffff167f0ff0c92c63b7eee4d6ef05afdf24fe4ed28ea37f6cbb91962ec869e642d8a02a6001600880549050610b6491906141dd565b858786604051610b779493929190614065565b60405180910390a263150b7a0260e01b9450505050505b95945050505050565b6008805490508110610bde576040517f08c379a0000000000000000000000000000000000000000000000000000000008152600401610bd59061402a565b60405180910390fd5b600060088281548110610c1a577f4e487b7100000000000000000000000000000000000000000000000000000000600052603260045260246000fd5b90600052602060002090600602016040518060e00160405290816000820160009054906101000a900473ffffffffffffffffffffffffffffffffffffffff1673ffffffffffffffffffffffffffffffffffffffff1673ffffffffffffffffffffffffffffffffffffffff168152602001600182015481526020016002820160009054906101000a900473ffffffffffffffffffffffffffffffffffffffff1673ffffffffffffffffffffffffffffffffffffffff1673ffffffffffffffffffffffffffffffffffffffff1681526020016002820160149054906101000a900460ff1660ff1660ff168152602001600382015481526020016004820160009054906101000a900473ffffffffffffffffffffffffffffffffffffffff1673ffffffffffffffffffffffffffffffffffffffff1673ffffffffffffffffffffffffffffffffffffffff16815260200160058201548152505090506002548160c00151610d84919061412d565b431015610dc6576040517f08c379a0000000000000000000000000000000000000000000000000000000008152600401610dbd90613f6a565b60405180910390fd5b610dce612c39565b73ffffffffffffffffffffffffffffffffffffffff168160a0015173ffffffffffffffffffffffffffffffffffffffff1614610e3f576040517f08c379a0000000000000000000000000000000000000000000000000000000008152600401610e3690613f8a565b60405180910390fd5b6000816060015160ff161415610ea657610e57612c39565b73ffffffffffffffffffffffffffffffffffffffff166108fc82602001519081150290604051600060405180830381858888f19350505050158015610ea0573d6000803e3d6000fd5b50611095565b6001816060015160ff161415610f5e576000816040015190508073ffffffffffffffffffffffffffffffffffffffff1663a9059cbb610ee3612c39565b84602001516040518363ffffffff1660e01b8152600401610f05929190613cf7565b602060405180830381600087803b158015610f1f57600080fd5b505af1158015610f33573d6000803e3d6000fd5b505050506040513d601f19601f82011682018060405250810190610f5791906136dd565b5050611094565b6002816060015160ff161415610ff7576000816040015190508073ffffffffffffffffffffffffffffffffffffffff166323b872dd30610f9c612c39565b85608001516040518463ffffffff1660e01b8152600401610fbf93929190613bc6565b600060405180830381600087803b158015610fd957600080fd5b505af1158015610fed573d6000803e3d6000fd5b5050505050611093565b6003816060015160ff161415611092576000816040015190508073ffffffffffffffffffffffffffffffffffffffff1663f242432a30611035612c39565b856080015186602001516040518563ffffffff1660e01b815260040161105e9493929190613c9f565b600060405180830381600087803b15801561107857600080fd5b505af115801561108c573d6000803e3d6000fd5b50505050505b5b5b5b61109d612c39565b73ffffffffffffffffffffffffffffffffffffffff167fdd4d77fcb81062c183b4956dfcb3a37fcef2bea1fc9b861e5b2caf67fca071f7838360600151846040015185602001516040516110f49493929190614065565b60405180910390a260088281548110611136577f4e487b7100000000000000000000000000000000000000000000000000000000600052603260045260246000fd5b9060005260206000209060060201600080820160006101000a81549073ffffffffffffffffffffffffffffffffffffffff021916905560018201600090556002820160006101000a81549073ffffffffffffffffffffffffffffffffffffffff02191690556002820160146101000a81549060ff021916905560038201600090556004820160006101000a81549073ffffffffffffffffffffffffffffffffffffffff0219169055600582016000905550505050565b6111f4612c48565b600060065411611239576040517f08c379a000000000000000000000000000000000000000000000000000000000815260040161123090613eaa565b60405180910390fd5b8073ffffffffffffffffffffffffffffffffffffffff166108fc6006549081150290604051600060405180830381858888f19350505050158015611281573d6000803e3d6000fd5b5060006006819055508073ffffffffffffffffffffffffffffffffffffffff167f9acd446c7c5d67289e9ab24bf8d274c3e60b36709aad13c9ccefec55a25c00bb6006546040516112d2919061404a565b60405180910390a250565b60006008805490508510611326576040517f08c379a000000000000000000000000000000000000000000000000000000000815260040161131d9061402a565b60405180910390fd5b600060088681548110611362577f4e487b7100000000000000000000000000000000000000000000000000000000600052603260045260246000fd5b90600052602060002090600602016040518060e00160405290816000820160009054906101000a900473ffffffffffffffffffffffffffffffffffffffff1673ffffffffffffffffffffffffffffffffffffffff1673ffffffffffffffffffffffffffffffffffffffff168152602001600182015481526020016002820160009054906101000a900473ffffffffffffffffffffffffffffffffffffffff1673ffffffffffffffffffffffffffffffffffffffff1673ffffffffffffffffffffffffffffffffffffffff1681526020016002820160149054906101000a900460ff1660ff1660ff168152602001600382015481526020016004820160009054906101000a900473ffffffffffffffffffffffffffffffffffffffff1673ffffffffffffffffffffffffffffffffffffffff1673ffffffffffffffffffffffffffffffffffffffff16815260200160058201548152505090506000816020015111611501576040517f08c379a00000000000000000000000000000000000000000000000000000000081526004016114f89061400a565b60405180910390fd5b611530856040516020016115159190613b4e565b60405160208183030381529060405280519060200120612cc6565b8414611571576040517f08c379a000000000000000000000000000000000000000000000000000000000815260040161156890613fea565b60405180910390fd5b600061157d8585612cfc565b9050816000015173ffffffffffffffffffffffffffffffffffffffff168173ffffffffffffffffffffffffffffffffffffffff16146115f1576040517f08c379a00000000000000000000000000000000000000000000000000000000081526004016115e890613e6a565b60405180910390fd5b6000826060015160ff161415611651578573ffffffffffffffffffffffffffffffffffffffff166108fc83602001519081150290604051600060405180830381858888f1935050505015801561164b573d6000803e3d6000fd5b5061182b565b6001826060015160ff161415611702576000826040015190508073ffffffffffffffffffffffffffffffffffffffff1663a9059cbb8885602001516040518363ffffffff1660e01b81526004016116a9929190613cf7565b602060405180830381600087803b1580156116c357600080fd5b505af11580156116d7573d6000803e3d6000fd5b505050506040513d601f19601f820116820180604052508101906116fb91906136dd565b505061182a565b6002826060015160ff161415611794576000826040015190508073ffffffffffffffffffffffffffffffffffffffff166323b872dd308986608001516040518463ffffffff1660e01b815260040161175c93929190613bc6565b600060405180830381600087803b15801561177657600080fd5b505af115801561178a573d6000803e3d6000fd5b5050505050611829565b6003826060015160ff161415611828576000826040015190508073ffffffffffffffffffffffffffffffffffffffff1663f242432a3089866080015187602001516040518563ffffffff1660e01b81526004016117f49493929190613c9f565b600060405180830381600087803b15801561180e57600080fd5b505af1158015611822573d6000803e3d6000fd5b50505050505b5b5b5b8573ffffffffffffffffffffffffffffffffffffffff167fdd4d77fcb81062c183b4956dfcb3a37fcef2bea1fc9b861e5b2caf67fca071f7888460600151856040015186602001516040516118839493929190614065565b60405180910390a2600887815481106118c5577f4e487b7100000000000000000000000000000000000000000000000000000000600052603260045260246000fd5b9060005260206000209060060201600080820160006101000a81549073ffffffffffffffffffffffffffffffffffffffff021916905560018201600090556002820160006101000a81549073ffffffffffffffffffffffffffffffffffffffff02191690556002820160146101000a81549060ff021916905560038201600090556004820160006101000a81549073ffffffffffffffffffffffffffffffffffffffff021916905560058201600090555050600192505050949350505050565b60008060009054906101000a900473ffffffffffffffffffffffffffffffffffffffff1673ffffffffffffffffffffffffffffffffffffffff168273ffffffffffffffffffffffffffffffffffffffff16149050919050565b600080600360008473ffffffffffffffffffffffffffffffffffffffff1673ffffffffffffffffffffffffffffffffffffffff1681526020019081526020016000205490506000811415611a325760045490505b60003a60075411611a43573a611a47565b6007545b905060008282611a579190614183565b905060055481611a67919061412d565b9350505050919050565b611a79612c48565b8060028190555050565b60065481565b611a91612c48565b611a9b6000612d15565b565b611aa5612c48565b8060058190555050565b6000600160009054906101000a900473ffffffffffffffffffffffffffffffffffffffff16905090565b611ae1612c48565b8060078190555050565b6000600880549050905090565b60045481565b60088181548110611b0e57600080fd5b90600052602060002090600602016000915090508060000160009054906101000a900473ffffffffffffffffffffffffffffffffffffffff16908060010154908060020160009054906101000a900473ffffffffffffffffffffffffffffffffffffffff16908060020160149054906101000a900460ff16908060030154908060040160009054906101000a900473ffffffffffffffffffffffffffffffffffffffff16908060050154905087565b60055481565b60007fbe9026ad5baa968e00aac2255a31276c279344b5c00065fec9ea38e7c9d41c088383604051611bf6929190613b69565b60405180910390201415611c135763bc197c8160e01b90506120d3565b601487879050611c239190614183565b8383905014611c67576040517f08c379a0000000000000000000000000000000000000000000000000000000008152600401611c5e90613eea565b60405180910390fd5b6000611c71612c39565b9050600060049050600080600080600090505b8c8c90508110156120c2578a8a82818110611cc8577f4e487b7100000000000000000000000000000000000000000000000000000000600052603260045260246000fd5b9050602002013592508c8c82818110611d0a577f4e487b7100000000000000000000000000000000000000000000000000000000600052603260045260246000fd5b9050602002013591506000601482611d229190614183565b90506000601467ffffffffffffffff811115611d67577f4e487b7100000000000000000000000000000000000000000000000000000000600052604160045260246000fd5b6040519080825280601f01601f191660200182016040528015611d995781602001600182028036833780820191505090505b50905060005b6014811015611e71578b8b8285611db6919061412d565b818110611dec577f4e487b7100000000000000000000000000000000000000000000000000000000600052603260045260246000fd5b9050013560f81c60f81b828281518110611e2f577f4e487b7100000000000000000000000000000000000000000000000000000000600052603260045260246000fd5b60200101907effffffffffffffffffffffffffffffffffffffffffffffffffffffffffffff1916908160001a9053508080611e69906142ee565b915050611d9f565b5080806020019051810190611e869190613423565b955060086040518060e001604052808873ffffffffffffffffffffffffffffffffffffffff1681526020018781526020018a73ffffffffffffffffffffffffffffffffffffffff1681526020018960ff168152602001868152602001611eea612c39565b73ffffffffffffffffffffffffffffffffffffffff16815260200142815250908060018154018082558091505060019003906000526020600020906006020160009091909190915060008201518160000160006101000a81548173ffffffffffffffffffffffffffffffffffffffff021916908373ffffffffffffffffffffffffffffffffffffffff1602179055506020820151816001015560408201518160020160006101000a81548173ffffffffffffffffffffffffffffffffffffffff021916908373ffffffffffffffffffffffffffffffffffffffff16021790555060608201518160020160146101000a81548160ff021916908360ff1602179055506080820151816003015560a08201518160040160006101000a81548173ffffffffffffffffffffffffffffffffffffffff021916908373ffffffffffffffffffffffffffffffffffffffff16021790555060c0820151816005015550508f73ffffffffffffffffffffffffffffffffffffffff167f0ff0c92c63b7eee4d6ef05afdf24fe4ed28ea37f6cbb91962ec869e642d8a02a600160088054905061209291906141dd565b898b896040516120a59493929190614065565b60405180910390a2505080806120ba906142ee565b915050611c84565b5063bc197c8160e01b955050505050505b98975050505050505050565b6120e7612c48565b80600360008473ffffffffffffffffffffffffffffffffffffffff1673ffffffffffffffffffffffffffffffffffffffff168152602001908152602001600020819055505050565b60008060009054906101000a900473ffffffffffffffffffffffffffffffffffffffff16905090565b60036020528060005260406000206000915090505481565b60075481565b61217e612c48565b61218781612ddb565b50565b612192612c48565b8060048190555050565b60007fbe9026ad5baa968e00aac2255a31276c279344b5c00065fec9ea38e7c9d41c0883836040516121cf929190613b69565b604051809103902014156121ec5763f23a6e6160e01b9050612490565b60148383905014612232576040517f08c379a000000000000000000000000000000000000000000000000000000000815260040161222990613eea565b60405180910390fd5b600061223c612c39565b905060006003905060008690506000868681019061225a91906133fa565b905060086040518060e001604052808373ffffffffffffffffffffffffffffffffffffffff1681526020018481526020018673ffffffffffffffffffffffffffffffffffffffff1681526020018560ff1681526020018b81526020016122be612c39565b73ffffffffffffffffffffffffffffffffffffffff16815260200142815250908060018154018082558091505060019003906000526020600020906006020160009091909190915060008201518160000160006101000a81548173ffffffffffffffffffffffffffffffffffffffff021916908373ffffffffffffffffffffffffffffffffffffffff1602179055506020820151816001015560408201518160020160006101000a81548173ffffffffffffffffffffffffffffffffffffffff021916908373ffffffffffffffffffffffffffffffffffffffff16021790555060608201518160020160146101000a81548160ff021916908360ff1602179055506080820151816003015560a08201518160040160006101000a81548173ffffffffffffffffffffffffffffffffffffffff021916908373ffffffffffffffffffffffffffffffffffffffff16021790555060c0820151816005015550508973ffffffffffffffffffffffffffffffffffffffff167f0ff0c92c63b7eee4d6ef05afdf24fe4ed28ea37f6cbb91962ec869e642d8a02a600160088054905061246691906141dd565b8587866040516124799493929190614065565b60405180910390a263f23a6e6160e01b9450505050505b9695505050505050565b6124a2612c48565b600073ffffffffffffffffffffffffffffffffffffffff168173ffffffffffffffffffffffffffffffffffffffff161415612512576040517f08c379a000000000000000000000000000000000000000000000000000000000815260040161250990613e4a565b60405180910390fd5b61251b81612d15565b50565b60008061252a876119de565b905080341161256e576040517f08c379a000000000000000000000000000000000000000000000000000000000815260040161256590613eca565b60405180910390fd5b60048660ff16106125b4576040517f08c379a00000000000000000000000000000000000000000000000000000000081526004016125ab90613f4a565b60405180910390fd5b60008660ff1614156125ec5780346125cc91906141dd565b945080600660008282546125e0919061412d565b925050819055506129b2565b60018660ff16141561287e576000879050858173ffffffffffffffffffffffffffffffffffffffff166370a08231612622612c39565b6040518263ffffffff1660e01b815260040161263e9190613b82565b60206040518083038186803b15801561265657600080fd5b505afa15801561266a573d6000803e3d6000fd5b505050506040513d601f19601f8201168201806040525081019061268e9190613758565b10156126cf576040517f08c379a00000000000000000000000000000000000000000000000000000000081526004016126c690613fca565b60405180910390fd5b858173ffffffffffffffffffffffffffffffffffffffff1663dd62ed3e6126f4612c39565b306040518363ffffffff1660e01b8152600401612712929190613b9d565b60206040518083038186803b15801561272a57600080fd5b505afa15801561273e573d6000803e3d6000fd5b505050506040513d601f19601f820116820180604052508101906127629190613758565b10156127a3576040517f08c379a000000000000000000000000000000000000000000000000000000000815260040161279a90613faa565b60405180910390fd5b8073ffffffffffffffffffffffffffffffffffffffff166323b872dd6127c7612c39565b30896040518463ffffffff1660e01b81526004016127e793929190613bc6565b602060405180830381600087803b15801561280157600080fd5b505af1158015612815573d6000803e3d6000fd5b505050506040513d601f19601f8201168201806040525081019061283991906136dd565b612878576040517f08c379a000000000000000000000000000000000000000000000000000000000815260040161286f90613f0a565b60405180910390fd5b50612998565b60028660ff16141561290b5760008790508073ffffffffffffffffffffffffffffffffffffffff1663b88d4fde6128b3612c39565b30886040518463ffffffff1660e01b81526004016128d393929190613bfd565b600060405180830381600087803b1580156128ed57600080fd5b505af1158015612901573d6000803e3d6000fd5b5050505050612997565b60038660ff1614156129965760008790508073ffffffffffffffffffffffffffffffffffffffff1663f242432a612940612c39565b30888a6040518563ffffffff1660e01b81526004016129629493929190613c47565b600060405180830381600087803b15801561297c57600080fd5b505af1158015612990573d6000803e3d6000fd5b50505050505b5b5b34600660008282546129aa919061412d565b925050819055505b60086040518060e001604052808573ffffffffffffffffffffffffffffffffffffffff1681526020018781526020018973ffffffffffffffffffffffffffffffffffffffff1681526020018860ff168152602001868152602001612a14612c39565b73ffffffffffffffffffffffffffffffffffffffff16815260200142815250908060018154018082558091505060019003906000526020600020906006020160009091909190915060008201518160000160006101000a81548173ffffffffffffffffffffffffffffffffffffffff021916908373ffffffffffffffffffffffffffffffffffffffff1602179055506020820151816001015560408201518160020160006101000a81548173ffffffffffffffffffffffffffffffffffffffff021916908373ffffffffffffffffffffffffffffffffffffffff16021790555060608201518160020160146101000a81548160ff021916908360ff1602179055506080820151816003015560a08201518160040160006101000a81548173ffffffffffffffffffffffffffffffffffffffff021916908373ffffffffffffffffffffffffffffffffffffffff16021790555060c082015181600501555050612b7a612c39565b73ffffffffffffffffffffffffffffffffffffffff167f0ff0c92c63b7eee4d6ef05afdf24fe4ed28ea37f6cbb91962ec869e642d8a02a6001600880549050612bc391906141dd565b888a89604051612bd69493929190614065565b60405180910390a26001600880549050612bf091906141dd565b91505095945050505050565b60025481565b60006014600036905010158015612c1e5750612c1d33611985565b5b15612c3257601436033560601c9050612c36565b3390505b90565b6000612c43612c02565b905090565b612c50612c39565b73ffffffffffffffffffffffffffffffffffffffff16612c6e611aaf565b73ffffffffffffffffffffffffffffffffffffffff1614612cc4576040517f08c379a0000000000000000000000000000000000000000000000000000000008152600401612cbb90613f2a565b60405180910390fd5b565b60007f19457468657265756d205369676e6564204d6573736167653a0a33320000000060005281601c52603c6000209050919050565b600080612d098484612e1e565b90508091505092915050565b6000600160009054906101000a900473ffffffffffffffffffffffffffffffffffffffff16905081600160006101000a81548173ffffffffffffffffffffffffffffffffffffffff021916908373ffffffffffffffffffffffffffffffffffffffff1602179055508173ffffffffffffffffffffffffffffffffffffffff168173ffffffffffffffffffffffffffffffffffffffff167f8be0079c531659141344cd1fd0a4f28419497f9722a3daafe3b4186f6b6457e060405160405180910390a35050565b806000806101000a81548173ffffffffffffffffffffffffffffffffffffffff021916908373ffffffffffffffffffffffffffffffffffffffff16021790555050565b6000806000612e2d8585612e45565b91509150612e3a81612e97565b819250505092915050565b600080604183511415612e875760008060006020860151925060408601519150606086015160001a9050612e7b87828585613135565b94509450505050612e90565b60006002915091505b9250929050565b60006004811115612ed1577f4e487b7100000000000000000000000000000000000000000000000000000000600052602160045260246000fd5b816004811115612f0a577f4e487b7100000000000000000000000000000000000000000000000000000000600052602160045260246000fd5b1415612f1557613132565b60016004811115612f4f577f4e487b7100000000000000000000000000000000000000000000000000000000600052602160045260246000fd5b816004811115612f88577f4e487b7100000000000000000000000000000000000000000000000000000000600052602160045260246000fd5b1415612fc9576040517f08c379a0000000000000000000000000000000000000000000000000000000008152600401612fc090613e0a565b60405180910390fd5b60026004811115613003577f4e487b7100000000000000000000000000000000000000000000000000000000600052602160045260246000fd5b81600481111561303c577f4e487b7100000000000000000000000000000000000000000000000000000000600052602160045260246000fd5b141561307d576040517f08c379a000000000000000000000000000000000000000000000000000000000815260040161307490613e2a565b60405180910390fd5b600360048111156130b7577f4e487b7100000000000000000000000000000000000000000000000000000000600052602160045260246000fd5b8160048111156130f0577f4e487b7100000000000000000000000000000000000000000000000000000000600052602160045260246000fd5b1415613131576040517f08c379a000000000000000000000000000000000000000000000000000000000815260040161312890613e8a565b60405180910390fd5b5b50565b6000807f7fffffffffffffffffffffffffffffff5d576e7357a4501ddfe92f46681b20a08360001c111561317057600060039150915061320f565b6000600187878787604051600081526020016040526040516131959493929190613daa565b6020604051602081039080840390855afa1580156131b7573d6000803e3d6000fd5b505050602060405103519050600073ffffffffffffffffffffffffffffffffffffffff168173ffffffffffffffffffffffffffffffffffffffff1614156132065760006001925092505061320f565b80600092509250505b94509492505050565b600061322b613226846140cf565b6140aa565b90508281526020810184848401111561324357600080fd5b61324e8482856142ae565b509392505050565b6000813590506132658161477d565b92915050565b60008135905061327a81614794565b92915050565b60008151905061328f81614794565b92915050565b60008083601f8401126132a757600080fd5b8235905067ffffffffffffffff8111156132c057600080fd5b6020830191508360208202830111156132d857600080fd5b9250929050565b6000815190506132ee816147ab565b92915050565b600081359050613303816147c2565b92915050565b600081359050613318816147d9565b92915050565b60008083601f84011261333057600080fd5b8235905067ffffffffffffffff81111561334957600080fd5b60208301915083600182028301111561336157600080fd5b9250929050565b600082601f83011261337957600080fd5b8135613389848260208601613218565b91505092915050565b6000813590506133a1816147f0565b92915050565b6000815190506133b6816147f0565b92915050565b6000813590506133cb81614807565b92915050565b6000602082840312156133e357600080fd5b60006133f184828501613256565b91505092915050565b60006020828403121561340c57600080fd5b600061341a8482850161326b565b91505092915050565b60006020828403121561343557600080fd5b600061344384828501613280565b91505092915050565b60008060008060008060008060a0898b03121561346857600080fd5b60006134768b828c01613256565b98505060206134878b828c01613256565b975050604089013567ffffffffffffffff8111156134a457600080fd5b6134b08b828c01613295565b9650965050606089013567ffffffffffffffff8111156134cf57600080fd5b6134db8b828c01613295565b9450945050608089013567ffffffffffffffff8111156134fa57600080fd5b6135068b828c0161331e565b92509250509295985092959890939650565b60008060008060006080868803121561353057600080fd5b600061353e88828901613256565b955050602061354f88828901613256565b945050604061356088828901613392565b935050606086013567ffffffffffffffff81111561357d57600080fd5b6135898882890161331e565b92509250509295509295909350565b60008060008060008060a087890312156135b157600080fd5b60006135bf89828a01613256565b96505060206135d089828a01613256565b95505060406135e189828a01613392565b94505060606135f289828a01613392565b935050608087013567ffffffffffffffff81111561360f57600080fd5b61361b89828a0161331e565b92509250509295509295509295565b6000806040838503121561363d57600080fd5b600061364b85828601613256565b925050602061365c85828601613392565b9150509250929050565b600080600080600060a0868803121561367e57600080fd5b600061368c88828901613256565b955050602061369d888289016133bc565b94505060406136ae88828901613392565b93505060606136bf88828901613392565b92505060806136d088828901613256565b9150509295509295909350565b6000602082840312156136ef57600080fd5b60006136fd848285016132df565b91505092915050565b60006020828403121561371857600080fd5b600061372684828501613309565b91505092915050565b60006020828403121561374157600080fd5b600061374f84828501613392565b91505092915050565b60006020828403121561376a57600080fd5b6000613778848285016133a7565b91505092915050565b6000806000806080858703121561379757600080fd5b60006137a587828801613392565b94505060206137b687828801613256565b93505060406137c7878288016132f4565b925050606085013567ffffffffffffffff8111156137e457600080fd5b6137f087828801613368565b91505092959194509250565b61380581614211565b82525050565b61381c61381782614211565b614337565b82525050565b61382b81614235565b82525050565b61383a81614241565b82525050565b6138498161424b565b82525050565b600061385b8385614111565b93506138688385846142ae565b82840190509392505050565b600061388160188361411c565b915061388c826143d7565b602082019050919050565b60006138a4601f8361411c565b91506138af82614400565b602082019050919050565b60006138c760268361411c565b91506138d282614429565b604082019050919050565b60006138ea600f8361411c565b91506138f582614478565b602082019050919050565b600061390d60228361411c565b9150613918826144a1565b604082019050919050565b600061393060098361411c565b915061393b826144f0565b602082019050919050565b6000613953600e8361411c565b915061395e82614519565b602082019050919050565b600061397660108361411c565b915061398182614542565b602082019050919050565b6000613999602a8361411c565b91506139a48261456b565b604082019050919050565b60006139bc60208361411c565b91506139c7826145ba565b602082019050919050565b60006139df60158361411c565b91506139ea826145e3565b602082019050919050565b6000613a02602e8361411c565b9150613a0d8261460c565b604082019050919050565b6000613a25601183614100565b9150613a308261465b565b602082019050919050565b6000613a48601a8361411c565b9150613a5382614684565b602082019050919050565b6000613a6b600083614100565b9150613a76826146ad565b600082019050919050565b6000613a8e60168361411c565b9150613a99826146b0565b602082019050919050565b6000613ab1601a8361411c565b9150613abc826146d9565b602082019050919050565b6000613ad460138361411c565b9150613adf82614702565b602082019050919050565b6000613af760198361411c565b9150613b028261472b565b602082019050919050565b6000613b1a601c8361411c565b9150613b2582614754565b602082019050919050565b613b3981614297565b82525050565b613b48816142a1565b82525050565b6000613b5a828461380b565b60148201915081905092915050565b6000613b7682848661384f565b91508190509392505050565b6000602082019050613b9760008301846137fc565b92915050565b6000604082019050613bb260008301856137fc565b613bbf60208301846137fc565b9392505050565b6000606082019050613bdb60008301866137fc565b613be860208301856137fc565b613bf56040830184613b30565b949350505050565b6000608082019050613c1260008301866137fc565b613c1f60208301856137fc565b613c2c6040830184613b30565b8181036060830152613c3d81613a18565b9050949350505050565b600060a082019050613c5c60008301876137fc565b613c6960208301866137fc565b613c766040830185613b30565b613c836060830184613b30565b8181036080830152613c9481613a18565b905095945050505050565b600060a082019050613cb460008301876137fc565b613cc160208301866137fc565b613cce6040830185613b30565b613cdb6060830184613b30565b8181036080830152613cec81613a5e565b905095945050505050565b6000604082019050613d0c60008301856137fc565b613d196020830184613b30565b9392505050565b600060e082019050613d35600083018a6137fc565b613d426020830189613b30565b613d4f60408301886137fc565b613d5c6060830187613b3f565b613d696080830186613b30565b613d7660a08301856137fc565b613d8360c0830184613b30565b98975050505050505050565b6000602082019050613da46000830184613822565b92915050565b6000608082019050613dbf6000830187613831565b613dcc6020830186613b3f565b613dd96040830185613831565b613de66060830184613831565b95945050505050565b6000602082019050613e046000830184613840565b92915050565b60006020820190508181036000830152613e2381613874565b9050919050565b60006020820190508181036000830152613e4381613897565b9050919050565b60006020820190508181036000830152613e63816138ba565b9050919050565b60006020820190508181036000830152613e83816138dd565b9050919050565b60006020820190508181036000830152613ea381613900565b9050919050565b60006020820190508181036000830152613ec381613923565b9050919050565b60006020820190508181036000830152613ee381613946565b9050919050565b60006020820190508181036000830152613f0381613969565b9050919050565b60006020820190508181036000830152613f238161398c565b9050919050565b60006020820190508181036000830152613f43816139af565b9050919050565b60006020820190508181036000830152613f63816139d2565b9050919050565b60006020820190508181036000830152613f83816139f5565b9050919050565b60006020820190508181036000830152613fa381613a3b565b9050919050565b60006020820190508181036000830152613fc381613a81565b9050919050565b60006020820190508181036000830152613fe381613aa4565b9050919050565b6000602082019050818103600083015261400381613ac7565b9050919050565b6000602082019050818103600083015261402381613aea565b9050919050565b6000602082019050818103600083015261404381613b0d565b9050919050565b600060208201905061405f6000830184613b30565b92915050565b600060808201905061407a6000830187613b30565b6140876020830186613b3f565b61409460408301856137fc565b6140a16060830184613b30565b95945050505050565b60006140b46140c5565b90506140c082826142bd565b919050565b6000604051905090565b600067ffffffffffffffff8211156140ea576140e961438a565b5b6140f3826143b9565b9050602081019050919050565b600082825260208201905092915050565b600081905092915050565b600082825260208201905092915050565b600061413882614297565b915061414383614297565b9250827fffffffffffffffffffffffffffffffffffffffffffffffffffffffffffffffff038211156141785761417761435b565b5b828201905092915050565b600061418e82614297565b915061419983614297565b9250817fffffffffffffffffffffffffffffffffffffffffffffffffffffffffffffffff04831182151516156141d2576141d161435b565b5b828202905092915050565b60006141e882614297565b91506141f383614297565b9250828210156142065761420561435b565b5b828203905092915050565b600061421c82614277565b9050919050565b600061422e82614277565b9050919050565b60008115159050919050565b6000819050919050565b60007fffffffff0000000000000000000000000000000000000000000000000000000082169050919050565b600073ffffffffffffffffffffffffffffffffffffffff82169050919050565b6000819050919050565b600060ff82169050919050565b82818337600083830152505050565b6142c6826143b9565b810181811067ffffffffffffffff821117156142e5576142e461438a565b5b80604052505050565b60006142f982614297565b91507fffffffffffffffffffffffffffffffffffffffffffffffffffffffffffffffff82141561432c5761432b61435b565b5b600182019050919050565b600061434282614349565b9050919050565b6000614354826143ca565b9050919050565b7f4e487b7100000000000000000000000000000000000000000000000000000000600052601160045260246000fd5b7f4e487b7100000000000000000000000000000000000000000000000000000000600052604160045260246000fd5b6000601f19601f8301169050919050565b60008160601b9050919050565b7f45434453413a20696e76616c6964207369676e61747572650000000000000000600082015250565b7f45434453413a20696e76616c6964207369676e6174757265206c656e67746800600082015250565b7f4f776e61626c653a206e6577206f776e657220697320746865207a65726f206160008201527f6464726573730000000000000000000000000000000000000000000000000000602082015250565b7f57524f4e47205349474e41545552450000000000000000000000000000000000600082015250565b7f45434453413a20696e76616c6964207369676e6174757265202773272076616c60008201527f7565000000000000000000000000000000000000000000000000000000000000602082015250565b7f4e6f2070726f6669740000000000000000000000000000000000000000000000600082015250565b7f4e4f5420454e4f55474820455448000000000000000000000000000000000000600082015250565b7f494e56414c49442043414c4c4441544100000000000000000000000000000000600082015250565b7f5452414e53464552204641494c45442e20434845434b20414c4c4f57414e434560008201527f20262042414c414e434500000000000000000000000000000000000000000000602082015250565b7f4f776e61626c653a2063616c6c6572206973206e6f7420746865206f776e6572600082015250565b7f494e56414c494420434f4e545241435420545950450000000000000000000000600082015250565b7f53454e444552204d555354205741495420414654455220534f4d4520424c4f4360008201527f4b5320544f205749544844524157000000000000000000000000000000000000602082015250565b7f496e7465726e616c207472616e73666572000000000000000000000000000000600082015250565b7f4d5553542042452053454e44455220544f205749544844524157000000000000600082015250565b50565b7f494e53554646494349454e5420414c4c4f57414e434500000000000000000000600082015250565b7f494e53554646494349454e5420544f4b454e2042414c414e4345000000000000600082015250565b7f48415348455320444f204e4f54204d4154434800000000000000000000000000600082015250565b7f4445504f53495420414c52454144592057495448445241574e00000000000000600082015250565b7f4445504f53495420494e44455820444f4553204e4f5420455849535400000000600082015250565b61478681614211565b811461479157600080fd5b50565b61479d81614223565b81146147a857600080fd5b50565b6147b481614235565b81146147bf57600080fd5b50565b6147cb81614241565b81146147d657600080fd5b50565b6147e28161424b565b81146147ed57600080fd5b50565b6147f981614297565b811461480457600080fd5b50565b614810816142a1565b811461481b57600080fd5b5056fea26469706673582212209824fa5f9e915a2ddb0cd6e036d710df11efd18b547c5a8bea3ff1e08cf3c73164736f6c63430008020033",
  "linkReferences": {},
  "deployedLinkReferences": {}
}