{
  "_format": "hh-sol-artifact-1",
  "contractName": "Frens",
  "sourceName": "contracts/Frens.sol",
  "abi": [
    {
      "inputs": [
        {
          "internalType": "address",
          "name": "forwarder",
          "type": "address"
        }
      ],
      "stateMutability": "nonpayable",
      "type": "constructor"
    },
    {
      "anonymous": false,
      "inputs": [
        {
          "indexed": false,
          "internalType": "uint256",
          "name": "_index",
          "type": "uint256"
        },
        {
          "indexed": false,
          "internalType": "uint8",
          "name": "_contractType",
          "type": "uint8"
        },
        {
          "indexed": false,
          "internalType": "address",
          "name": "_tokenAddress",
          "type": "address"
        },
        {
          "indexed": false,
          "internalType": "uint256",
          "name": "_amount",
          "type": "uint256"
        },
        {
          "indexed": true,
          "internalType": "address",
          "name": "_senderAddress",
          "type": "address"
        }
      ],
      "name": "DepositEvent",
      "type": "event"
    },
    {
      "anonymous": false,
      "inputs": [
        {
          "indexed": true,
          "internalType": "address",
          "name": "previousOwner",
          "type": "address"
        },
        {
          "indexed": true,
          "internalType": "address",
          "name": "newOwner",
          "type": "address"
        }
      ],
      "name": "OwnershipTransferred",
      "type": "event"
    },
    {
      "anonymous": false,
      "inputs": [
        {
          "indexed": false,
          "internalType": "uint256",
          "name": "_index",
          "type": "uint256"
        },
        {
          "indexed": false,
          "internalType": "uint8",
          "name": "_contractType",
          "type": "uint8"
        },
        {
          "indexed": false,
          "internalType": "address",
          "name": "_tokenAddress",
          "type": "address"
        },
        {
          "indexed": false,
          "internalType": "uint256",
          "name": "_amount",
          "type": "uint256"
        },
        {
          "indexed": true,
          "internalType": "address",
          "name": "_recipientAddress",
          "type": "address"
        }
      ],
      "name": "WithdrawEvent",
      "type": "event"
    },
    {
      "anonymous": false,
      "inputs": [
        {
          "indexed": true,
          "internalType": "address",
          "name": "payee",
          "type": "address"
        },
        {
          "indexed": false,
          "internalType": "uint256",
          "name": "weiAmount",
          "type": "uint256"
        }
      ],
      "name": "WithdrawnProfit",
      "type": "event"
    },
    {
      "inputs": [],
      "name": "defaultGasLimit",
      "outputs": [
        {
          "internalType": "uint256",
          "name": "",
          "type": "uint256"
        }
      ],
      "stateMutability": "view",
      "type": "function"
    },
    {
      "inputs": [
        {
          "internalType": "address",
          "name": "_token",
          "type": "address"
        }
      ],
      "name": "estimateFee",
      "outputs": [
        {
          "internalType": "uint256",
          "name": "",
          "type": "uint256"
        }
      ],
      "stateMutability": "view",
      "type": "function"
    },
    {
      "inputs": [
        {
          "internalType": "address",
          "name": "",
          "type": "address"
        }
      ],
      "name": "gasLimits",
      "outputs": [
        {
          "internalType": "uint256",
          "name": "",
          "type": "uint256"
        }
      ],
      "stateMutability": "view",
      "type": "function"
    },
    {
      "inputs": [],
      "name": "getDepositCount",
      "outputs": [
        {
          "internalType": "uint256",
          "name": "",
          "type": "uint256"
        }
      ],
      "stateMutability": "view",
      "type": "function"
    },
    {
      "inputs": [],
      "name": "getTrustedForwarder",
      "outputs": [
        {
          "internalType": "address",
          "name": "forwarder",
          "type": "address"
        }
      ],
      "stateMutability": "view",
      "type": "function"
    },
    {
      "inputs": [
        {
          "internalType": "address",
          "name": "forwarder",
          "type": "address"
        }
      ],
      "name": "isTrustedForwarder",
      "outputs": [
        {
          "internalType": "bool",
          "name": "",
          "type": "bool"
        }
      ],
      "stateMutability": "view",
      "type": "function"
    },
    {
      "inputs": [],
      "name": "lockBlocks",
      "outputs": [
        {
          "internalType": "uint256",
          "name": "",
          "type": "uint256"
        }
      ],
      "stateMutability": "view",
      "type": "function"
    },
    {
      "inputs": [
        {
          "internalType": "address",
          "name": "_tokenAddress",
          "type": "address"
        },
        {
          "internalType": "uint8",
          "name": "_contractType",
          "type": "uint8"
        },
        {
          "internalType": "uint256",
          "name": "_amount",
          "type": "uint256"
        },
        {
          "internalType": "uint256",
          "name": "_tokenId",
          "type": "uint256"
        },
        {
          "internalType": "address",
          "name": "_pubKey",
          "type": "address"
        }
      ],
      "name": "makeDeposit",
      "outputs": [
        {
          "internalType": "uint256",
          "name": "",
          "type": "uint256"
        }
      ],
      "stateMutability": "payable",
      "type": "function"
    },
    {
      "inputs": [],
      "name": "minGasPrice",
      "outputs": [
        {
          "internalType": "uint256",
          "name": "",
          "type": "uint256"
        }
      ],
      "stateMutability": "view",
      "type": "function"
    },
    {
      "inputs": [
        {
          "internalType": "address",
          "name": "_operator",
          "type": "address"
        },
        {
          "internalType": "address",
          "name": "_from",
          "type": "address"
        },
        {
          "internalType": "uint256[]",
          "name": "_ids",
          "type": "uint256[]"
        },
        {
          "internalType": "uint256[]",
          "name": "_values",
          "type": "uint256[]"
        },
        {
          "internalType": "bytes",
          "name": "_data",
          "type": "bytes"
        }
      ],
      "name": "onERC1155BatchReceived",
      "outputs": [
        {
          "internalType": "bytes4",
          "name": "",
          "type": "bytes4"
        }
      ],
      "stateMutability": "nonpayable",
      "type": "function"
    },
    {
      "inputs": [
        {
          "internalType": "address",
          "name": "_operator",
          "type": "address"
        },
        {
          "internalType": "address",
          "name": "_from",
          "type": "address"
        },
        {
          "internalType": "uint256",
          "name": "_tokenId",
          "type": "uint256"
        },
        {
          "internalType": "uint256",
          "name": "_value",
          "type": "uint256"
        },
        {
          "internalType": "bytes",
          "name": "_data",
          "type": "bytes"
        }
      ],
      "name": "onERC1155Received",
      "outputs": [
        {
          "internalType": "bytes4",
          "name": "",
          "type": "bytes4"
        }
      ],
      "stateMutability": "nonpayable",
      "type": "function"
    },
    {
      "inputs": [
        {
          "internalType": "address",
          "name": "_operator",
          "type": "address"
        },
        {
          "internalType": "address",
          "name": "_from",
          "type": "address"
        },
        {
          "internalType": "uint256",
          "name": "_tokenId",
          "type": "uint256"
        },
        {
          "internalType": "bytes",
          "name": "_data",
          "type": "bytes"
        }
      ],
      "name": "onERC721Received",
      "outputs": [
        {
          "internalType": "bytes4",
          "name": "",
          "type": "bytes4"
        }
      ],
      "stateMutability": "nonpayable",
      "type": "function"
    },
    {
      "inputs": [],
      "name": "owner",
      "outputs": [
        {
          "internalType": "address",
          "name": "",
          "type": "address"
        }
      ],
      "stateMutability": "view",
      "type": "function"
    },
    {
      "inputs": [],
      "name": "profit",
      "outputs": [
        {
          "internalType": "uint256",
          "name": "",
          "type": "uint256"
        }
      ],
      "stateMutability": "view",
      "type": "function"
    },
    {
      "inputs": [],
      "name": "protocolFee",
      "outputs": [
        {
          "internalType": "uint256",
          "name": "",
          "type": "uint256"
        }
      ],
      "stateMutability": "view",
      "type": "function"
    },
    {
      "inputs": [],
      "name": "renounceOwnership",
      "outputs": [],
      "stateMutability": "nonpayable",
      "type": "function"
    },
    {
      "inputs": [
        {
          "internalType": "uint256",
          "name": "_gasLimit",
          "type": "uint256"
        }
      ],
      "name": "setDefaultGasLimit",
      "outputs": [],
      "stateMutability": "nonpayable",
      "type": "function"
    },
    {
      "inputs": [
        {
          "internalType": "address",
          "name": "_token",
          "type": "address"
        },
        {
          "internalType": "uint256",
          "name": "_gasLimit",
          "type": "uint256"
        }
      ],
      "name": "setGasLimit",
      "outputs": [],
      "stateMutability": "nonpayable",
      "type": "function"
    },
    {
      "inputs": [
        {
          "internalType": "uint256",
          "name": "_lockBlocks",
          "type": "uint256"
        }
      ],
      "name": "setLockBlocks",
      "outputs": [],
      "stateMutability": "nonpayable",
      "type": "function"
    },
    {
      "inputs": [
        {
          "internalType": "uint256",
          "name": "_minGasPrice",
          "type": "uint256"
        }
      ],
      "name": "setMinGasPrice",
      "outputs": [],
      "stateMutability": "nonpayable",
      "type": "function"
    },
    {
      "inputs": [
        {
          "internalType": "uint256",
          "name": "_protocolFee",
          "type": "uint256"
        }
      ],
      "name": "setProtocolFee",
      "outputs": [],
      "stateMutability": "nonpayable",
      "type": "function"
    },
    {
      "inputs": [
        {
          "internalType": "address",
          "name": "_forwarder",
          "type": "address"
        }
      ],
      "name": "setTrustedForwarder",
      "outputs": [],
      "stateMutability": "nonpayable",
      "type": "function"
    },
    {
      "inputs": [
        {
          "internalType": "bytes4",
          "name": "_interfaceId",
          "type": "bytes4"
        }
      ],
      "name": "supportsInterface",
      "outputs": [
        {
          "internalType": "bool",
          "name": "",
          "type": "bool"
        }
      ],
      "stateMutability": "pure",
      "type": "function"
    },
    {
      "inputs": [
        {
          "internalType": "address",
          "name": "newOwner",
          "type": "address"
        }
      ],
      "name": "transferOwnership",
      "outputs": [],
      "stateMutability": "nonpayable",
      "type": "function"
    },
    {
      "inputs": [
        {
          "internalType": "uint256",
          "name": "_index",
          "type": "uint256"
        },
        {
          "internalType": "address",
          "name": "_recipientAddress",
          "type": "address"
        },
        {
          "internalType": "bytes32",
          "name": "_recipientAddressHash",
          "type": "bytes32"
        },
        {
          "internalType": "bytes",
          "name": "_signature",
          "type": "bytes"
        }
      ],
      "name": "withdrawDeposit",
      "outputs": [
        {
          "internalType": "bool",
          "name": "",
          "type": "bool"
        }
      ],
      "stateMutability": "nonpayable",
      "type": "function"
    },
    {
      "inputs": [
        {
          "internalType": "address payable",
          "name": "payee",
          "type": "address"
        }
      ],
      "name": "withdrawProfit",
      "outputs": [],
      "stateMutability": "nonpayable",
      "type": "function"
    },
    {
      "inputs": [
        {
          "internalType": "uint256",
          "name": "_index",
          "type": "uint256"
        }
      ],
      "name": "withdrawSender",
      "outputs": [],
      "stateMutability": "nonpayable",
      "type": "function"
    }
  ],
  "bytecode": "0x6080604052600c6002556152086004556601c6bf52634000600555600060065560006007553480156200003157600080fd5b50604051620049bf380380620049bf83398181016040528101906200005791906200026d565b620000776200006b6200009660201b60201c565b620000b260201b60201c565b62000088816200017860201b60201c565b3a60078190555050620002e7565b6000620000ad620001bb60201b62002ae51760201c565b905090565b6000600160009054906101000a900473ffffffffffffffffffffffffffffffffffffffff16905081600160006101000a81548173ffffffffffffffffffffffffffffffffffffffff021916908373ffffffffffffffffffffffffffffffffffffffff1602179055508173ffffffffffffffffffffffffffffffffffffffff168173ffffffffffffffffffffffffffffffffffffffff167f8be0079c531659141344cd1fd0a4f28419497f9722a3daafe3b4186f6b6457e060405160405180910390a35050565b806000806101000a81548173ffffffffffffffffffffffffffffffffffffffff021916908373ffffffffffffffffffffffffffffffffffffffff16021790555050565b60006014600036905010158015620001e05750620001df33620001fd60201b60201c565b5b15620001f657601436033560601c9050620001fa565b3390505b90565b60008060009054906101000a900473ffffffffffffffffffffffffffffffffffffffff1673ffffffffffffffffffffffffffffffffffffffff168273ffffffffffffffffffffffffffffffffffffffff16149050919050565b6000815190506200026781620002cd565b92915050565b6000602082840312156200028057600080fd5b6000620002908482850162000256565b91505092915050565b6000620002a682620002ad565b9050919050565b600073ffffffffffffffffffffffffffffffffffffffff82169050919050565b620002d88162000299565b8114620002e457600080fd5b50565b6146c880620002f76000396000f3fe60806040526004361061019c5760003560e01c80639363a141116100ec578063d96ed5051161008a578063f23a6e6111610064578063f23a6e61146105d8578063f2fde38b14610615578063f34780111461063e578063f3e0dfc21461066e5761019c565b8063d96ed5051461055b578063da74222814610586578063e32bb67b146105af5761019c565b8063bc197c81116100c6578063bc197c811461048d578063c7c8459a146104ca578063ce1b815f146104f3578063ce5ac3271461051e5761019c565b80639363a1411461040c57806395368d2e14610437578063b0e21e8a146104625761019c565b806357463d3511610159578063715018a611610133578063715018a614610378578063787dce3d1461038f5780638da5cb5b146103b857806390ac1866146103e35761019c565b806357463d35146102e757806363d83b421461032457806366d16cc31461034d5761019c565b806301ffc9a7146101a1578063150b7a02146101de5780631f4128831461021b57806324e262411461024457806330c7a3bb1461026d578063572b6c05146102aa575b600080fd5b3480156101ad57600080fd5b506101c860048036038101906101c391906135e9565b610699565b6040516101d59190613c03565b60405180910390f35b3480156101ea57600080fd5b50610205600480360381019061020091906133fb565b61083b565b6040516102129190613c63565b60405180910390f35b34801561022757600080fd5b50610242600480360381019061023d9190613612565b610b39565b005b34801561025057600080fd5b5061026b600480360381019061026691906132dd565b61118e565b005b34801561027957600080fd5b50610294600480360381019061028f9190613664565b61127f565b6040516102a19190613c03565b60405180910390f35b3480156102b657600080fd5b506102d160048036038101906102cc91906132b4565b611927565b6040516102de9190613c03565b60405180910390f35b3480156102f357600080fd5b5061030e600480360381019061030991906132b4565b611980565b60405161031b9190613ebe565b60405180910390f35b34801561033057600080fd5b5061034b60048036038101906103469190613612565b611a13565b005b34801561035957600080fd5b50610362611a25565b60405161036f9190613ebe565b60405180910390f35b34801561038457600080fd5b5061038d611a2b565b005b34801561039b57600080fd5b506103b660048036038101906103b19190613612565b611a3f565b005b3480156103c457600080fd5b506103cd611a51565b6040516103da9190613a65565b60405180910390f35b3480156103ef57600080fd5b5061040a60048036038101906104059190613612565b611a7b565b005b34801561041857600080fd5b50610421611a8d565b60405161042e9190613ebe565b60405180910390f35b34801561044357600080fd5b5061044c611a9a565b6040516104599190613ebe565b60405180910390f35b34801561046e57600080fd5b50610477611aa0565b6040516104849190613ebe565b60405180910390f35b34801561049957600080fd5b506104b460048036038101906104af919061332f565b611aa6565b6040516104c19190613c63565b60405180910390f35b3480156104d657600080fd5b506104f160048036038101906104ec919061350d565b611fc2565b005b3480156104ff57600080fd5b50610508612012565b6040516105159190613a65565b60405180910390f35b34801561052a57600080fd5b50610545600480360381019061054091906132b4565b61203b565b6040516105529190613ebe565b60405180910390f35b34801561056757600080fd5b50610570612053565b60405161057d9190613ebe565b60405180910390f35b34801561059257600080fd5b506105ad60048036038101906105a891906132b4565b612059565b005b3480156105bb57600080fd5b506105d660048036038101906105d19190613612565b61206d565b005b3480156105e457600080fd5b506105ff60048036038101906105fa919061347b565b61207f565b60405161060c9190613c63565b60405180910390f35b34801561062157600080fd5b5061063c600480360381019061063791906132b4565b61237d565b005b61065860048036038101906106539190613549565b612401565b6040516106659190613ebe565b60405180910390f35b34801561067a57600080fd5b50610683612adf565b6040516106909190613ebe565b60405180910390f35b60007f01ffc9a7000000000000000000000000000000000000000000000000000000007bffffffffffffffffffffffffffffffffffffffffffffffffffffffff1916827bffffffffffffffffffffffffffffffffffffffffffffffffffffffff1916148061076457507f150b7a02000000000000000000000000000000000000000000000000000000007bffffffffffffffffffffffffffffffffffffffffffffffffffffffff1916827bffffffffffffffffffffffffffffffffffffffffffffffffffffffff1916145b806107cc57507f4e2312e0000000000000000000000000000000000000000000000000000000007bffffffffffffffffffffffffffffffffffffffffffffffffffffffff1916827bffffffffffffffffffffffffffffffffffffffffffffffffffffffff1916145b8061083457507f572b6c05000000000000000000000000000000000000000000000000000000007bffffffffffffffffffffffffffffffffffffffffffffffffffffffff1916827bffffffffffffffffffffffffffffffffffffffffffffffffffffffff1916145b9050919050565b60007fbe9026ad5baa968e00aac2255a31276c279344b5c00065fec9ea38e7c9d41c08838360405161086e929190613a4c565b6040518091039020141561088b5763150b7a0260e01b9050610b30565b601483839050146108d1576040517f08c379a00000000000000000000000000000000000000000000000000000000081526004016108c890613d5e565b60405180910390fd5b60006108db612b1c565b9050600060029050600060019050600086868101906108fa91906132dd565b905060086040518060e001604052808373ffffffffffffffffffffffffffffffffffffffff1681526020018481526020018673ffffffffffffffffffffffffffffffffffffffff1681526020018560ff1681526020018a815260200161095e612b1c565b73ffffffffffffffffffffffffffffffffffffffff16815260200142815250908060018154018082558091505060019003906000526020600020906006020160009091909190915060008201518160000160006101000a81548173ffffffffffffffffffffffffffffffffffffffff021916908373ffffffffffffffffffffffffffffffffffffffff1602179055506020820151816001015560408201518160020160006101000a81548173ffffffffffffffffffffffffffffffffffffffff021916908373ffffffffffffffffffffffffffffffffffffffff16021790555060608201518160020160146101000a81548160ff021916908360ff1602179055506080820151816003015560a08201518160040160006101000a81548173ffffffffffffffffffffffffffffffffffffffff021916908373ffffffffffffffffffffffffffffffffffffffff16021790555060c0820151816005015550508973ffffffffffffffffffffffffffffffffffffffff167f0ff0c92c63b7eee4d6ef05afdf24fe4ed28ea37f6cbb91962ec869e642d8a02a6001600880549050610b069190614051565b858786604051610b199493929190613ed9565b60405180910390a263150b7a0260e01b9450505050505b95945050505050565b6008805490508110610b80576040517f08c379a0000000000000000000000000000000000000000000000000000000008152600401610b7790613e9e565b60405180910390fd5b600060088281548110610bbc577f4e487b7100000000000000000000000000000000000000000000000000000000600052603260045260246000fd5b90600052602060002090600602016040518060e00160405290816000820160009054906101000a900473ffffffffffffffffffffffffffffffffffffffff1673ffffffffffffffffffffffffffffffffffffffff1673ffffffffffffffffffffffffffffffffffffffff168152602001600182015481526020016002820160009054906101000a900473ffffffffffffffffffffffffffffffffffffffff1673ffffffffffffffffffffffffffffffffffffffff1673ffffffffffffffffffffffffffffffffffffffff1681526020016002820160149054906101000a900460ff1660ff1660ff168152602001600382015481526020016004820160009054906101000a900473ffffffffffffffffffffffffffffffffffffffff1673ffffffffffffffffffffffffffffffffffffffff1673ffffffffffffffffffffffffffffffffffffffff16815260200160058201548152505090506002548160c00151610d269190613fa1565b431015610d68576040517f08c379a0000000000000000000000000000000000000000000000000000000008152600401610d5f90613dde565b60405180910390fd5b610d70612b1c565b73ffffffffffffffffffffffffffffffffffffffff168160a0015173ffffffffffffffffffffffffffffffffffffffff1614610de1576040517f08c379a0000000000000000000000000000000000000000000000000000000008152600401610dd890613dfe565b60405180910390fd5b6000816060015160ff161415610e4857610df9612b1c565b73ffffffffffffffffffffffffffffffffffffffff166108fc82602001519081150290604051600060405180830381858888f19350505050158015610e42573d6000803e3d6000fd5b50611037565b6001816060015160ff161415610f00576000816040015190508073ffffffffffffffffffffffffffffffffffffffff1663a9059cbb610e85612b1c565b84602001516040518363ffffffff1660e01b8152600401610ea7929190613bda565b602060405180830381600087803b158015610ec157600080fd5b505af1158015610ed5573d6000803e3d6000fd5b505050506040513d601f19601f82011682018060405250810190610ef991906135c0565b5050611036565b6002816060015160ff161415610f99576000816040015190508073ffffffffffffffffffffffffffffffffffffffff166323b872dd30610f3e612b1c565b85608001516040518463ffffffff1660e01b8152600401610f6193929190613aa9565b600060405180830381600087803b158015610f7b57600080fd5b505af1158015610f8f573d6000803e3d6000fd5b5050505050611035565b6003816060015160ff161415611034576000816040015190508073ffffffffffffffffffffffffffffffffffffffff1663f242432a30610fd7612b1c565b856080015186602001516040518563ffffffff1660e01b81526004016110009493929190613b82565b600060405180830381600087803b15801561101a57600080fd5b505af115801561102e573d6000803e3d6000fd5b50505050505b5b5b5b61103f612b1c565b73ffffffffffffffffffffffffffffffffffffffff167fdd4d77fcb81062c183b4956dfcb3a37fcef2bea1fc9b861e5b2caf67fca071f7838360600151846040015185602001516040516110969493929190613ed9565b60405180910390a2600882815481106110d8577f4e487b7100000000000000000000000000000000000000000000000000000000600052603260045260246000fd5b9060005260206000209060060201600080820160006101000a81549073ffffffffffffffffffffffffffffffffffffffff021916905560018201600090556002820160006101000a81549073ffffffffffffffffffffffffffffffffffffffff02191690556002820160146101000a81549060ff021916905560038201600090556004820160006101000a81549073ffffffffffffffffffffffffffffffffffffffff0219169055600582016000905550505050565b611196612b2b565b6000600654116111db576040517f08c379a00000000000000000000000000000000000000000000000000000000081526004016111d290613d1e565b60405180910390fd5b8073ffffffffffffffffffffffffffffffffffffffff166108fc6006549081150290604051600060405180830381858888f19350505050158015611223573d6000803e3d6000fd5b5060006006819055508073ffffffffffffffffffffffffffffffffffffffff167f9acd446c7c5d67289e9ab24bf8d274c3e60b36709aad13c9ccefec55a25c00bb6006546040516112749190613ebe565b60405180910390a250565b600060088054905085106112c8576040517f08c379a00000000000000000000000000000000000000000000000000000000081526004016112bf90613e9e565b60405180910390fd5b600060088681548110611304577f4e487b7100000000000000000000000000000000000000000000000000000000600052603260045260246000fd5b90600052602060002090600602016040518060e00160405290816000820160009054906101000a900473ffffffffffffffffffffffffffffffffffffffff1673ffffffffffffffffffffffffffffffffffffffff1673ffffffffffffffffffffffffffffffffffffffff168152602001600182015481526020016002820160009054906101000a900473ffffffffffffffffffffffffffffffffffffffff1673ffffffffffffffffffffffffffffffffffffffff1673ffffffffffffffffffffffffffffffffffffffff1681526020016002820160149054906101000a900460ff1660ff1660ff168152602001600382015481526020016004820160009054906101000a900473ffffffffffffffffffffffffffffffffffffffff1673ffffffffffffffffffffffffffffffffffffffff1673ffffffffffffffffffffffffffffffffffffffff168152602001600582015481525050905060008160200151116114a3576040517f08c379a000000000000000000000000000000000000000000000000000000000815260040161149a90613e7e565b60405180910390fd5b6114d2856040516020016114b79190613a31565b60405160208183030381529060405280519060200120612ba9565b8414611513576040517f08c379a000000000000000000000000000000000000000000000000000000000815260040161150a90613e5e565b60405180910390fd5b600061151f8585612bdf565b9050816000015173ffffffffffffffffffffffffffffffffffffffff168173ffffffffffffffffffffffffffffffffffffffff1614611593576040517f08c379a000000000000000000000000000000000000000000000000000000000815260040161158a90613cde565b60405180910390fd5b6000826060015160ff1614156115f3578573ffffffffffffffffffffffffffffffffffffffff166108fc83602001519081150290604051600060405180830381858888f193505050501580156115ed573d6000803e3d6000fd5b506117cd565b6001826060015160ff1614156116a4576000826040015190508073ffffffffffffffffffffffffffffffffffffffff1663a9059cbb8885602001516040518363ffffffff1660e01b815260040161164b929190613bda565b602060405180830381600087803b15801561166557600080fd5b505af1158015611679573d6000803e3d6000fd5b505050506040513d601f19601f8201168201806040525081019061169d91906135c0565b50506117cc565b6002826060015160ff161415611736576000826040015190508073ffffffffffffffffffffffffffffffffffffffff166323b872dd308986608001516040518463ffffffff1660e01b81526004016116fe93929190613aa9565b600060405180830381600087803b15801561171857600080fd5b505af115801561172c573d6000803e3d6000fd5b50505050506117cb565b6003826060015160ff1614156117ca576000826040015190508073ffffffffffffffffffffffffffffffffffffffff1663f242432a3089866080015187602001516040518563ffffffff1660e01b81526004016117969493929190613b82565b600060405180830381600087803b1580156117b057600080fd5b505af11580156117c4573d6000803e3d6000fd5b50505050505b5b5b5b8573ffffffffffffffffffffffffffffffffffffffff167fdd4d77fcb81062c183b4956dfcb3a37fcef2bea1fc9b861e5b2caf67fca071f7888460600151856040015186602001516040516118259493929190613ed9565b60405180910390a260088781548110611867577f4e487b7100000000000000000000000000000000000000000000000000000000600052603260045260246000fd5b9060005260206000209060060201600080820160006101000a81549073ffffffffffffffffffffffffffffffffffffffff021916905560018201600090556002820160006101000a81549073ffffffffffffffffffffffffffffffffffffffff02191690556002820160146101000a81549060ff021916905560038201600090556004820160006101000a81549073ffffffffffffffffffffffffffffffffffffffff021916905560058201600090555050600192505050949350505050565b60008060009054906101000a900473ffffffffffffffffffffffffffffffffffffffff1673ffffffffffffffffffffffffffffffffffffffff168273ffffffffffffffffffffffffffffffffffffffff16149050919050565b600080600360008473ffffffffffffffffffffffffffffffffffffffff1673ffffffffffffffffffffffffffffffffffffffff16815260200190815260200160002054905060008114156119d45760045490505b60003a600754116119e5573a6119e9565b6007545b9050600082826119f99190613ff7565b905060055481611a099190613fa1565b9350505050919050565b611a1b612b2b565b8060028190555050565b60065481565b611a33612b2b565b611a3d6000612bf8565b565b611a47612b2b565b8060058190555050565b6000600160009054906101000a900473ffffffffffffffffffffffffffffffffffffffff16905090565b611a83612b2b565b8060078190555050565b6000600880549050905090565b60045481565b60055481565b60007fbe9026ad5baa968e00aac2255a31276c279344b5c00065fec9ea38e7c9d41c088383604051611ad9929190613a4c565b60405180910390201415611af65763bc197c8160e01b9050611fb6565b601487879050611b069190613ff7565b8383905014611b4a576040517f08c379a0000000000000000000000000000000000000000000000000000000008152600401611b4190613d5e565b60405180910390fd5b6000611b54612b1c565b9050600060049050600080600080600090505b8c8c9050811015611fa5578a8a82818110611bab577f4e487b7100000000000000000000000000000000000000000000000000000000600052603260045260246000fd5b9050602002013592508c8c82818110611bed577f4e487b7100000000000000000000000000000000000000000000000000000000600052603260045260246000fd5b9050602002013591506000601482611c059190613ff7565b90506000601467ffffffffffffffff811115611c4a577f4e487b7100000000000000000000000000000000000000000000000000000000600052604160045260246000fd5b6040519080825280601f01601f191660200182016040528015611c7c5781602001600182028036833780820191505090505b50905060005b6014811015611d54578b8b8285611c999190613fa1565b818110611ccf577f4e487b7100000000000000000000000000000000000000000000000000000000600052603260045260246000fd5b9050013560f81c60f81b828281518110611d12577f4e487b7100000000000000000000000000000000000000000000000000000000600052603260045260246000fd5b60200101907effffffffffffffffffffffffffffffffffffffffffffffffffffffffffffff1916908160001a9053508080611d4c90614162565b915050611c82565b5080806020019051810190611d699190613306565b955060086040518060e001604052808873ffffffffffffffffffffffffffffffffffffffff1681526020018781526020018a73ffffffffffffffffffffffffffffffffffffffff1681526020018960ff168152602001868152602001611dcd612b1c565b73ffffffffffffffffffffffffffffffffffffffff16815260200142815250908060018154018082558091505060019003906000526020600020906006020160009091909190915060008201518160000160006101000a81548173ffffffffffffffffffffffffffffffffffffffff021916908373ffffffffffffffffffffffffffffffffffffffff1602179055506020820151816001015560408201518160020160006101000a81548173ffffffffffffffffffffffffffffffffffffffff021916908373ffffffffffffffffffffffffffffffffffffffff16021790555060608201518160020160146101000a81548160ff021916908360ff1602179055506080820151816003015560a08201518160040160006101000a81548173ffffffffffffffffffffffffffffffffffffffff021916908373ffffffffffffffffffffffffffffffffffffffff16021790555060c0820151816005015550508f73ffffffffffffffffffffffffffffffffffffffff167f0ff0c92c63b7eee4d6ef05afdf24fe4ed28ea37f6cbb91962ec869e642d8a02a6001600880549050611f759190614051565b898b89604051611f889493929190613ed9565b60405180910390a250508080611f9d90614162565b915050611b67565b5063bc197c8160e01b955050505050505b98975050505050505050565b611fca612b2b565b80600360008473ffffffffffffffffffffffffffffffffffffffff1673ffffffffffffffffffffffffffffffffffffffff168152602001908152602001600020819055505050565b60008060009054906101000a900473ffffffffffffffffffffffffffffffffffffffff16905090565b60036020528060005260406000206000915090505481565b60075481565b612061612b2b565b61206a81612cbe565b50565b612075612b2b565b8060048190555050565b60007fbe9026ad5baa968e00aac2255a31276c279344b5c00065fec9ea38e7c9d41c0883836040516120b2929190613a4c565b604051809103902014156120cf5763f23a6e6160e01b9050612373565b60148383905014612115576040517f08c379a000000000000000000000000000000000000000000000000000000000815260040161210c90613d5e565b60405180910390fd5b600061211f612b1c565b905060006003905060008690506000868681019061213d91906132dd565b905060086040518060e001604052808373ffffffffffffffffffffffffffffffffffffffff1681526020018481526020018673ffffffffffffffffffffffffffffffffffffffff1681526020018560ff1681526020018b81526020016121a1612b1c565b73ffffffffffffffffffffffffffffffffffffffff16815260200142815250908060018154018082558091505060019003906000526020600020906006020160009091909190915060008201518160000160006101000a81548173ffffffffffffffffffffffffffffffffffffffff021916908373ffffffffffffffffffffffffffffffffffffffff1602179055506020820151816001015560408201518160020160006101000a81548173ffffffffffffffffffffffffffffffffffffffff021916908373ffffffffffffffffffffffffffffffffffffffff16021790555060608201518160020160146101000a81548160ff021916908360ff1602179055506080820151816003015560a08201518160040160006101000a81548173ffffffffffffffffffffffffffffffffffffffff021916908373ffffffffffffffffffffffffffffffffffffffff16021790555060c0820151816005015550508973ffffffffffffffffffffffffffffffffffffffff167f0ff0c92c63b7eee4d6ef05afdf24fe4ed28ea37f6cbb91962ec869e642d8a02a60016008805490506123499190614051565b85878660405161235c9493929190613ed9565b60405180910390a263f23a6e6160e01b9450505050505b9695505050505050565b612385612b2b565b600073ffffffffffffffffffffffffffffffffffffffff168173ffffffffffffffffffffffffffffffffffffffff1614156123f5576040517f08c379a00000000000000000000000000000000000000000000000000000000081526004016123ec90613cbe565b60405180910390fd5b6123fe81612bf8565b50565b60008061240d87611980565b9050803411612451576040517f08c379a000000000000000000000000000000000000000000000000000000000815260040161244890613d3e565b60405180910390fd5b60048660ff1610612497576040517f08c379a000000000000000000000000000000000000000000000000000000000815260040161248e90613dbe565b60405180910390fd5b60008660ff1614156124cf5780346124af9190614051565b945080600660008282546124c39190613fa1565b92505081905550612895565b60018660ff161415612761576000879050858173ffffffffffffffffffffffffffffffffffffffff166370a08231612505612b1c565b6040518263ffffffff1660e01b81526004016125219190613a65565b60206040518083038186803b15801561253957600080fd5b505afa15801561254d573d6000803e3d6000fd5b505050506040513d601f19601f82011682018060405250810190612571919061363b565b10156125b2576040517f08c379a00000000000000000000000000000000000000000000000000000000081526004016125a990613e3e565b60405180910390fd5b858173ffffffffffffffffffffffffffffffffffffffff1663dd62ed3e6125d7612b1c565b306040518363ffffffff1660e01b81526004016125f5929190613a80565b60206040518083038186803b15801561260d57600080fd5b505afa158015612621573d6000803e3d6000fd5b505050506040513d601f19601f82011682018060405250810190612645919061363b565b1015612686576040517f08c379a000000000000000000000000000000000000000000000000000000000815260040161267d90613e1e565b60405180910390fd5b8073ffffffffffffffffffffffffffffffffffffffff166323b872dd6126aa612b1c565b30896040518463ffffffff1660e01b81526004016126ca93929190613aa9565b602060405180830381600087803b1580156126e457600080fd5b505af11580156126f8573d6000803e3d6000fd5b505050506040513d601f19601f8201168201806040525081019061271c91906135c0565b61275b576040517f08c379a000000000000000000000000000000000000000000000000000000000815260040161275290613d7e565b60405180910390fd5b5061287b565b60028660ff1614156127ee5760008790508073ffffffffffffffffffffffffffffffffffffffff1663b88d4fde612796612b1c565b30886040518463ffffffff1660e01b81526004016127b693929190613ae0565b600060405180830381600087803b1580156127d057600080fd5b505af11580156127e4573d6000803e3d6000fd5b505050505061287a565b60038660ff1614156128795760008790508073ffffffffffffffffffffffffffffffffffffffff1663f242432a612823612b1c565b30888a6040518563ffffffff1660e01b81526004016128459493929190613b2a565b600060405180830381600087803b15801561285f57600080fd5b505af1158015612873573d6000803e3d6000fd5b50505050505b5b5b346006600082825461288d9190613fa1565b925050819055505b60086040518060e001604052808573ffffffffffffffffffffffffffffffffffffffff1681526020018781526020018973ffffffffffffffffffffffffffffffffffffffff1681526020018860ff1681526020018681526020016128f7612b1c565b73ffffffffffffffffffffffffffffffffffffffff16815260200142815250908060018154018082558091505060019003906000526020600020906006020160009091909190915060008201518160000160006101000a81548173ffffffffffffffffffffffffffffffffffffffff021916908373ffffffffffffffffffffffffffffffffffffffff1602179055506020820151816001015560408201518160020160006101000a81548173ffffffffffffffffffffffffffffffffffffffff021916908373ffffffffffffffffffffffffffffffffffffffff16021790555060608201518160020160146101000a81548160ff021916908360ff1602179055506080820151816003015560a08201518160040160006101000a81548173ffffffffffffffffffffffffffffffffffffffff021916908373ffffffffffffffffffffffffffffffffffffffff16021790555060c082015181600501555050612a5d612b1c565b73ffffffffffffffffffffffffffffffffffffffff167f0ff0c92c63b7eee4d6ef05afdf24fe4ed28ea37f6cbb91962ec869e642d8a02a6001600880549050612aa69190614051565b888a89604051612ab99493929190613ed9565b60405180910390a26001600880549050612ad39190614051565b91505095945050505050565b60025481565b60006014600036905010158015612b015750612b0033611927565b5b15612b1557601436033560601c9050612b19565b3390505b90565b6000612b26612ae5565b905090565b612b33612b1c565b73ffffffffffffffffffffffffffffffffffffffff16612b51611a51565b73ffffffffffffffffffffffffffffffffffffffff1614612ba7576040517f08c379a0000000000000000000000000000000000000000000000000000000008152600401612b9e90613d9e565b60405180910390fd5b565b60007f19457468657265756d205369676e6564204d6573736167653a0a33320000000060005281601c52603c6000209050919050565b600080612bec8484612d01565b90508091505092915050565b6000600160009054906101000a900473ffffffffffffffffffffffffffffffffffffffff16905081600160006101000a81548173ffffffffffffffffffffffffffffffffffffffff021916908373ffffffffffffffffffffffffffffffffffffffff1602179055508173ffffffffffffffffffffffffffffffffffffffff168173ffffffffffffffffffffffffffffffffffffffff167f8be0079c531659141344cd1fd0a4f28419497f9722a3daafe3b4186f6b6457e060405160405180910390a35050565b806000806101000a81548173ffffffffffffffffffffffffffffffffffffffff021916908373ffffffffffffffffffffffffffffffffffffffff16021790555050565b6000806000612d108585612d28565b91509150612d1d81612d7a565b819250505092915050565b600080604183511415612d6a5760008060006020860151925060408601519150606086015160001a9050612d5e87828585613018565b94509450505050612d73565b60006002915091505b9250929050565b60006004811115612db4577f4e487b7100000000000000000000000000000000000000000000000000000000600052602160045260246000fd5b816004811115612ded577f4e487b7100000000000000000000000000000000000000000000000000000000600052602160045260246000fd5b1415612df857613015565b60016004811115612e32577f4e487b7100000000000000000000000000000000000000000000000000000000600052602160045260246000fd5b816004811115612e6b577f4e487b7100000000000000000000000000000000000000000000000000000000600052602160045260246000fd5b1415612eac576040517f08c379a0000000000000000000000000000000000000000000000000000000008152600401612ea390613c7e565b60405180910390fd5b60026004811115612ee6577f4e487b7100000000000000000000000000000000000000000000000000000000600052602160045260246000fd5b816004811115612f1f577f4e487b7100000000000000000000000000000000000000000000000000000000600052602160045260246000fd5b1415612f60576040517f08c379a0000000000000000000000000000000000000000000000000000000008152600401612f5790613c9e565b60405180910390fd5b60036004811115612f9a577f4e487b7100000000000000000000000000000000000000000000000000000000600052602160045260246000fd5b816004811115612fd3577f4e487b7100000000000000000000000000000000000000000000000000000000600052602160045260246000fd5b1415613014576040517f08c379a000000000000000000000000000000000000000000000000000000000815260040161300b90613cfe565b60405180910390fd5b5b50565b6000807f7fffffffffffffffffffffffffffffff5d576e7357a4501ddfe92f46681b20a08360001c11156130535760006003915091506130f2565b6000600187878787604051600081526020016040526040516130789493929190613c1e565b6020604051602081039080840390855afa15801561309a573d6000803e3d6000fd5b505050602060405103519050600073ffffffffffffffffffffffffffffffffffffffff168173ffffffffffffffffffffffffffffffffffffffff1614156130e9576000600192509250506130f2565b80600092509250505b94509492505050565b600061310e61310984613f43565b613f1e565b90508281526020810184848401111561312657600080fd5b613131848285614122565b509392505050565b600081359050613148816145f1565b92915050565b60008135905061315d81614608565b92915050565b60008151905061317281614608565b92915050565b60008083601f84011261318a57600080fd5b8235905067ffffffffffffffff8111156131a357600080fd5b6020830191508360208202830111156131bb57600080fd5b9250929050565b6000815190506131d18161461f565b92915050565b6000813590506131e681614636565b92915050565b6000813590506131fb8161464d565b92915050565b60008083601f84011261321357600080fd5b8235905067ffffffffffffffff81111561322c57600080fd5b60208301915083600182028301111561324457600080fd5b9250929050565b600082601f83011261325c57600080fd5b813561326c8482602086016130fb565b91505092915050565b60008135905061328481614664565b92915050565b60008151905061329981614664565b92915050565b6000813590506132ae8161467b565b92915050565b6000602082840312156132c657600080fd5b60006132d484828501613139565b91505092915050565b6000602082840312156132ef57600080fd5b60006132fd8482850161314e565b91505092915050565b60006020828403121561331857600080fd5b600061332684828501613163565b91505092915050565b60008060008060008060008060a0898b03121561334b57600080fd5b60006133598b828c01613139565b985050602061336a8b828c01613139565b975050604089013567ffffffffffffffff81111561338757600080fd5b6133938b828c01613178565b9650965050606089013567ffffffffffffffff8111156133b257600080fd5b6133be8b828c01613178565b9450945050608089013567ffffffffffffffff8111156133dd57600080fd5b6133e98b828c01613201565b92509250509295985092959890939650565b60008060008060006080868803121561341357600080fd5b600061342188828901613139565b955050602061343288828901613139565b945050604061344388828901613275565b935050606086013567ffffffffffffffff81111561346057600080fd5b61346c88828901613201565b92509250509295509295909350565b60008060008060008060a0878903121561349457600080fd5b60006134a289828a01613139565b96505060206134b389828a01613139565b95505060406134c489828a01613275565b94505060606134d589828a01613275565b935050608087013567ffffffffffffffff8111156134f257600080fd5b6134fe89828a01613201565b92509250509295509295509295565b6000806040838503121561352057600080fd5b600061352e85828601613139565b925050602061353f85828601613275565b9150509250929050565b600080600080600060a0868803121561356157600080fd5b600061356f88828901613139565b95505060206135808882890161329f565b945050604061359188828901613275565b93505060606135a288828901613275565b92505060806135b388828901613139565b9150509295509295909350565b6000602082840312156135d257600080fd5b60006135e0848285016131c2565b91505092915050565b6000602082840312156135fb57600080fd5b6000613609848285016131ec565b91505092915050565b60006020828403121561362457600080fd5b600061363284828501613275565b91505092915050565b60006020828403121561364d57600080fd5b600061365b8482850161328a565b91505092915050565b6000806000806080858703121561367a57600080fd5b600061368887828801613275565b945050602061369987828801613139565b93505060406136aa878288016131d7565b925050606085013567ffffffffffffffff8111156136c757600080fd5b6136d38782880161324b565b91505092959194509250565b6136e881614085565b82525050565b6136ff6136fa82614085565b6141ab565b82525050565b61370e816140a9565b82525050565b61371d816140b5565b82525050565b61372c816140bf565b82525050565b600061373e8385613f85565b935061374b838584614122565b82840190509392505050565b6000613764601883613f90565b915061376f8261424b565b602082019050919050565b6000613787601f83613f90565b915061379282614274565b602082019050919050565b60006137aa602683613f90565b91506137b58261429d565b604082019050919050565b60006137cd600f83613f90565b91506137d8826142ec565b602082019050919050565b60006137f0602283613f90565b91506137fb82614315565b604082019050919050565b6000613813600983613f90565b915061381e82614364565b602082019050919050565b6000613836600e83613f90565b91506138418261438d565b602082019050919050565b6000613859601083613f90565b9150613864826143b6565b602082019050919050565b600061387c602a83613f90565b9150613887826143df565b604082019050919050565b600061389f602083613f90565b91506138aa8261442e565b602082019050919050565b60006138c2601583613f90565b91506138cd82614457565b602082019050919050565b60006138e5602e83613f90565b91506138f082614480565b604082019050919050565b6000613908601183613f74565b9150613913826144cf565b602082019050919050565b600061392b601a83613f90565b9150613936826144f8565b602082019050919050565b600061394e600083613f74565b915061395982614521565b600082019050919050565b6000613971601683613f90565b915061397c82614524565b602082019050919050565b6000613994601a83613f90565b915061399f8261454d565b602082019050919050565b60006139b7601383613f90565b91506139c282614576565b602082019050919050565b60006139da601983613f90565b91506139e58261459f565b602082019050919050565b60006139fd601c83613f90565b9150613a08826145c8565b602082019050919050565b613a1c8161410b565b82525050565b613a2b81614115565b82525050565b6000613a3d82846136ee565b60148201915081905092915050565b6000613a59828486613732565b91508190509392505050565b6000602082019050613a7a60008301846136df565b92915050565b6000604082019050613a9560008301856136df565b613aa260208301846136df565b9392505050565b6000606082019050613abe60008301866136df565b613acb60208301856136df565b613ad86040830184613a13565b949350505050565b6000608082019050613af560008301866136df565b613b0260208301856136df565b613b0f6040830184613a13565b8181036060830152613b20816138fb565b9050949350505050565b600060a082019050613b3f60008301876136df565b613b4c60208301866136df565b613b596040830185613a13565b613b666060830184613a13565b8181036080830152613b77816138fb565b905095945050505050565b600060a082019050613b9760008301876136df565b613ba460208301866136df565b613bb16040830185613a13565b613bbe6060830184613a13565b8181036080830152613bcf81613941565b905095945050505050565b6000604082019050613bef60008301856136df565b613bfc6020830184613a13565b9392505050565b6000602082019050613c186000830184613705565b92915050565b6000608082019050613c336000830187613714565b613c406020830186613a22565b613c4d6040830185613714565b613c5a6060830184613714565b95945050505050565b6000602082019050613c786000830184613723565b92915050565b60006020820190508181036000830152613c9781613757565b9050919050565b60006020820190508181036000830152613cb78161377a565b9050919050565b60006020820190508181036000830152613cd78161379d565b9050919050565b60006020820190508181036000830152613cf7816137c0565b9050919050565b60006020820190508181036000830152613d17816137e3565b9050919050565b60006020820190508181036000830152613d3781613806565b9050919050565b60006020820190508181036000830152613d5781613829565b9050919050565b60006020820190508181036000830152613d778161384c565b9050919050565b60006020820190508181036000830152613d978161386f565b9050919050565b60006020820190508181036000830152613db781613892565b9050919050565b60006020820190508181036000830152613dd7816138b5565b9050919050565b60006020820190508181036000830152613df7816138d8565b9050919050565b60006020820190508181036000830152613e178161391e565b9050919050565b60006020820190508181036000830152613e3781613964565b9050919050565b60006020820190508181036000830152613e5781613987565b9050919050565b60006020820190508181036000830152613e77816139aa565b9050919050565b60006020820190508181036000830152613e97816139cd565b9050919050565b60006020820190508181036000830152613eb7816139f0565b9050919050565b6000602082019050613ed36000830184613a13565b92915050565b6000608082019050613eee6000830187613a13565b613efb6020830186613a22565b613f0860408301856136df565b613f156060830184613a13565b95945050505050565b6000613f28613f39565b9050613f348282614131565b919050565b6000604051905090565b600067ffffffffffffffff821115613f5e57613f5d6141fe565b5b613f678261422d565b9050602081019050919050565b600082825260208201905092915050565b600081905092915050565b600082825260208201905092915050565b6000613fac8261410b565b9150613fb78361410b565b9250827fffffffffffffffffffffffffffffffffffffffffffffffffffffffffffffffff03821115613fec57613feb6141cf565b5b828201905092915050565b60006140028261410b565b915061400d8361410b565b9250817fffffffffffffffffffffffffffffffffffffffffffffffffffffffffffffffff0483118215151615614046576140456141cf565b5b828202905092915050565b600061405c8261410b565b91506140678361410b565b92508282101561407a576140796141cf565b5b828203905092915050565b6000614090826140eb565b9050919050565b60006140a2826140eb565b9050919050565b60008115159050919050565b6000819050919050565b60007fffffffff0000000000000000000000000000000000000000000000000000000082169050919050565b600073ffffffffffffffffffffffffffffffffffffffff82169050919050565b6000819050919050565b600060ff82169050919050565b82818337600083830152505050565b61413a8261422d565b810181811067ffffffffffffffff82111715614159576141586141fe565b5b80604052505050565b600061416d8261410b565b91507fffffffffffffffffffffffffffffffffffffffffffffffffffffffffffffffff8214156141a05761419f6141cf565b5b600182019050919050565b60006141b6826141bd565b9050919050565b60006141c88261423e565b9050919050565b7f4e487b7100000000000000000000000000000000000000000000000000000000600052601160045260246000fd5b7f4e487b7100000000000000000000000000000000000000000000000000000000600052604160045260246000fd5b6000601f19601f8301169050919050565b60008160601b9050919050565b7f45434453413a20696e76616c6964207369676e61747572650000000000000000600082015250565b7f45434453413a20696e76616c6964207369676e6174757265206c656e67746800600082015250565b7f4f776e61626c653a206e6577206f776e657220697320746865207a65726f206160008201527f6464726573730000000000000000000000000000000000000000000000000000602082015250565b7f57524f4e47205349474e41545552450000000000000000000000000000000000600082015250565b7f45434453413a20696e76616c6964207369676e6174757265202773272076616c60008201527f7565000000000000000000000000000000000000000000000000000000000000602082015250565b7f4e6f2070726f6669740000000000000000000000000000000000000000000000600082015250565b7f4e4f5420454e4f55474820455448000000000000000000000000000000000000600082015250565b7f494e56414c49442043414c4c4441544100000000000000000000000000000000600082015250565b7f5452414e53464552204641494c45442e20434845434b20414c4c4f57414e434560008201527f20262042414c414e434500000000000000000000000000000000000000000000602082015250565b7f4f776e61626c653a2063616c6c6572206973206e6f7420746865206f776e6572600082015250565b7f494e56414c494420434f4e545241435420545950450000000000000000000000600082015250565b7f53454e444552204d555354205741495420414654455220534f4d4520424c4f4360008201527f4b5320544f205749544844524157000000000000000000000000000000000000602082015250565b7f496e7465726e616c207472616e73666572000000000000000000000000000000600082015250565b7f4d5553542042452053454e44455220544f205749544844524157000000000000600082015250565b50565b7f494e53554646494349454e5420414c4c4f57414e434500000000000000000000600082015250565b7f494e53554646494349454e5420544f4b454e2042414c414e4345000000000000600082015250565b7f48415348455320444f204e4f54204d4154434800000000000000000000000000600082015250565b7f4445504f53495420414c52454144592057495448445241574e00000000000000600082015250565b7f4445504f53495420494e44455820444f4553204e4f5420455849535400000000600082015250565b6145fa81614085565b811461460557600080fd5b50565b61461181614097565b811461461c57600080fd5b50565b614628816140a9565b811461463357600080fd5b50565b61463f816140b5565b811461464a57600080fd5b50565b614656816140bf565b811461466157600080fd5b50565b61466d8161410b565b811461467857600080fd5b50565b61468481614115565b811461468f57600080fd5b5056fea2646970667358221220d695ef1e076886cfb7a74fb3027d3da2b925d6e83c977a97455fed402d247fad64736f6c63430008020033",
  "linkReferences": {},
  "deployedLinkReferences": {}
}