{
  "_format": "hh-sol-artifact-1",
  "contractName": "Frens",
  "sourceName": "contracts/Frens.sol",
  "abi": [
    {
      "inputs": [],
      "stateMutability": "nonpayable",
      "type": "constructor"
    },
    {
      "anonymous": false,
      "inputs": [
        {
          "indexed": false,
          "internalType": "uint256",
          "name": "_index",
          "type": "uint256"
        },
        {
          "indexed": false,
          "internalType": "uint8",
          "name": "_contractType",
          "type": "uint8"
        },
        {
          "indexed": false,
          "internalType": "uint256",
          "name": "_amount",
          "type": "uint256"
        },
        {
          "indexed": true,
          "internalType": "address",
          "name": "_senderAddress",
          "type": "address"
        }
      ],
      "name": "DepositEvent",
      "type": "event"
    },
    {
      "anonymous": false,
      "inputs": [
        {
          "indexed": true,
          "internalType": "address",
          "name": "previousOwner",
          "type": "address"
        },
        {
          "indexed": true,
          "internalType": "address",
          "name": "newOwner",
          "type": "address"
        }
      ],
      "name": "OwnershipTransferred",
      "type": "event"
    },
    {
      "anonymous": false,
      "inputs": [
        {
          "indexed": false,
          "internalType": "uint256",
          "name": "_index",
          "type": "uint256"
        },
        {
          "indexed": false,
          "internalType": "uint8",
          "name": "_contractType",
          "type": "uint8"
        },
        {
          "indexed": false,
          "internalType": "uint256",
          "name": "_amount",
          "type": "uint256"
        },
        {
          "indexed": true,
          "internalType": "address",
          "name": "_recipientAddress",
          "type": "address"
        }
      ],
      "name": "WithdrawEvent",
      "type": "event"
    },
    {
      "inputs": [],
      "name": "getDepositCount",
      "outputs": [
        {
          "internalType": "uint256",
          "name": "",
          "type": "uint256"
        }
      ],
      "stateMutability": "view",
      "type": "function"
    },
    {
      "inputs": [
        {
          "internalType": "address",
          "name": "_tokenAddress",
          "type": "address"
        },
        {
          "internalType": "uint8",
          "name": "_contractType",
          "type": "uint8"
        },
        {
          "internalType": "uint256",
          "name": "_amount",
          "type": "uint256"
        },
        {
          "internalType": "uint256",
          "name": "_tokenId",
          "type": "uint256"
        },
        {
          "internalType": "address",
          "name": "_pubKey",
          "type": "address"
        }
      ],
      "name": "makeDeposit",
      "outputs": [
        {
          "internalType": "uint256",
          "name": "",
          "type": "uint256"
        }
      ],
      "stateMutability": "payable",
      "type": "function"
    },
    {
      "inputs": [
        {
          "internalType": "address",
          "name": "_operator",
          "type": "address"
        },
        {
          "internalType": "address",
          "name": "_from",
          "type": "address"
        },
        {
          "internalType": "uint256[]",
          "name": "_ids",
          "type": "uint256[]"
        },
        {
          "internalType": "uint256[]",
          "name": "_values",
          "type": "uint256[]"
        },
        {
          "internalType": "bytes",
          "name": "_data",
          "type": "bytes"
        }
      ],
      "name": "onERC1155BatchReceived",
      "outputs": [
        {
          "internalType": "bytes4",
          "name": "",
          "type": "bytes4"
        }
      ],
      "stateMutability": "nonpayable",
      "type": "function"
    },
    {
      "inputs": [
        {
          "internalType": "address",
          "name": "_operator",
          "type": "address"
        },
        {
          "internalType": "address",
          "name": "_from",
          "type": "address"
        },
        {
          "internalType": "uint256",
          "name": "_tokenId",
          "type": "uint256"
        },
        {
          "internalType": "uint256",
          "name": "_value",
          "type": "uint256"
        },
        {
          "internalType": "bytes",
          "name": "_data",
          "type": "bytes"
        }
      ],
      "name": "onERC1155Received",
      "outputs": [
        {
          "internalType": "bytes4",
          "name": "",
          "type": "bytes4"
        }
      ],
      "stateMutability": "nonpayable",
      "type": "function"
    },
    {
      "inputs": [
        {
          "internalType": "address",
          "name": "_operator",
          "type": "address"
        },
        {
          "internalType": "address",
          "name": "_from",
          "type": "address"
        },
        {
          "internalType": "uint256",
          "name": "_tokenId",
          "type": "uint256"
        },
        {
          "internalType": "bytes",
          "name": "_data",
          "type": "bytes"
        }
      ],
      "name": "onERC721Received",
      "outputs": [
        {
          "internalType": "bytes4",
          "name": "",
          "type": "bytes4"
        }
      ],
      "stateMutability": "nonpayable",
      "type": "function"
    },
    {
      "inputs": [],
      "name": "owner",
      "outputs": [
        {
          "internalType": "address",
          "name": "",
          "type": "address"
        }
      ],
      "stateMutability": "view",
      "type": "function"
    },
    {
      "inputs": [],
      "name": "renounceOwnership",
      "outputs": [],
      "stateMutability": "nonpayable",
      "type": "function"
    },
    {
      "inputs": [],
      "name": "senderLockDuration",
      "outputs": [
        {
          "internalType": "uint256",
          "name": "",
          "type": "uint256"
        }
      ],
      "stateMutability": "view",
      "type": "function"
    },
    {
      "inputs": [
        {
          "internalType": "uint256",
          "name": "_duration",
          "type": "uint256"
        }
      ],
      "name": "setSenderLockDuration",
      "outputs": [],
      "stateMutability": "nonpayable",
      "type": "function"
    },
    {
      "inputs": [
        {
          "internalType": "bytes4",
          "name": "_interfaceId",
          "type": "bytes4"
        }
      ],
      "name": "supportsInterface",
      "outputs": [
        {
          "internalType": "bool",
          "name": "",
          "type": "bool"
        }
      ],
      "stateMutability": "view",
      "type": "function"
    },
    {
      "inputs": [
        {
          "internalType": "address",
          "name": "newOwner",
          "type": "address"
        }
      ],
      "name": "transferOwnership",
      "outputs": [],
      "stateMutability": "nonpayable",
      "type": "function"
    },
    {
      "inputs": [
        {
          "internalType": "uint256",
          "name": "_index",
          "type": "uint256"
        },
        {
          "internalType": "address",
          "name": "_recipientAddress",
          "type": "address"
        },
        {
          "internalType": "bytes32",
          "name": "_recipientAddressHash",
          "type": "bytes32"
        },
        {
          "internalType": "bytes",
          "name": "_signature",
          "type": "bytes"
        }
      ],
      "name": "withdrawDeposit",
      "outputs": [
        {
          "internalType": "bool",
          "name": "",
          "type": "bool"
        }
      ],
      "stateMutability": "nonpayable",
      "type": "function"
    },
    {
      "inputs": [
        {
          "internalType": "uint256",
          "name": "_index",
          "type": "uint256"
        }
      ],
      "name": "withdrawSender",
      "outputs": [],
      "stateMutability": "nonpayable",
      "type": "function"
    }
  ],
  "bytecode": "0x608060405262093a806001553480156200001857600080fd5b50620000396200002d6200003f60201b60201c565b6200004760201b60201c565b6200010b565b600033905090565b60008060009054906101000a900473ffffffffffffffffffffffffffffffffffffffff169050816000806101000a81548173ffffffffffffffffffffffffffffffffffffffff021916908373ffffffffffffffffffffffffffffffffffffffff1602179055508173ffffffffffffffffffffffffffffffffffffffff168173ffffffffffffffffffffffffffffffffffffffff167f8be0079c531659141344cd1fd0a4f28419497f9722a3daafe3b4186f6b6457e060405160405180910390a35050565b613f2e806200011b6000396000f3fe6080604052600436106100c25760003560e01c80638da5cb5b1161007f578063bc197c8111610059578063bc197c8114610268578063f23a6e61146102a5578063f2fde38b146102e2578063f34780111461030b576100c2565b80638da5cb5b146101e75780639363a14114610212578063954c4fc01461023d576100c2565b806301ffc9a7146100c757806303f87c2a14610104578063150b7a021461012d5780631f4128831461016a57806330c7a3bb14610193578063715018a6146101d0575b600080fd5b3480156100d357600080fd5b506100ee60048036038101906100e9919061293c565b61033b565b6040516100fb9190612984565b60405180910390f35b34801561011057600080fd5b5061012b600480360381019061012691906129d5565b610475565b005b34801561013957600080fd5b50610154600480360381019061014f9190612ac5565b610487565b6040516101619190612b5c565b60405180910390f35b34801561017657600080fd5b50610191600480360381019061018c91906129d5565b610774565b005b34801561019f57600080fd5b506101ba60048036038101906101b59190612cee565b610e9b565b6040516101c79190612984565b60405180910390f35b3480156101dc57600080fd5b506101e561163f565b005b3480156101f357600080fd5b506101fc611653565b6040516102099190612d80565b60405180910390f35b34801561021e57600080fd5b5061022761167c565b6040516102349190612daa565b60405180910390f35b34801561024957600080fd5b50610252611689565b60405161025f9190612daa565b60405180910390f35b34801561027457600080fd5b5061028f600480360381019061028a9190612e1b565b61168f565b60405161029c9190612b5c565b60405180910390f35b3480156102b157600080fd5b506102cc60048036038101906102c79190612ef7565b611adc565b6040516102d99190612b5c565b60405180910390f35b3480156102ee57600080fd5b5061030960048036038101906103049190612f91565b611dc9565b005b61032560048036038101906103209190612ff7565b611e4c565b6040516103329190612daa565b60405180910390f35b60007f01ffc9a7000000000000000000000000000000000000000000000000000000007bffffffffffffffffffffffffffffffffffffffffffffffffffffffff1916827bffffffffffffffffffffffffffffffffffffffffffffffffffffffff1916148061040657507f150b7a02000000000000000000000000000000000000000000000000000000007bffffffffffffffffffffffffffffffffffffffffffffffffffffffff1916827bffffffffffffffffffffffffffffffffffffffffffffffffffffffff1916145b8061046e57507f4e2312e0000000000000000000000000000000000000000000000000000000007bffffffffffffffffffffffffffffffffffffffffffffffffffffffff1916827bffffffffffffffffffffffffffffffffffffffffffffffffffffffff1916145b9050919050565b61047d61247d565b8060018190555050565b60007fbe9026ad5baa968e00aac2255a31276c279344b5c00065fec9ea38e7c9d41c0883836040516104ba9291906130a2565b6040518091039020036104d65763150b7a0260e01b905061076b565b6014838390501461051c576040517f08c379a000000000000000000000000000000000000000000000000000000000815260040161051390613118565b60405180910390fd5b60003390506000600290506000600190506000868681019061053e9190613176565b905060026040518060e001604052808373ffffffffffffffffffffffffffffffffffffffff1681526020018481526020018673ffffffffffffffffffffffffffffffffffffffff1681526020018560ff1681526020018a81526020013373ffffffffffffffffffffffffffffffffffffffff16815260200142815250908060018154018082558091505060019003906000526020600020906006020160009091909190915060008201518160000160006101000a81548173ffffffffffffffffffffffffffffffffffffffff021916908373ffffffffffffffffffffffffffffffffffffffff1602179055506020820151816001015560408201518160020160006101000a81548173ffffffffffffffffffffffffffffffffffffffff021916908373ffffffffffffffffffffffffffffffffffffffff16021790555060608201518160020160146101000a81548160ff021916908360ff1602179055506080820151816003015560a08201518160040160006101000a81548173ffffffffffffffffffffffffffffffffffffffff021916908373ffffffffffffffffffffffffffffffffffffffff16021790555060c0820151816005015550508973ffffffffffffffffffffffffffffffffffffffff167f6cfb6f205ed755f233c83bfe7f03aee5e1d993139ce47aead6d4fe25f7ec3066600160028054905061074391906131d2565b858560405161075493929190613215565b60405180910390a263150b7a0260e01b9450505050505b95945050505050565b60028054905081106107bb576040517f08c379a00000000000000000000000000000000000000000000000000000000081526004016107b290613298565b60405180910390fd5b600154600282815481106107d2576107d16132b8565b5b9060005260206000209060060201600501546107ee91906132e7565b421015610830576040517f08c379a00000000000000000000000000000000000000000000000000000000081526004016108279061338d565b60405180910390fd5b3373ffffffffffffffffffffffffffffffffffffffff166002828154811061085b5761085a6132b8565b5b906000526020600020906006020160040160009054906101000a900473ffffffffffffffffffffffffffffffffffffffff1673ffffffffffffffffffffffffffffffffffffffff16146108e3576040517f08c379a00000000000000000000000000000000000000000000000000000000081526004016108da906133f9565b60405180910390fd5b6000600282815481106108f9576108f86132b8565b5b906000526020600020906006020160020160149054906101000a900460ff1660ff1603610991573373ffffffffffffffffffffffffffffffffffffffff166108fc6002838154811061094e5761094d6132b8565b5b9060005260206000209060060201600101549081150290604051600060405180830381858888f1935050505015801561098b573d6000803e3d6000fd5b50610d29565b6001600282815481106109a7576109a66132b8565b5b906000526020600020906006020160020160149054906101000a900460ff1660ff1603610ac2576000600282815481106109e4576109e36132b8565b5b906000526020600020906006020160020160009054906101000a900473ffffffffffffffffffffffffffffffffffffffff1690508073ffffffffffffffffffffffffffffffffffffffff1663a9059cbb3360028581548110610a4957610a486132b8565b5b9060005260206000209060060201600101546040518363ffffffff1660e01b8152600401610a78929190613419565b6020604051808303816000875af1158015610a97573d6000803e3d6000fd5b505050506040513d601f19601f82011682018060405250810190610abb919061346e565b5050610d28565b6002808281548110610ad757610ad66132b8565b5b906000526020600020906006020160020160149054906101000a900460ff1660ff1603610be257600060028281548110610b1457610b136132b8565b5b906000526020600020906006020160020160009054906101000a900473ffffffffffffffffffffffffffffffffffffffff1690508073ffffffffffffffffffffffffffffffffffffffff166323b872dd303360028681548110610b7a57610b796132b8565b5b9060005260206000209060060201600301546040518463ffffffff1660e01b8152600401610baa9392919061349b565b600060405180830381600087803b158015610bc457600080fd5b505af1158015610bd8573d6000803e3d6000fd5b5050505050610d27565b600360028281548110610bf857610bf76132b8565b5b906000526020600020906006020160020160149054906101000a900460ff1660ff1603610d2657600060028281548110610c3557610c346132b8565b5b906000526020600020906006020160020160009054906101000a900473ffffffffffffffffffffffffffffffffffffffff1690508073ffffffffffffffffffffffffffffffffffffffff1663f242432a303360028681548110610c9b57610c9a6132b8565b5b90600052602060002090600602016003015460028781548110610cc157610cc06132b8565b5b9060005260206000209060060201600101546040518563ffffffff1660e01b8152600401610cf29493929190613509565b600060405180830381600087803b158015610d0c57600080fd5b505af1158015610d20573d6000803e3d6000fd5b50505050505b5b5b5b3373ffffffffffffffffffffffffffffffffffffffff167f235d68982221ffd040e3bd99e15b4685603afab51b957b8745963fe82cc6d4d68260028481548110610d7657610d756132b8565b5b906000526020600020906006020160020160149054906101000a900460ff1660028581548110610da957610da86132b8565b5b906000526020600020906006020160010154604051610dca93929190613215565b60405180910390a260028181548110610de657610de56132b8565b5b9060005260206000209060060201600080820160006101000a81549073ffffffffffffffffffffffffffffffffffffffff021916905560018201600090556002820160006101000a81549073ffffffffffffffffffffffffffffffffffffffff02191690556002820160146101000a81549060ff021916905560038201600090556004820160006101000a81549073ffffffffffffffffffffffffffffffffffffffff02191690556005820160009055505050565b60006002805490508510610ee4576040517f08c379a0000000000000000000000000000000000000000000000000000000008152600401610edb90613298565b60405180910390fd5b600060028681548110610efa57610ef96132b8565b5b90600052602060002090600602016001015411610f4c576040517f08c379a0000000000000000000000000000000000000000000000000000000008152600401610f43906135ad565b60405180910390fd5b610f7b84604051602001610f609190613615565b604051602081830303815290604052805190602001206124fb565b8314610fbc576040517f08c379a0000000000000000000000000000000000000000000000000000000008152600401610fb39061367c565b60405180910390fd5b6000610fc8848461252b565b905060028681548110610fde57610fdd6132b8565b5b906000526020600020906006020160000160009054906101000a900473ffffffffffffffffffffffffffffffffffffffff1673ffffffffffffffffffffffffffffffffffffffff168173ffffffffffffffffffffffffffffffffffffffff161461107d576040517f08c379a0000000000000000000000000000000000000000000000000000000008152600401611074906136e8565b60405180910390fd5b600060028781548110611093576110926132b8565b5b906000526020600020906006020160020160149054906101000a900460ff1660ff160361112b578473ffffffffffffffffffffffffffffffffffffffff166108fc600288815481106110e8576110e76132b8565b5b9060005260206000209060060201600101549081150290604051600060405180830381858888f19350505050158015611125573d6000803e3d6000fd5b506114c3565b600160028781548110611141576111406132b8565b5b906000526020600020906006020160020160149054906101000a900460ff1660ff160361125c5760006002878154811061117e5761117d6132b8565b5b906000526020600020906006020160020160009054906101000a900473ffffffffffffffffffffffffffffffffffffffff1690508073ffffffffffffffffffffffffffffffffffffffff1663a9059cbb8760028a815481106111e3576111e26132b8565b5b9060005260206000209060060201600101546040518363ffffffff1660e01b8152600401611212929190613419565b6020604051808303816000875af1158015611231573d6000803e3d6000fd5b505050506040513d601f19601f82011682018060405250810190611255919061346e565b50506114c2565b6002808781548110611271576112706132b8565b5b906000526020600020906006020160020160149054906101000a900460ff1660ff160361137c576000600287815481106112ae576112ad6132b8565b5b906000526020600020906006020160020160009054906101000a900473ffffffffffffffffffffffffffffffffffffffff1690508073ffffffffffffffffffffffffffffffffffffffff166323b872dd308860028b81548110611314576113136132b8565b5b9060005260206000209060060201600301546040518463ffffffff1660e01b81526004016113449392919061349b565b600060405180830381600087803b15801561135e57600080fd5b505af1158015611372573d6000803e3d6000fd5b50505050506114c1565b600360028781548110611392576113916132b8565b5b906000526020600020906006020160020160149054906101000a900460ff1660ff16036114c0576000600287815481106113cf576113ce6132b8565b5b906000526020600020906006020160020160009054906101000a900473ffffffffffffffffffffffffffffffffffffffff1690508073ffffffffffffffffffffffffffffffffffffffff1663f242432a308860028b81548110611435576114346132b8565b5b90600052602060002090600602016003015460028c8154811061145b5761145a6132b8565b5b9060005260206000209060060201600101546040518563ffffffff1660e01b815260040161148c9493929190613509565b600060405180830381600087803b1580156114a657600080fd5b505af11580156114ba573d6000803e3d6000fd5b50505050505b5b5b5b8473ffffffffffffffffffffffffffffffffffffffff167f235d68982221ffd040e3bd99e15b4685603afab51b957b8745963fe82cc6d4d687600289815481106115105761150f6132b8565b5b906000526020600020906006020160020160149054906101000a900460ff1660028a81548110611543576115426132b8565b5b90600052602060002090600602016001015460405161156493929190613215565b60405180910390a2600286815481106115805761157f6132b8565b5b9060005260206000209060060201600080820160006101000a81549073ffffffffffffffffffffffffffffffffffffffff021916905560018201600090556002820160006101000a81549073ffffffffffffffffffffffffffffffffffffffff02191690556002820160146101000a81549060ff021916905560038201600090556004820160006101000a81549073ffffffffffffffffffffffffffffffffffffffff0219169055600582016000905550506001915050949350505050565b61164761247d565b6116516000612544565b565b60008060009054906101000a900473ffffffffffffffffffffffffffffffffffffffff16905090565b6000600280549050905090565b60015481565b60007fbe9026ad5baa968e00aac2255a31276c279344b5c00065fec9ea38e7c9d41c0883836040516116c29291906130a2565b6040518091039020036116de5763bc197c8160e01b9050611ad0565b6014878790506116ee9190613708565b8383905014611732576040517f08c379a000000000000000000000000000000000000000000000000000000000815260040161172990613118565b60405180910390fd5b6000339050600060049050600080600080600090505b8c8c9050811015611abf578a8a82818110611766576117656132b8565b5b9050602002013592508c8c82818110611782576117816132b8565b5b905060200201359150600060148261179a9190613708565b90506000601467ffffffffffffffff8111156117b9576117b8612bc3565b5b6040519080825280601f01601f1916602001820160405280156117eb5781602001600182028036833780820191505090505b50905060005b6014811015611877578b8b828561180891906132e7565b818110611818576118176132b8565b5b9050013560f81c60f81b828281518110611835576118346132b8565b5b60200101907effffffffffffffffffffffffffffffffffffffffffffffffffffffffffffff1916908160001a905350808061186f9061374a565b9150506117f1565b508080602001905181019061188c91906137a7565b955060026040518060e001604052808873ffffffffffffffffffffffffffffffffffffffff1681526020018781526020018a73ffffffffffffffffffffffffffffffffffffffff1681526020018960ff1681526020018681526020013373ffffffffffffffffffffffffffffffffffffffff16815260200142815250908060018154018082558091505060019003906000526020600020906006020160009091909190915060008201518160000160006101000a81548173ffffffffffffffffffffffffffffffffffffffff021916908373ffffffffffffffffffffffffffffffffffffffff1602179055506020820151816001015560408201518160020160006101000a81548173ffffffffffffffffffffffffffffffffffffffff021916908373ffffffffffffffffffffffffffffffffffffffff16021790555060608201518160020160146101000a81548160ff021916908360ff1602179055506080820151816003015560a08201518160040160006101000a81548173ffffffffffffffffffffffffffffffffffffffff021916908373ffffffffffffffffffffffffffffffffffffffff16021790555060c0820151816005015550508f73ffffffffffffffffffffffffffffffffffffffff167f6cfb6f205ed755f233c83bfe7f03aee5e1d993139ce47aead6d4fe25f7ec30666001600280549050611a9191906131d2565b8988604051611aa293929190613215565b60405180910390a250508080611ab79061374a565b915050611748565b5063bc197c8160e01b955050505050505b98975050505050505050565b60007fbe9026ad5baa968e00aac2255a31276c279344b5c00065fec9ea38e7c9d41c088383604051611b0f9291906130a2565b604051809103902003611b2b5763f23a6e6160e01b9050611dbf565b60148383905014611b71576040517f08c379a0000000000000000000000000000000000000000000000000000000008152600401611b6890613118565b60405180910390fd5b6000339050600060039050600086905060008686810190611b929190613176565b905060026040518060e001604052808373ffffffffffffffffffffffffffffffffffffffff1681526020018481526020018673ffffffffffffffffffffffffffffffffffffffff1681526020018560ff1681526020018b81526020013373ffffffffffffffffffffffffffffffffffffffff16815260200142815250908060018154018082558091505060019003906000526020600020906006020160009091909190915060008201518160000160006101000a81548173ffffffffffffffffffffffffffffffffffffffff021916908373ffffffffffffffffffffffffffffffffffffffff1602179055506020820151816001015560408201518160020160006101000a81548173ffffffffffffffffffffffffffffffffffffffff021916908373ffffffffffffffffffffffffffffffffffffffff16021790555060608201518160020160146101000a81548160ff021916908360ff1602179055506080820151816003015560a08201518160040160006101000a81548173ffffffffffffffffffffffffffffffffffffffff021916908373ffffffffffffffffffffffffffffffffffffffff16021790555060c0820151816005015550508973ffffffffffffffffffffffffffffffffffffffff167f6cfb6f205ed755f233c83bfe7f03aee5e1d993139ce47aead6d4fe25f7ec30666001600280549050611d9791906131d2565b8585604051611da893929190613215565b60405180910390a263f23a6e6160e01b9450505050505b9695505050505050565b611dd161247d565b600073ffffffffffffffffffffffffffffffffffffffff168173ffffffffffffffffffffffffffffffffffffffff1603611e40576040517f08c379a0000000000000000000000000000000000000000000000000000000008152600401611e3790613846565b60405180910390fd5b611e4981612544565b50565b600060048560ff1610611e94576040517f08c379a0000000000000000000000000000000000000000000000000000000008152600401611e8b906138b2565b60405180910390fd5b60008560ff1603611eea5760003411611ee2576040517f08c379a0000000000000000000000000000000000000000000000000000000008152600401611ed99061391e565b60405180910390fd5b349350612244565b60018560ff1603612139576000869050848173ffffffffffffffffffffffffffffffffffffffff166370a08231336040518263ffffffff1660e01b8152600401611f349190612d80565b602060405180830381865afa158015611f51573d6000803e3d6000fd5b505050506040513d601f19601f82011682018060405250810190611f759190613953565b1015611fb6576040517f08c379a0000000000000000000000000000000000000000000000000000000008152600401611fad906139cc565b60405180910390fd5b848173ffffffffffffffffffffffffffffffffffffffff1663dd62ed3e33306040518363ffffffff1660e01b8152600401611ff29291906139ec565b602060405180830381865afa15801561200f573d6000803e3d6000fd5b505050506040513d601f19601f820116820180604052508101906120339190613953565b1015612074576040517f08c379a000000000000000000000000000000000000000000000000000000000815260040161206b90613a61565b60405180910390fd5b8073ffffffffffffffffffffffffffffffffffffffff166323b872dd3330886040518463ffffffff1660e01b81526004016120b19392919061349b565b6020604051808303816000875af11580156120d0573d6000803e3d6000fd5b505050506040513d601f19601f820116820180604052508101906120f4919061346e565b612133576040517f08c379a000000000000000000000000000000000000000000000000000000000815260040161212a90613af3565b60405180910390fd5b50612243565b60028560ff16036121be5760008690508073ffffffffffffffffffffffffffffffffffffffff1663b88d4fde3330876040518463ffffffff1660e01b815260040161218693929190613b5f565b600060405180830381600087803b1580156121a057600080fd5b505af11580156121b4573d6000803e3d6000fd5b5050505050612242565b60038560ff16036122415760008690508073ffffffffffffffffffffffffffffffffffffffff1663f242432a333087896040518563ffffffff1660e01b815260040161220d9493929190613ba9565b600060405180830381600087803b15801561222757600080fd5b505af115801561223b573d6000803e3d6000fd5b50505050505b5b5b5b60026040518060e001604052808473ffffffffffffffffffffffffffffffffffffffff1681526020018681526020018873ffffffffffffffffffffffffffffffffffffffff1681526020018760ff1681526020018581526020013373ffffffffffffffffffffffffffffffffffffffff16815260200142815250908060018154018082558091505060019003906000526020600020906006020160009091909190915060008201518160000160006101000a81548173ffffffffffffffffffffffffffffffffffffffff021916908373ffffffffffffffffffffffffffffffffffffffff1602179055506020820151816001015560408201518160020160006101000a81548173ffffffffffffffffffffffffffffffffffffffff021916908373ffffffffffffffffffffffffffffffffffffffff16021790555060608201518160020160146101000a81548160ff021916908360ff1602179055506080820151816003015560a08201518160040160006101000a81548173ffffffffffffffffffffffffffffffffffffffff021916908373ffffffffffffffffffffffffffffffffffffffff16021790555060c0820151816005015550503373ffffffffffffffffffffffffffffffffffffffff167f6cfb6f205ed755f233c83bfe7f03aee5e1d993139ce47aead6d4fe25f7ec3066600160028054905061244791906131d2565b878760405161245893929190613215565b60405180910390a2600160028054905061247291906131d2565b905095945050505050565b612485612608565b73ffffffffffffffffffffffffffffffffffffffff166124a3611653565b73ffffffffffffffffffffffffffffffffffffffff16146124f9576040517f08c379a00000000000000000000000000000000000000000000000000000000081526004016124f090613c4d565b60405180910390fd5b565b60008160405160200161250e9190613ce5565b604051602081830303815290604052805190602001209050919050565b6000806125388484612610565b90508091505092915050565b60008060009054906101000a900473ffffffffffffffffffffffffffffffffffffffff169050816000806101000a81548173ffffffffffffffffffffffffffffffffffffffff021916908373ffffffffffffffffffffffffffffffffffffffff1602179055508173ffffffffffffffffffffffffffffffffffffffff168173ffffffffffffffffffffffffffffffffffffffff167f8be0079c531659141344cd1fd0a4f28419497f9722a3daafe3b4186f6b6457e060405160405180910390a35050565b600033905090565b600080600061261f8585612637565b9150915061262c81612688565b819250505092915050565b60008060418351036126785760008060006020860151925060408601519150606086015160001a905061266c878285856127ee565b94509450505050612681565b60006002915091505b9250929050565b6000600481111561269c5761269b613d0b565b5b8160048111156126af576126ae613d0b565b5b03156127eb57600160048111156126c9576126c8613d0b565b5b8160048111156126dc576126db613d0b565b5b0361271c576040517f08c379a000000000000000000000000000000000000000000000000000000000815260040161271390613d86565b60405180910390fd5b600260048111156127305761272f613d0b565b5b81600481111561274357612742613d0b565b5b03612783576040517f08c379a000000000000000000000000000000000000000000000000000000000815260040161277a90613df2565b60405180910390fd5b6003600481111561279757612796613d0b565b5b8160048111156127aa576127a9613d0b565b5b036127ea576040517f08c379a00000000000000000000000000000000000000000000000000000000081526004016127e190613e84565b60405180910390fd5b5b50565b6000807f7fffffffffffffffffffffffffffffff5d576e7357a4501ddfe92f46681b20a08360001c11156128295760006003915091506128c7565b60006001878787876040516000815260200160405260405161284e9493929190613eb3565b6020604051602081039080840390855afa158015612870573d6000803e3d6000fd5b505050602060405103519050600073ffffffffffffffffffffffffffffffffffffffff168173ffffffffffffffffffffffffffffffffffffffff16036128be576000600192509250506128c7565b80600092509250505b94509492505050565b6000604051905090565b600080fd5b600080fd5b60007fffffffff0000000000000000000000000000000000000000000000000000000082169050919050565b612919816128e4565b811461292457600080fd5b50565b60008135905061293681612910565b92915050565b600060208284031215612952576129516128da565b5b600061296084828501612927565b91505092915050565b60008115159050919050565b61297e81612969565b82525050565b60006020820190506129996000830184612975565b92915050565b6000819050919050565b6129b28161299f565b81146129bd57600080fd5b50565b6000813590506129cf816129a9565b92915050565b6000602082840312156129eb576129ea6128da565b5b60006129f9848285016129c0565b91505092915050565b600073ffffffffffffffffffffffffffffffffffffffff82169050919050565b6000612a2d82612a02565b9050919050565b612a3d81612a22565b8114612a4857600080fd5b50565b600081359050612a5a81612a34565b92915050565b600080fd5b600080fd5b600080fd5b60008083601f840112612a8557612a84612a60565b5b8235905067ffffffffffffffff811115612aa257612aa1612a65565b5b602083019150836001820283011115612abe57612abd612a6a565b5b9250929050565b600080600080600060808688031215612ae157612ae06128da565b5b6000612aef88828901612a4b565b9550506020612b0088828901612a4b565b9450506040612b11888289016129c0565b935050606086013567ffffffffffffffff811115612b3257612b316128df565b5b612b3e88828901612a6f565b92509250509295509295909350565b612b56816128e4565b82525050565b6000602082019050612b716000830184612b4d565b92915050565b6000819050919050565b612b8a81612b77565b8114612b9557600080fd5b50565b600081359050612ba781612b81565b92915050565b600080fd5b6000601f19601f8301169050919050565b7f4e487b7100000000000000000000000000000000000000000000000000000000600052604160045260246000fd5b612bfb82612bb2565b810181811067ffffffffffffffff82111715612c1a57612c19612bc3565b5b80604052505050565b6000612c2d6128d0565b9050612c398282612bf2565b919050565b600067ffffffffffffffff821115612c5957612c58612bc3565b5b612c6282612bb2565b9050602081019050919050565b82818337600083830152505050565b6000612c91612c8c84612c3e565b612c23565b905082815260208101848484011115612cad57612cac612bad565b5b612cb8848285612c6f565b509392505050565b600082601f830112612cd557612cd4612a60565b5b8135612ce5848260208601612c7e565b91505092915050565b60008060008060808587031215612d0857612d076128da565b5b6000612d16878288016129c0565b9450506020612d2787828801612a4b565b9350506040612d3887828801612b98565b925050606085013567ffffffffffffffff811115612d5957612d586128df565b5b612d6587828801612cc0565b91505092959194509250565b612d7a81612a22565b82525050565b6000602082019050612d956000830184612d71565b92915050565b612da48161299f565b82525050565b6000602082019050612dbf6000830184612d9b565b92915050565b60008083601f840112612ddb57612dda612a60565b5b8235905067ffffffffffffffff811115612df857612df7612a65565b5b602083019150836020820283011115612e1457612e13612a6a565b5b9250929050565b60008060008060008060008060a0898b031215612e3b57612e3a6128da565b5b6000612e498b828c01612a4b565b9850506020612e5a8b828c01612a4b565b975050604089013567ffffffffffffffff811115612e7b57612e7a6128df565b5b612e878b828c01612dc5565b9650965050606089013567ffffffffffffffff811115612eaa57612ea96128df565b5b612eb68b828c01612dc5565b9450945050608089013567ffffffffffffffff811115612ed957612ed86128df565b5b612ee58b828c01612a6f565b92509250509295985092959890939650565b60008060008060008060a08789031215612f1457612f136128da565b5b6000612f2289828a01612a4b565b9650506020612f3389828a01612a4b565b9550506040612f4489828a016129c0565b9450506060612f5589828a016129c0565b935050608087013567ffffffffffffffff811115612f7657612f756128df565b5b612f8289828a01612a6f565b92509250509295509295509295565b600060208284031215612fa757612fa66128da565b5b6000612fb584828501612a4b565b91505092915050565b600060ff82169050919050565b612fd481612fbe565b8114612fdf57600080fd5b50565b600081359050612ff181612fcb565b92915050565b600080600080600060a08688031215613013576130126128da565b5b600061302188828901612a4b565b955050602061303288828901612fe2565b9450506040613043888289016129c0565b9350506060613054888289016129c0565b925050608061306588828901612a4b565b9150509295509295909350565b600081905092915050565b60006130898385613072565b9350613096838584612c6f565b82840190509392505050565b60006130af82848661307d565b91508190509392505050565b600082825260208201905092915050565b7f494e56414c49442043414c4c4441544100000000000000000000000000000000600082015250565b60006131026010836130bb565b915061310d826130cc565b602082019050919050565b60006020820190508181036000830152613131816130f5565b9050919050565b600061314382612a02565b9050919050565b61315381613138565b811461315e57600080fd5b50565b6000813590506131708161314a565b92915050565b60006020828403121561318c5761318b6128da565b5b600061319a84828501613161565b91505092915050565b7f4e487b7100000000000000000000000000000000000000000000000000000000600052601160045260246000fd5b60006131dd8261299f565b91506131e88361299f565b9250828203905081811115613200576131ff6131a3565b5b92915050565b61320f81612fbe565b82525050565b600060608201905061322a6000830186612d9b565b6132376020830185613206565b6132446040830184612d9b565b949350505050565b7f4445504f53495420494e44455820444f4553204e4f5420455849535400000000600082015250565b6000613282601c836130bb565b915061328d8261324c565b602082019050919050565b600060208201905081810360008301526132b181613275565b9050919050565b7f4e487b7100000000000000000000000000000000000000000000000000000000600052603260045260246000fd5b60006132f28261299f565b91506132fd8361299f565b9250828201905080821115613315576133146131a3565b5b92915050565b7f53454e444552204d555354205741495420313220424c4f434b5320544f20574960008201527f5448445241570000000000000000000000000000000000000000000000000000602082015250565b60006133776026836130bb565b91506133828261331b565b604082019050919050565b600060208201905081810360008301526133a68161336a565b9050919050565b7f4d5553542042452053454e44455220544f205749544844524157000000000000600082015250565b60006133e3601a836130bb565b91506133ee826133ad565b602082019050919050565b60006020820190508181036000830152613412816133d6565b9050919050565b600060408201905061342e6000830185612d71565b61343b6020830184612d9b565b9392505050565b61344b81612969565b811461345657600080fd5b50565b60008151905061346881613442565b92915050565b600060208284031215613484576134836128da565b5b600061349284828501613459565b91505092915050565b60006060820190506134b06000830186612d71565b6134bd6020830185612d71565b6134ca6040830184612d9b565b949350505050565b600082825260208201905092915050565b50565b60006134f36000836134d2565b91506134fe826134e3565b600082019050919050565b600060a08201905061351e6000830187612d71565b61352b6020830186612d71565b6135386040830185612d9b565b6135456060830184612d9b565b8181036080830152613556816134e6565b905095945050505050565b7f4445504f53495420414c52454144592057495448445241574e00000000000000600082015250565b60006135976019836130bb565b91506135a282613561565b602082019050919050565b600060208201905081810360008301526135c68161358a565b9050919050565b60008160601b9050919050565b60006135e5826135cd565b9050919050565b60006135f7826135da565b9050919050565b61360f61360a82612a22565b6135ec565b82525050565b600061362182846135fe565b60148201915081905092915050565b7f48415348455320444f204e4f54204d4154434800000000000000000000000000600082015250565b60006136666013836130bb565b915061367182613630565b602082019050919050565b6000602082019050818103600083015261369581613659565b9050919050565b7f57524f4e47205349474e41545552450000000000000000000000000000000000600082015250565b60006136d2600f836130bb565b91506136dd8261369c565b602082019050919050565b60006020820190508181036000830152613701816136c5565b9050919050565b60006137138261299f565b915061371e8361299f565b925082820261372c8161299f565b91508282048414831517613743576137426131a3565b5b5092915050565b60006137558261299f565b91507fffffffffffffffffffffffffffffffffffffffffffffffffffffffffffffffff8203613787576137866131a3565b5b600182019050919050565b6000815190506137a18161314a565b92915050565b6000602082840312156137bd576137bc6128da565b5b60006137cb84828501613792565b91505092915050565b7f4f776e61626c653a206e6577206f776e657220697320746865207a65726f206160008201527f6464726573730000000000000000000000000000000000000000000000000000602082015250565b60006138306026836130bb565b915061383b826137d4565b604082019050919050565b6000602082019050818103600083015261385f81613823565b9050919050565b7f494e56414c494420434f4e545241435420545950450000000000000000000000600082015250565b600061389c6015836130bb565b91506138a782613866565b602082019050919050565b600060208201905081810360008301526138cb8161388f565b9050919050565b7f4e4f204554482053454e54000000000000000000000000000000000000000000600082015250565b6000613908600b836130bb565b9150613913826138d2565b602082019050919050565b60006020820190508181036000830152613937816138fb565b9050919050565b60008151905061394d816129a9565b92915050565b600060208284031215613969576139686128da565b5b60006139778482850161393e565b91505092915050565b7f494e53554646494349454e5420544f4b454e2042414c414e4345000000000000600082015250565b60006139b6601a836130bb565b91506139c182613980565b602082019050919050565b600060208201905081810360008301526139e5816139a9565b9050919050565b6000604082019050613a016000830185612d71565b613a0e6020830184612d71565b9392505050565b7f494e53554646494349454e5420414c4c4f57414e434500000000000000000000600082015250565b6000613a4b6016836130bb565b9150613a5682613a15565b602082019050919050565b60006020820190508181036000830152613a7a81613a3e565b9050919050565b7f5452414e53464552204641494c45442e20434845434b20414c4c4f57414e434560008201527f20262042414c414e434500000000000000000000000000000000000000000000602082015250565b6000613add602a836130bb565b9150613ae882613a81565b604082019050919050565b60006020820190508181036000830152613b0c81613ad0565b9050919050565b7f496e7465726e616c207472616e73666572000000000000000000000000000000600082015250565b6000613b496011836134d2565b9150613b5482613b13565b602082019050919050565b6000608082019050613b746000830186612d71565b613b816020830185612d71565b613b8e6040830184612d9b565b8181036060830152613b9f81613b3c565b9050949350505050565b600060a082019050613bbe6000830187612d71565b613bcb6020830186612d71565b613bd86040830185612d9b565b613be56060830184612d9b565b8181036080830152613bf681613b3c565b905095945050505050565b7f4f776e61626c653a2063616c6c6572206973206e6f7420746865206f776e6572600082015250565b6000613c376020836130bb565b9150613c4282613c01565b602082019050919050565b60006020820190508181036000830152613c6681613c2a565b9050919050565b600081905092915050565b7f19457468657265756d205369676e6564204d6573736167653a0a333200000000600082015250565b6000613cae601c83613c6d565b9150613cb982613c78565b601c82019050919050565b6000819050919050565b613cdf613cda82612b77565b613cc4565b82525050565b6000613cf082613ca1565b9150613cfc8284613cce565b60208201915081905092915050565b7f4e487b7100000000000000000000000000000000000000000000000000000000600052602160045260246000fd5b7f45434453413a20696e76616c6964207369676e61747572650000000000000000600082015250565b6000613d706018836130bb565b9150613d7b82613d3a565b602082019050919050565b60006020820190508181036000830152613d9f81613d63565b9050919050565b7f45434453413a20696e76616c6964207369676e6174757265206c656e67746800600082015250565b6000613ddc601f836130bb565b9150613de782613da6565b602082019050919050565b60006020820190508181036000830152613e0b81613dcf565b9050919050565b7f45434453413a20696e76616c6964207369676e6174757265202773272076616c60008201527f7565000000000000000000000000000000000000000000000000000000000000602082015250565b6000613e6e6022836130bb565b9150613e7982613e12565b604082019050919050565b60006020820190508181036000830152613e9d81613e61565b9050919050565b613ead81612b77565b82525050565b6000608082019050613ec86000830187613ea4565b613ed56020830186613206565b613ee26040830185613ea4565b613eef6060830184613ea4565b9594505050505056fea26469706673582212204b965c480d23cbdcfe7d5b471fd7123435888319a0d3cef1958b57070e89ef1e64736f6c63430008120033",
  "linkReferences": {},
  "deployedLinkReferences": {}
}