{
  "_format": "hh-sol-artifact-1",
  "contractName": "Frens",
  "sourceName": "contracts/Frens.sol",
  "abi": [
    {
      "inputs": [
        {
          "internalType": "address",
          "name": "forwarder",
          "type": "address"
        }
      ],
      "stateMutability": "nonpayable",
      "type": "constructor"
    },
    {
      "anonymous": false,
      "inputs": [
        {
          "indexed": false,
          "internalType": "uint256",
          "name": "_index",
          "type": "uint256"
        },
        {
          "indexed": false,
          "internalType": "uint8",
          "name": "_contractType",
          "type": "uint8"
        },
        {
          "indexed": false,
          "internalType": "uint256",
          "name": "_amount",
          "type": "uint256"
        },
        {
          "indexed": true,
          "internalType": "address",
          "name": "_senderAddress",
          "type": "address"
        }
      ],
      "name": "DepositEvent",
      "type": "event"
    },
    {
      "anonymous": false,
      "inputs": [
        {
          "indexed": true,
          "internalType": "address",
          "name": "previousOwner",
          "type": "address"
        },
        {
          "indexed": true,
          "internalType": "address",
          "name": "newOwner",
          "type": "address"
        }
      ],
      "name": "OwnershipTransferred",
      "type": "event"
    },
    {
      "anonymous": false,
      "inputs": [
        {
          "indexed": false,
          "internalType": "uint256",
          "name": "_index",
          "type": "uint256"
        },
        {
          "indexed": false,
          "internalType": "uint8",
          "name": "_contractType",
          "type": "uint8"
        },
        {
          "indexed": false,
          "internalType": "uint256",
          "name": "_amount",
          "type": "uint256"
        },
        {
          "indexed": true,
          "internalType": "address",
          "name": "_recipientAddress",
          "type": "address"
        }
      ],
      "name": "WithdrawEvent",
      "type": "event"
    },
    {
      "inputs": [],
      "name": "chargeFee",
      "outputs": [
        {
          "internalType": "uint256",
          "name": "",
          "type": "uint256"
        }
      ],
      "stateMutability": "view",
      "type": "function"
    },
    {
      "inputs": [],
      "name": "getDepositCount",
      "outputs": [
        {
          "internalType": "uint256",
          "name": "",
          "type": "uint256"
        }
      ],
      "stateMutability": "view",
      "type": "function"
    },
    {
      "inputs": [],
      "name": "getTrustedForwarder",
      "outputs": [
        {
          "internalType": "address",
          "name": "forwarder",
          "type": "address"
        }
      ],
      "stateMutability": "view",
      "type": "function"
    },
    {
      "inputs": [
        {
          "internalType": "address",
          "name": "forwarder",
          "type": "address"
        }
      ],
      "name": "isTrustedForwarder",
      "outputs": [
        {
          "internalType": "bool",
          "name": "",
          "type": "bool"
        }
      ],
      "stateMutability": "view",
      "type": "function"
    },
    {
      "inputs": [
        {
          "internalType": "address",
          "name": "_tokenAddress",
          "type": "address"
        },
        {
          "internalType": "uint8",
          "name": "_contractType",
          "type": "uint8"
        },
        {
          "internalType": "uint256",
          "name": "_amount",
          "type": "uint256"
        },
        {
          "internalType": "uint256",
          "name": "_tokenId",
          "type": "uint256"
        },
        {
          "internalType": "address",
          "name": "_pubKey",
          "type": "address"
        }
      ],
      "name": "makeDeposit",
      "outputs": [
        {
          "internalType": "uint256",
          "name": "",
          "type": "uint256"
        }
      ],
      "stateMutability": "payable",
      "type": "function"
    },
    {
      "inputs": [
        {
          "internalType": "address",
          "name": "_operator",
          "type": "address"
        },
        {
          "internalType": "address",
          "name": "_from",
          "type": "address"
        },
        {
          "internalType": "uint256[]",
          "name": "_ids",
          "type": "uint256[]"
        },
        {
          "internalType": "uint256[]",
          "name": "_values",
          "type": "uint256[]"
        },
        {
          "internalType": "bytes",
          "name": "_data",
          "type": "bytes"
        }
      ],
      "name": "onERC1155BatchReceived",
      "outputs": [
        {
          "internalType": "bytes4",
          "name": "",
          "type": "bytes4"
        }
      ],
      "stateMutability": "nonpayable",
      "type": "function"
    },
    {
      "inputs": [
        {
          "internalType": "address",
          "name": "_operator",
          "type": "address"
        },
        {
          "internalType": "address",
          "name": "_from",
          "type": "address"
        },
        {
          "internalType": "uint256",
          "name": "_tokenId",
          "type": "uint256"
        },
        {
          "internalType": "uint256",
          "name": "_value",
          "type": "uint256"
        },
        {
          "internalType": "bytes",
          "name": "_data",
          "type": "bytes"
        }
      ],
      "name": "onERC1155Received",
      "outputs": [
        {
          "internalType": "bytes4",
          "name": "",
          "type": "bytes4"
        }
      ],
      "stateMutability": "nonpayable",
      "type": "function"
    },
    {
      "inputs": [
        {
          "internalType": "address",
          "name": "_operator",
          "type": "address"
        },
        {
          "internalType": "address",
          "name": "_from",
          "type": "address"
        },
        {
          "internalType": "uint256",
          "name": "_tokenId",
          "type": "uint256"
        },
        {
          "internalType": "bytes",
          "name": "_data",
          "type": "bytes"
        }
      ],
      "name": "onERC721Received",
      "outputs": [
        {
          "internalType": "bytes4",
          "name": "",
          "type": "bytes4"
        }
      ],
      "stateMutability": "nonpayable",
      "type": "function"
    },
    {
      "inputs": [],
      "name": "owner",
      "outputs": [
        {
          "internalType": "address",
          "name": "",
          "type": "address"
        }
      ],
      "stateMutability": "view",
      "type": "function"
    },
    {
      "inputs": [
        {
          "internalType": "address",
          "name": "dest",
          "type": "address"
        }
      ],
      "name": "payments",
      "outputs": [
        {
          "internalType": "uint256",
          "name": "",
          "type": "uint256"
        }
      ],
      "stateMutability": "view",
      "type": "function"
    },
    {
      "inputs": [],
      "name": "renounceOwnership",
      "outputs": [],
      "stateMutability": "nonpayable",
      "type": "function"
    },
    {
      "inputs": [],
      "name": "senderLockDuration",
      "outputs": [
        {
          "internalType": "uint256",
          "name": "",
          "type": "uint256"
        }
      ],
      "stateMutability": "view",
      "type": "function"
    },
    {
      "inputs": [
        {
          "internalType": "uint256",
          "name": "_duration",
          "type": "uint256"
        }
      ],
      "name": "setSenderLockDuration",
      "outputs": [],
      "stateMutability": "nonpayable",
      "type": "function"
    },
    {
      "inputs": [
        {
          "internalType": "bytes4",
          "name": "_interfaceId",
          "type": "bytes4"
        }
      ],
      "name": "supportsInterface",
      "outputs": [
        {
          "internalType": "bool",
          "name": "",
          "type": "bool"
        }
      ],
      "stateMutability": "pure",
      "type": "function"
    },
    {
      "inputs": [
        {
          "internalType": "address",
          "name": "newOwner",
          "type": "address"
        }
      ],
      "name": "transferOwnership",
      "outputs": [],
      "stateMutability": "nonpayable",
      "type": "function"
    },
    {
      "inputs": [
        {
          "internalType": "uint256",
          "name": "_index",
          "type": "uint256"
        },
        {
          "internalType": "address",
          "name": "_recipientAddress",
          "type": "address"
        },
        {
          "internalType": "bytes32",
          "name": "_recipientAddressHash",
          "type": "bytes32"
        },
        {
          "internalType": "bytes",
          "name": "_signature",
          "type": "bytes"
        }
      ],
      "name": "withdrawDeposit",
      "outputs": [
        {
          "internalType": "bool",
          "name": "",
          "type": "bool"
        }
      ],
      "stateMutability": "nonpayable",
      "type": "function"
    },
    {
      "inputs": [
        {
          "internalType": "address payable",
          "name": "payee",
          "type": "address"
        }
      ],
      "name": "withdrawPayments",
      "outputs": [],
      "stateMutability": "nonpayable",
      "type": "function"
    },
    {
      "inputs": [
        {
          "internalType": "uint256",
          "name": "_index",
          "type": "uint256"
        }
      ],
      "name": "withdrawSender",
      "outputs": [],
      "stateMutability": "nonpayable",
      "type": "function"
    }
  ],
  "bytecode": "0x608060405262093a8060035560026004553480156200001d57600080fd5b50604051620058a2380380620058a28339818101604052810190620000439190620002cc565b6040516200005190620002a7565b604051809103906000f0801580156200006e573d6000803e3d6000fd5b50600160006101000a81548173ffffffffffffffffffffffffffffffffffffffff021916908373ffffffffffffffffffffffffffffffffffffffff160217905550620000cf620000c3620000e760201b60201c565b6200010360201b60201c565b620000e081620001c960201b60201c565b5062000346565b6000620000fe6200020c60201b62002db11760201c565b905090565b6000600260009054906101000a900473ffffffffffffffffffffffffffffffffffffffff16905081600260006101000a81548173ffffffffffffffffffffffffffffffffffffffff021916908373ffffffffffffffffffffffffffffffffffffffff1602179055508173ffffffffffffffffffffffffffffffffffffffff168173ffffffffffffffffffffffffffffffffffffffff167f8be0079c531659141344cd1fd0a4f28419497f9722a3daafe3b4186f6b6457e060405160405180910390a35050565b806000806101000a81548173ffffffffffffffffffffffffffffffffffffffff021916908373ffffffffffffffffffffffffffffffffffffffff16021790555050565b6000601460003690501015801562000231575062000230336200024e60201b60201c565b5b156200024757601436033560601c90506200024b565b3390505b90565b60008060009054906101000a900473ffffffffffffffffffffffffffffffffffffffff1673ffffffffffffffffffffffffffffffffffffffff168273ffffffffffffffffffffffffffffffffffffffff16149050919050565b610bef8062004cb383390190565b600081519050620002c6816200032c565b92915050565b600060208284031215620002df57600080fd5b6000620002ef84828501620002b5565b91505092915050565b600062000305826200030c565b9050919050565b600073ffffffffffffffffffffffffffffffffffffffff82169050919050565b6200033781620002f8565b81146200034357600080fd5b50565b61495d80620003566000396000f3fe6080604052600436106101095760003560e01c80638da5cb5b11610095578063ce1b815f11610064578063ce1b815f1461037d578063e2982c21146103a8578063f23a6e61146103e5578063f2fde38b14610422578063f34780111461044b57610109565b80638da5cb5b146102bf5780639363a141146102ea578063954c4fc014610315578063bc197c811461034057610109565b806330c7a3bb116100dc57806330c7a3bb146101da57806331b3eb9414610217578063572b6c0514610240578063715018a61461027d578063744c8c091461029457610109565b806301ffc9a71461010e57806303f87c2a1461014b578063150b7a02146101745780631f412883146101b1575b600080fd5b34801561011a57600080fd5b5061013560048036038101906101309190613830565b61047b565b6040516101429190613eb1565b60405180910390f35b34801561015757600080fd5b50610172600480360381019061016d9190613859565b6105b5565b005b34801561018057600080fd5b5061019b6004803603810190610196919061367e565b6105c7565b6040516101a89190613f11565b60405180910390f35b3480156101bd57600080fd5b506101d860048036038101906101d39190613859565b6108b5565b005b3480156101e657600080fd5b5061020160048036038101906101fc91906138ab565b611276565b60405161020e9190613eb1565b60405180910390f35b34801561022357600080fd5b5061023e60048036038101906102399190613560565b611cb4565b005b34801561024c57600080fd5b5061026760048036038101906102629190613537565b611d44565b6040516102749190613eb1565b60405180910390f35b34801561028957600080fd5b50610292611d9d565b005b3480156102a057600080fd5b506102a9611db1565b6040516102b6919061414c565b60405180910390f35b3480156102cb57600080fd5b506102d4611db7565b6040516102e19190613cf8565b60405180910390f35b3480156102f657600080fd5b506102ff611de1565b60405161030c919061414c565b60405180910390f35b34801561032157600080fd5b5061032a611dee565b604051610337919061414c565b60405180910390f35b34801561034c57600080fd5b50610367600480360381019061036291906135b2565b611df4565b6040516103749190613f11565b60405180910390f35b34801561038957600080fd5b50610392612300565b60405161039f9190613cf8565b60405180910390f35b3480156103b457600080fd5b506103cf60048036038101906103ca9190613537565b612329565b6040516103dc919061414c565b60405180910390f35b3480156103f157600080fd5b5061040c600480360381019061040791906136fe565b6123dd565b6040516104199190613f11565b60405180910390f35b34801561042e57600080fd5b5061044960048036038101906104449190613537565b6126cb565b005b61046560048036038101906104609190613790565b61274f565b604051610472919061414c565b60405180910390f35b60007f01ffc9a7000000000000000000000000000000000000000000000000000000007bffffffffffffffffffffffffffffffffffffffffffffffffffffffff1916827bffffffffffffffffffffffffffffffffffffffffffffffffffffffff1916148061054657507f150b7a02000000000000000000000000000000000000000000000000000000007bffffffffffffffffffffffffffffffffffffffffffffffffffffffff1916827bffffffffffffffffffffffffffffffffffffffffffffffffffffffff1916145b806105ae57507f4e2312e0000000000000000000000000000000000000000000000000000000007bffffffffffffffffffffffffffffffffffffffffffffffffffffffff1916827bffffffffffffffffffffffffffffffffffffffffffffffffffffffff1916145b9050919050565b6105bd612de8565b8060038190555050565b60007fbe9026ad5baa968e00aac2255a31276c279344b5c00065fec9ea38e7c9d41c0883836040516105fa929190613cb9565b604051809103902014156106175763150b7a0260e01b90506108ac565b6014838390501461065d576040517f08c379a000000000000000000000000000000000000000000000000000000000815260040161065490613fec565b60405180910390fd5b60003390506000600290506000600190506000868681019061067f9190613560565b905060056040518060e001604052808373ffffffffffffffffffffffffffffffffffffffff1681526020018481526020018673ffffffffffffffffffffffffffffffffffffffff1681526020018560ff1681526020018a81526020013373ffffffffffffffffffffffffffffffffffffffff16815260200142815250908060018154018082558091505060019003906000526020600020906006020160009091909190915060008201518160000160006101000a81548173ffffffffffffffffffffffffffffffffffffffff021916908373ffffffffffffffffffffffffffffffffffffffff1602179055506020820151816001015560408201518160020160006101000a81548173ffffffffffffffffffffffffffffffffffffffff021916908373ffffffffffffffffffffffffffffffffffffffff16021790555060608201518160020160146101000a81548160ff021916908360ff1602179055506080820151816003015560a08201518160040160006101000a81548173ffffffffffffffffffffffffffffffffffffffff021916908373ffffffffffffffffffffffffffffffffffffffff16021790555060c0820151816005015550508973ffffffffffffffffffffffffffffffffffffffff167f6cfb6f205ed755f233c83bfe7f03aee5e1d993139ce47aead6d4fe25f7ec3066600160058054905061088491906142dc565b858560405161089593929190614167565b60405180910390a263150b7a0260e01b9450505050505b95945050505050565b60058054905081106108fc576040517f08c379a00000000000000000000000000000000000000000000000000000000081526004016108f39061412c565b60405180910390fd5b60035460058281548110610939577f4e487b7100000000000000000000000000000000000000000000000000000000600052603260045260246000fd5b906000526020600020906006020160050154610955919061422c565b421015610997576040517f08c379a000000000000000000000000000000000000000000000000000000000815260040161098e90613f4c565b60405180910390fd5b3373ffffffffffffffffffffffffffffffffffffffff16600582815481106109e8577f4e487b7100000000000000000000000000000000000000000000000000000000600052603260045260246000fd5b906000526020600020906006020160040160009054906101000a900473ffffffffffffffffffffffffffffffffffffffff1673ffffffffffffffffffffffffffffffffffffffff1614610a70576040517f08c379a0000000000000000000000000000000000000000000000000000000008152600401610a679061408c565b60405180910390fd5b600060058281548110610aac577f4e487b7100000000000000000000000000000000000000000000000000000000600052603260045260246000fd5b906000526020600020906006020160020160149054906101000a900460ff1660ff161415610b6b573373ffffffffffffffffffffffffffffffffffffffff166108fc60058381548110610b28577f4e487b7100000000000000000000000000000000000000000000000000000000600052603260045260246000fd5b9060005260206000209060060201600101549081150290604051600060405180830381858888f19350505050158015610b65573d6000803e3d6000fd5b50611092565b600160058281548110610ba7577f4e487b7100000000000000000000000000000000000000000000000000000000600052603260045260246000fd5b906000526020600020906006020160020160149054906101000a900460ff1660ff161415610d1e57600060058281548110610c0b577f4e487b7100000000000000000000000000000000000000000000000000000000600052603260045260246000fd5b906000526020600020906006020160020160009054906101000a900473ffffffffffffffffffffffffffffffffffffffff1690508073ffffffffffffffffffffffffffffffffffffffff1663a9059cbb3360058581548110610c96577f4e487b7100000000000000000000000000000000000000000000000000000000600052603260045260246000fd5b9060005260206000209060060201600101546040518363ffffffff1660e01b8152600401610cc5929190613e88565b602060405180830381600087803b158015610cdf57600080fd5b505af1158015610cf3573d6000803e3d6000fd5b505050506040513d601f19601f82011682018060405250810190610d179190613807565b5050611091565b600260058281548110610d5a577f4e487b7100000000000000000000000000000000000000000000000000000000600052603260045260246000fd5b906000526020600020906006020160020160149054906101000a900460ff1660ff161415610eb257600060058281548110610dbe577f4e487b7100000000000000000000000000000000000000000000000000000000600052603260045260246000fd5b906000526020600020906006020160020160009054906101000a900473ffffffffffffffffffffffffffffffffffffffff1690508073ffffffffffffffffffffffffffffffffffffffff166323b872dd303360058681548110610e4a577f4e487b7100000000000000000000000000000000000000000000000000000000600052603260045260246000fd5b9060005260206000209060060201600301546040518463ffffffff1660e01b8152600401610e7a93929190613d57565b600060405180830381600087803b158015610e9457600080fd5b505af1158015610ea8573d6000803e3d6000fd5b5050505050611090565b600360058281548110610eee577f4e487b7100000000000000000000000000000000000000000000000000000000600052603260045260246000fd5b906000526020600020906006020160020160149054906101000a900460ff1660ff16141561108f57600060058281548110610f52577f4e487b7100000000000000000000000000000000000000000000000000000000600052603260045260246000fd5b906000526020600020906006020160020160009054906101000a900473ffffffffffffffffffffffffffffffffffffffff1690508073ffffffffffffffffffffffffffffffffffffffff1663f242432a303360058681548110610fde577f4e487b7100000000000000000000000000000000000000000000000000000000600052603260045260246000fd5b9060005260206000209060060201600301546005878154811061102a577f4e487b7100000000000000000000000000000000000000000000000000000000600052603260045260246000fd5b9060005260206000209060060201600101546040518563ffffffff1660e01b815260040161105b9493929190613e30565b600060405180830381600087803b15801561107557600080fd5b505af1158015611089573d6000803e3d6000fd5b50505050505b5b5b5b3373ffffffffffffffffffffffffffffffffffffffff167f235d68982221ffd040e3bd99e15b4685603afab51b957b8745963fe82cc6d4d68260058481548110611105577f4e487b7100000000000000000000000000000000000000000000000000000000600052603260045260246000fd5b906000526020600020906006020160020160149054906101000a900460ff166005858154811061115e577f4e487b7100000000000000000000000000000000000000000000000000000000600052603260045260246000fd5b90600052602060002090600602016001015460405161117f93929190614167565b60405180910390a2600581815481106111c1577f4e487b7100000000000000000000000000000000000000000000000000000000600052603260045260246000fd5b9060005260206000209060060201600080820160006101000a81549073ffffffffffffffffffffffffffffffffffffffff021916905560018201600090556002820160006101000a81549073ffffffffffffffffffffffffffffffffffffffff02191690556002820160146101000a81549060ff021916905560038201600090556004820160006101000a81549073ffffffffffffffffffffffffffffffffffffffff02191690556005820160009055505050565b600060058054905085106112bf576040517f08c379a00000000000000000000000000000000000000000000000000000000081526004016112b69061412c565b60405180910390fd5b6000600586815481106112fb577f4e487b7100000000000000000000000000000000000000000000000000000000600052603260045260246000fd5b9060005260206000209060060201600101541161134d576040517f08c379a00000000000000000000000000000000000000000000000000000000081526004016113449061410c565b60405180910390fd5b61137c846040516020016113619190613c9e565b60405160208183030381529060405280519060200120612e66565b83146113bd576040517f08c379a00000000000000000000000000000000000000000000000000000000081526004016113b4906140ec565b60405180910390fd5b60006113c98484612e96565b905060058681548110611405577f4e487b7100000000000000000000000000000000000000000000000000000000600052603260045260246000fd5b906000526020600020906006020160000160009054906101000a900473ffffffffffffffffffffffffffffffffffffffff1673ffffffffffffffffffffffffffffffffffffffff168173ffffffffffffffffffffffffffffffffffffffff16146114a4576040517f08c379a000000000000000000000000000000000000000000000000000000000815260040161149b90613fac565b60405180910390fd5b6000600587815481106114e0577f4e487b7100000000000000000000000000000000000000000000000000000000600052603260045260246000fd5b906000526020600020906006020160020160149054906101000a900460ff1660ff16141561159f578473ffffffffffffffffffffffffffffffffffffffff166108fc6005888154811061155c577f4e487b7100000000000000000000000000000000000000000000000000000000600052603260045260246000fd5b9060005260206000209060060201600101549081150290604051600060405180830381858888f19350505050158015611599573d6000803e3d6000fd5b50611ac6565b6001600587815481106115db577f4e487b7100000000000000000000000000000000000000000000000000000000600052603260045260246000fd5b906000526020600020906006020160020160149054906101000a900460ff1660ff1614156117525760006005878154811061163f577f4e487b7100000000000000000000000000000000000000000000000000000000600052603260045260246000fd5b906000526020600020906006020160020160009054906101000a900473ffffffffffffffffffffffffffffffffffffffff1690508073ffffffffffffffffffffffffffffffffffffffff1663a9059cbb8760058a815481106116ca577f4e487b7100000000000000000000000000000000000000000000000000000000600052603260045260246000fd5b9060005260206000209060060201600101546040518363ffffffff1660e01b81526004016116f9929190613e88565b602060405180830381600087803b15801561171357600080fd5b505af1158015611727573d6000803e3d6000fd5b505050506040513d601f19601f8201168201806040525081019061174b9190613807565b5050611ac5565b60026005878154811061178e577f4e487b7100000000000000000000000000000000000000000000000000000000600052603260045260246000fd5b906000526020600020906006020160020160149054906101000a900460ff1660ff1614156118e6576000600587815481106117f2577f4e487b7100000000000000000000000000000000000000000000000000000000600052603260045260246000fd5b906000526020600020906006020160020160009054906101000a900473ffffffffffffffffffffffffffffffffffffffff1690508073ffffffffffffffffffffffffffffffffffffffff166323b872dd308860058b8154811061187e577f4e487b7100000000000000000000000000000000000000000000000000000000600052603260045260246000fd5b9060005260206000209060060201600301546040518463ffffffff1660e01b81526004016118ae93929190613d57565b600060405180830381600087803b1580156118c857600080fd5b505af11580156118dc573d6000803e3d6000fd5b5050505050611ac4565b600360058781548110611922577f4e487b7100000000000000000000000000000000000000000000000000000000600052603260045260246000fd5b906000526020600020906006020160020160149054906101000a900460ff1660ff161415611ac357600060058781548110611986577f4e487b7100000000000000000000000000000000000000000000000000000000600052603260045260246000fd5b906000526020600020906006020160020160009054906101000a900473ffffffffffffffffffffffffffffffffffffffff1690508073ffffffffffffffffffffffffffffffffffffffff1663f242432a308860058b81548110611a12577f4e487b7100000000000000000000000000000000000000000000000000000000600052603260045260246000fd5b90600052602060002090600602016003015460058c81548110611a5e577f4e487b7100000000000000000000000000000000000000000000000000000000600052603260045260246000fd5b9060005260206000209060060201600101546040518563ffffffff1660e01b8152600401611a8f9493929190613e30565b600060405180830381600087803b158015611aa957600080fd5b505af1158015611abd573d6000803e3d6000fd5b50505050505b5b5b5b8473ffffffffffffffffffffffffffffffffffffffff167f235d68982221ffd040e3bd99e15b4685603afab51b957b8745963fe82cc6d4d68760058981548110611b39577f4e487b7100000000000000000000000000000000000000000000000000000000600052603260045260246000fd5b906000526020600020906006020160020160149054906101000a900460ff1660058a81548110611b92577f4e487b7100000000000000000000000000000000000000000000000000000000600052603260045260246000fd5b906000526020600020906006020160010154604051611bb393929190614167565b60405180910390a260058681548110611bf5577f4e487b7100000000000000000000000000000000000000000000000000000000600052603260045260246000fd5b9060005260206000209060060201600080820160006101000a81549073ffffffffffffffffffffffffffffffffffffffff021916905560018201600090556002820160006101000a81549073ffffffffffffffffffffffffffffffffffffffff02191690556002820160146101000a81549060ff021916905560038201600090556004820160006101000a81549073ffffffffffffffffffffffffffffffffffffffff0219169055600582016000905550506001915050949350505050565b600160009054906101000a900473ffffffffffffffffffffffffffffffffffffffff1673ffffffffffffffffffffffffffffffffffffffff166351cff8d9826040518263ffffffff1660e01b8152600401611d0f9190613d13565b600060405180830381600087803b158015611d2957600080fd5b505af1158015611d3d573d6000803e3d6000fd5b5050505050565b60008060009054906101000a900473ffffffffffffffffffffffffffffffffffffffff1673ffffffffffffffffffffffffffffffffffffffff168273ffffffffffffffffffffffffffffffffffffffff16149050919050565b611da5612de8565b611daf6000612eaf565b565b60045481565b6000600260009054906101000a900473ffffffffffffffffffffffffffffffffffffffff16905090565b6000600580549050905090565b60035481565b60007fbe9026ad5baa968e00aac2255a31276c279344b5c00065fec9ea38e7c9d41c088383604051611e27929190613cb9565b60405180910390201415611e445763bc197c8160e01b90506122f4565b601487879050611e549190614282565b8383905014611e98576040517f08c379a0000000000000000000000000000000000000000000000000000000008152600401611e8f90613fec565b60405180910390fd5b6000339050600060049050600080600080600090505b8c8c90508110156122e3578a8a82818110611ef2577f4e487b7100000000000000000000000000000000000000000000000000000000600052603260045260246000fd5b9050602002013592508c8c82818110611f34577f4e487b7100000000000000000000000000000000000000000000000000000000600052603260045260246000fd5b9050602002013591506000601482611f4c9190614282565b90506000601467ffffffffffffffff811115611f91577f4e487b7100000000000000000000000000000000000000000000000000000000600052604160045260246000fd5b6040519080825280601f01601f191660200182016040528015611fc35781602001600182028036833780820191505090505b50905060005b601481101561209b578b8b8285611fe0919061422c565b818110612016577f4e487b7100000000000000000000000000000000000000000000000000000000600052603260045260246000fd5b9050013560f81c60f81b828281518110612059577f4e487b7100000000000000000000000000000000000000000000000000000000600052603260045260246000fd5b60200101907effffffffffffffffffffffffffffffffffffffffffffffffffffffffffffff1916908160001a9053508080612093906143ed565b915050611fc9565b50808060200190518101906120b09190613589565b955060056040518060e001604052808873ffffffffffffffffffffffffffffffffffffffff1681526020018781526020018a73ffffffffffffffffffffffffffffffffffffffff1681526020018960ff1681526020018681526020013373ffffffffffffffffffffffffffffffffffffffff16815260200142815250908060018154018082558091505060019003906000526020600020906006020160009091909190915060008201518160000160006101000a81548173ffffffffffffffffffffffffffffffffffffffff021916908373ffffffffffffffffffffffffffffffffffffffff1602179055506020820151816001015560408201518160020160006101000a81548173ffffffffffffffffffffffffffffffffffffffff021916908373ffffffffffffffffffffffffffffffffffffffff16021790555060608201518160020160146101000a81548160ff021916908360ff1602179055506080820151816003015560a08201518160040160006101000a81548173ffffffffffffffffffffffffffffffffffffffff021916908373ffffffffffffffffffffffffffffffffffffffff16021790555060c0820151816005015550508f73ffffffffffffffffffffffffffffffffffffffff167f6cfb6f205ed755f233c83bfe7f03aee5e1d993139ce47aead6d4fe25f7ec306660016005805490506122b591906142dc565b89886040516122c693929190614167565b60405180910390a2505080806122db906143ed565b915050611eae565b5063bc197c8160e01b955050505050505b98975050505050505050565b60008060009054906101000a900473ffffffffffffffffffffffffffffffffffffffff16905090565b6000600160009054906101000a900473ffffffffffffffffffffffffffffffffffffffff1673ffffffffffffffffffffffffffffffffffffffff1663e3a9db1a836040518263ffffffff1660e01b81526004016123869190613cf8565b60206040518083038186803b15801561239e57600080fd5b505afa1580156123b2573d6000803e3d6000fd5b505050506040513d601f19601f820116820180604052508101906123d69190613882565b9050919050565b60007fbe9026ad5baa968e00aac2255a31276c279344b5c00065fec9ea38e7c9d41c088383604051612410929190613cb9565b6040518091039020141561242d5763f23a6e6160e01b90506126c1565b60148383905014612473576040517f08c379a000000000000000000000000000000000000000000000000000000000815260040161246a90613fec565b60405180910390fd5b60003390506000600390506000869050600086868101906124949190613560565b905060056040518060e001604052808373ffffffffffffffffffffffffffffffffffffffff1681526020018481526020018673ffffffffffffffffffffffffffffffffffffffff1681526020018560ff1681526020018b81526020013373ffffffffffffffffffffffffffffffffffffffff16815260200142815250908060018154018082558091505060019003906000526020600020906006020160009091909190915060008201518160000160006101000a81548173ffffffffffffffffffffffffffffffffffffffff021916908373ffffffffffffffffffffffffffffffffffffffff1602179055506020820151816001015560408201518160020160006101000a81548173ffffffffffffffffffffffffffffffffffffffff021916908373ffffffffffffffffffffffffffffffffffffffff16021790555060608201518160020160146101000a81548160ff021916908360ff1602179055506080820151816003015560a08201518160040160006101000a81548173ffffffffffffffffffffffffffffffffffffffff021916908373ffffffffffffffffffffffffffffffffffffffff16021790555060c0820151816005015550508973ffffffffffffffffffffffffffffffffffffffff167f6cfb6f205ed755f233c83bfe7f03aee5e1d993139ce47aead6d4fe25f7ec3066600160058054905061269991906142dc565b85856040516126aa93929190614167565b60405180910390a263f23a6e6160e01b9450505050505b9695505050505050565b6126d3612de8565b600073ffffffffffffffffffffffffffffffffffffffff168173ffffffffffffffffffffffffffffffffffffffff161415612743576040517f08c379a000000000000000000000000000000000000000000000000000000000815260040161273a90613f8c565b60405180910390fd5b61274c81612eaf565b50565b600060048560ff1610612797576040517f08c379a000000000000000000000000000000000000000000000000000000000815260040161278e9061406c565b60405180910390fd5b60008560ff1614156127ee57600034116127e6576040517f08c379a00000000000000000000000000000000000000000000000000000000081526004016127dd9061400c565b60405180910390fd5b349350612b78565b60018560ff161415612a6b576000869050848173ffffffffffffffffffffffffffffffffffffffff166370a08231336040518263ffffffff1660e01b81526004016128399190613cf8565b60206040518083038186803b15801561285157600080fd5b505afa158015612865573d6000803e3d6000fd5b505050506040513d601f19601f820116820180604052508101906128899190613882565b10156128ca576040517f08c379a00000000000000000000000000000000000000000000000000000000081526004016128c1906140cc565b60405180910390fd5b848173ffffffffffffffffffffffffffffffffffffffff1663dd62ed3e33306040518363ffffffff1660e01b8152600401612906929190613d2e565b60206040518083038186803b15801561291e57600080fd5b505afa158015612932573d6000803e3d6000fd5b505050506040513d601f19601f820116820180604052508101906129569190613882565b1015612997576040517f08c379a000000000000000000000000000000000000000000000000000000000815260040161298e906140ac565b60405180910390fd5b8073ffffffffffffffffffffffffffffffffffffffff166323b872dd3330886040518463ffffffff1660e01b81526004016129d493929190613d57565b602060405180830381600087803b1580156129ee57600080fd5b505af1158015612a02573d6000803e3d6000fd5b505050506040513d601f19601f82011682018060405250810190612a269190613807565b612a65576040517f08c379a0000000000000000000000000000000000000000000000000000000008152600401612a5c9061402c565b60405180910390fd5b50612b77565b60028560ff161415612af15760008690508073ffffffffffffffffffffffffffffffffffffffff1663b88d4fde3330876040518463ffffffff1660e01b8152600401612ab993929190613d8e565b600060405180830381600087803b158015612ad357600080fd5b505af1158015612ae7573d6000803e3d6000fd5b5050505050612b76565b60038560ff161415612b755760008690508073ffffffffffffffffffffffffffffffffffffffff1663f242432a333087896040518563ffffffff1660e01b8152600401612b419493929190613dd8565b600060405180830381600087803b158015612b5b57600080fd5b505af1158015612b6f573d6000803e3d6000fd5b50505050505b5b5b5b60056040518060e001604052808473ffffffffffffffffffffffffffffffffffffffff1681526020018681526020018873ffffffffffffffffffffffffffffffffffffffff1681526020018760ff1681526020018581526020013373ffffffffffffffffffffffffffffffffffffffff16815260200142815250908060018154018082558091505060019003906000526020600020906006020160009091909190915060008201518160000160006101000a81548173ffffffffffffffffffffffffffffffffffffffff021916908373ffffffffffffffffffffffffffffffffffffffff1602179055506020820151816001015560408201518160020160006101000a81548173ffffffffffffffffffffffffffffffffffffffff021916908373ffffffffffffffffffffffffffffffffffffffff16021790555060608201518160020160146101000a81548160ff021916908360ff1602179055506080820151816003015560a08201518160040160006101000a81548173ffffffffffffffffffffffffffffffffffffffff021916908373ffffffffffffffffffffffffffffffffffffffff16021790555060c0820151816005015550503373ffffffffffffffffffffffffffffffffffffffff167f6cfb6f205ed755f233c83bfe7f03aee5e1d993139ce47aead6d4fe25f7ec30666001600580549050612d7b91906142dc565b8787604051612d8c93929190614167565b60405180910390a26001600580549050612da691906142dc565b905095945050505050565b60006014600036905010158015612dcd5750612dcc33611d44565b5b15612de157601436033560601c9050612de5565b3390505b90565b612df0612f75565b73ffffffffffffffffffffffffffffffffffffffff16612e0e611db7565b73ffffffffffffffffffffffffffffffffffffffff1614612e64576040517f08c379a0000000000000000000000000000000000000000000000000000000008152600401612e5b9061404c565b60405180910390fd5b565b600081604051602001612e799190613cd2565b604051602081830303815290604052805190602001209050919050565b600080612ea38484612f84565b90508091505092915050565b6000600260009054906101000a900473ffffffffffffffffffffffffffffffffffffffff16905081600260006101000a81548173ffffffffffffffffffffffffffffffffffffffff021916908373ffffffffffffffffffffffffffffffffffffffff1602179055508173ffffffffffffffffffffffffffffffffffffffff168173ffffffffffffffffffffffffffffffffffffffff167f8be0079c531659141344cd1fd0a4f28419497f9722a3daafe3b4186f6b6457e060405160405180910390a35050565b6000612f7f612db1565b905090565b6000806000612f938585612fab565b91509150612fa081612ffd565b819250505092915050565b600080604183511415612fed5760008060006020860151925060408601519150606086015160001a9050612fe18782858561329b565b94509450505050612ff6565b60006002915091505b9250929050565b60006004811115613037577f4e487b7100000000000000000000000000000000000000000000000000000000600052602160045260246000fd5b816004811115613070577f4e487b7100000000000000000000000000000000000000000000000000000000600052602160045260246000fd5b141561307b57613298565b600160048111156130b5577f4e487b7100000000000000000000000000000000000000000000000000000000600052602160045260246000fd5b8160048111156130ee577f4e487b7100000000000000000000000000000000000000000000000000000000600052602160045260246000fd5b141561312f576040517f08c379a000000000000000000000000000000000000000000000000000000000815260040161312690613f2c565b60405180910390fd5b60026004811115613169577f4e487b7100000000000000000000000000000000000000000000000000000000600052602160045260246000fd5b8160048111156131a2577f4e487b7100000000000000000000000000000000000000000000000000000000600052602160045260246000fd5b14156131e3576040517f08c379a00000000000000000000000000000000000000000000000000000000081526004016131da90613f6c565b60405180910390fd5b6003600481111561321d577f4e487b7100000000000000000000000000000000000000000000000000000000600052602160045260246000fd5b816004811115613256577f4e487b7100000000000000000000000000000000000000000000000000000000600052602160045260246000fd5b1415613297576040517f08c379a000000000000000000000000000000000000000000000000000000000815260040161328e90613fcc565b60405180910390fd5b5b50565b6000807f7fffffffffffffffffffffffffffffff5d576e7357a4501ddfe92f46681b20a08360001c11156132d6576000600391509150613375565b6000600187878787604051600081526020016040526040516132fb9493929190613ecc565b6020604051602081039080840390855afa15801561331d573d6000803e3d6000fd5b505050602060405103519050600073ffffffffffffffffffffffffffffffffffffffff168173ffffffffffffffffffffffffffffffffffffffff16141561336c57600060019250925050613375565b80600092509250505b94509492505050565b600061339161338c846141c3565b61419e565b9050828152602081018484840111156133a957600080fd5b6133b48482856143ad565b509392505050565b6000813590506133cb81614886565b92915050565b6000813590506133e08161489d565b92915050565b6000815190506133f58161489d565b92915050565b60008083601f84011261340d57600080fd5b8235905067ffffffffffffffff81111561342657600080fd5b60208301915083602082028301111561343e57600080fd5b9250929050565b600081519050613454816148b4565b92915050565b600081359050613469816148cb565b92915050565b60008135905061347e816148e2565b92915050565b60008083601f84011261349657600080fd5b8235905067ffffffffffffffff8111156134af57600080fd5b6020830191508360018202830111156134c757600080fd5b9250929050565b600082601f8301126134df57600080fd5b81356134ef84826020860161337e565b91505092915050565b600081359050613507816148f9565b92915050565b60008151905061351c816148f9565b92915050565b60008135905061353181614910565b92915050565b60006020828403121561354957600080fd5b6000613557848285016133bc565b91505092915050565b60006020828403121561357257600080fd5b6000613580848285016133d1565b91505092915050565b60006020828403121561359b57600080fd5b60006135a9848285016133e6565b91505092915050565b60008060008060008060008060a0898b0312156135ce57600080fd5b60006135dc8b828c016133bc565b98505060206135ed8b828c016133bc565b975050604089013567ffffffffffffffff81111561360a57600080fd5b6136168b828c016133fb565b9650965050606089013567ffffffffffffffff81111561363557600080fd5b6136418b828c016133fb565b9450945050608089013567ffffffffffffffff81111561366057600080fd5b61366c8b828c01613484565b92509250509295985092959890939650565b60008060008060006080868803121561369657600080fd5b60006136a4888289016133bc565b95505060206136b5888289016133bc565b94505060406136c6888289016134f8565b935050606086013567ffffffffffffffff8111156136e357600080fd5b6136ef88828901613484565b92509250509295509295909350565b60008060008060008060a0878903121561371757600080fd5b600061372589828a016133bc565b965050602061373689828a016133bc565b955050604061374789828a016134f8565b945050606061375889828a016134f8565b935050608087013567ffffffffffffffff81111561377557600080fd5b61378189828a01613484565b92509250509295509295509295565b600080600080600060a086880312156137a857600080fd5b60006137b6888289016133bc565b95505060206137c788828901613522565b94505060406137d8888289016134f8565b93505060606137e9888289016134f8565b92505060806137fa888289016133bc565b9150509295509295909350565b60006020828403121561381957600080fd5b600061382784828501613445565b91505092915050565b60006020828403121561384257600080fd5b60006138508482850161346f565b91505092915050565b60006020828403121561386b57600080fd5b6000613879848285016134f8565b91505092915050565b60006020828403121561389457600080fd5b60006138a28482850161350d565b91505092915050565b600080600080608085870312156138c157600080fd5b60006138cf878288016134f8565b94505060206138e0878288016133bc565b93505060406138f18782880161345a565b925050606085013567ffffffffffffffff81111561390e57600080fd5b61391a878288016134ce565b91505092959194509250565b61392f81614322565b82525050565b61393e81614310565b82525050565b61395561395082614310565b614436565b82525050565b61396481614334565b82525050565b61397381614340565b82525050565b61398a61398582614340565b614448565b82525050565b6139998161434a565b82525050565b60006139ab8385614205565b93506139b88385846143ad565b82840190509392505050565b60006139d1601883614210565b91506139dc826144e0565b602082019050919050565b60006139f4602683614210565b91506139ff82614509565b604082019050919050565b6000613a17601f83614210565b9150613a2282614558565b602082019050919050565b6000613a3a601c83614221565b9150613a4582614581565b601c82019050919050565b6000613a5d602683614210565b9150613a68826145aa565b604082019050919050565b6000613a80600f83614210565b9150613a8b826145f9565b602082019050919050565b6000613aa3602283614210565b9150613aae82614622565b604082019050919050565b6000613ac6601083614210565b9150613ad182614671565b602082019050919050565b6000613ae9600b83614210565b9150613af48261469a565b602082019050919050565b6000613b0c602a83614210565b9150613b17826146c3565b604082019050919050565b6000613b2f602083614210565b9150613b3a82614712565b602082019050919050565b6000613b52601583614210565b9150613b5d8261473b565b602082019050919050565b6000613b756011836141f4565b9150613b8082614764565b602082019050919050565b6000613b98601a83614210565b9150613ba38261478d565b602082019050919050565b6000613bbb6000836141f4565b9150613bc6826147b6565b600082019050919050565b6000613bde601683614210565b9150613be9826147b9565b602082019050919050565b6000613c01601a83614210565b9150613c0c826147e2565b602082019050919050565b6000613c24601383614210565b9150613c2f8261480b565b602082019050919050565b6000613c47601983614210565b9150613c5282614834565b602082019050919050565b6000613c6a601c83614210565b9150613c758261485d565b602082019050919050565b613c8981614396565b82525050565b613c98816143a0565b82525050565b6000613caa8284613944565b60148201915081905092915050565b6000613cc682848661399f565b91508190509392505050565b6000613cdd82613a2d565b9150613ce98284613979565b60208201915081905092915050565b6000602082019050613d0d6000830184613935565b92915050565b6000602082019050613d286000830184613926565b92915050565b6000604082019050613d436000830185613935565b613d506020830184613935565b9392505050565b6000606082019050613d6c6000830186613935565b613d796020830185613935565b613d866040830184613c80565b949350505050565b6000608082019050613da36000830186613935565b613db06020830185613935565b613dbd6040830184613c80565b8181036060830152613dce81613b68565b9050949350505050565b600060a082019050613ded6000830187613935565b613dfa6020830186613935565b613e076040830185613c80565b613e146060830184613c80565b8181036080830152613e2581613b68565b905095945050505050565b600060a082019050613e456000830187613935565b613e526020830186613935565b613e5f6040830185613c80565b613e6c6060830184613c80565b8181036080830152613e7d81613bae565b905095945050505050565b6000604082019050613e9d6000830185613935565b613eaa6020830184613c80565b9392505050565b6000602082019050613ec6600083018461395b565b92915050565b6000608082019050613ee1600083018761396a565b613eee6020830186613c8f565b613efb604083018561396a565b613f08606083018461396a565b95945050505050565b6000602082019050613f266000830184613990565b92915050565b60006020820190508181036000830152613f45816139c4565b9050919050565b60006020820190508181036000830152613f65816139e7565b9050919050565b60006020820190508181036000830152613f8581613a0a565b9050919050565b60006020820190508181036000830152613fa581613a50565b9050919050565b60006020820190508181036000830152613fc581613a73565b9050919050565b60006020820190508181036000830152613fe581613a96565b9050919050565b6000602082019050818103600083015261400581613ab9565b9050919050565b6000602082019050818103600083015261402581613adc565b9050919050565b6000602082019050818103600083015261404581613aff565b9050919050565b6000602082019050818103600083015261406581613b22565b9050919050565b6000602082019050818103600083015261408581613b45565b9050919050565b600060208201905081810360008301526140a581613b8b565b9050919050565b600060208201905081810360008301526140c581613bd1565b9050919050565b600060208201905081810360008301526140e581613bf4565b9050919050565b6000602082019050818103600083015261410581613c17565b9050919050565b6000602082019050818103600083015261412581613c3a565b9050919050565b6000602082019050818103600083015261414581613c5d565b9050919050565b60006020820190506141616000830184613c80565b92915050565b600060608201905061417c6000830186613c80565b6141896020830185613c8f565b6141966040830184613c80565b949350505050565b60006141a86141b9565b90506141b482826143bc565b919050565b6000604051905090565b600067ffffffffffffffff8211156141de576141dd614493565b5b6141e7826144c2565b9050602081019050919050565b600082825260208201905092915050565b600081905092915050565b600082825260208201905092915050565b600081905092915050565b600061423782614396565b915061424283614396565b9250827fffffffffffffffffffffffffffffffffffffffffffffffffffffffffffffffff0382111561427757614276614464565b5b828201905092915050565b600061428d82614396565b915061429883614396565b9250817fffffffffffffffffffffffffffffffffffffffffffffffffffffffffffffffff04831182151516156142d1576142d0614464565b5b828202905092915050565b60006142e782614396565b91506142f283614396565b92508282101561430557614304614464565b5b828203905092915050565b600061431b82614376565b9050919050565b600061432d82614376565b9050919050565b60008115159050919050565b6000819050919050565b60007fffffffff0000000000000000000000000000000000000000000000000000000082169050919050565b600073ffffffffffffffffffffffffffffffffffffffff82169050919050565b6000819050919050565b600060ff82169050919050565b82818337600083830152505050565b6143c5826144c2565b810181811067ffffffffffffffff821117156143e4576143e3614493565b5b80604052505050565b60006143f882614396565b91507fffffffffffffffffffffffffffffffffffffffffffffffffffffffffffffffff82141561442b5761442a614464565b5b600182019050919050565b600061444182614452565b9050919050565b6000819050919050565b600061445d826144d3565b9050919050565b7f4e487b7100000000000000000000000000000000000000000000000000000000600052601160045260246000fd5b7f4e487b7100000000000000000000000000000000000000000000000000000000600052604160045260246000fd5b6000601f19601f8301169050919050565b60008160601b9050919050565b7f45434453413a20696e76616c6964207369676e61747572650000000000000000600082015250565b7f53454e444552204d555354205741495420313220424c4f434b5320544f20574960008201527f5448445241570000000000000000000000000000000000000000000000000000602082015250565b7f45434453413a20696e76616c6964207369676e6174757265206c656e67746800600082015250565b7f19457468657265756d205369676e6564204d6573736167653a0a333200000000600082015250565b7f4f776e61626c653a206e6577206f776e657220697320746865207a65726f206160008201527f6464726573730000000000000000000000000000000000000000000000000000602082015250565b7f57524f4e47205349474e41545552450000000000000000000000000000000000600082015250565b7f45434453413a20696e76616c6964207369676e6174757265202773272076616c60008201527f7565000000000000000000000000000000000000000000000000000000000000602082015250565b7f494e56414c49442043414c4c4441544100000000000000000000000000000000600082015250565b7f4e4f204554482053454e54000000000000000000000000000000000000000000600082015250565b7f5452414e53464552204641494c45442e20434845434b20414c4c4f57414e434560008201527f20262042414c414e434500000000000000000000000000000000000000000000602082015250565b7f4f776e61626c653a2063616c6c6572206973206e6f7420746865206f776e6572600082015250565b7f494e56414c494420434f4e545241435420545950450000000000000000000000600082015250565b7f496e7465726e616c207472616e73666572000000000000000000000000000000600082015250565b7f4d5553542042452053454e44455220544f205749544844524157000000000000600082015250565b50565b7f494e53554646494349454e5420414c4c4f57414e434500000000000000000000600082015250565b7f494e53554646494349454e5420544f4b454e2042414c414e4345000000000000600082015250565b7f48415348455320444f204e4f54204d4154434800000000000000000000000000600082015250565b7f4445504f53495420414c52454144592057495448445241574e00000000000000600082015250565b7f4445504f53495420494e44455820444f4553204e4f5420455849535400000000600082015250565b61488f81614310565b811461489a57600080fd5b50565b6148a681614322565b81146148b157600080fd5b50565b6148bd81614334565b81146148c857600080fd5b50565b6148d481614340565b81146148df57600080fd5b50565b6148eb8161434a565b81146148f657600080fd5b50565b61490281614396565b811461490d57600080fd5b50565b614919816143a0565b811461492457600080fd5b5056fea2646970667358221220390c32f969dc1ce2928e73ab2b63b1c8717a694b0731f2268e6e8dce166889e964736f6c63430008020033608060405234801561001057600080fd5b5061002d61002261003260201b60201c565b61003a60201b60201c565b6100fe565b600033905090565b60008060009054906101000a900473ffffffffffffffffffffffffffffffffffffffff169050816000806101000a81548173ffffffffffffffffffffffffffffffffffffffff021916908373ffffffffffffffffffffffffffffffffffffffff1602179055508173ffffffffffffffffffffffffffffffffffffffff168173ffffffffffffffffffffffffffffffffffffffff167f8be0079c531659141344cd1fd0a4f28419497f9722a3daafe3b4186f6b6457e060405160405180910390a35050565b610ae28061010d6000396000f3fe6080604052600436106100555760003560e01c806351cff8d91461005a578063715018a6146100835780638da5cb5b1461009a578063e3a9db1a146100c5578063f2fde38b14610102578063f340fa011461012b575b600080fd5b34801561006657600080fd5b50610081600480360381019061007c91906106db565b610147565b005b34801561008f57600080fd5b50610098610253565b005b3480156100a657600080fd5b506100af610267565b6040516100bc91906107e6565b60405180910390f35b3480156100d157600080fd5b506100ec60048036038101906100e791906106b2565b610290565b6040516100f99190610881565b60405180910390f35b34801561010e57600080fd5b50610129600480360381019061012491906106b2565b6102d9565b005b610145600480360381019061014091906106b2565b61035d565b005b61014f61044a565b6000600160008373ffffffffffffffffffffffffffffffffffffffff1673ffffffffffffffffffffffffffffffffffffffff1681526020019081526020016000205490506000600160008473ffffffffffffffffffffffffffffffffffffffff1673ffffffffffffffffffffffffffffffffffffffff16815260200190815260200160002081905550610201818373ffffffffffffffffffffffffffffffffffffffff166104c890919063ffffffff16565b8173ffffffffffffffffffffffffffffffffffffffff167f7084f5476618d8e60b11ef0d7d3f06914655adb8793e28ff7f018d4c76d505d5826040516102479190610881565b60405180910390a25050565b61025b61044a565b61026560006105bc565b565b60008060009054906101000a900473ffffffffffffffffffffffffffffffffffffffff16905090565b6000600160008373ffffffffffffffffffffffffffffffffffffffff1673ffffffffffffffffffffffffffffffffffffffff168152602001908152602001600020549050919050565b6102e161044a565b600073ffffffffffffffffffffffffffffffffffffffff168173ffffffffffffffffffffffffffffffffffffffff161415610351576040517f08c379a000000000000000000000000000000000000000000000000000000000815260040161034890610801565b60405180910390fd5b61035a816105bc565b50565b61036561044a565b600034905080600160008473ffffffffffffffffffffffffffffffffffffffff1673ffffffffffffffffffffffffffffffffffffffff168152602001908152602001600020546103b591906108b8565b600160008473ffffffffffffffffffffffffffffffffffffffff1673ffffffffffffffffffffffffffffffffffffffff168152602001908152602001600020819055508173ffffffffffffffffffffffffffffffffffffffff167f2da466a7b24304f47e87fa2e1e5a81b9831ce54fec19055ce277ca2f39ba42c48260405161043e9190610881565b60405180910390a25050565b610452610680565b73ffffffffffffffffffffffffffffffffffffffff16610470610267565b73ffffffffffffffffffffffffffffffffffffffff16146104c6576040517f08c379a00000000000000000000000000000000000000000000000000000000081526004016104bd90610861565b60405180910390fd5b565b8047101561050b576040517f08c379a000000000000000000000000000000000000000000000000000000000815260040161050290610841565b60405180910390fd5b60008273ffffffffffffffffffffffffffffffffffffffff1682604051610531906107d1565b60006040518083038185875af1925050503d806000811461056e576040519150601f19603f3d011682016040523d82523d6000602084013e610573565b606091505b50509050806105b7576040517f08c379a00000000000000000000000000000000000000000000000000000000081526004016105ae90610821565b60405180910390fd5b505050565b60008060009054906101000a900473ffffffffffffffffffffffffffffffffffffffff169050816000806101000a81548173ffffffffffffffffffffffffffffffffffffffff021916908373ffffffffffffffffffffffffffffffffffffffff1602179055508173ffffffffffffffffffffffffffffffffffffffff168173ffffffffffffffffffffffffffffffffffffffff167f8be0079c531659141344cd1fd0a4f28419497f9722a3daafe3b4186f6b6457e060405160405180910390a35050565b600033905090565b60008135905061069781610a7e565b92915050565b6000813590506106ac81610a95565b92915050565b6000602082840312156106c457600080fd5b60006106d284828501610688565b91505092915050565b6000602082840312156106ed57600080fd5b60006106fb8482850161069d565b91505092915050565b61070d8161090e565b82525050565b60006107206026836108a7565b915061072b8261098b565b604082019050919050565b6000610743603a836108a7565b915061074e826109da565b604082019050919050565b6000610766601d836108a7565b915061077182610a29565b602082019050919050565b60006107896020836108a7565b915061079482610a52565b602082019050919050565b60006107ac60008361089c565b91506107b782610a7b565b600082019050919050565b6107cb81610952565b82525050565b60006107dc8261079f565b9150819050919050565b60006020820190506107fb6000830184610704565b92915050565b6000602082019050818103600083015261081a81610713565b9050919050565b6000602082019050818103600083015261083a81610736565b9050919050565b6000602082019050818103600083015261085a81610759565b9050919050565b6000602082019050818103600083015261087a8161077c565b9050919050565b600060208201905061089660008301846107c2565b92915050565b600081905092915050565b600082825260208201905092915050565b60006108c382610952565b91506108ce83610952565b9250827fffffffffffffffffffffffffffffffffffffffffffffffffffffffffffffffff038211156109035761090261095c565b5b828201905092915050565b600061091982610932565b9050919050565b600061092b82610932565b9050919050565b600073ffffffffffffffffffffffffffffffffffffffff82169050919050565b6000819050919050565b7f4e487b7100000000000000000000000000000000000000000000000000000000600052601160045260246000fd5b7f4f776e61626c653a206e6577206f776e657220697320746865207a65726f206160008201527f6464726573730000000000000000000000000000000000000000000000000000602082015250565b7f416464726573733a20756e61626c6520746f2073656e642076616c75652c207260008201527f6563697069656e74206d61792068617665207265766572746564000000000000602082015250565b7f416464726573733a20696e73756666696369656e742062616c616e6365000000600082015250565b7f4f776e61626c653a2063616c6c6572206973206e6f7420746865206f776e6572600082015250565b50565b610a878161090e565b8114610a9257600080fd5b50565b610a9e81610920565b8114610aa957600080fd5b5056fea264697066735822122014acc40ba0aeebe0d6eb62449388879f680546c4b032d7eda6ffce598489f1d764736f6c63430008020033",
  "linkReferences": {},
  "deployedLinkReferences": {}
}