{"contracts/Frens.sol":{"Frens":{"abi":[{"inputs":[{"internalType":"address","name":"forwarder","type":"address"}],"stateMutability":"nonpayable","type":"constructor"},{"anonymous":false,"inputs":[{"indexed":false,"internalType":"uint256","name":"_index","type":"uint256"},{"indexed":false,"internalType":"uint8","name":"_contractType","type":"uint8"},{"indexed":false,"internalType":"address","name":"_tokenAddress","type":"address"},{"indexed":false,"internalType":"uint256","name":"_amount","type":"uint256"},{"indexed":true,"internalType":"address","name":"_senderAddress","type":"address"}],"name":"DepositEvent","type":"event"},{"anonymous":false,"inputs":[{"indexed":true,"internalType":"address","name":"previousOwner","type":"address"},{"indexed":true,"internalType":"address","name":"newOwner","type":"address"}],"name":"OwnershipTransferred","type":"event"},{"anonymous":false,"inputs":[{"indexed":false,"internalType":"uint256","name":"_index","type":"uint256"},{"indexed":false,"internalType":"uint8","name":"_contractType","type":"uint8"},{"indexed":false,"internalType":"address","name":"_tokenAddress","type":"address"},{"indexed":false,"internalType":"uint256","name":"_amount","type":"uint256"},{"indexed":true,"internalType":"address","name":"_recipientAddress","type":"address"}],"name":"WithdrawEvent","type":"event"},{"anonymous":false,"inputs":[{"indexed":true,"internalType":"address","name":"payee","type":"address"},{"indexed":false,"internalType":"uint256","name":"weiAmount","type":"uint256"}],"name":"WithdrawnProfit","type":"event"},{"inputs":[],"name":"defaultGasLimit","outputs":[{"internalType":"uint256","name":"","type":"uint256"}],"stateMutability":"view","type":"function"},{"inputs":[{"internalType":"uint256","name":"","type":"uint256"}],"name":"deposits","outputs":[{"internalType":"address","name":"pubKey","type":"address"},{"internalType":"uint256","name":"amount","type":"uint256"},{"internalType":"address","name":"tokenAddress","type":"address"},{"internalType":"uint8","name":"contractType","type":"uint8"},{"internalType":"uint256","name":"tokenId","type":"uint256"},{"internalType":"address","name":"sender","type":"address"},{"internalType":"uint256","name":"depositedAt","type":"uint256"}],"stateMutability":"view","type":"function"},{"inputs":[{"internalType":"address","name":"_token","type":"address"}],"name":"estimateFee","outputs":[{"internalType":"uint256","name":"","type":"uint256"}],"stateMutability":"view","type":"function"},{"inputs":[{"internalType":"address","name":"","type":"address"}],"name":"gasLimits","outputs":[{"internalType":"uint256","name":"","type":"uint256"}],"stateMutability":"view","type":"function"},{"inputs":[],"name":"getDepositCount","outputs":[{"internalType":"uint256","name":"","type":"uint256"}],"stateMutability":"view","type":"function"},{"inputs":[],"name":"getTrustedForwarder","outputs":[{"internalType":"address","name":"forwarder","type":"address"}],"stateMutability":"view","type":"function"},{"inputs":[{"internalType":"address","name":"forwarder","type":"address"}],"name":"isTrustedForwarder","outputs":[{"internalType":"bool","name":"","type":"bool"}],"stateMutability":"view","type":"function"},{"inputs":[],"name":"lockBlocks","outputs":[{"internalType":"uint256","name":"","type":"uint256"}],"stateMutability":"view","type":"function"},{"inputs":[{"internalType":"address","name":"_tokenAddress","type":"address"},{"internalType":"uint8","name":"_contractType","type":"uint8"},{"internalType":"uint256","name":"_amount","type":"uint256"},{"internalType":"uint256","name":"_tokenId","type":"uint256"},{"internalType":"address","name":"_pubKey","type":"address"}],"name":"makeDeposit","outputs":[{"internalType":"uint256","name":"","type":"uint256"}],"stateMutability":"payable","type":"function"},{"inputs":[],"name":"minGasPrice","outputs":[{"internalType":"uint256","name":"","type":"uint256"}],"stateMutability":"view","type":"function"},{"inputs":[{"internalType":"address","name":"_operator","type":"address"},{"internalType":"address","name":"_from","type":"address"},{"internalType":"uint256[]","name":"_ids","type":"uint256[]"},{"internalType":"uint256[]","name":"_values","type":"uint256[]"},{"internalType":"bytes","name":"_data","type":"bytes"}],"name":"onERC1155BatchReceived","outputs":[{"internalType":"bytes4","name":"","type":"bytes4"}],"stateMutability":"nonpayable","type":"function"},{"inputs":[{"internalType":"address","name":"_operator","type":"address"},{"internalType":"address","name":"_from","type":"address"},{"internalType":"uint256","name":"_tokenId","type":"uint256"},{"internalType":"uint256","name":"_value","type":"uint256"},{"internalType":"bytes","name":"_data","type":"bytes"}],"name":"onERC1155Received","outputs":[{"internalType":"bytes4","name":"","type":"bytes4"}],"stateMutability":"nonpayable","type":"function"},{"inputs":[{"internalType":"address","name":"_operator","type":"address"},{"internalType":"address","name":"_from","type":"address"},{"internalType":"uint256","name":"_tokenId","type":"uint256"},{"internalType":"bytes","name":"_data","type":"bytes"}],"name":"onERC721Received","outputs":[{"internalType":"bytes4","name":"","type":"bytes4"}],"stateMutability":"nonpayable","type":"function"},{"inputs":[],"name":"owner","outputs":[{"internalType":"address","name":"","type":"address"}],"stateMutability":"view","type":"function"},{"inputs":[],"name":"profit","outputs":[{"internalType":"uint256","name":"","type":"uint256"}],"stateMutability":"view","type":"function"},{"inputs":[],"name":"protocolFee","outputs":[{"internalType":"uint256","name":"","type":"uint256"}],"stateMutability":"view","type":"function"},{"inputs":[],"name":"renounceOwnership","outputs":[],"stateMutability":"nonpayable","type":"function"},{"inputs":[{"internalType":"uint256","name":"_gasLimit","type":"uint256"}],"name":"setDefaultGasLimit","outputs":[],"stateMutability":"nonpayable","type":"function"},{"inputs":[{"internalType":"address","name":"_token","type":"address"},{"internalType":"uint256","name":"_gasLimit","type":"uint256"}],"name":"setGasLimit","outputs":[],"stateMutability":"nonpayable","type":"function"},{"inputs":[{"internalType":"uint256","name":"_lockBlocks","type":"uint256"}],"name":"setLockBlocks","outputs":[],"stateMutability":"nonpayable","type":"function"},{"inputs":[{"internalType":"uint256","name":"_minGasPrice","type":"uint256"}],"name":"setMinGasPrice","outputs":[],"stateMutability":"nonpayable","type":"function"},{"inputs":[{"internalType":"uint256","name":"_protocolFee","type":"uint256"}],"name":"setProtocolFee","outputs":[],"stateMutability":"nonpayable","type":"function"},{"inputs":[{"internalType":"address","name":"_forwarder","type":"address"}],"name":"setTrustedForwarder","outputs":[],"stateMutability":"nonpayable","type":"function"},{"inputs":[{"internalType":"bytes4","name":"_interfaceId","type":"bytes4"}],"name":"supportsInterface","outputs":[{"internalType":"bool","name":"","type":"bool"}],"stateMutability":"pure","type":"function"},{"inputs":[{"internalType":"address","name":"newOwner","type":"address"}],"name":"transferOwnership","outputs":[],"stateMutability":"nonpayable","type":"function"},{"inputs":[{"internalType":"uint256","name":"_index","type":"uint256"},{"internalType":"address","name":"_recipientAddress","type":"address"},{"internalType":"bytes32","name":"_recipientAddressHash","type":"bytes32"},{"internalType":"bytes","name":"_signature","type":"bytes"}],"name":"withdrawDeposit","outputs":[{"internalType":"bool","name":"","type":"bool"}],"stateMutability":"nonpayable","type":"function"},{"inputs":[{"internalType":"address payable","name":"payee","type":"address"}],"name":"withdrawProfit","outputs":[],"stateMutability":"nonpayable","type":"function"},{"inputs":[{"internalType":"uint256","name":"_index","type":"uint256"}],"name":"withdrawSender","outputs":[],"stateMutability":"nonpayable","type":"function"}],"evm":{"bytecode":{"linkReferences":{},"object":"6080604052600c6002556152086004556601c6bf52634000600555600060065560006007553480156200003157600080fd5b5060405162004b4b38038062004b4b83398181016040528101906200005791906200026d565b620000776200006b6200009660201b60201c565b620000b260201b60201c565b62000088816200017860201b60201c565b3a60078190555050620002e7565b6000620000ad620001bb60201b62002c021760201c565b905090565b6000600160009054906101000a900473ffffffffffffffffffffffffffffffffffffffff16905081600160006101000a81548173ffffffffffffffffffffffffffffffffffffffff021916908373ffffffffffffffffffffffffffffffffffffffff1602179055508173ffffffffffffffffffffffffffffffffffffffff168173ffffffffffffffffffffffffffffffffffffffff167f8be0079c531659141344cd1fd0a4f28419497f9722a3daafe3b4186f6b6457e060405160405180910390a35050565b806000806101000a81548173ffffffffffffffffffffffffffffffffffffffff021916908373ffffffffffffffffffffffffffffffffffffffff16021790555050565b60006014600036905010158015620001e05750620001df33620001fd60201b60201c565b5b15620001f657601436033560601c9050620001fa565b3390505b90565b60008060009054906101000a900473ffffffffffffffffffffffffffffffffffffffff1673ffffffffffffffffffffffffffffffffffffffff168273ffffffffffffffffffffffffffffffffffffffff16149050919050565b6000815190506200026781620002cd565b92915050565b6000602082840312156200028057600080fd5b6000620002908482850162000256565b91505092915050565b6000620002a682620002ad565b9050919050565b600073ffffffffffffffffffffffffffffffffffffffff82169050919050565b620002d88162000299565b8114620002e457600080fd5b50565b61485480620002f76000396000f3fe6080604052600436106101b75760003560e01c806395368d2e116100ec578063d96ed5051161008a578063f23a6e6111610064578063f23a6e6114610636578063f2fde38b14610673578063f34780111461069c578063f3e0dfc2146106cc576101b7565b8063d96ed505146105b9578063da742228146105e4578063e32bb67b1461060d576101b7565b8063bc197c81116100c6578063bc197c81146104eb578063c7c8459a14610528578063ce1b815f14610551578063ce5ac3271461057c576101b7565b806395368d2e14610452578063b02c43d01461047d578063b0e21e8a146104c0576101b7565b806363d83b4211610159578063787dce3d11610133578063787dce3d146103aa5780638da5cb5b146103d357806390ac1866146103fe5780639363a14114610427576101b7565b806363d83b421461033f57806366d16cc314610368578063715018a614610393576101b7565b806324e262411161019557806324e262411461025f57806330c7a3bb14610288578063572b6c05146102c557806357463d3514610302576101b7565b806301ffc9a7146101bc578063150b7a02146101f95780631f41288314610236575b600080fd5b3480156101c857600080fd5b506101e360048036038101906101de9190613706565b6106f7565b6040516101f09190613d8f565b60405180910390f35b34801561020557600080fd5b50610220600480360381019061021b9190613518565b610899565b60405161022d9190613def565b60405180910390f35b34801561024257600080fd5b5061025d6004803603810190610258919061372f565b610b97565b005b34801561026b57600080fd5b50610286600480360381019061028191906133fa565b6111ec565b005b34801561029457600080fd5b506102af60048036038101906102aa9190613781565b6112dd565b6040516102bc9190613d8f565b60405180910390f35b3480156102d157600080fd5b506102ec60048036038101906102e791906133d1565b611985565b6040516102f99190613d8f565b60405180910390f35b34801561030e57600080fd5b50610329600480360381019061032491906133d1565b6119de565b604051610336919061404a565b60405180910390f35b34801561034b57600080fd5b506103666004803603810190610361919061372f565b611a71565b005b34801561037457600080fd5b5061037d611a83565b60405161038a919061404a565b60405180910390f35b34801561039f57600080fd5b506103a8611a89565b005b3480156103b657600080fd5b506103d160048036038101906103cc919061372f565b611a9d565b005b3480156103df57600080fd5b506103e8611aaf565b6040516103f59190613b82565b60405180910390f35b34801561040a57600080fd5b506104256004803603810190610420919061372f565b611ad9565b005b34801561043357600080fd5b5061043c611aeb565b604051610449919061404a565b60405180910390f35b34801561045e57600080fd5b50610467611af8565b604051610474919061404a565b60405180910390f35b34801561048957600080fd5b506104a4600480360381019061049f919061372f565b611afe565b6040516104b79796959493929190613d20565b60405180910390f35b3480156104cc57600080fd5b506104d5611bbd565b6040516104e2919061404a565b60405180910390f35b3480156104f757600080fd5b50610512600480360381019061050d919061344c565b611bc3565b60405161051f9190613def565b60405180910390f35b34801561053457600080fd5b5061054f600480360381019061054a919061362a565b6120df565b005b34801561055d57600080fd5b5061056661212f565b6040516105739190613b82565b60405180910390f35b34801561058857600080fd5b506105a3600480360381019061059e91906133d1565b612158565b6040516105b0919061404a565b60405180910390f35b3480156105c557600080fd5b506105ce612170565b6040516105db919061404a565b60405180910390f35b3480156105f057600080fd5b5061060b600480360381019061060691906133d1565b612176565b005b34801561061957600080fd5b50610634600480360381019061062f919061372f565b61218a565b005b34801561064257600080fd5b5061065d60048036038101906106589190613598565b61219c565b60405161066a9190613def565b60405180910390f35b34801561067f57600080fd5b5061069a600480360381019061069591906133d1565b61249a565b005b6106b660048036038101906106b19190613666565b61251e565b6040516106c3919061404a565b60405180910390f35b3480156106d857600080fd5b506106e1612bfc565b6040516106ee919061404a565b60405180910390f35b60007f01ffc9a7000000000000000000000000000000000000000000000000000000007bffffffffffffffffffffffffffffffffffffffffffffffffffffffff1916827bffffffffffffffffffffffffffffffffffffffffffffffffffffffff191614806107c257507f150b7a02000000000000000000000000000000000000000000000000000000007bffffffffffffffffffffffffffffffffffffffffffffffffffffffff1916827bffffffffffffffffffffffffffffffffffffffffffffffffffffffff1916145b8061082a57507f4e2312e0000000000000000000000000000000000000000000000000000000007bffffffffffffffffffffffffffffffffffffffffffffffffffffffff1916827bffffffffffffffffffffffffffffffffffffffffffffffffffffffff1916145b8061089257507f572b6c05000000000000000000000000000000000000000000000000000000007bffffffffffffffffffffffffffffffffffffffffffffffffffffffff1916827bffffffffffffffffffffffffffffffffffffffffffffffffffffffff1916145b9050919050565b60007fbe9026ad5baa968e00aac2255a31276c279344b5c00065fec9ea38e7c9d41c0883836040516108cc929190613b69565b604051809103902014156108e95763150b7a0260e01b9050610b8e565b6014838390501461092f576040517f08c379a000000000000000000000000000000000000000000000000000000000815260040161092690613eea565b60405180910390fd5b6000610939612c39565b90506000600290506000600190506000868681019061095891906133fa565b905060086040518060e001604052808373ffffffffffffffffffffffffffffffffffffffff1681526020018481526020018673ffffffffffffffffffffffffffffffffffffffff1681526020018560ff1681526020018a81526020016109bc612c39565b73ffffffffffffffffffffffffffffffffffffffff16815260200142815250908060018154018082558091505060019003906000526020600020906006020160009091909190915060008201518160000160006101000a81548173ffffffffffffffffffffffffffffffffffffffff021916908373ffffffffffffffffffffffffffffffffffffffff1602179055506020820151816001015560408201518160020160006101000a81548173ffffffffffffffffffffffffffffffffffffffff021916908373ffffffffffffffffffffffffffffffffffffffff16021790555060608201518160020160146101000a81548160ff021916908360ff1602179055506080820151816003015560a08201518160040160006101000a81548173ffffffffffffffffffffffffffffffffffffffff021916908373ffffffffffffffffffffffffffffffffffffffff16021790555060c0820151816005015550508973ffffffffffffffffffffffffffffffffffffffff167f0ff0c92c63b7eee4d6ef05afdf24fe4ed28ea37f6cbb91962ec869e642d8a02a6001600880549050610b6491906141dd565b858786604051610b779493929190614065565b60405180910390a263150b7a0260e01b9450505050505b95945050505050565b6008805490508110610bde576040517f08c379a0000000000000000000000000000000000000000000000000000000008152600401610bd59061402a565b60405180910390fd5b600060088281548110610c1a577f4e487b7100000000000000000000000000000000000000000000000000000000600052603260045260246000fd5b90600052602060002090600602016040518060e00160405290816000820160009054906101000a900473ffffffffffffffffffffffffffffffffffffffff1673ffffffffffffffffffffffffffffffffffffffff1673ffffffffffffffffffffffffffffffffffffffff168152602001600182015481526020016002820160009054906101000a900473ffffffffffffffffffffffffffffffffffffffff1673ffffffffffffffffffffffffffffffffffffffff1673ffffffffffffffffffffffffffffffffffffffff1681526020016002820160149054906101000a900460ff1660ff1660ff168152602001600382015481526020016004820160009054906101000a900473ffffffffffffffffffffffffffffffffffffffff1673ffffffffffffffffffffffffffffffffffffffff1673ffffffffffffffffffffffffffffffffffffffff16815260200160058201548152505090506002548160c00151610d84919061412d565b431015610dc6576040517f08c379a0000000000000000000000000000000000000000000000000000000008152600401610dbd90613f6a565b60405180910390fd5b610dce612c39565b73ffffffffffffffffffffffffffffffffffffffff168160a0015173ffffffffffffffffffffffffffffffffffffffff1614610e3f576040517f08c379a0000000000000000000000000000000000000000000000000000000008152600401610e3690613f8a565b60405180910390fd5b6000816060015160ff161415610ea657610e57612c39565b73ffffffffffffffffffffffffffffffffffffffff166108fc82602001519081150290604051600060405180830381858888f19350505050158015610ea0573d6000803e3d6000fd5b50611095565b6001816060015160ff161415610f5e576000816040015190508073ffffffffffffffffffffffffffffffffffffffff1663a9059cbb610ee3612c39565b84602001516040518363ffffffff1660e01b8152600401610f05929190613cf7565b602060405180830381600087803b158015610f1f57600080fd5b505af1158015610f33573d6000803e3d6000fd5b505050506040513d601f19601f82011682018060405250810190610f5791906136dd565b5050611094565b6002816060015160ff161415610ff7576000816040015190508073ffffffffffffffffffffffffffffffffffffffff166323b872dd30610f9c612c39565b85608001516040518463ffffffff1660e01b8152600401610fbf93929190613bc6565b600060405180830381600087803b158015610fd957600080fd5b505af1158015610fed573d6000803e3d6000fd5b5050505050611093565b6003816060015160ff161415611092576000816040015190508073ffffffffffffffffffffffffffffffffffffffff1663f242432a30611035612c39565b856080015186602001516040518563ffffffff1660e01b815260040161105e9493929190613c9f565b600060405180830381600087803b15801561107857600080fd5b505af115801561108c573d6000803e3d6000fd5b50505050505b5b5b5b61109d612c39565b73ffffffffffffffffffffffffffffffffffffffff167fdd4d77fcb81062c183b4956dfcb3a37fcef2bea1fc9b861e5b2caf67fca071f7838360600151846040015185602001516040516110f49493929190614065565b60405180910390a260088281548110611136577f4e487b7100000000000000000000000000000000000000000000000000000000600052603260045260246000fd5b9060005260206000209060060201600080820160006101000a81549073ffffffffffffffffffffffffffffffffffffffff021916905560018201600090556002820160006101000a81549073ffffffffffffffffffffffffffffffffffffffff02191690556002820160146101000a81549060ff021916905560038201600090556004820160006101000a81549073ffffffffffffffffffffffffffffffffffffffff0219169055600582016000905550505050565b6111f4612c48565b600060065411611239576040517f08c379a000000000000000000000000000000000000000000000000000000000815260040161123090613eaa565b60405180910390fd5b8073ffffffffffffffffffffffffffffffffffffffff166108fc6006549081150290604051600060405180830381858888f19350505050158015611281573d6000803e3d6000fd5b5060006006819055508073ffffffffffffffffffffffffffffffffffffffff167f9acd446c7c5d67289e9ab24bf8d274c3e60b36709aad13c9ccefec55a25c00bb6006546040516112d2919061404a565b60405180910390a250565b60006008805490508510611326576040517f08c379a000000000000000000000000000000000000000000000000000000000815260040161131d9061402a565b60405180910390fd5b600060088681548110611362577f4e487b7100000000000000000000000000000000000000000000000000000000600052603260045260246000fd5b90600052602060002090600602016040518060e00160405290816000820160009054906101000a900473ffffffffffffffffffffffffffffffffffffffff1673ffffffffffffffffffffffffffffffffffffffff1673ffffffffffffffffffffffffffffffffffffffff168152602001600182015481526020016002820160009054906101000a900473ffffffffffffffffffffffffffffffffffffffff1673ffffffffffffffffffffffffffffffffffffffff1673ffffffffffffffffffffffffffffffffffffffff1681526020016002820160149054906101000a900460ff1660ff1660ff168152602001600382015481526020016004820160009054906101000a900473ffffffffffffffffffffffffffffffffffffffff1673ffffffffffffffffffffffffffffffffffffffff1673ffffffffffffffffffffffffffffffffffffffff16815260200160058201548152505090506000816020015111611501576040517f08c379a00000000000000000000000000000000000000000000000000000000081526004016114f89061400a565b60405180910390fd5b611530856040516020016115159190613b4e565b60405160208183030381529060405280519060200120612cc6565b8414611571576040517f08c379a000000000000000000000000000000000000000000000000000000000815260040161156890613fea565b60405180910390fd5b600061157d8585612cfc565b9050816000015173ffffffffffffffffffffffffffffffffffffffff168173ffffffffffffffffffffffffffffffffffffffff16146115f1576040517f08c379a00000000000000000000000000000000000000000000000000000000081526004016115e890613e6a565b60405180910390fd5b6000826060015160ff161415611651578573ffffffffffffffffffffffffffffffffffffffff166108fc83602001519081150290604051600060405180830381858888f1935050505015801561164b573d6000803e3d6000fd5b5061182b565b6001826060015160ff161415611702576000826040015190508073ffffffffffffffffffffffffffffffffffffffff1663a9059cbb8885602001516040518363ffffffff1660e01b81526004016116a9929190613cf7565b602060405180830381600087803b1580156116c357600080fd5b505af11580156116d7573d6000803e3d6000fd5b505050506040513d601f19601f820116820180604052508101906116fb91906136dd565b505061182a565b6002826060015160ff161415611794576000826040015190508073ffffffffffffffffffffffffffffffffffffffff166323b872dd308986608001516040518463ffffffff1660e01b815260040161175c93929190613bc6565b600060405180830381600087803b15801561177657600080fd5b505af115801561178a573d6000803e3d6000fd5b5050505050611829565b6003826060015160ff161415611828576000826040015190508073ffffffffffffffffffffffffffffffffffffffff1663f242432a3089866080015187602001516040518563ffffffff1660e01b81526004016117f49493929190613c9f565b600060405180830381600087803b15801561180e57600080fd5b505af1158015611822573d6000803e3d6000fd5b50505050505b5b5b5b8573ffffffffffffffffffffffffffffffffffffffff167fdd4d77fcb81062c183b4956dfcb3a37fcef2bea1fc9b861e5b2caf67fca071f7888460600151856040015186602001516040516118839493929190614065565b60405180910390a2600887815481106118c5577f4e487b7100000000000000000000000000000000000000000000000000000000600052603260045260246000fd5b9060005260206000209060060201600080820160006101000a81549073ffffffffffffffffffffffffffffffffffffffff021916905560018201600090556002820160006101000a81549073ffffffffffffffffffffffffffffffffffffffff02191690556002820160146101000a81549060ff021916905560038201600090556004820160006101000a81549073ffffffffffffffffffffffffffffffffffffffff021916905560058201600090555050600192505050949350505050565b60008060009054906101000a900473ffffffffffffffffffffffffffffffffffffffff1673ffffffffffffffffffffffffffffffffffffffff168273ffffffffffffffffffffffffffffffffffffffff16149050919050565b600080600360008473ffffffffffffffffffffffffffffffffffffffff1673ffffffffffffffffffffffffffffffffffffffff1681526020019081526020016000205490506000811415611a325760045490505b60003a60075411611a43573a611a47565b6007545b905060008282611a579190614183565b905060055481611a67919061412d565b9350505050919050565b611a79612c48565b8060028190555050565b60065481565b611a91612c48565b611a9b6000612d15565b565b611aa5612c48565b8060058190555050565b6000600160009054906101000a900473ffffffffffffffffffffffffffffffffffffffff16905090565b611ae1612c48565b8060078190555050565b6000600880549050905090565b60045481565b60088181548110611b0e57600080fd5b90600052602060002090600602016000915090508060000160009054906101000a900473ffffffffffffffffffffffffffffffffffffffff16908060010154908060020160009054906101000a900473ffffffffffffffffffffffffffffffffffffffff16908060020160149054906101000a900460ff16908060030154908060040160009054906101000a900473ffffffffffffffffffffffffffffffffffffffff16908060050154905087565b60055481565b60007fbe9026ad5baa968e00aac2255a31276c279344b5c00065fec9ea38e7c9d41c088383604051611bf6929190613b69565b60405180910390201415611c135763bc197c8160e01b90506120d3565b601487879050611c239190614183565b8383905014611c67576040517f08c379a0000000000000000000000000000000000000000000000000000000008152600401611c5e90613eea565b60405180910390fd5b6000611c71612c39565b9050600060049050600080600080600090505b8c8c90508110156120c2578a8a82818110611cc8577f4e487b7100000000000000000000000000000000000000000000000000000000600052603260045260246000fd5b9050602002013592508c8c82818110611d0a577f4e487b7100000000000000000000000000000000000000000000000000000000600052603260045260246000fd5b9050602002013591506000601482611d229190614183565b90506000601467ffffffffffffffff811115611d67577f4e487b7100000000000000000000000000000000000000000000000000000000600052604160045260246000fd5b6040519080825280601f01601f191660200182016040528015611d995781602001600182028036833780820191505090505b50905060005b6014811015611e71578b8b8285611db6919061412d565b818110611dec577f4e487b7100000000000000000000000000000000000000000000000000000000600052603260045260246000fd5b9050013560f81c60f81b828281518110611e2f577f4e487b7100000000000000000000000000000000000000000000000000000000600052603260045260246000fd5b60200101907effffffffffffffffffffffffffffffffffffffffffffffffffffffffffffff1916908160001a9053508080611e69906142ee565b915050611d9f565b5080806020019051810190611e869190613423565b955060086040518060e001604052808873ffffffffffffffffffffffffffffffffffffffff1681526020018781526020018a73ffffffffffffffffffffffffffffffffffffffff1681526020018960ff168152602001868152602001611eea612c39565b73ffffffffffffffffffffffffffffffffffffffff16815260200142815250908060018154018082558091505060019003906000526020600020906006020160009091909190915060008201518160000160006101000a81548173ffffffffffffffffffffffffffffffffffffffff021916908373ffffffffffffffffffffffffffffffffffffffff1602179055506020820151816001015560408201518160020160006101000a81548173ffffffffffffffffffffffffffffffffffffffff021916908373ffffffffffffffffffffffffffffffffffffffff16021790555060608201518160020160146101000a81548160ff021916908360ff1602179055506080820151816003015560a08201518160040160006101000a81548173ffffffffffffffffffffffffffffffffffffffff021916908373ffffffffffffffffffffffffffffffffffffffff16021790555060c0820151816005015550508f73ffffffffffffffffffffffffffffffffffffffff167f0ff0c92c63b7eee4d6ef05afdf24fe4ed28ea37f6cbb91962ec869e642d8a02a600160088054905061209291906141dd565b898b896040516120a59493929190614065565b60405180910390a2505080806120ba906142ee565b915050611c84565b5063bc197c8160e01b955050505050505b98975050505050505050565b6120e7612c48565b80600360008473ffffffffffffffffffffffffffffffffffffffff1673ffffffffffffffffffffffffffffffffffffffff168152602001908152602001600020819055505050565b60008060009054906101000a900473ffffffffffffffffffffffffffffffffffffffff16905090565b60036020528060005260406000206000915090505481565b60075481565b61217e612c48565b61218781612ddb565b50565b612192612c48565b8060048190555050565b60007fbe9026ad5baa968e00aac2255a31276c279344b5c00065fec9ea38e7c9d41c0883836040516121cf929190613b69565b604051809103902014156121ec5763f23a6e6160e01b9050612490565b60148383905014612232576040517f08c379a000000000000000000000000000000000000000000000000000000000815260040161222990613eea565b60405180910390fd5b600061223c612c39565b905060006003905060008690506000868681019061225a91906133fa565b905060086040518060e001604052808373ffffffffffffffffffffffffffffffffffffffff1681526020018481526020018673ffffffffffffffffffffffffffffffffffffffff1681526020018560ff1681526020018b81526020016122be612c39565b73ffffffffffffffffffffffffffffffffffffffff16815260200142815250908060018154018082558091505060019003906000526020600020906006020160009091909190915060008201518160000160006101000a81548173ffffffffffffffffffffffffffffffffffffffff021916908373ffffffffffffffffffffffffffffffffffffffff1602179055506020820151816001015560408201518160020160006101000a81548173ffffffffffffffffffffffffffffffffffffffff021916908373ffffffffffffffffffffffffffffffffffffffff16021790555060608201518160020160146101000a81548160ff021916908360ff1602179055506080820151816003015560a08201518160040160006101000a81548173ffffffffffffffffffffffffffffffffffffffff021916908373ffffffffffffffffffffffffffffffffffffffff16021790555060c0820151816005015550508973ffffffffffffffffffffffffffffffffffffffff167f0ff0c92c63b7eee4d6ef05afdf24fe4ed28ea37f6cbb91962ec869e642d8a02a600160088054905061246691906141dd565b8587866040516124799493929190614065565b60405180910390a263f23a6e6160e01b9450505050505b9695505050505050565b6124a2612c48565b600073ffffffffffffffffffffffffffffffffffffffff168173ffffffffffffffffffffffffffffffffffffffff161415612512576040517f08c379a000000000000000000000000000000000000000000000000000000000815260040161250990613e4a565b60405180910390fd5b61251b81612d15565b50565b60008061252a876119de565b905080341161256e576040517f08c379a000000000000000000000000000000000000000000000000000000000815260040161256590613eca565b60405180910390fd5b60048660ff16106125b4576040517f08c379a00000000000000000000000000000000000000000000000000000000081526004016125ab90613f4a565b60405180910390fd5b60008660ff1614156125ec5780346125cc91906141dd565b945080600660008282546125e0919061412d565b925050819055506129b2565b60018660ff16141561287e576000879050858173ffffffffffffffffffffffffffffffffffffffff166370a08231612622612c39565b6040518263ffffffff1660e01b815260040161263e9190613b82565b60206040518083038186803b15801561265657600080fd5b505afa15801561266a573d6000803e3d6000fd5b505050506040513d601f19601f8201168201806040525081019061268e9190613758565b10156126cf576040517f08c379a00000000000000000000000000000000000000000000000000000000081526004016126c690613fca565b60405180910390fd5b858173ffffffffffffffffffffffffffffffffffffffff1663dd62ed3e6126f4612c39565b306040518363ffffffff1660e01b8152600401612712929190613b9d565b60206040518083038186803b15801561272a57600080fd5b505afa15801561273e573d6000803e3d6000fd5b505050506040513d601f19601f820116820180604052508101906127629190613758565b10156127a3576040517f08c379a000000000000000000000000000000000000000000000000000000000815260040161279a90613faa565b60405180910390fd5b8073ffffffffffffffffffffffffffffffffffffffff166323b872dd6127c7612c39565b30896040518463ffffffff1660e01b81526004016127e793929190613bc6565b602060405180830381600087803b15801561280157600080fd5b505af1158015612815573d6000803e3d6000fd5b505050506040513d601f19601f8201168201806040525081019061283991906136dd565b612878576040517f08c379a000000000000000000000000000000000000000000000000000000000815260040161286f90613f0a565b60405180910390fd5b50612998565b60028660ff16141561290b5760008790508073ffffffffffffffffffffffffffffffffffffffff1663b88d4fde6128b3612c39565b30886040518463ffffffff1660e01b81526004016128d393929190613bfd565b600060405180830381600087803b1580156128ed57600080fd5b505af1158015612901573d6000803e3d6000fd5b5050505050612997565b60038660ff1614156129965760008790508073ffffffffffffffffffffffffffffffffffffffff1663f242432a612940612c39565b30888a6040518563ffffffff1660e01b81526004016129629493929190613c47565b600060405180830381600087803b15801561297c57600080fd5b505af1158015612990573d6000803e3d6000fd5b50505050505b5b5b34600660008282546129aa919061412d565b925050819055505b60086040518060e001604052808573ffffffffffffffffffffffffffffffffffffffff1681526020018781526020018973ffffffffffffffffffffffffffffffffffffffff1681526020018860ff168152602001868152602001612a14612c39565b73ffffffffffffffffffffffffffffffffffffffff16815260200142815250908060018154018082558091505060019003906000526020600020906006020160009091909190915060008201518160000160006101000a81548173ffffffffffffffffffffffffffffffffffffffff021916908373ffffffffffffffffffffffffffffffffffffffff1602179055506020820151816001015560408201518160020160006101000a81548173ffffffffffffffffffffffffffffffffffffffff021916908373ffffffffffffffffffffffffffffffffffffffff16021790555060608201518160020160146101000a81548160ff021916908360ff1602179055506080820151816003015560a08201518160040160006101000a81548173ffffffffffffffffffffffffffffffffffffffff021916908373ffffffffffffffffffffffffffffffffffffffff16021790555060c082015181600501555050612b7a612c39565b73ffffffffffffffffffffffffffffffffffffffff167f0ff0c92c63b7eee4d6ef05afdf24fe4ed28ea37f6cbb91962ec869e642d8a02a6001600880549050612bc391906141dd565b888a89604051612bd69493929190614065565b60405180910390a26001600880549050612bf091906141dd565b91505095945050505050565b60025481565b60006014600036905010158015612c1e5750612c1d33611985565b5b15612c3257601436033560601c9050612c36565b3390505b90565b6000612c43612c02565b905090565b612c50612c39565b73ffffffffffffffffffffffffffffffffffffffff16612c6e611aaf565b73ffffffffffffffffffffffffffffffffffffffff1614612cc4576040517f08c379a0000000000000000000000000000000000000000000000000000000008152600401612cbb90613f2a565b60405180910390fd5b565b60007f19457468657265756d205369676e6564204d6573736167653a0a33320000000060005281601c52603c6000209050919050565b600080612d098484612e1e565b90508091505092915050565b6000600160009054906101000a900473ffffffffffffffffffffffffffffffffffffffff16905081600160006101000a81548173ffffffffffffffffffffffffffffffffffffffff021916908373ffffffffffffffffffffffffffffffffffffffff1602179055508173ffffffffffffffffffffffffffffffffffffffff168173ffffffffffffffffffffffffffffffffffffffff167f8be0079c531659141344cd1fd0a4f28419497f9722a3daafe3b4186f6b6457e060405160405180910390a35050565b806000806101000a81548173ffffffffffffffffffffffffffffffffffffffff021916908373ffffffffffffffffffffffffffffffffffffffff16021790555050565b6000806000612e2d8585612e45565b91509150612e3a81612e97565b819250505092915050565b600080604183511415612e875760008060006020860151925060408601519150606086015160001a9050612e7b87828585613135565b94509450505050612e90565b60006002915091505b9250929050565b60006004811115612ed1577f4e487b7100000000000000000000000000000000000000000000000000000000600052602160045260246000fd5b816004811115612f0a577f4e487b7100000000000000000000000000000000000000000000000000000000600052602160045260246000fd5b1415612f1557613132565b60016004811115612f4f577f4e487b7100000000000000000000000000000000000000000000000000000000600052602160045260246000fd5b816004811115612f88577f4e487b7100000000000000000000000000000000000000000000000000000000600052602160045260246000fd5b1415612fc9576040517f08c379a0000000000000000000000000000000000000000000000000000000008152600401612fc090613e0a565b60405180910390fd5b60026004811115613003577f4e487b7100000000000000000000000000000000000000000000000000000000600052602160045260246000fd5b81600481111561303c577f4e487b7100000000000000000000000000000000000000000000000000000000600052602160045260246000fd5b141561307d576040517f08c379a000000000000000000000000000000000000000000000000000000000815260040161307490613e2a565b60405180910390fd5b600360048111156130b7577f4e487b7100000000000000000000000000000000000000000000000000000000600052602160045260246000fd5b8160048111156130f0577f4e487b7100000000000000000000000000000000000000000000000000000000600052602160045260246000fd5b1415613131576040517f08c379a000000000000000000000000000000000000000000000000000000000815260040161312890613e8a565b60405180910390fd5b5b50565b6000807f7fffffffffffffffffffffffffffffff5d576e7357a4501ddfe92f46681b20a08360001c111561317057600060039150915061320f565b6000600187878787604051600081526020016040526040516131959493929190613daa565b6020604051602081039080840390855afa1580156131b7573d6000803e3d6000fd5b505050602060405103519050600073ffffffffffffffffffffffffffffffffffffffff168173ffffffffffffffffffffffffffffffffffffffff1614156132065760006001925092505061320f565b80600092509250505b94509492505050565b600061322b613226846140cf565b6140aa565b90508281526020810184848401111561324357600080fd5b61324e8482856142ae565b509392505050565b6000813590506132658161477d565b92915050565b60008135905061327a81614794565b92915050565b60008151905061328f81614794565b92915050565b60008083601f8401126132a757600080fd5b8235905067ffffffffffffffff8111156132c057600080fd5b6020830191508360208202830111156132d857600080fd5b9250929050565b6000815190506132ee816147ab565b92915050565b600081359050613303816147c2565b92915050565b600081359050613318816147d9565b92915050565b60008083601f84011261333057600080fd5b8235905067ffffffffffffffff81111561334957600080fd5b60208301915083600182028301111561336157600080fd5b9250929050565b600082601f83011261337957600080fd5b8135613389848260208601613218565b91505092915050565b6000813590506133a1816147f0565b92915050565b6000815190506133b6816147f0565b92915050565b6000813590506133cb81614807565b92915050565b6000602082840312156133e357600080fd5b60006133f184828501613256565b91505092915050565b60006020828403121561340c57600080fd5b600061341a8482850161326b565b91505092915050565b60006020828403121561343557600080fd5b600061344384828501613280565b91505092915050565b60008060008060008060008060a0898b03121561346857600080fd5b60006134768b828c01613256565b98505060206134878b828c01613256565b975050604089013567ffffffffffffffff8111156134a457600080fd5b6134b08b828c01613295565b9650965050606089013567ffffffffffffffff8111156134cf57600080fd5b6134db8b828c01613295565b9450945050608089013567ffffffffffffffff8111156134fa57600080fd5b6135068b828c0161331e565b92509250509295985092959890939650565b60008060008060006080868803121561353057600080fd5b600061353e88828901613256565b955050602061354f88828901613256565b945050604061356088828901613392565b935050606086013567ffffffffffffffff81111561357d57600080fd5b6135898882890161331e565b92509250509295509295909350565b60008060008060008060a087890312156135b157600080fd5b60006135bf89828a01613256565b96505060206135d089828a01613256565b95505060406135e189828a01613392565b94505060606135f289828a01613392565b935050608087013567ffffffffffffffff81111561360f57600080fd5b61361b89828a0161331e565b92509250509295509295509295565b6000806040838503121561363d57600080fd5b600061364b85828601613256565b925050602061365c85828601613392565b9150509250929050565b600080600080600060a0868803121561367e57600080fd5b600061368c88828901613256565b955050602061369d888289016133bc565b94505060406136ae88828901613392565b93505060606136bf88828901613392565b92505060806136d088828901613256565b9150509295509295909350565b6000602082840312156136ef57600080fd5b60006136fd848285016132df565b91505092915050565b60006020828403121561371857600080fd5b600061372684828501613309565b91505092915050565b60006020828403121561374157600080fd5b600061374f84828501613392565b91505092915050565b60006020828403121561376a57600080fd5b6000613778848285016133a7565b91505092915050565b6000806000806080858703121561379757600080fd5b60006137a587828801613392565b94505060206137b687828801613256565b93505060406137c7878288016132f4565b925050606085013567ffffffffffffffff8111156137e457600080fd5b6137f087828801613368565b91505092959194509250565b61380581614211565b82525050565b61381c61381782614211565b614337565b82525050565b61382b81614235565b82525050565b61383a81614241565b82525050565b6138498161424b565b82525050565b600061385b8385614111565b93506138688385846142ae565b82840190509392505050565b600061388160188361411c565b915061388c826143d7565b602082019050919050565b60006138a4601f8361411c565b91506138af82614400565b602082019050919050565b60006138c760268361411c565b91506138d282614429565b604082019050919050565b60006138ea600f8361411c565b91506138f582614478565b602082019050919050565b600061390d60228361411c565b9150613918826144a1565b604082019050919050565b600061393060098361411c565b915061393b826144f0565b602082019050919050565b6000613953600e8361411c565b915061395e82614519565b602082019050919050565b600061397660108361411c565b915061398182614542565b602082019050919050565b6000613999602a8361411c565b91506139a48261456b565b604082019050919050565b60006139bc60208361411c565b91506139c7826145ba565b602082019050919050565b60006139df60158361411c565b91506139ea826145e3565b602082019050919050565b6000613a02602e8361411c565b9150613a0d8261460c565b604082019050919050565b6000613a25601183614100565b9150613a308261465b565b602082019050919050565b6000613a48601a8361411c565b9150613a5382614684565b602082019050919050565b6000613a6b600083614100565b9150613a76826146ad565b600082019050919050565b6000613a8e60168361411c565b9150613a99826146b0565b602082019050919050565b6000613ab1601a8361411c565b9150613abc826146d9565b602082019050919050565b6000613ad460138361411c565b9150613adf82614702565b602082019050919050565b6000613af760198361411c565b9150613b028261472b565b602082019050919050565b6000613b1a601c8361411c565b9150613b2582614754565b602082019050919050565b613b3981614297565b82525050565b613b48816142a1565b82525050565b6000613b5a828461380b565b60148201915081905092915050565b6000613b7682848661384f565b91508190509392505050565b6000602082019050613b9760008301846137fc565b92915050565b6000604082019050613bb260008301856137fc565b613bbf60208301846137fc565b9392505050565b6000606082019050613bdb60008301866137fc565b613be860208301856137fc565b613bf56040830184613b30565b949350505050565b6000608082019050613c1260008301866137fc565b613c1f60208301856137fc565b613c2c6040830184613b30565b8181036060830152613c3d81613a18565b9050949350505050565b600060a082019050613c5c60008301876137fc565b613c6960208301866137fc565b613c766040830185613b30565b613c836060830184613b30565b8181036080830152613c9481613a18565b905095945050505050565b600060a082019050613cb460008301876137fc565b613cc160208301866137fc565b613cce6040830185613b30565b613cdb6060830184613b30565b8181036080830152613cec81613a5e565b905095945050505050565b6000604082019050613d0c60008301856137fc565b613d196020830184613b30565b9392505050565b600060e082019050613d35600083018a6137fc565b613d426020830189613b30565b613d4f60408301886137fc565b613d5c6060830187613b3f565b613d696080830186613b30565b613d7660a08301856137fc565b613d8360c0830184613b30565b98975050505050505050565b6000602082019050613da46000830184613822565b92915050565b6000608082019050613dbf6000830187613831565b613dcc6020830186613b3f565b613dd96040830185613831565b613de66060830184613831565b95945050505050565b6000602082019050613e046000830184613840565b92915050565b60006020820190508181036000830152613e2381613874565b9050919050565b60006020820190508181036000830152613e4381613897565b9050919050565b60006020820190508181036000830152613e63816138ba565b9050919050565b60006020820190508181036000830152613e83816138dd565b9050919050565b60006020820190508181036000830152613ea381613900565b9050919050565b60006020820190508181036000830152613ec381613923565b9050919050565b60006020820190508181036000830152613ee381613946565b9050919050565b60006020820190508181036000830152613f0381613969565b9050919050565b60006020820190508181036000830152613f238161398c565b9050919050565b60006020820190508181036000830152613f43816139af565b9050919050565b60006020820190508181036000830152613f63816139d2565b9050919050565b60006020820190508181036000830152613f83816139f5565b9050919050565b60006020820190508181036000830152613fa381613a3b565b9050919050565b60006020820190508181036000830152613fc381613a81565b9050919050565b60006020820190508181036000830152613fe381613aa4565b9050919050565b6000602082019050818103600083015261400381613ac7565b9050919050565b6000602082019050818103600083015261402381613aea565b9050919050565b6000602082019050818103600083015261404381613b0d565b9050919050565b600060208201905061405f6000830184613b30565b92915050565b600060808201905061407a6000830187613b30565b6140876020830186613b3f565b61409460408301856137fc565b6140a16060830184613b30565b95945050505050565b60006140b46140c5565b90506140c082826142bd565b919050565b6000604051905090565b600067ffffffffffffffff8211156140ea576140e961438a565b5b6140f3826143b9565b9050602081019050919050565b600082825260208201905092915050565b600081905092915050565b600082825260208201905092915050565b600061413882614297565b915061414383614297565b9250827fffffffffffffffffffffffffffffffffffffffffffffffffffffffffffffffff038211156141785761417761435b565b5b828201905092915050565b600061418e82614297565b915061419983614297565b9250817fffffffffffffffffffffffffffffffffffffffffffffffffffffffffffffffff04831182151516156141d2576141d161435b565b5b828202905092915050565b60006141e882614297565b91506141f383614297565b9250828210156142065761420561435b565b5b828203905092915050565b600061421c82614277565b9050919050565b600061422e82614277565b9050919050565b60008115159050919050565b6000819050919050565b60007fffffffff0000000000000000000000000000000000000000000000000000000082169050919050565b600073ffffffffffffffffffffffffffffffffffffffff82169050919050565b6000819050919050565b600060ff82169050919050565b82818337600083830152505050565b6142c6826143b9565b810181811067ffffffffffffffff821117156142e5576142e461438a565b5b80604052505050565b60006142f982614297565b91507fffffffffffffffffffffffffffffffffffffffffffffffffffffffffffffffff82141561432c5761432b61435b565b5b600182019050919050565b600061434282614349565b9050919050565b6000614354826143ca565b9050919050565b7f4e487b7100000000000000000000000000000000000000000000000000000000600052601160045260246000fd5b7f4e487b7100000000000000000000000000000000000000000000000000000000600052604160045260246000fd5b6000601f19601f8301169050919050565b60008160601b9050919050565b7f45434453413a20696e76616c6964207369676e61747572650000000000000000600082015250565b7f45434453413a20696e76616c6964207369676e6174757265206c656e67746800600082015250565b7f4f776e61626c653a206e6577206f776e657220697320746865207a65726f206160008201527f6464726573730000000000000000000000000000000000000000000000000000602082015250565b7f57524f4e47205349474e41545552450000000000000000000000000000000000600082015250565b7f45434453413a20696e76616c6964207369676e6174757265202773272076616c60008201527f7565000000000000000000000000000000000000000000000000000000000000602082015250565b7f4e6f2070726f6669740000000000000000000000000000000000000000000000600082015250565b7f4e4f5420454e4f55474820455448000000000000000000000000000000000000600082015250565b7f494e56414c49442043414c4c4441544100000000000000000000000000000000600082015250565b7f5452414e53464552204641494c45442e20434845434b20414c4c4f57414e434560008201527f20262042414c414e434500000000000000000000000000000000000000000000602082015250565b7f4f776e61626c653a2063616c6c6572206973206e6f7420746865206f776e6572600082015250565b7f494e56414c494420434f4e545241435420545950450000000000000000000000600082015250565b7f53454e444552204d555354205741495420414654455220534f4d4520424c4f4360008201527f4b5320544f205749544844524157000000000000000000000000000000000000602082015250565b7f496e7465726e616c207472616e73666572000000000000000000000000000000600082015250565b7f4d5553542042452053454e44455220544f205749544844524157000000000000600082015250565b50565b7f494e53554646494349454e5420414c4c4f57414e434500000000000000000000600082015250565b7f494e53554646494349454e5420544f4b454e2042414c414e4345000000000000600082015250565b7f48415348455320444f204e4f54204d4154434800000000000000000000000000600082015250565b7f4445504f53495420414c52454144592057495448445241574e00000000000000600082015250565b7f4445504f53495420494e44455820444f4553204e4f5420455849535400000000600082015250565b61478681614211565b811461479157600080fd5b50565b61479d81614223565b81146147a857600080fd5b50565b6147b481614235565b81146147bf57600080fd5b50565b6147cb81614241565b81146147d657600080fd5b50565b6147e28161424b565b81146147ed57600080fd5b50565b6147f981614297565b811461480457600080fd5b50565b614810816142a1565b811461481b57600080fd5b5056fea26469706673582212209824fa5f9e915a2ddb0cd6e036d710df11efd18b547c5a8bea3ff1e08cf3c73164736f6c63430008020033","opcodes":"PUSH1 0x80 PUSH1 0x40 MSTORE PUSH1 0xC PUSH1 0x2 SSTORE PUSH2 0x5208 PUSH1 0x4 SSTORE PUSH7 0x1C6BF52634000 PUSH1 0x5 SSTORE PUSH1 0x0 PUSH1 0x6 SSTORE PUSH1 0x0 PUSH1 0x7 SSTORE CALLVALUE DUP1 ISZERO PUSH3 0x31 JUMPI PUSH1 0x0 DUP1 REVERT JUMPDEST POP PUSH1 0x40 MLOAD PUSH3 0x4B4B CODESIZE SUB DUP1 PUSH3 0x4B4B DUP4 CODECOPY DUP2 DUP2 ADD PUSH1 0x40 MSTORE DUP2 ADD SWAP1 PUSH3 0x57 SWAP2 SWAP1 PUSH3 0x26D JUMP JUMPDEST PUSH3 0x77 PUSH3 0x6B PUSH3 0x96 PUSH1 0x20 SHL PUSH1 0x20 SHR JUMP JUMPDEST PUSH3 0xB2 PUSH1 0x20 SHL PUSH1 0x20 SHR JUMP JUMPDEST PUSH3 0x88 DUP2 PUSH3 0x178 PUSH1 0x20 SHL PUSH1 0x20 SHR JUMP JUMPDEST GASPRICE PUSH1 0x7 DUP2 SWAP1 SSTORE POP POP PUSH3 0x2E7 JUMP JUMPDEST PUSH1 0x0 PUSH3 0xAD PUSH3 0x1BB PUSH1 0x20 SHL PUSH3 0x2C02 OR PUSH1 0x20 SHR JUMP JUMPDEST SWAP1 POP SWAP1 JUMP JUMPDEST PUSH1 0x0 PUSH1 0x1 PUSH1 0x0 SWAP1 SLOAD SWAP1 PUSH2 0x100 EXP SWAP1 DIV PUSH20 0xFFFFFFFFFFFFFFFFFFFFFFFFFFFFFFFFFFFFFFFF AND SWAP1 POP DUP2 PUSH1 0x1 PUSH1 0x0 PUSH2 0x100 EXP DUP2 SLOAD DUP2 PUSH20 0xFFFFFFFFFFFFFFFFFFFFFFFFFFFFFFFFFFFFFFFF MUL NOT AND SWAP1 DUP4 PUSH20 0xFFFFFFFFFFFFFFFFFFFFFFFFFFFFFFFFFFFFFFFF AND MUL OR SWAP1 SSTORE POP DUP2 PUSH20 0xFFFFFFFFFFFFFFFFFFFFFFFFFFFFFFFFFFFFFFFF AND DUP2 PUSH20 0xFFFFFFFFFFFFFFFFFFFFFFFFFFFFFFFFFFFFFFFF AND PUSH32 0x8BE0079C531659141344CD1FD0A4F28419497F9722A3DAAFE3B4186F6B6457E0 PUSH1 0x40 MLOAD PUSH1 0x40 MLOAD DUP1 SWAP2 SUB SWAP1 LOG3 POP POP JUMP JUMPDEST DUP1 PUSH1 0x0 DUP1 PUSH2 0x100 EXP DUP2 SLOAD DUP2 PUSH20 0xFFFFFFFFFFFFFFFFFFFFFFFFFFFFFFFFFFFFFFFF MUL NOT AND SWAP1 DUP4 PUSH20 0xFFFFFFFFFFFFFFFFFFFFFFFFFFFFFFFFFFFFFFFF AND MUL OR SWAP1 SSTORE POP POP JUMP JUMPDEST PUSH1 0x0 PUSH1 0x14 PUSH1 0x0 CALLDATASIZE SWAP1 POP LT ISZERO DUP1 ISZERO PUSH3 0x1E0 JUMPI POP PUSH3 0x1DF CALLER PUSH3 0x1FD PUSH1 0x20 SHL PUSH1 0x20 SHR JUMP JUMPDEST JUMPDEST ISZERO PUSH3 0x1F6 JUMPI PUSH1 0x14 CALLDATASIZE SUB CALLDATALOAD PUSH1 0x60 SHR SWAP1 POP PUSH3 0x1FA JUMP JUMPDEST CALLER SWAP1 POP JUMPDEST SWAP1 JUMP JUMPDEST PUSH1 0x0 DUP1 PUSH1 0x0 SWAP1 SLOAD SWAP1 PUSH2 0x100 EXP SWAP1 DIV PUSH20 0xFFFFFFFFFFFFFFFFFFFFFFFFFFFFFFFFFFFFFFFF AND PUSH20 0xFFFFFFFFFFFFFFFFFFFFFFFFFFFFFFFFFFFFFFFF AND DUP3 PUSH20 0xFFFFFFFFFFFFFFFFFFFFFFFFFFFFFFFFFFFFFFFF AND EQ SWAP1 POP SWAP2 SWAP1 POP JUMP JUMPDEST PUSH1 0x0 DUP2 MLOAD SWAP1 POP PUSH3 0x267 DUP2 PUSH3 0x2CD JUMP JUMPDEST SWAP3 SWAP2 POP POP JUMP JUMPDEST PUSH1 0x0 PUSH1 0x20 DUP3 DUP5 SUB SLT ISZERO PUSH3 0x280 JUMPI PUSH1 0x0 DUP1 REVERT JUMPDEST PUSH1 0x0 PUSH3 0x290 DUP5 DUP3 DUP6 ADD PUSH3 0x256 JUMP JUMPDEST SWAP2 POP POP SWAP3 SWAP2 POP POP JUMP JUMPDEST PUSH1 0x0 PUSH3 0x2A6 DUP3 PUSH3 0x2AD JUMP JUMPDEST SWAP1 POP SWAP2 SWAP1 POP JUMP JUMPDEST PUSH1 0x0 PUSH20 0xFFFFFFFFFFFFFFFFFFFFFFFFFFFFFFFFFFFFFFFF DUP3 AND SWAP1 POP SWAP2 SWAP1 POP JUMP JUMPDEST PUSH3 0x2D8 DUP2 PUSH3 0x299 JUMP JUMPDEST DUP2 EQ PUSH3 0x2E4 JUMPI PUSH1 0x0 DUP1 REVERT JUMPDEST POP JUMP JUMPDEST PUSH2 0x4854 DUP1 PUSH3 0x2F7 PUSH1 0x0 CODECOPY PUSH1 0x0 RETURN INVALID PUSH1 0x80 PUSH1 0x40 MSTORE PUSH1 0x4 CALLDATASIZE LT PUSH2 0x1B7 JUMPI PUSH1 0x0 CALLDATALOAD PUSH1 0xE0 SHR DUP1 PUSH4 0x95368D2E GT PUSH2 0xEC JUMPI DUP1 PUSH4 0xD96ED505 GT PUSH2 0x8A JUMPI DUP1 PUSH4 0xF23A6E61 GT PUSH2 0x64 JUMPI DUP1 PUSH4 0xF23A6E61 EQ PUSH2 0x636 JUMPI DUP1 PUSH4 0xF2FDE38B EQ PUSH2 0x673 JUMPI DUP1 PUSH4 0xF3478011 EQ PUSH2 0x69C JUMPI DUP1 PUSH4 0xF3E0DFC2 EQ PUSH2 0x6CC JUMPI PUSH2 0x1B7 JUMP JUMPDEST DUP1 PUSH4 0xD96ED505 EQ PUSH2 0x5B9 JUMPI DUP1 PUSH4 0xDA742228 EQ PUSH2 0x5E4 JUMPI DUP1 PUSH4 0xE32BB67B EQ PUSH2 0x60D JUMPI PUSH2 0x1B7 JUMP JUMPDEST DUP1 PUSH4 0xBC197C81 GT PUSH2 0xC6 JUMPI DUP1 PUSH4 0xBC197C81 EQ PUSH2 0x4EB JUMPI DUP1 PUSH4 0xC7C8459A EQ PUSH2 0x528 JUMPI DUP1 PUSH4 0xCE1B815F EQ PUSH2 0x551 JUMPI DUP1 PUSH4 0xCE5AC327 EQ PUSH2 0x57C JUMPI PUSH2 0x1B7 JUMP JUMPDEST DUP1 PUSH4 0x95368D2E EQ PUSH2 0x452 JUMPI DUP1 PUSH4 0xB02C43D0 EQ PUSH2 0x47D JUMPI DUP1 PUSH4 0xB0E21E8A EQ PUSH2 0x4C0 JUMPI PUSH2 0x1B7 JUMP JUMPDEST DUP1 PUSH4 0x63D83B42 GT PUSH2 0x159 JUMPI DUP1 PUSH4 0x787DCE3D GT PUSH2 0x133 JUMPI DUP1 PUSH4 0x787DCE3D EQ PUSH2 0x3AA JUMPI DUP1 PUSH4 0x8DA5CB5B EQ PUSH2 0x3D3 JUMPI DUP1 PUSH4 0x90AC1866 EQ PUSH2 0x3FE JUMPI DUP1 PUSH4 0x9363A141 EQ PUSH2 0x427 JUMPI PUSH2 0x1B7 JUMP JUMPDEST DUP1 PUSH4 0x63D83B42 EQ PUSH2 0x33F JUMPI DUP1 PUSH4 0x66D16CC3 EQ PUSH2 0x368 JUMPI DUP1 PUSH4 0x715018A6 EQ PUSH2 0x393 JUMPI PUSH2 0x1B7 JUMP JUMPDEST DUP1 PUSH4 0x24E26241 GT PUSH2 0x195 JUMPI DUP1 PUSH4 0x24E26241 EQ PUSH2 0x25F JUMPI DUP1 PUSH4 0x30C7A3BB EQ PUSH2 0x288 JUMPI DUP1 PUSH4 0x572B6C05 EQ PUSH2 0x2C5 JUMPI DUP1 PUSH4 0x57463D35 EQ PUSH2 0x302 JUMPI PUSH2 0x1B7 JUMP JUMPDEST DUP1 PUSH4 0x1FFC9A7 EQ PUSH2 0x1BC JUMPI DUP1 PUSH4 0x150B7A02 EQ PUSH2 0x1F9 JUMPI DUP1 PUSH4 0x1F412883 EQ PUSH2 0x236 JUMPI JUMPDEST PUSH1 0x0 DUP1 REVERT JUMPDEST CALLVALUE DUP1 ISZERO PUSH2 0x1C8 JUMPI PUSH1 0x0 DUP1 REVERT JUMPDEST POP PUSH2 0x1E3 PUSH1 0x4 DUP1 CALLDATASIZE SUB DUP2 ADD SWAP1 PUSH2 0x1DE SWAP2 SWAP1 PUSH2 0x3706 JUMP JUMPDEST PUSH2 0x6F7 JUMP JUMPDEST PUSH1 0x40 MLOAD PUSH2 0x1F0 SWAP2 SWAP1 PUSH2 0x3D8F JUMP JUMPDEST PUSH1 0x40 MLOAD DUP1 SWAP2 SUB SWAP1 RETURN JUMPDEST CALLVALUE DUP1 ISZERO PUSH2 0x205 JUMPI PUSH1 0x0 DUP1 REVERT JUMPDEST POP PUSH2 0x220 PUSH1 0x4 DUP1 CALLDATASIZE SUB DUP2 ADD SWAP1 PUSH2 0x21B SWAP2 SWAP1 PUSH2 0x3518 JUMP JUMPDEST PUSH2 0x899 JUMP JUMPDEST PUSH1 0x40 MLOAD PUSH2 0x22D SWAP2 SWAP1 PUSH2 0x3DEF JUMP JUMPDEST PUSH1 0x40 MLOAD DUP1 SWAP2 SUB SWAP1 RETURN JUMPDEST CALLVALUE DUP1 ISZERO PUSH2 0x242 JUMPI PUSH1 0x0 DUP1 REVERT JUMPDEST POP PUSH2 0x25D PUSH1 0x4 DUP1 CALLDATASIZE SUB DUP2 ADD SWAP1 PUSH2 0x258 SWAP2 SWAP1 PUSH2 0x372F JUMP JUMPDEST PUSH2 0xB97 JUMP JUMPDEST STOP JUMPDEST CALLVALUE DUP1 ISZERO PUSH2 0x26B JUMPI PUSH1 0x0 DUP1 REVERT JUMPDEST POP PUSH2 0x286 PUSH1 0x4 DUP1 CALLDATASIZE SUB DUP2 ADD SWAP1 PUSH2 0x281 SWAP2 SWAP1 PUSH2 0x33FA JUMP JUMPDEST PUSH2 0x11EC JUMP JUMPDEST STOP JUMPDEST CALLVALUE DUP1 ISZERO PUSH2 0x294 JUMPI PUSH1 0x0 DUP1 REVERT JUMPDEST POP PUSH2 0x2AF PUSH1 0x4 DUP1 CALLDATASIZE SUB DUP2 ADD SWAP1 PUSH2 0x2AA SWAP2 SWAP1 PUSH2 0x3781 JUMP JUMPDEST PUSH2 0x12DD JUMP JUMPDEST PUSH1 0x40 MLOAD PUSH2 0x2BC SWAP2 SWAP1 PUSH2 0x3D8F JUMP JUMPDEST PUSH1 0x40 MLOAD DUP1 SWAP2 SUB SWAP1 RETURN JUMPDEST CALLVALUE DUP1 ISZERO PUSH2 0x2D1 JUMPI PUSH1 0x0 DUP1 REVERT JUMPDEST POP PUSH2 0x2EC PUSH1 0x4 DUP1 CALLDATASIZE SUB DUP2 ADD SWAP1 PUSH2 0x2E7 SWAP2 SWAP1 PUSH2 0x33D1 JUMP JUMPDEST PUSH2 0x1985 JUMP JUMPDEST PUSH1 0x40 MLOAD PUSH2 0x2F9 SWAP2 SWAP1 PUSH2 0x3D8F JUMP JUMPDEST PUSH1 0x40 MLOAD DUP1 SWAP2 SUB SWAP1 RETURN JUMPDEST CALLVALUE DUP1 ISZERO PUSH2 0x30E JUMPI PUSH1 0x0 DUP1 REVERT JUMPDEST POP PUSH2 0x329 PUSH1 0x4 DUP1 CALLDATASIZE SUB DUP2 ADD SWAP1 PUSH2 0x324 SWAP2 SWAP1 PUSH2 0x33D1 JUMP JUMPDEST PUSH2 0x19DE JUMP JUMPDEST PUSH1 0x40 MLOAD PUSH2 0x336 SWAP2 SWAP1 PUSH2 0x404A JUMP JUMPDEST PUSH1 0x40 MLOAD DUP1 SWAP2 SUB SWAP1 RETURN JUMPDEST CALLVALUE DUP1 ISZERO PUSH2 0x34B JUMPI PUSH1 0x0 DUP1 REVERT JUMPDEST POP PUSH2 0x366 PUSH1 0x4 DUP1 CALLDATASIZE SUB DUP2 ADD SWAP1 PUSH2 0x361 SWAP2 SWAP1 PUSH2 0x372F JUMP JUMPDEST PUSH2 0x1A71 JUMP JUMPDEST STOP JUMPDEST CALLVALUE DUP1 ISZERO PUSH2 0x374 JUMPI PUSH1 0x0 DUP1 REVERT JUMPDEST POP PUSH2 0x37D PUSH2 0x1A83 JUMP JUMPDEST PUSH1 0x40 MLOAD PUSH2 0x38A SWAP2 SWAP1 PUSH2 0x404A JUMP JUMPDEST PUSH1 0x40 MLOAD DUP1 SWAP2 SUB SWAP1 RETURN JUMPDEST CALLVALUE DUP1 ISZERO PUSH2 0x39F JUMPI PUSH1 0x0 DUP1 REVERT JUMPDEST POP PUSH2 0x3A8 PUSH2 0x1A89 JUMP JUMPDEST STOP JUMPDEST CALLVALUE DUP1 ISZERO PUSH2 0x3B6 JUMPI PUSH1 0x0 DUP1 REVERT JUMPDEST POP PUSH2 0x3D1 PUSH1 0x4 DUP1 CALLDATASIZE SUB DUP2 ADD SWAP1 PUSH2 0x3CC SWAP2 SWAP1 PUSH2 0x372F JUMP JUMPDEST PUSH2 0x1A9D JUMP JUMPDEST STOP JUMPDEST CALLVALUE DUP1 ISZERO PUSH2 0x3DF JUMPI PUSH1 0x0 DUP1 REVERT JUMPDEST POP PUSH2 0x3E8 PUSH2 0x1AAF JUMP JUMPDEST PUSH1 0x40 MLOAD PUSH2 0x3F5 SWAP2 SWAP1 PUSH2 0x3B82 JUMP JUMPDEST PUSH1 0x40 MLOAD DUP1 SWAP2 SUB SWAP1 RETURN JUMPDEST CALLVALUE DUP1 ISZERO PUSH2 0x40A JUMPI PUSH1 0x0 DUP1 REVERT JUMPDEST POP PUSH2 0x425 PUSH1 0x4 DUP1 CALLDATASIZE SUB DUP2 ADD SWAP1 PUSH2 0x420 SWAP2 SWAP1 PUSH2 0x372F JUMP JUMPDEST PUSH2 0x1AD9 JUMP JUMPDEST STOP JUMPDEST CALLVALUE DUP1 ISZERO PUSH2 0x433 JUMPI PUSH1 0x0 DUP1 REVERT JUMPDEST POP PUSH2 0x43C PUSH2 0x1AEB JUMP JUMPDEST PUSH1 0x40 MLOAD PUSH2 0x449 SWAP2 SWAP1 PUSH2 0x404A JUMP JUMPDEST PUSH1 0x40 MLOAD DUP1 SWAP2 SUB SWAP1 RETURN JUMPDEST CALLVALUE DUP1 ISZERO PUSH2 0x45E JUMPI PUSH1 0x0 DUP1 REVERT JUMPDEST POP PUSH2 0x467 PUSH2 0x1AF8 JUMP JUMPDEST PUSH1 0x40 MLOAD PUSH2 0x474 SWAP2 SWAP1 PUSH2 0x404A JUMP JUMPDEST PUSH1 0x40 MLOAD DUP1 SWAP2 SUB SWAP1 RETURN JUMPDEST CALLVALUE DUP1 ISZERO PUSH2 0x489 JUMPI PUSH1 0x0 DUP1 REVERT JUMPDEST POP PUSH2 0x4A4 PUSH1 0x4 DUP1 CALLDATASIZE SUB DUP2 ADD SWAP1 PUSH2 0x49F SWAP2 SWAP1 PUSH2 0x372F JUMP JUMPDEST PUSH2 0x1AFE JUMP JUMPDEST PUSH1 0x40 MLOAD PUSH2 0x4B7 SWAP8 SWAP7 SWAP6 SWAP5 SWAP4 SWAP3 SWAP2 SWAP1 PUSH2 0x3D20 JUMP JUMPDEST PUSH1 0x40 MLOAD DUP1 SWAP2 SUB SWAP1 RETURN JUMPDEST CALLVALUE DUP1 ISZERO PUSH2 0x4CC JUMPI PUSH1 0x0 DUP1 REVERT JUMPDEST POP PUSH2 0x4D5 PUSH2 0x1BBD JUMP JUMPDEST PUSH1 0x40 MLOAD PUSH2 0x4E2 SWAP2 SWAP1 PUSH2 0x404A JUMP JUMPDEST PUSH1 0x40 MLOAD DUP1 SWAP2 SUB SWAP1 RETURN JUMPDEST CALLVALUE DUP1 ISZERO PUSH2 0x4F7 JUMPI PUSH1 0x0 DUP1 REVERT JUMPDEST POP PUSH2 0x512 PUSH1 0x4 DUP1 CALLDATASIZE SUB DUP2 ADD SWAP1 PUSH2 0x50D SWAP2 SWAP1 PUSH2 0x344C JUMP JUMPDEST PUSH2 0x1BC3 JUMP JUMPDEST PUSH1 0x40 MLOAD PUSH2 0x51F SWAP2 SWAP1 PUSH2 0x3DEF JUMP JUMPDEST PUSH1 0x40 MLOAD DUP1 SWAP2 SUB SWAP1 RETURN JUMPDEST CALLVALUE DUP1 ISZERO PUSH2 0x534 JUMPI PUSH1 0x0 DUP1 REVERT JUMPDEST POP PUSH2 0x54F PUSH1 0x4 DUP1 CALLDATASIZE SUB DUP2 ADD SWAP1 PUSH2 0x54A SWAP2 SWAP1 PUSH2 0x362A JUMP JUMPDEST PUSH2 0x20DF JUMP JUMPDEST STOP JUMPDEST CALLVALUE DUP1 ISZERO PUSH2 0x55D JUMPI PUSH1 0x0 DUP1 REVERT JUMPDEST POP PUSH2 0x566 PUSH2 0x212F JUMP JUMPDEST PUSH1 0x40 MLOAD PUSH2 0x573 SWAP2 SWAP1 PUSH2 0x3B82 JUMP JUMPDEST PUSH1 0x40 MLOAD DUP1 SWAP2 SUB SWAP1 RETURN JUMPDEST CALLVALUE DUP1 ISZERO PUSH2 0x588 JUMPI PUSH1 0x0 DUP1 REVERT JUMPDEST POP PUSH2 0x5A3 PUSH1 0x4 DUP1 CALLDATASIZE SUB DUP2 ADD SWAP1 PUSH2 0x59E SWAP2 SWAP1 PUSH2 0x33D1 JUMP JUMPDEST PUSH2 0x2158 JUMP JUMPDEST PUSH1 0x40 MLOAD PUSH2 0x5B0 SWAP2 SWAP1 PUSH2 0x404A JUMP JUMPDEST PUSH1 0x40 MLOAD DUP1 SWAP2 SUB SWAP1 RETURN JUMPDEST CALLVALUE DUP1 ISZERO PUSH2 0x5C5 JUMPI PUSH1 0x0 DUP1 REVERT JUMPDEST POP PUSH2 0x5CE PUSH2 0x2170 JUMP JUMPDEST PUSH1 0x40 MLOAD PUSH2 0x5DB SWAP2 SWAP1 PUSH2 0x404A JUMP JUMPDEST PUSH1 0x40 MLOAD DUP1 SWAP2 SUB SWAP1 RETURN JUMPDEST CALLVALUE DUP1 ISZERO PUSH2 0x5F0 JUMPI PUSH1 0x0 DUP1 REVERT JUMPDEST POP PUSH2 0x60B PUSH1 0x4 DUP1 CALLDATASIZE SUB DUP2 ADD SWAP1 PUSH2 0x606 SWAP2 SWAP1 PUSH2 0x33D1 JUMP JUMPDEST PUSH2 0x2176 JUMP JUMPDEST STOP JUMPDEST CALLVALUE DUP1 ISZERO PUSH2 0x619 JUMPI PUSH1 0x0 DUP1 REVERT JUMPDEST POP PUSH2 0x634 PUSH1 0x4 DUP1 CALLDATASIZE SUB DUP2 ADD SWAP1 PUSH2 0x62F SWAP2 SWAP1 PUSH2 0x372F JUMP JUMPDEST PUSH2 0x218A JUMP JUMPDEST STOP JUMPDEST CALLVALUE DUP1 ISZERO PUSH2 0x642 JUMPI PUSH1 0x0 DUP1 REVERT JUMPDEST POP PUSH2 0x65D PUSH1 0x4 DUP1 CALLDATASIZE SUB DUP2 ADD SWAP1 PUSH2 0x658 SWAP2 SWAP1 PUSH2 0x3598 JUMP JUMPDEST PUSH2 0x219C JUMP JUMPDEST PUSH1 0x40 MLOAD PUSH2 0x66A SWAP2 SWAP1 PUSH2 0x3DEF JUMP JUMPDEST PUSH1 0x40 MLOAD DUP1 SWAP2 SUB SWAP1 RETURN JUMPDEST CALLVALUE DUP1 ISZERO PUSH2 0x67F JUMPI PUSH1 0x0 DUP1 REVERT JUMPDEST POP PUSH2 0x69A PUSH1 0x4 DUP1 CALLDATASIZE SUB DUP2 ADD SWAP1 PUSH2 0x695 SWAP2 SWAP1 PUSH2 0x33D1 JUMP JUMPDEST PUSH2 0x249A JUMP JUMPDEST STOP JUMPDEST PUSH2 0x6B6 PUSH1 0x4 DUP1 CALLDATASIZE SUB DUP2 ADD SWAP1 PUSH2 0x6B1 SWAP2 SWAP1 PUSH2 0x3666 JUMP JUMPDEST PUSH2 0x251E JUMP JUMPDEST PUSH1 0x40 MLOAD PUSH2 0x6C3 SWAP2 SWAP1 PUSH2 0x404A JUMP JUMPDEST PUSH1 0x40 MLOAD DUP1 SWAP2 SUB SWAP1 RETURN JUMPDEST CALLVALUE DUP1 ISZERO PUSH2 0x6D8 JUMPI PUSH1 0x0 DUP1 REVERT JUMPDEST POP PUSH2 0x6E1 PUSH2 0x2BFC JUMP JUMPDEST PUSH1 0x40 MLOAD PUSH2 0x6EE SWAP2 SWAP1 PUSH2 0x404A JUMP JUMPDEST PUSH1 0x40 MLOAD DUP1 SWAP2 SUB SWAP1 RETURN JUMPDEST PUSH1 0x0 PUSH32 0x1FFC9A700000000000000000000000000000000000000000000000000000000 PUSH28 0xFFFFFFFFFFFFFFFFFFFFFFFFFFFFFFFFFFFFFFFFFFFFFFFFFFFFFFFF NOT AND DUP3 PUSH28 0xFFFFFFFFFFFFFFFFFFFFFFFFFFFFFFFFFFFFFFFFFFFFFFFFFFFFFFFF NOT AND EQ DUP1 PUSH2 0x7C2 JUMPI POP PUSH32 0x150B7A0200000000000000000000000000000000000000000000000000000000 PUSH28 0xFFFFFFFFFFFFFFFFFFFFFFFFFFFFFFFFFFFFFFFFFFFFFFFFFFFFFFFF NOT AND DUP3 PUSH28 0xFFFFFFFFFFFFFFFFFFFFFFFFFFFFFFFFFFFFFFFFFFFFFFFFFFFFFFFF NOT AND EQ JUMPDEST DUP1 PUSH2 0x82A JUMPI POP PUSH32 0x4E2312E000000000000000000000000000000000000000000000000000000000 PUSH28 0xFFFFFFFFFFFFFFFFFFFFFFFFFFFFFFFFFFFFFFFFFFFFFFFFFFFFFFFF NOT AND DUP3 PUSH28 0xFFFFFFFFFFFFFFFFFFFFFFFFFFFFFFFFFFFFFFFFFFFFFFFFFFFFFFFF NOT AND EQ JUMPDEST DUP1 PUSH2 0x892 JUMPI POP PUSH32 0x572B6C0500000000000000000000000000000000000000000000000000000000 PUSH28 0xFFFFFFFFFFFFFFFFFFFFFFFFFFFFFFFFFFFFFFFFFFFFFFFFFFFFFFFF NOT AND DUP3 PUSH28 0xFFFFFFFFFFFFFFFFFFFFFFFFFFFFFFFFFFFFFFFFFFFFFFFFFFFFFFFF NOT AND EQ JUMPDEST SWAP1 POP SWAP2 SWAP1 POP JUMP JUMPDEST PUSH1 0x0 PUSH32 0xBE9026AD5BAA968E00AAC2255A31276C279344B5C00065FEC9EA38E7C9D41C08 DUP4 DUP4 PUSH1 0x40 MLOAD PUSH2 0x8CC SWAP3 SWAP2 SWAP1 PUSH2 0x3B69 JUMP JUMPDEST PUSH1 0x40 MLOAD DUP1 SWAP2 SUB SWAP1 KECCAK256 EQ ISZERO PUSH2 0x8E9 JUMPI PUSH4 0x150B7A02 PUSH1 0xE0 SHL SWAP1 POP PUSH2 0xB8E JUMP JUMPDEST PUSH1 0x14 DUP4 DUP4 SWAP1 POP EQ PUSH2 0x92F JUMPI PUSH1 0x40 MLOAD PUSH32 0x8C379A000000000000000000000000000000000000000000000000000000000 DUP2 MSTORE PUSH1 0x4 ADD PUSH2 0x926 SWAP1 PUSH2 0x3EEA JUMP JUMPDEST PUSH1 0x40 MLOAD DUP1 SWAP2 SUB SWAP1 REVERT JUMPDEST PUSH1 0x0 PUSH2 0x939 PUSH2 0x2C39 JUMP JUMPDEST SWAP1 POP PUSH1 0x0 PUSH1 0x2 SWAP1 POP PUSH1 0x0 PUSH1 0x1 SWAP1 POP PUSH1 0x0 DUP7 DUP7 DUP2 ADD SWAP1 PUSH2 0x958 SWAP2 SWAP1 PUSH2 0x33FA JUMP JUMPDEST SWAP1 POP PUSH1 0x8 PUSH1 0x40 MLOAD DUP1 PUSH1 0xE0 ADD PUSH1 0x40 MSTORE DUP1 DUP4 PUSH20 0xFFFFFFFFFFFFFFFFFFFFFFFFFFFFFFFFFFFFFFFF AND DUP2 MSTORE PUSH1 0x20 ADD DUP5 DUP2 MSTORE PUSH1 0x20 ADD DUP7 PUSH20 0xFFFFFFFFFFFFFFFFFFFFFFFFFFFFFFFFFFFFFFFF AND DUP2 MSTORE PUSH1 0x20 ADD DUP6 PUSH1 0xFF AND DUP2 MSTORE PUSH1 0x20 ADD DUP11 DUP2 MSTORE PUSH1 0x20 ADD PUSH2 0x9BC PUSH2 0x2C39 JUMP JUMPDEST PUSH20 0xFFFFFFFFFFFFFFFFFFFFFFFFFFFFFFFFFFFFFFFF AND DUP2 MSTORE PUSH1 0x20 ADD TIMESTAMP DUP2 MSTORE POP SWAP1 DUP1 PUSH1 0x1 DUP2 SLOAD ADD DUP1 DUP3 SSTORE DUP1 SWAP2 POP POP PUSH1 0x1 SWAP1 SUB SWAP1 PUSH1 0x0 MSTORE PUSH1 0x20 PUSH1 0x0 KECCAK256 SWAP1 PUSH1 0x6 MUL ADD PUSH1 0x0 SWAP1 SWAP2 SWAP1 SWAP2 SWAP1 SWAP2 POP PUSH1 0x0 DUP3 ADD MLOAD DUP2 PUSH1 0x0 ADD PUSH1 0x0 PUSH2 0x100 EXP DUP2 SLOAD DUP2 PUSH20 0xFFFFFFFFFFFFFFFFFFFFFFFFFFFFFFFFFFFFFFFF MUL NOT AND SWAP1 DUP4 PUSH20 0xFFFFFFFFFFFFFFFFFFFFFFFFFFFFFFFFFFFFFFFF AND MUL OR SWAP1 SSTORE POP PUSH1 0x20 DUP3 ADD MLOAD DUP2 PUSH1 0x1 ADD SSTORE PUSH1 0x40 DUP3 ADD MLOAD DUP2 PUSH1 0x2 ADD PUSH1 0x0 PUSH2 0x100 EXP DUP2 SLOAD DUP2 PUSH20 0xFFFFFFFFFFFFFFFFFFFFFFFFFFFFFFFFFFFFFFFF MUL NOT AND SWAP1 DUP4 PUSH20 0xFFFFFFFFFFFFFFFFFFFFFFFFFFFFFFFFFFFFFFFF AND MUL OR SWAP1 SSTORE POP PUSH1 0x60 DUP3 ADD MLOAD DUP2 PUSH1 0x2 ADD PUSH1 0x14 PUSH2 0x100 EXP DUP2 SLOAD DUP2 PUSH1 0xFF MUL NOT AND SWAP1 DUP4 PUSH1 0xFF AND MUL OR SWAP1 SSTORE POP PUSH1 0x80 DUP3 ADD MLOAD DUP2 PUSH1 0x3 ADD SSTORE PUSH1 0xA0 DUP3 ADD MLOAD DUP2 PUSH1 0x4 ADD PUSH1 0x0 PUSH2 0x100 EXP DUP2 SLOAD DUP2 PUSH20 0xFFFFFFFFFFFFFFFFFFFFFFFFFFFFFFFFFFFFFFFF MUL NOT AND SWAP1 DUP4 PUSH20 0xFFFFFFFFFFFFFFFFFFFFFFFFFFFFFFFFFFFFFFFF AND MUL OR SWAP1 SSTORE POP PUSH1 0xC0 DUP3 ADD MLOAD DUP2 PUSH1 0x5 ADD SSTORE POP POP DUP10 PUSH20 0xFFFFFFFFFFFFFFFFFFFFFFFFFFFFFFFFFFFFFFFF AND PUSH32 0xFF0C92C63B7EEE4D6EF05AFDF24FE4ED28EA37F6CBB91962EC869E642D8A02A PUSH1 0x1 PUSH1 0x8 DUP1 SLOAD SWAP1 POP PUSH2 0xB64 SWAP2 SWAP1 PUSH2 0x41DD JUMP JUMPDEST DUP6 DUP8 DUP7 PUSH1 0x40 MLOAD PUSH2 0xB77 SWAP5 SWAP4 SWAP3 SWAP2 SWAP1 PUSH2 0x4065 JUMP JUMPDEST PUSH1 0x40 MLOAD DUP1 SWAP2 SUB SWAP1 LOG2 PUSH4 0x150B7A02 PUSH1 0xE0 SHL SWAP5 POP POP POP POP POP JUMPDEST SWAP6 SWAP5 POP POP POP POP POP JUMP JUMPDEST PUSH1 0x8 DUP1 SLOAD SWAP1 POP DUP2 LT PUSH2 0xBDE JUMPI PUSH1 0x40 MLOAD PUSH32 0x8C379A000000000000000000000000000000000000000000000000000000000 DUP2 MSTORE PUSH1 0x4 ADD PUSH2 0xBD5 SWAP1 PUSH2 0x402A JUMP JUMPDEST PUSH1 0x40 MLOAD DUP1 SWAP2 SUB SWAP1 REVERT JUMPDEST PUSH1 0x0 PUSH1 0x8 DUP3 DUP2 SLOAD DUP2 LT PUSH2 0xC1A JUMPI PUSH32 0x4E487B7100000000000000000000000000000000000000000000000000000000 PUSH1 0x0 MSTORE PUSH1 0x32 PUSH1 0x4 MSTORE PUSH1 0x24 PUSH1 0x0 REVERT JUMPDEST SWAP1 PUSH1 0x0 MSTORE PUSH1 0x20 PUSH1 0x0 KECCAK256 SWAP1 PUSH1 0x6 MUL ADD PUSH1 0x40 MLOAD DUP1 PUSH1 0xE0 ADD PUSH1 0x40 MSTORE SWAP1 DUP2 PUSH1 0x0 DUP3 ADD PUSH1 0x0 SWAP1 SLOAD SWAP1 PUSH2 0x100 EXP SWAP1 DIV PUSH20 0xFFFFFFFFFFFFFFFFFFFFFFFFFFFFFFFFFFFFFFFF AND PUSH20 0xFFFFFFFFFFFFFFFFFFFFFFFFFFFFFFFFFFFFFFFF AND PUSH20 0xFFFFFFFFFFFFFFFFFFFFFFFFFFFFFFFFFFFFFFFF AND DUP2 MSTORE PUSH1 0x20 ADD PUSH1 0x1 DUP3 ADD SLOAD DUP2 MSTORE PUSH1 0x20 ADD PUSH1 0x2 DUP3 ADD PUSH1 0x0 SWAP1 SLOAD SWAP1 PUSH2 0x100 EXP SWAP1 DIV PUSH20 0xFFFFFFFFFFFFFFFFFFFFFFFFFFFFFFFFFFFFFFFF AND PUSH20 0xFFFFFFFFFFFFFFFFFFFFFFFFFFFFFFFFFFFFFFFF AND PUSH20 0xFFFFFFFFFFFFFFFFFFFFFFFFFFFFFFFFFFFFFFFF AND DUP2 MSTORE PUSH1 0x20 ADD PUSH1 0x2 DUP3 ADD PUSH1 0x14 SWAP1 SLOAD SWAP1 PUSH2 0x100 EXP SWAP1 DIV PUSH1 0xFF AND PUSH1 0xFF AND PUSH1 0xFF AND DUP2 MSTORE PUSH1 0x20 ADD PUSH1 0x3 DUP3 ADD SLOAD DUP2 MSTORE PUSH1 0x20 ADD PUSH1 0x4 DUP3 ADD PUSH1 0x0 SWAP1 SLOAD SWAP1 PUSH2 0x100 EXP SWAP1 DIV PUSH20 0xFFFFFFFFFFFFFFFFFFFFFFFFFFFFFFFFFFFFFFFF AND PUSH20 0xFFFFFFFFFFFFFFFFFFFFFFFFFFFFFFFFFFFFFFFF AND PUSH20 0xFFFFFFFFFFFFFFFFFFFFFFFFFFFFFFFFFFFFFFFF AND DUP2 MSTORE PUSH1 0x20 ADD PUSH1 0x5 DUP3 ADD SLOAD DUP2 MSTORE POP POP SWAP1 POP PUSH1 0x2 SLOAD DUP2 PUSH1 0xC0 ADD MLOAD PUSH2 0xD84 SWAP2 SWAP1 PUSH2 0x412D JUMP JUMPDEST NUMBER LT ISZERO PUSH2 0xDC6 JUMPI PUSH1 0x40 MLOAD PUSH32 0x8C379A000000000000000000000000000000000000000000000000000000000 DUP2 MSTORE PUSH1 0x4 ADD PUSH2 0xDBD SWAP1 PUSH2 0x3F6A JUMP JUMPDEST PUSH1 0x40 MLOAD DUP1 SWAP2 SUB SWAP1 REVERT JUMPDEST PUSH2 0xDCE PUSH2 0x2C39 JUMP JUMPDEST PUSH20 0xFFFFFFFFFFFFFFFFFFFFFFFFFFFFFFFFFFFFFFFF AND DUP2 PUSH1 0xA0 ADD MLOAD PUSH20 0xFFFFFFFFFFFFFFFFFFFFFFFFFFFFFFFFFFFFFFFF AND EQ PUSH2 0xE3F JUMPI PUSH1 0x40 MLOAD PUSH32 0x8C379A000000000000000000000000000000000000000000000000000000000 DUP2 MSTORE PUSH1 0x4 ADD PUSH2 0xE36 SWAP1 PUSH2 0x3F8A JUMP JUMPDEST PUSH1 0x40 MLOAD DUP1 SWAP2 SUB SWAP1 REVERT JUMPDEST PUSH1 0x0 DUP2 PUSH1 0x60 ADD MLOAD PUSH1 0xFF AND EQ ISZERO PUSH2 0xEA6 JUMPI PUSH2 0xE57 PUSH2 0x2C39 JUMP JUMPDEST PUSH20 0xFFFFFFFFFFFFFFFFFFFFFFFFFFFFFFFFFFFFFFFF AND PUSH2 0x8FC DUP3 PUSH1 0x20 ADD MLOAD SWAP1 DUP2 ISZERO MUL SWAP1 PUSH1 0x40 MLOAD PUSH1 0x0 PUSH1 0x40 MLOAD DUP1 DUP4 SUB DUP2 DUP6 DUP9 DUP9 CALL SWAP4 POP POP POP POP ISZERO DUP1 ISZERO PUSH2 0xEA0 JUMPI RETURNDATASIZE PUSH1 0x0 DUP1 RETURNDATACOPY RETURNDATASIZE PUSH1 0x0 REVERT JUMPDEST POP PUSH2 0x1095 JUMP JUMPDEST PUSH1 0x1 DUP2 PUSH1 0x60 ADD MLOAD PUSH1 0xFF AND EQ ISZERO PUSH2 0xF5E JUMPI PUSH1 0x0 DUP2 PUSH1 0x40 ADD MLOAD SWAP1 POP DUP1 PUSH20 0xFFFFFFFFFFFFFFFFFFFFFFFFFFFFFFFFFFFFFFFF AND PUSH4 0xA9059CBB PUSH2 0xEE3 PUSH2 0x2C39 JUMP JUMPDEST DUP5 PUSH1 0x20 ADD MLOAD PUSH1 0x40 MLOAD DUP4 PUSH4 0xFFFFFFFF AND PUSH1 0xE0 SHL DUP2 MSTORE PUSH1 0x4 ADD PUSH2 0xF05 SWAP3 SWAP2 SWAP1 PUSH2 0x3CF7 JUMP JUMPDEST PUSH1 0x20 PUSH1 0x40 MLOAD DUP1 DUP4 SUB DUP2 PUSH1 0x0 DUP8 DUP1 EXTCODESIZE ISZERO DUP1 ISZERO PUSH2 0xF1F JUMPI PUSH1 0x0 DUP1 REVERT JUMPDEST POP GAS CALL ISZERO DUP1 ISZERO PUSH2 0xF33 JUMPI RETURNDATASIZE PUSH1 0x0 DUP1 RETURNDATACOPY RETURNDATASIZE PUSH1 0x0 REVERT JUMPDEST POP POP POP POP PUSH1 0x40 MLOAD RETURNDATASIZE PUSH1 0x1F NOT PUSH1 0x1F DUP3 ADD AND DUP3 ADD DUP1 PUSH1 0x40 MSTORE POP DUP2 ADD SWAP1 PUSH2 0xF57 SWAP2 SWAP1 PUSH2 0x36DD JUMP JUMPDEST POP POP PUSH2 0x1094 JUMP JUMPDEST PUSH1 0x2 DUP2 PUSH1 0x60 ADD MLOAD PUSH1 0xFF AND EQ ISZERO PUSH2 0xFF7 JUMPI PUSH1 0x0 DUP2 PUSH1 0x40 ADD MLOAD SWAP1 POP DUP1 PUSH20 0xFFFFFFFFFFFFFFFFFFFFFFFFFFFFFFFFFFFFFFFF AND PUSH4 0x23B872DD ADDRESS PUSH2 0xF9C PUSH2 0x2C39 JUMP JUMPDEST DUP6 PUSH1 0x80 ADD MLOAD PUSH1 0x40 MLOAD DUP5 PUSH4 0xFFFFFFFF AND PUSH1 0xE0 SHL DUP2 MSTORE PUSH1 0x4 ADD PUSH2 0xFBF SWAP4 SWAP3 SWAP2 SWAP1 PUSH2 0x3BC6 JUMP JUMPDEST PUSH1 0x0 PUSH1 0x40 MLOAD DUP1 DUP4 SUB DUP2 PUSH1 0x0 DUP8 DUP1 EXTCODESIZE ISZERO DUP1 ISZERO PUSH2 0xFD9 JUMPI PUSH1 0x0 DUP1 REVERT JUMPDEST POP GAS CALL ISZERO DUP1 ISZERO PUSH2 0xFED JUMPI RETURNDATASIZE PUSH1 0x0 DUP1 RETURNDATACOPY RETURNDATASIZE PUSH1 0x0 REVERT JUMPDEST POP POP POP POP POP PUSH2 0x1093 JUMP JUMPDEST PUSH1 0x3 DUP2 PUSH1 0x60 ADD MLOAD PUSH1 0xFF AND EQ ISZERO PUSH2 0x1092 JUMPI PUSH1 0x0 DUP2 PUSH1 0x40 ADD MLOAD SWAP1 POP DUP1 PUSH20 0xFFFFFFFFFFFFFFFFFFFFFFFFFFFFFFFFFFFFFFFF AND PUSH4 0xF242432A ADDRESS PUSH2 0x1035 PUSH2 0x2C39 JUMP JUMPDEST DUP6 PUSH1 0x80 ADD MLOAD DUP7 PUSH1 0x20 ADD MLOAD PUSH1 0x40 MLOAD DUP6 PUSH4 0xFFFFFFFF AND PUSH1 0xE0 SHL DUP2 MSTORE PUSH1 0x4 ADD PUSH2 0x105E SWAP5 SWAP4 SWAP3 SWAP2 SWAP1 PUSH2 0x3C9F JUMP JUMPDEST PUSH1 0x0 PUSH1 0x40 MLOAD DUP1 DUP4 SUB DUP2 PUSH1 0x0 DUP8 DUP1 EXTCODESIZE ISZERO DUP1 ISZERO PUSH2 0x1078 JUMPI PUSH1 0x0 DUP1 REVERT JUMPDEST POP GAS CALL ISZERO DUP1 ISZERO PUSH2 0x108C JUMPI RETURNDATASIZE PUSH1 0x0 DUP1 RETURNDATACOPY RETURNDATASIZE PUSH1 0x0 REVERT JUMPDEST POP POP POP POP POP JUMPDEST JUMPDEST JUMPDEST JUMPDEST PUSH2 0x109D PUSH2 0x2C39 JUMP JUMPDEST PUSH20 0xFFFFFFFFFFFFFFFFFFFFFFFFFFFFFFFFFFFFFFFF AND PUSH32 0xDD4D77FCB81062C183B4956DFCB3A37FCEF2BEA1FC9B861E5B2CAF67FCA071F7 DUP4 DUP4 PUSH1 0x60 ADD MLOAD DUP5 PUSH1 0x40 ADD MLOAD DUP6 PUSH1 0x20 ADD MLOAD PUSH1 0x40 MLOAD PUSH2 0x10F4 SWAP5 SWAP4 SWAP3 SWAP2 SWAP1 PUSH2 0x4065 JUMP JUMPDEST PUSH1 0x40 MLOAD DUP1 SWAP2 SUB SWAP1 LOG2 PUSH1 0x8 DUP3 DUP2 SLOAD DUP2 LT PUSH2 0x1136 JUMPI PUSH32 0x4E487B7100000000000000000000000000000000000000000000000000000000 PUSH1 0x0 MSTORE PUSH1 0x32 PUSH1 0x4 MSTORE PUSH1 0x24 PUSH1 0x0 REVERT JUMPDEST SWAP1 PUSH1 0x0 MSTORE PUSH1 0x20 PUSH1 0x0 KECCAK256 SWAP1 PUSH1 0x6 MUL ADD PUSH1 0x0 DUP1 DUP3 ADD PUSH1 0x0 PUSH2 0x100 EXP DUP2 SLOAD SWAP1 PUSH20 0xFFFFFFFFFFFFFFFFFFFFFFFFFFFFFFFFFFFFFFFF MUL NOT AND SWAP1 SSTORE PUSH1 0x1 DUP3 ADD PUSH1 0x0 SWAP1 SSTORE PUSH1 0x2 DUP3 ADD PUSH1 0x0 PUSH2 0x100 EXP DUP2 SLOAD SWAP1 PUSH20 0xFFFFFFFFFFFFFFFFFFFFFFFFFFFFFFFFFFFFFFFF MUL NOT AND SWAP1 SSTORE PUSH1 0x2 DUP3 ADD PUSH1 0x14 PUSH2 0x100 EXP DUP2 SLOAD SWAP1 PUSH1 0xFF MUL NOT AND SWAP1 SSTORE PUSH1 0x3 DUP3 ADD PUSH1 0x0 SWAP1 SSTORE PUSH1 0x4 DUP3 ADD PUSH1 0x0 PUSH2 0x100 EXP DUP2 SLOAD SWAP1 PUSH20 0xFFFFFFFFFFFFFFFFFFFFFFFFFFFFFFFFFFFFFFFF MUL NOT AND SWAP1 SSTORE PUSH1 0x5 DUP3 ADD PUSH1 0x0 SWAP1 SSTORE POP POP POP POP JUMP JUMPDEST PUSH2 0x11F4 PUSH2 0x2C48 JUMP JUMPDEST PUSH1 0x0 PUSH1 0x6 SLOAD GT PUSH2 0x1239 JUMPI PUSH1 0x40 MLOAD PUSH32 0x8C379A000000000000000000000000000000000000000000000000000000000 DUP2 MSTORE PUSH1 0x4 ADD PUSH2 0x1230 SWAP1 PUSH2 0x3EAA JUMP JUMPDEST PUSH1 0x40 MLOAD DUP1 SWAP2 SUB SWAP1 REVERT JUMPDEST DUP1 PUSH20 0xFFFFFFFFFFFFFFFFFFFFFFFFFFFFFFFFFFFFFFFF AND PUSH2 0x8FC PUSH1 0x6 SLOAD SWAP1 DUP2 ISZERO MUL SWAP1 PUSH1 0x40 MLOAD PUSH1 0x0 PUSH1 0x40 MLOAD DUP1 DUP4 SUB DUP2 DUP6 DUP9 DUP9 CALL SWAP4 POP POP POP POP ISZERO DUP1 ISZERO PUSH2 0x1281 JUMPI RETURNDATASIZE PUSH1 0x0 DUP1 RETURNDATACOPY RETURNDATASIZE PUSH1 0x0 REVERT JUMPDEST POP PUSH1 0x0 PUSH1 0x6 DUP2 SWAP1 SSTORE POP DUP1 PUSH20 0xFFFFFFFFFFFFFFFFFFFFFFFFFFFFFFFFFFFFFFFF AND PUSH32 0x9ACD446C7C5D67289E9AB24BF8D274C3E60B36709AAD13C9CCEFEC55A25C00BB PUSH1 0x6 SLOAD PUSH1 0x40 MLOAD PUSH2 0x12D2 SWAP2 SWAP1 PUSH2 0x404A JUMP JUMPDEST PUSH1 0x40 MLOAD DUP1 SWAP2 SUB SWAP1 LOG2 POP JUMP JUMPDEST PUSH1 0x0 PUSH1 0x8 DUP1 SLOAD SWAP1 POP DUP6 LT PUSH2 0x1326 JUMPI PUSH1 0x40 MLOAD PUSH32 0x8C379A000000000000000000000000000000000000000000000000000000000 DUP2 MSTORE PUSH1 0x4 ADD PUSH2 0x131D SWAP1 PUSH2 0x402A JUMP JUMPDEST PUSH1 0x40 MLOAD DUP1 SWAP2 SUB SWAP1 REVERT JUMPDEST PUSH1 0x0 PUSH1 0x8 DUP7 DUP2 SLOAD DUP2 LT PUSH2 0x1362 JUMPI PUSH32 0x4E487B7100000000000000000000000000000000000000000000000000000000 PUSH1 0x0 MSTORE PUSH1 0x32 PUSH1 0x4 MSTORE PUSH1 0x24 PUSH1 0x0 REVERT JUMPDEST SWAP1 PUSH1 0x0 MSTORE PUSH1 0x20 PUSH1 0x0 KECCAK256 SWAP1 PUSH1 0x6 MUL ADD PUSH1 0x40 MLOAD DUP1 PUSH1 0xE0 ADD PUSH1 0x40 MSTORE SWAP1 DUP2 PUSH1 0x0 DUP3 ADD PUSH1 0x0 SWAP1 SLOAD SWAP1 PUSH2 0x100 EXP SWAP1 DIV PUSH20 0xFFFFFFFFFFFFFFFFFFFFFFFFFFFFFFFFFFFFFFFF AND PUSH20 0xFFFFFFFFFFFFFFFFFFFFFFFFFFFFFFFFFFFFFFFF AND PUSH20 0xFFFFFFFFFFFFFFFFFFFFFFFFFFFFFFFFFFFFFFFF AND DUP2 MSTORE PUSH1 0x20 ADD PUSH1 0x1 DUP3 ADD SLOAD DUP2 MSTORE PUSH1 0x20 ADD PUSH1 0x2 DUP3 ADD PUSH1 0x0 SWAP1 SLOAD SWAP1 PUSH2 0x100 EXP SWAP1 DIV PUSH20 0xFFFFFFFFFFFFFFFFFFFFFFFFFFFFFFFFFFFFFFFF AND PUSH20 0xFFFFFFFFFFFFFFFFFFFFFFFFFFFFFFFFFFFFFFFF AND PUSH20 0xFFFFFFFFFFFFFFFFFFFFFFFFFFFFFFFFFFFFFFFF AND DUP2 MSTORE PUSH1 0x20 ADD PUSH1 0x2 DUP3 ADD PUSH1 0x14 SWAP1 SLOAD SWAP1 PUSH2 0x100 EXP SWAP1 DIV PUSH1 0xFF AND PUSH1 0xFF AND PUSH1 0xFF AND DUP2 MSTORE PUSH1 0x20 ADD PUSH1 0x3 DUP3 ADD SLOAD DUP2 MSTORE PUSH1 0x20 ADD PUSH1 0x4 DUP3 ADD PUSH1 0x0 SWAP1 SLOAD SWAP1 PUSH2 0x100 EXP SWAP1 DIV PUSH20 0xFFFFFFFFFFFFFFFFFFFFFFFFFFFFFFFFFFFFFFFF AND PUSH20 0xFFFFFFFFFFFFFFFFFFFFFFFFFFFFFFFFFFFFFFFF AND PUSH20 0xFFFFFFFFFFFFFFFFFFFFFFFFFFFFFFFFFFFFFFFF AND DUP2 MSTORE PUSH1 0x20 ADD PUSH1 0x5 DUP3 ADD SLOAD DUP2 MSTORE POP POP SWAP1 POP PUSH1 0x0 DUP2 PUSH1 0x20 ADD MLOAD GT PUSH2 0x1501 JUMPI PUSH1 0x40 MLOAD PUSH32 0x8C379A000000000000000000000000000000000000000000000000000000000 DUP2 MSTORE PUSH1 0x4 ADD PUSH2 0x14F8 SWAP1 PUSH2 0x400A JUMP JUMPDEST PUSH1 0x40 MLOAD DUP1 SWAP2 SUB SWAP1 REVERT JUMPDEST PUSH2 0x1530 DUP6 PUSH1 0x40 MLOAD PUSH1 0x20 ADD PUSH2 0x1515 SWAP2 SWAP1 PUSH2 0x3B4E JUMP JUMPDEST PUSH1 0x40 MLOAD PUSH1 0x20 DUP2 DUP4 SUB SUB DUP2 MSTORE SWAP1 PUSH1 0x40 MSTORE DUP1 MLOAD SWAP1 PUSH1 0x20 ADD KECCAK256 PUSH2 0x2CC6 JUMP JUMPDEST DUP5 EQ PUSH2 0x1571 JUMPI PUSH1 0x40 MLOAD PUSH32 0x8C379A000000000000000000000000000000000000000000000000000000000 DUP2 MSTORE PUSH1 0x4 ADD PUSH2 0x1568 SWAP1 PUSH2 0x3FEA JUMP JUMPDEST PUSH1 0x40 MLOAD DUP1 SWAP2 SUB SWAP1 REVERT JUMPDEST PUSH1 0x0 PUSH2 0x157D DUP6 DUP6 PUSH2 0x2CFC JUMP JUMPDEST SWAP1 POP DUP2 PUSH1 0x0 ADD MLOAD PUSH20 0xFFFFFFFFFFFFFFFFFFFFFFFFFFFFFFFFFFFFFFFF AND DUP2 PUSH20 0xFFFFFFFFFFFFFFFFFFFFFFFFFFFFFFFFFFFFFFFF AND EQ PUSH2 0x15F1 JUMPI PUSH1 0x40 MLOAD PUSH32 0x8C379A000000000000000000000000000000000000000000000000000000000 DUP2 MSTORE PUSH1 0x4 ADD PUSH2 0x15E8 SWAP1 PUSH2 0x3E6A JUMP JUMPDEST PUSH1 0x40 MLOAD DUP1 SWAP2 SUB SWAP1 REVERT JUMPDEST PUSH1 0x0 DUP3 PUSH1 0x60 ADD MLOAD PUSH1 0xFF AND EQ ISZERO PUSH2 0x1651 JUMPI DUP6 PUSH20 0xFFFFFFFFFFFFFFFFFFFFFFFFFFFFFFFFFFFFFFFF AND PUSH2 0x8FC DUP4 PUSH1 0x20 ADD MLOAD SWAP1 DUP2 ISZERO MUL SWAP1 PUSH1 0x40 MLOAD PUSH1 0x0 PUSH1 0x40 MLOAD DUP1 DUP4 SUB DUP2 DUP6 DUP9 DUP9 CALL SWAP4 POP POP POP POP ISZERO DUP1 ISZERO PUSH2 0x164B JUMPI RETURNDATASIZE PUSH1 0x0 DUP1 RETURNDATACOPY RETURNDATASIZE PUSH1 0x0 REVERT JUMPDEST POP PUSH2 0x182B JUMP JUMPDEST PUSH1 0x1 DUP3 PUSH1 0x60 ADD MLOAD PUSH1 0xFF AND EQ ISZERO PUSH2 0x1702 JUMPI PUSH1 0x0 DUP3 PUSH1 0x40 ADD MLOAD SWAP1 POP DUP1 PUSH20 0xFFFFFFFFFFFFFFFFFFFFFFFFFFFFFFFFFFFFFFFF AND PUSH4 0xA9059CBB DUP9 DUP6 PUSH1 0x20 ADD MLOAD PUSH1 0x40 MLOAD DUP4 PUSH4 0xFFFFFFFF AND PUSH1 0xE0 SHL DUP2 MSTORE PUSH1 0x4 ADD PUSH2 0x16A9 SWAP3 SWAP2 SWAP1 PUSH2 0x3CF7 JUMP JUMPDEST PUSH1 0x20 PUSH1 0x40 MLOAD DUP1 DUP4 SUB DUP2 PUSH1 0x0 DUP8 DUP1 EXTCODESIZE ISZERO DUP1 ISZERO PUSH2 0x16C3 JUMPI PUSH1 0x0 DUP1 REVERT JUMPDEST POP GAS CALL ISZERO DUP1 ISZERO PUSH2 0x16D7 JUMPI RETURNDATASIZE PUSH1 0x0 DUP1 RETURNDATACOPY RETURNDATASIZE PUSH1 0x0 REVERT JUMPDEST POP POP POP POP PUSH1 0x40 MLOAD RETURNDATASIZE PUSH1 0x1F NOT PUSH1 0x1F DUP3 ADD AND DUP3 ADD DUP1 PUSH1 0x40 MSTORE POP DUP2 ADD SWAP1 PUSH2 0x16FB SWAP2 SWAP1 PUSH2 0x36DD JUMP JUMPDEST POP POP PUSH2 0x182A JUMP JUMPDEST PUSH1 0x2 DUP3 PUSH1 0x60 ADD MLOAD PUSH1 0xFF AND EQ ISZERO PUSH2 0x1794 JUMPI PUSH1 0x0 DUP3 PUSH1 0x40 ADD MLOAD SWAP1 POP DUP1 PUSH20 0xFFFFFFFFFFFFFFFFFFFFFFFFFFFFFFFFFFFFFFFF AND PUSH4 0x23B872DD ADDRESS DUP10 DUP7 PUSH1 0x80 ADD MLOAD PUSH1 0x40 MLOAD DUP5 PUSH4 0xFFFFFFFF AND PUSH1 0xE0 SHL DUP2 MSTORE PUSH1 0x4 ADD PUSH2 0x175C SWAP4 SWAP3 SWAP2 SWAP1 PUSH2 0x3BC6 JUMP JUMPDEST PUSH1 0x0 PUSH1 0x40 MLOAD DUP1 DUP4 SUB DUP2 PUSH1 0x0 DUP8 DUP1 EXTCODESIZE ISZERO DUP1 ISZERO PUSH2 0x1776 JUMPI PUSH1 0x0 DUP1 REVERT JUMPDEST POP GAS CALL ISZERO DUP1 ISZERO PUSH2 0x178A JUMPI RETURNDATASIZE PUSH1 0x0 DUP1 RETURNDATACOPY RETURNDATASIZE PUSH1 0x0 REVERT JUMPDEST POP POP POP POP POP PUSH2 0x1829 JUMP JUMPDEST PUSH1 0x3 DUP3 PUSH1 0x60 ADD MLOAD PUSH1 0xFF AND EQ ISZERO PUSH2 0x1828 JUMPI PUSH1 0x0 DUP3 PUSH1 0x40 ADD MLOAD SWAP1 POP DUP1 PUSH20 0xFFFFFFFFFFFFFFFFFFFFFFFFFFFFFFFFFFFFFFFF AND PUSH4 0xF242432A ADDRESS DUP10 DUP7 PUSH1 0x80 ADD MLOAD DUP8 PUSH1 0x20 ADD MLOAD PUSH1 0x40 MLOAD DUP6 PUSH4 0xFFFFFFFF AND PUSH1 0xE0 SHL DUP2 MSTORE PUSH1 0x4 ADD PUSH2 0x17F4 SWAP5 SWAP4 SWAP3 SWAP2 SWAP1 PUSH2 0x3C9F JUMP JUMPDEST PUSH1 0x0 PUSH1 0x40 MLOAD DUP1 DUP4 SUB DUP2 PUSH1 0x0 DUP8 DUP1 EXTCODESIZE ISZERO DUP1 ISZERO PUSH2 0x180E JUMPI PUSH1 0x0 DUP1 REVERT JUMPDEST POP GAS CALL ISZERO DUP1 ISZERO PUSH2 0x1822 JUMPI RETURNDATASIZE PUSH1 0x0 DUP1 RETURNDATACOPY RETURNDATASIZE PUSH1 0x0 REVERT JUMPDEST POP POP POP POP POP JUMPDEST JUMPDEST JUMPDEST JUMPDEST DUP6 PUSH20 0xFFFFFFFFFFFFFFFFFFFFFFFFFFFFFFFFFFFFFFFF AND PUSH32 0xDD4D77FCB81062C183B4956DFCB3A37FCEF2BEA1FC9B861E5B2CAF67FCA071F7 DUP9 DUP5 PUSH1 0x60 ADD MLOAD DUP6 PUSH1 0x40 ADD MLOAD DUP7 PUSH1 0x20 ADD MLOAD PUSH1 0x40 MLOAD PUSH2 0x1883 SWAP5 SWAP4 SWAP3 SWAP2 SWAP1 PUSH2 0x4065 JUMP JUMPDEST PUSH1 0x40 MLOAD DUP1 SWAP2 SUB SWAP1 LOG2 PUSH1 0x8 DUP8 DUP2 SLOAD DUP2 LT PUSH2 0x18C5 JUMPI PUSH32 0x4E487B7100000000000000000000000000000000000000000000000000000000 PUSH1 0x0 MSTORE PUSH1 0x32 PUSH1 0x4 MSTORE PUSH1 0x24 PUSH1 0x0 REVERT JUMPDEST SWAP1 PUSH1 0x0 MSTORE PUSH1 0x20 PUSH1 0x0 KECCAK256 SWAP1 PUSH1 0x6 MUL ADD PUSH1 0x0 DUP1 DUP3 ADD PUSH1 0x0 PUSH2 0x100 EXP DUP2 SLOAD SWAP1 PUSH20 0xFFFFFFFFFFFFFFFFFFFFFFFFFFFFFFFFFFFFFFFF MUL NOT AND SWAP1 SSTORE PUSH1 0x1 DUP3 ADD PUSH1 0x0 SWAP1 SSTORE PUSH1 0x2 DUP3 ADD PUSH1 0x0 PUSH2 0x100 EXP DUP2 SLOAD SWAP1 PUSH20 0xFFFFFFFFFFFFFFFFFFFFFFFFFFFFFFFFFFFFFFFF MUL NOT AND SWAP1 SSTORE PUSH1 0x2 DUP3 ADD PUSH1 0x14 PUSH2 0x100 EXP DUP2 SLOAD SWAP1 PUSH1 0xFF MUL NOT AND SWAP1 SSTORE PUSH1 0x3 DUP3 ADD PUSH1 0x0 SWAP1 SSTORE PUSH1 0x4 DUP3 ADD PUSH1 0x0 PUSH2 0x100 EXP DUP2 SLOAD SWAP1 PUSH20 0xFFFFFFFFFFFFFFFFFFFFFFFFFFFFFFFFFFFFFFFF MUL NOT AND SWAP1 SSTORE PUSH1 0x5 DUP3 ADD PUSH1 0x0 SWAP1 SSTORE POP POP PUSH1 0x1 SWAP3 POP POP POP SWAP5 SWAP4 POP POP POP POP JUMP JUMPDEST PUSH1 0x0 DUP1 PUSH1 0x0 SWAP1 SLOAD SWAP1 PUSH2 0x100 EXP SWAP1 DIV PUSH20 0xFFFFFFFFFFFFFFFFFFFFFFFFFFFFFFFFFFFFFFFF AND PUSH20 0xFFFFFFFFFFFFFFFFFFFFFFFFFFFFFFFFFFFFFFFF AND DUP3 PUSH20 0xFFFFFFFFFFFFFFFFFFFFFFFFFFFFFFFFFFFFFFFF AND EQ SWAP1 POP SWAP2 SWAP1 POP JUMP JUMPDEST PUSH1 0x0 DUP1 PUSH1 0x3 PUSH1 0x0 DUP5 PUSH20 0xFFFFFFFFFFFFFFFFFFFFFFFFFFFFFFFFFFFFFFFF AND PUSH20 0xFFFFFFFFFFFFFFFFFFFFFFFFFFFFFFFFFFFFFFFF AND DUP2 MSTORE PUSH1 0x20 ADD SWAP1 DUP2 MSTORE PUSH1 0x20 ADD PUSH1 0x0 KECCAK256 SLOAD SWAP1 POP PUSH1 0x0 DUP2 EQ ISZERO PUSH2 0x1A32 JUMPI PUSH1 0x4 SLOAD SWAP1 POP JUMPDEST PUSH1 0x0 GASPRICE PUSH1 0x7 SLOAD GT PUSH2 0x1A43 JUMPI GASPRICE PUSH2 0x1A47 JUMP JUMPDEST PUSH1 0x7 SLOAD JUMPDEST SWAP1 POP PUSH1 0x0 DUP3 DUP3 PUSH2 0x1A57 SWAP2 SWAP1 PUSH2 0x4183 JUMP JUMPDEST SWAP1 POP PUSH1 0x5 SLOAD DUP2 PUSH2 0x1A67 SWAP2 SWAP1 PUSH2 0x412D JUMP JUMPDEST SWAP4 POP POP POP POP SWAP2 SWAP1 POP JUMP JUMPDEST PUSH2 0x1A79 PUSH2 0x2C48 JUMP JUMPDEST DUP1 PUSH1 0x2 DUP2 SWAP1 SSTORE POP POP JUMP JUMPDEST PUSH1 0x6 SLOAD DUP2 JUMP JUMPDEST PUSH2 0x1A91 PUSH2 0x2C48 JUMP JUMPDEST PUSH2 0x1A9B PUSH1 0x0 PUSH2 0x2D15 JUMP JUMPDEST JUMP JUMPDEST PUSH2 0x1AA5 PUSH2 0x2C48 JUMP JUMPDEST DUP1 PUSH1 0x5 DUP2 SWAP1 SSTORE POP POP JUMP JUMPDEST PUSH1 0x0 PUSH1 0x1 PUSH1 0x0 SWAP1 SLOAD SWAP1 PUSH2 0x100 EXP SWAP1 DIV PUSH20 0xFFFFFFFFFFFFFFFFFFFFFFFFFFFFFFFFFFFFFFFF AND SWAP1 POP SWAP1 JUMP JUMPDEST PUSH2 0x1AE1 PUSH2 0x2C48 JUMP JUMPDEST DUP1 PUSH1 0x7 DUP2 SWAP1 SSTORE POP POP JUMP JUMPDEST PUSH1 0x0 PUSH1 0x8 DUP1 SLOAD SWAP1 POP SWAP1 POP SWAP1 JUMP JUMPDEST PUSH1 0x4 SLOAD DUP2 JUMP JUMPDEST PUSH1 0x8 DUP2 DUP2 SLOAD DUP2 LT PUSH2 0x1B0E JUMPI PUSH1 0x0 DUP1 REVERT JUMPDEST SWAP1 PUSH1 0x0 MSTORE PUSH1 0x20 PUSH1 0x0 KECCAK256 SWAP1 PUSH1 0x6 MUL ADD PUSH1 0x0 SWAP2 POP SWAP1 POP DUP1 PUSH1 0x0 ADD PUSH1 0x0 SWAP1 SLOAD SWAP1 PUSH2 0x100 EXP SWAP1 DIV PUSH20 0xFFFFFFFFFFFFFFFFFFFFFFFFFFFFFFFFFFFFFFFF AND SWAP1 DUP1 PUSH1 0x1 ADD SLOAD SWAP1 DUP1 PUSH1 0x2 ADD PUSH1 0x0 SWAP1 SLOAD SWAP1 PUSH2 0x100 EXP SWAP1 DIV PUSH20 0xFFFFFFFFFFFFFFFFFFFFFFFFFFFFFFFFFFFFFFFF AND SWAP1 DUP1 PUSH1 0x2 ADD PUSH1 0x14 SWAP1 SLOAD SWAP1 PUSH2 0x100 EXP SWAP1 DIV PUSH1 0xFF AND SWAP1 DUP1 PUSH1 0x3 ADD SLOAD SWAP1 DUP1 PUSH1 0x4 ADD PUSH1 0x0 SWAP1 SLOAD SWAP1 PUSH2 0x100 EXP SWAP1 DIV PUSH20 0xFFFFFFFFFFFFFFFFFFFFFFFFFFFFFFFFFFFFFFFF AND SWAP1 DUP1 PUSH1 0x5 ADD SLOAD SWAP1 POP DUP8 JUMP JUMPDEST PUSH1 0x5 SLOAD DUP2 JUMP JUMPDEST PUSH1 0x0 PUSH32 0xBE9026AD5BAA968E00AAC2255A31276C279344B5C00065FEC9EA38E7C9D41C08 DUP4 DUP4 PUSH1 0x40 MLOAD PUSH2 0x1BF6 SWAP3 SWAP2 SWAP1 PUSH2 0x3B69 JUMP JUMPDEST PUSH1 0x40 MLOAD DUP1 SWAP2 SUB SWAP1 KECCAK256 EQ ISZERO PUSH2 0x1C13 JUMPI PUSH4 0xBC197C81 PUSH1 0xE0 SHL SWAP1 POP PUSH2 0x20D3 JUMP JUMPDEST PUSH1 0x14 DUP8 DUP8 SWAP1 POP PUSH2 0x1C23 SWAP2 SWAP1 PUSH2 0x4183 JUMP JUMPDEST DUP4 DUP4 SWAP1 POP EQ PUSH2 0x1C67 JUMPI PUSH1 0x40 MLOAD PUSH32 0x8C379A000000000000000000000000000000000000000000000000000000000 DUP2 MSTORE PUSH1 0x4 ADD PUSH2 0x1C5E SWAP1 PUSH2 0x3EEA JUMP JUMPDEST PUSH1 0x40 MLOAD DUP1 SWAP2 SUB SWAP1 REVERT JUMPDEST PUSH1 0x0 PUSH2 0x1C71 PUSH2 0x2C39 JUMP JUMPDEST SWAP1 POP PUSH1 0x0 PUSH1 0x4 SWAP1 POP PUSH1 0x0 DUP1 PUSH1 0x0 DUP1 PUSH1 0x0 SWAP1 POP JUMPDEST DUP13 DUP13 SWAP1 POP DUP2 LT ISZERO PUSH2 0x20C2 JUMPI DUP11 DUP11 DUP3 DUP2 DUP2 LT PUSH2 0x1CC8 JUMPI PUSH32 0x4E487B7100000000000000000000000000000000000000000000000000000000 PUSH1 0x0 MSTORE PUSH1 0x32 PUSH1 0x4 MSTORE PUSH1 0x24 PUSH1 0x0 REVERT JUMPDEST SWAP1 POP PUSH1 0x20 MUL ADD CALLDATALOAD SWAP3 POP DUP13 DUP13 DUP3 DUP2 DUP2 LT PUSH2 0x1D0A JUMPI PUSH32 0x4E487B7100000000000000000000000000000000000000000000000000000000 PUSH1 0x0 MSTORE PUSH1 0x32 PUSH1 0x4 MSTORE PUSH1 0x24 PUSH1 0x0 REVERT JUMPDEST SWAP1 POP PUSH1 0x20 MUL ADD CALLDATALOAD SWAP2 POP PUSH1 0x0 PUSH1 0x14 DUP3 PUSH2 0x1D22 SWAP2 SWAP1 PUSH2 0x4183 JUMP JUMPDEST SWAP1 POP PUSH1 0x0 PUSH1 0x14 PUSH8 0xFFFFFFFFFFFFFFFF DUP2 GT ISZERO PUSH2 0x1D67 JUMPI PUSH32 0x4E487B7100000000000000000000000000000000000000000000000000000000 PUSH1 0x0 MSTORE PUSH1 0x41 PUSH1 0x4 MSTORE PUSH1 0x24 PUSH1 0x0 REVERT JUMPDEST PUSH1 0x40 MLOAD SWAP1 DUP1 DUP3 MSTORE DUP1 PUSH1 0x1F ADD PUSH1 0x1F NOT AND PUSH1 0x20 ADD DUP3 ADD PUSH1 0x40 MSTORE DUP1 ISZERO PUSH2 0x1D99 JUMPI DUP2 PUSH1 0x20 ADD PUSH1 0x1 DUP3 MUL DUP1 CALLDATASIZE DUP4 CALLDATACOPY DUP1 DUP3 ADD SWAP2 POP POP SWAP1 POP JUMPDEST POP SWAP1 POP PUSH1 0x0 JUMPDEST PUSH1 0x14 DUP2 LT ISZERO PUSH2 0x1E71 JUMPI DUP12 DUP12 DUP3 DUP6 PUSH2 0x1DB6 SWAP2 SWAP1 PUSH2 0x412D JUMP JUMPDEST DUP2 DUP2 LT PUSH2 0x1DEC JUMPI PUSH32 0x4E487B7100000000000000000000000000000000000000000000000000000000 PUSH1 0x0 MSTORE PUSH1 0x32 PUSH1 0x4 MSTORE PUSH1 0x24 PUSH1 0x0 REVERT JUMPDEST SWAP1 POP ADD CALLDATALOAD PUSH1 0xF8 SHR PUSH1 0xF8 SHL DUP3 DUP3 DUP2 MLOAD DUP2 LT PUSH2 0x1E2F JUMPI PUSH32 0x4E487B7100000000000000000000000000000000000000000000000000000000 PUSH1 0x0 MSTORE PUSH1 0x32 PUSH1 0x4 MSTORE PUSH1 0x24 PUSH1 0x0 REVERT JUMPDEST PUSH1 0x20 ADD ADD SWAP1 PUSH31 0xFFFFFFFFFFFFFFFFFFFFFFFFFFFFFFFFFFFFFFFFFFFFFFFFFFFFFFFFFFFFFF NOT AND SWAP1 DUP2 PUSH1 0x0 BYTE SWAP1 MSTORE8 POP DUP1 DUP1 PUSH2 0x1E69 SWAP1 PUSH2 0x42EE JUMP JUMPDEST SWAP2 POP POP PUSH2 0x1D9F JUMP JUMPDEST POP DUP1 DUP1 PUSH1 0x20 ADD SWAP1 MLOAD DUP2 ADD SWAP1 PUSH2 0x1E86 SWAP2 SWAP1 PUSH2 0x3423 JUMP JUMPDEST SWAP6 POP PUSH1 0x8 PUSH1 0x40 MLOAD DUP1 PUSH1 0xE0 ADD PUSH1 0x40 MSTORE DUP1 DUP9 PUSH20 0xFFFFFFFFFFFFFFFFFFFFFFFFFFFFFFFFFFFFFFFF AND DUP2 MSTORE PUSH1 0x20 ADD DUP8 DUP2 MSTORE PUSH1 0x20 ADD DUP11 PUSH20 0xFFFFFFFFFFFFFFFFFFFFFFFFFFFFFFFFFFFFFFFF AND DUP2 MSTORE PUSH1 0x20 ADD DUP10 PUSH1 0xFF AND DUP2 MSTORE PUSH1 0x20 ADD DUP7 DUP2 MSTORE PUSH1 0x20 ADD PUSH2 0x1EEA PUSH2 0x2C39 JUMP JUMPDEST PUSH20 0xFFFFFFFFFFFFFFFFFFFFFFFFFFFFFFFFFFFFFFFF AND DUP2 MSTORE PUSH1 0x20 ADD TIMESTAMP DUP2 MSTORE POP SWAP1 DUP1 PUSH1 0x1 DUP2 SLOAD ADD DUP1 DUP3 SSTORE DUP1 SWAP2 POP POP PUSH1 0x1 SWAP1 SUB SWAP1 PUSH1 0x0 MSTORE PUSH1 0x20 PUSH1 0x0 KECCAK256 SWAP1 PUSH1 0x6 MUL ADD PUSH1 0x0 SWAP1 SWAP2 SWAP1 SWAP2 SWAP1 SWAP2 POP PUSH1 0x0 DUP3 ADD MLOAD DUP2 PUSH1 0x0 ADD PUSH1 0x0 PUSH2 0x100 EXP DUP2 SLOAD DUP2 PUSH20 0xFFFFFFFFFFFFFFFFFFFFFFFFFFFFFFFFFFFFFFFF MUL NOT AND SWAP1 DUP4 PUSH20 0xFFFFFFFFFFFFFFFFFFFFFFFFFFFFFFFFFFFFFFFF AND MUL OR SWAP1 SSTORE POP PUSH1 0x20 DUP3 ADD MLOAD DUP2 PUSH1 0x1 ADD SSTORE PUSH1 0x40 DUP3 ADD MLOAD DUP2 PUSH1 0x2 ADD PUSH1 0x0 PUSH2 0x100 EXP DUP2 SLOAD DUP2 PUSH20 0xFFFFFFFFFFFFFFFFFFFFFFFFFFFFFFFFFFFFFFFF MUL NOT AND SWAP1 DUP4 PUSH20 0xFFFFFFFFFFFFFFFFFFFFFFFFFFFFFFFFFFFFFFFF AND MUL OR SWAP1 SSTORE POP PUSH1 0x60 DUP3 ADD MLOAD DUP2 PUSH1 0x2 ADD PUSH1 0x14 PUSH2 0x100 EXP DUP2 SLOAD DUP2 PUSH1 0xFF MUL NOT AND SWAP1 DUP4 PUSH1 0xFF AND MUL OR SWAP1 SSTORE POP PUSH1 0x80 DUP3 ADD MLOAD DUP2 PUSH1 0x3 ADD SSTORE PUSH1 0xA0 DUP3 ADD MLOAD DUP2 PUSH1 0x4 ADD PUSH1 0x0 PUSH2 0x100 EXP DUP2 SLOAD DUP2 PUSH20 0xFFFFFFFFFFFFFFFFFFFFFFFFFFFFFFFFFFFFFFFF MUL NOT AND SWAP1 DUP4 PUSH20 0xFFFFFFFFFFFFFFFFFFFFFFFFFFFFFFFFFFFFFFFF AND MUL OR SWAP1 SSTORE POP PUSH1 0xC0 DUP3 ADD MLOAD DUP2 PUSH1 0x5 ADD SSTORE POP POP DUP16 PUSH20 0xFFFFFFFFFFFFFFFFFFFFFFFFFFFFFFFFFFFFFFFF AND PUSH32 0xFF0C92C63B7EEE4D6EF05AFDF24FE4ED28EA37F6CBB91962EC869E642D8A02A PUSH1 0x1 PUSH1 0x8 DUP1 SLOAD SWAP1 POP PUSH2 0x2092 SWAP2 SWAP1 PUSH2 0x41DD JUMP JUMPDEST DUP10 DUP12 DUP10 PUSH1 0x40 MLOAD PUSH2 0x20A5 SWAP5 SWAP4 SWAP3 SWAP2 SWAP1 PUSH2 0x4065 JUMP JUMPDEST PUSH1 0x40 MLOAD DUP1 SWAP2 SUB SWAP1 LOG2 POP POP DUP1 DUP1 PUSH2 0x20BA SWAP1 PUSH2 0x42EE JUMP JUMPDEST SWAP2 POP POP PUSH2 0x1C84 JUMP JUMPDEST POP PUSH4 0xBC197C81 PUSH1 0xE0 SHL SWAP6 POP POP POP POP POP POP JUMPDEST SWAP9 SWAP8 POP POP POP POP POP POP POP POP JUMP JUMPDEST PUSH2 0x20E7 PUSH2 0x2C48 JUMP JUMPDEST DUP1 PUSH1 0x3 PUSH1 0x0 DUP5 PUSH20 0xFFFFFFFFFFFFFFFFFFFFFFFFFFFFFFFFFFFFFFFF AND PUSH20 0xFFFFFFFFFFFFFFFFFFFFFFFFFFFFFFFFFFFFFFFF AND DUP2 MSTORE PUSH1 0x20 ADD SWAP1 DUP2 MSTORE PUSH1 0x20 ADD PUSH1 0x0 KECCAK256 DUP2 SWAP1 SSTORE POP POP POP JUMP JUMPDEST PUSH1 0x0 DUP1 PUSH1 0x0 SWAP1 SLOAD SWAP1 PUSH2 0x100 EXP SWAP1 DIV PUSH20 0xFFFFFFFFFFFFFFFFFFFFFFFFFFFFFFFFFFFFFFFF AND SWAP1 POP SWAP1 JUMP JUMPDEST PUSH1 0x3 PUSH1 0x20 MSTORE DUP1 PUSH1 0x0 MSTORE PUSH1 0x40 PUSH1 0x0 KECCAK256 PUSH1 0x0 SWAP2 POP SWAP1 POP SLOAD DUP2 JUMP JUMPDEST PUSH1 0x7 SLOAD DUP2 JUMP JUMPDEST PUSH2 0x217E PUSH2 0x2C48 JUMP JUMPDEST PUSH2 0x2187 DUP2 PUSH2 0x2DDB JUMP JUMPDEST POP JUMP JUMPDEST PUSH2 0x2192 PUSH2 0x2C48 JUMP JUMPDEST DUP1 PUSH1 0x4 DUP2 SWAP1 SSTORE POP POP JUMP JUMPDEST PUSH1 0x0 PUSH32 0xBE9026AD5BAA968E00AAC2255A31276C279344B5C00065FEC9EA38E7C9D41C08 DUP4 DUP4 PUSH1 0x40 MLOAD PUSH2 0x21CF SWAP3 SWAP2 SWAP1 PUSH2 0x3B69 JUMP JUMPDEST PUSH1 0x40 MLOAD DUP1 SWAP2 SUB SWAP1 KECCAK256 EQ ISZERO PUSH2 0x21EC JUMPI PUSH4 0xF23A6E61 PUSH1 0xE0 SHL SWAP1 POP PUSH2 0x2490 JUMP JUMPDEST PUSH1 0x14 DUP4 DUP4 SWAP1 POP EQ PUSH2 0x2232 JUMPI PUSH1 0x40 MLOAD PUSH32 0x8C379A000000000000000000000000000000000000000000000000000000000 DUP2 MSTORE PUSH1 0x4 ADD PUSH2 0x2229 SWAP1 PUSH2 0x3EEA JUMP JUMPDEST PUSH1 0x40 MLOAD DUP1 SWAP2 SUB SWAP1 REVERT JUMPDEST PUSH1 0x0 PUSH2 0x223C PUSH2 0x2C39 JUMP JUMPDEST SWAP1 POP PUSH1 0x0 PUSH1 0x3 SWAP1 POP PUSH1 0x0 DUP7 SWAP1 POP PUSH1 0x0 DUP7 DUP7 DUP2 ADD SWAP1 PUSH2 0x225A SWAP2 SWAP1 PUSH2 0x33FA JUMP JUMPDEST SWAP1 POP PUSH1 0x8 PUSH1 0x40 MLOAD DUP1 PUSH1 0xE0 ADD PUSH1 0x40 MSTORE DUP1 DUP4 PUSH20 0xFFFFFFFFFFFFFFFFFFFFFFFFFFFFFFFFFFFFFFFF AND DUP2 MSTORE PUSH1 0x20 ADD DUP5 DUP2 MSTORE PUSH1 0x20 ADD DUP7 PUSH20 0xFFFFFFFFFFFFFFFFFFFFFFFFFFFFFFFFFFFFFFFF AND DUP2 MSTORE PUSH1 0x20 ADD DUP6 PUSH1 0xFF AND DUP2 MSTORE PUSH1 0x20 ADD DUP12 DUP2 MSTORE PUSH1 0x20 ADD PUSH2 0x22BE PUSH2 0x2C39 JUMP JUMPDEST PUSH20 0xFFFFFFFFFFFFFFFFFFFFFFFFFFFFFFFFFFFFFFFF AND DUP2 MSTORE PUSH1 0x20 ADD TIMESTAMP DUP2 MSTORE POP SWAP1 DUP1 PUSH1 0x1 DUP2 SLOAD ADD DUP1 DUP3 SSTORE DUP1 SWAP2 POP POP PUSH1 0x1 SWAP1 SUB SWAP1 PUSH1 0x0 MSTORE PUSH1 0x20 PUSH1 0x0 KECCAK256 SWAP1 PUSH1 0x6 MUL ADD PUSH1 0x0 SWAP1 SWAP2 SWAP1 SWAP2 SWAP1 SWAP2 POP PUSH1 0x0 DUP3 ADD MLOAD DUP2 PUSH1 0x0 ADD PUSH1 0x0 PUSH2 0x100 EXP DUP2 SLOAD DUP2 PUSH20 0xFFFFFFFFFFFFFFFFFFFFFFFFFFFFFFFFFFFFFFFF MUL NOT AND SWAP1 DUP4 PUSH20 0xFFFFFFFFFFFFFFFFFFFFFFFFFFFFFFFFFFFFFFFF AND MUL OR SWAP1 SSTORE POP PUSH1 0x20 DUP3 ADD MLOAD DUP2 PUSH1 0x1 ADD SSTORE PUSH1 0x40 DUP3 ADD MLOAD DUP2 PUSH1 0x2 ADD PUSH1 0x0 PUSH2 0x100 EXP DUP2 SLOAD DUP2 PUSH20 0xFFFFFFFFFFFFFFFFFFFFFFFFFFFFFFFFFFFFFFFF MUL NOT AND SWAP1 DUP4 PUSH20 0xFFFFFFFFFFFFFFFFFFFFFFFFFFFFFFFFFFFFFFFF AND MUL OR SWAP1 SSTORE POP PUSH1 0x60 DUP3 ADD MLOAD DUP2 PUSH1 0x2 ADD PUSH1 0x14 PUSH2 0x100 EXP DUP2 SLOAD DUP2 PUSH1 0xFF MUL NOT AND SWAP1 DUP4 PUSH1 0xFF AND MUL OR SWAP1 SSTORE POP PUSH1 0x80 DUP3 ADD MLOAD DUP2 PUSH1 0x3 ADD SSTORE PUSH1 0xA0 DUP3 ADD MLOAD DUP2 PUSH1 0x4 ADD PUSH1 0x0 PUSH2 0x100 EXP DUP2 SLOAD DUP2 PUSH20 0xFFFFFFFFFFFFFFFFFFFFFFFFFFFFFFFFFFFFFFFF MUL NOT AND SWAP1 DUP4 PUSH20 0xFFFFFFFFFFFFFFFFFFFFFFFFFFFFFFFFFFFFFFFF AND MUL OR SWAP1 SSTORE POP PUSH1 0xC0 DUP3 ADD MLOAD DUP2 PUSH1 0x5 ADD SSTORE POP POP DUP10 PUSH20 0xFFFFFFFFFFFFFFFFFFFFFFFFFFFFFFFFFFFFFFFF AND PUSH32 0xFF0C92C63B7EEE4D6EF05AFDF24FE4ED28EA37F6CBB91962EC869E642D8A02A PUSH1 0x1 PUSH1 0x8 DUP1 SLOAD SWAP1 POP PUSH2 0x2466 SWAP2 SWAP1 PUSH2 0x41DD JUMP JUMPDEST DUP6 DUP8 DUP7 PUSH1 0x40 MLOAD PUSH2 0x2479 SWAP5 SWAP4 SWAP3 SWAP2 SWAP1 PUSH2 0x4065 JUMP JUMPDEST PUSH1 0x40 MLOAD DUP1 SWAP2 SUB SWAP1 LOG2 PUSH4 0xF23A6E61 PUSH1 0xE0 SHL SWAP5 POP POP POP POP POP JUMPDEST SWAP7 SWAP6 POP POP POP POP POP POP JUMP JUMPDEST PUSH2 0x24A2 PUSH2 0x2C48 JUMP JUMPDEST PUSH1 0x0 PUSH20 0xFFFFFFFFFFFFFFFFFFFFFFFFFFFFFFFFFFFFFFFF AND DUP2 PUSH20 0xFFFFFFFFFFFFFFFFFFFFFFFFFFFFFFFFFFFFFFFF AND EQ ISZERO PUSH2 0x2512 JUMPI PUSH1 0x40 MLOAD PUSH32 0x8C379A000000000000000000000000000000000000000000000000000000000 DUP2 MSTORE PUSH1 0x4 ADD PUSH2 0x2509 SWAP1 PUSH2 0x3E4A JUMP JUMPDEST PUSH1 0x40 MLOAD DUP1 SWAP2 SUB SWAP1 REVERT JUMPDEST PUSH2 0x251B DUP2 PUSH2 0x2D15 JUMP JUMPDEST POP JUMP JUMPDEST PUSH1 0x0 DUP1 PUSH2 0x252A DUP8 PUSH2 0x19DE JUMP JUMPDEST SWAP1 POP DUP1 CALLVALUE GT PUSH2 0x256E JUMPI PUSH1 0x40 MLOAD PUSH32 0x8C379A000000000000000000000000000000000000000000000000000000000 DUP2 MSTORE PUSH1 0x4 ADD PUSH2 0x2565 SWAP1 PUSH2 0x3ECA JUMP JUMPDEST PUSH1 0x40 MLOAD DUP1 SWAP2 SUB SWAP1 REVERT JUMPDEST PUSH1 0x4 DUP7 PUSH1 0xFF AND LT PUSH2 0x25B4 JUMPI PUSH1 0x40 MLOAD PUSH32 0x8C379A000000000000000000000000000000000000000000000000000000000 DUP2 MSTORE PUSH1 0x4 ADD PUSH2 0x25AB SWAP1 PUSH2 0x3F4A JUMP JUMPDEST PUSH1 0x40 MLOAD DUP1 SWAP2 SUB SWAP1 REVERT JUMPDEST PUSH1 0x0 DUP7 PUSH1 0xFF AND EQ ISZERO PUSH2 0x25EC JUMPI DUP1 CALLVALUE PUSH2 0x25CC SWAP2 SWAP1 PUSH2 0x41DD JUMP JUMPDEST SWAP5 POP DUP1 PUSH1 0x6 PUSH1 0x0 DUP3 DUP3 SLOAD PUSH2 0x25E0 SWAP2 SWAP1 PUSH2 0x412D JUMP JUMPDEST SWAP3 POP POP DUP2 SWAP1 SSTORE POP PUSH2 0x29B2 JUMP JUMPDEST PUSH1 0x1 DUP7 PUSH1 0xFF AND EQ ISZERO PUSH2 0x287E JUMPI PUSH1 0x0 DUP8 SWAP1 POP DUP6 DUP2 PUSH20 0xFFFFFFFFFFFFFFFFFFFFFFFFFFFFFFFFFFFFFFFF AND PUSH4 0x70A08231 PUSH2 0x2622 PUSH2 0x2C39 JUMP JUMPDEST PUSH1 0x40 MLOAD DUP3 PUSH4 0xFFFFFFFF AND PUSH1 0xE0 SHL DUP2 MSTORE PUSH1 0x4 ADD PUSH2 0x263E SWAP2 SWAP1 PUSH2 0x3B82 JUMP JUMPDEST PUSH1 0x20 PUSH1 0x40 MLOAD DUP1 DUP4 SUB DUP2 DUP7 DUP1 EXTCODESIZE ISZERO DUP1 ISZERO PUSH2 0x2656 JUMPI PUSH1 0x0 DUP1 REVERT JUMPDEST POP GAS STATICCALL ISZERO DUP1 ISZERO PUSH2 0x266A JUMPI RETURNDATASIZE PUSH1 0x0 DUP1 RETURNDATACOPY RETURNDATASIZE PUSH1 0x0 REVERT JUMPDEST POP POP POP POP PUSH1 0x40 MLOAD RETURNDATASIZE PUSH1 0x1F NOT PUSH1 0x1F DUP3 ADD AND DUP3 ADD DUP1 PUSH1 0x40 MSTORE POP DUP2 ADD SWAP1 PUSH2 0x268E SWAP2 SWAP1 PUSH2 0x3758 JUMP JUMPDEST LT ISZERO PUSH2 0x26CF JUMPI PUSH1 0x40 MLOAD PUSH32 0x8C379A000000000000000000000000000000000000000000000000000000000 DUP2 MSTORE PUSH1 0x4 ADD PUSH2 0x26C6 SWAP1 PUSH2 0x3FCA JUMP JUMPDEST PUSH1 0x40 MLOAD DUP1 SWAP2 SUB SWAP1 REVERT JUMPDEST DUP6 DUP2 PUSH20 0xFFFFFFFFFFFFFFFFFFFFFFFFFFFFFFFFFFFFFFFF AND PUSH4 0xDD62ED3E PUSH2 0x26F4 PUSH2 0x2C39 JUMP JUMPDEST ADDRESS PUSH1 0x40 MLOAD DUP4 PUSH4 0xFFFFFFFF AND PUSH1 0xE0 SHL DUP2 MSTORE PUSH1 0x4 ADD PUSH2 0x2712 SWAP3 SWAP2 SWAP1 PUSH2 0x3B9D JUMP JUMPDEST PUSH1 0x20 PUSH1 0x40 MLOAD DUP1 DUP4 SUB DUP2 DUP7 DUP1 EXTCODESIZE ISZERO DUP1 ISZERO PUSH2 0x272A JUMPI PUSH1 0x0 DUP1 REVERT JUMPDEST POP GAS STATICCALL ISZERO DUP1 ISZERO PUSH2 0x273E JUMPI RETURNDATASIZE PUSH1 0x0 DUP1 RETURNDATACOPY RETURNDATASIZE PUSH1 0x0 REVERT JUMPDEST POP POP POP POP PUSH1 0x40 MLOAD RETURNDATASIZE PUSH1 0x1F NOT PUSH1 0x1F DUP3 ADD AND DUP3 ADD DUP1 PUSH1 0x40 MSTORE POP DUP2 ADD SWAP1 PUSH2 0x2762 SWAP2 SWAP1 PUSH2 0x3758 JUMP JUMPDEST LT ISZERO PUSH2 0x27A3 JUMPI PUSH1 0x40 MLOAD PUSH32 0x8C379A000000000000000000000000000000000000000000000000000000000 DUP2 MSTORE PUSH1 0x4 ADD PUSH2 0x279A SWAP1 PUSH2 0x3FAA JUMP JUMPDEST PUSH1 0x40 MLOAD DUP1 SWAP2 SUB SWAP1 REVERT JUMPDEST DUP1 PUSH20 0xFFFFFFFFFFFFFFFFFFFFFFFFFFFFFFFFFFFFFFFF AND PUSH4 0x23B872DD PUSH2 0x27C7 PUSH2 0x2C39 JUMP JUMPDEST ADDRESS DUP10 PUSH1 0x40 MLOAD DUP5 PUSH4 0xFFFFFFFF AND PUSH1 0xE0 SHL DUP2 MSTORE PUSH1 0x4 ADD PUSH2 0x27E7 SWAP4 SWAP3 SWAP2 SWAP1 PUSH2 0x3BC6 JUMP JUMPDEST PUSH1 0x20 PUSH1 0x40 MLOAD DUP1 DUP4 SUB DUP2 PUSH1 0x0 DUP8 DUP1 EXTCODESIZE ISZERO DUP1 ISZERO PUSH2 0x2801 JUMPI PUSH1 0x0 DUP1 REVERT JUMPDEST POP GAS CALL ISZERO DUP1 ISZERO PUSH2 0x2815 JUMPI RETURNDATASIZE PUSH1 0x0 DUP1 RETURNDATACOPY RETURNDATASIZE PUSH1 0x0 REVERT JUMPDEST POP POP POP POP PUSH1 0x40 MLOAD RETURNDATASIZE PUSH1 0x1F NOT PUSH1 0x1F DUP3 ADD AND DUP3 ADD DUP1 PUSH1 0x40 MSTORE POP DUP2 ADD SWAP1 PUSH2 0x2839 SWAP2 SWAP1 PUSH2 0x36DD JUMP JUMPDEST PUSH2 0x2878 JUMPI PUSH1 0x40 MLOAD PUSH32 0x8C379A000000000000000000000000000000000000000000000000000000000 DUP2 MSTORE PUSH1 0x4 ADD PUSH2 0x286F SWAP1 PUSH2 0x3F0A JUMP JUMPDEST PUSH1 0x40 MLOAD DUP1 SWAP2 SUB SWAP1 REVERT JUMPDEST POP PUSH2 0x2998 JUMP JUMPDEST PUSH1 0x2 DUP7 PUSH1 0xFF AND EQ ISZERO PUSH2 0x290B JUMPI PUSH1 0x0 DUP8 SWAP1 POP DUP1 PUSH20 0xFFFFFFFFFFFFFFFFFFFFFFFFFFFFFFFFFFFFFFFF AND PUSH4 0xB88D4FDE PUSH2 0x28B3 PUSH2 0x2C39 JUMP JUMPDEST ADDRESS DUP9 PUSH1 0x40 MLOAD DUP5 PUSH4 0xFFFFFFFF AND PUSH1 0xE0 SHL DUP2 MSTORE PUSH1 0x4 ADD PUSH2 0x28D3 SWAP4 SWAP3 SWAP2 SWAP1 PUSH2 0x3BFD JUMP JUMPDEST PUSH1 0x0 PUSH1 0x40 MLOAD DUP1 DUP4 SUB DUP2 PUSH1 0x0 DUP8 DUP1 EXTCODESIZE ISZERO DUP1 ISZERO PUSH2 0x28ED JUMPI PUSH1 0x0 DUP1 REVERT JUMPDEST POP GAS CALL ISZERO DUP1 ISZERO PUSH2 0x2901 JUMPI RETURNDATASIZE PUSH1 0x0 DUP1 RETURNDATACOPY RETURNDATASIZE PUSH1 0x0 REVERT JUMPDEST POP POP POP POP POP PUSH2 0x2997 JUMP JUMPDEST PUSH1 0x3 DUP7 PUSH1 0xFF AND EQ ISZERO PUSH2 0x2996 JUMPI PUSH1 0x0 DUP8 SWAP1 POP DUP1 PUSH20 0xFFFFFFFFFFFFFFFFFFFFFFFFFFFFFFFFFFFFFFFF AND PUSH4 0xF242432A PUSH2 0x2940 PUSH2 0x2C39 JUMP JUMPDEST ADDRESS DUP9 DUP11 PUSH1 0x40 MLOAD DUP6 PUSH4 0xFFFFFFFF AND PUSH1 0xE0 SHL DUP2 MSTORE PUSH1 0x4 ADD PUSH2 0x2962 SWAP5 SWAP4 SWAP3 SWAP2 SWAP1 PUSH2 0x3C47 JUMP JUMPDEST PUSH1 0x0 PUSH1 0x40 MLOAD DUP1 DUP4 SUB DUP2 PUSH1 0x0 DUP8 DUP1 EXTCODESIZE ISZERO DUP1 ISZERO PUSH2 0x297C JUMPI PUSH1 0x0 DUP1 REVERT JUMPDEST POP GAS CALL ISZERO DUP1 ISZERO PUSH2 0x2990 JUMPI RETURNDATASIZE PUSH1 0x0 DUP1 RETURNDATACOPY RETURNDATASIZE PUSH1 0x0 REVERT JUMPDEST POP POP POP POP POP JUMPDEST JUMPDEST JUMPDEST CALLVALUE PUSH1 0x6 PUSH1 0x0 DUP3 DUP3 SLOAD PUSH2 0x29AA SWAP2 SWAP1 PUSH2 0x412D JUMP JUMPDEST SWAP3 POP POP DUP2 SWAP1 SSTORE POP JUMPDEST PUSH1 0x8 PUSH1 0x40 MLOAD DUP1 PUSH1 0xE0 ADD PUSH1 0x40 MSTORE DUP1 DUP6 PUSH20 0xFFFFFFFFFFFFFFFFFFFFFFFFFFFFFFFFFFFFFFFF AND DUP2 MSTORE PUSH1 0x20 ADD DUP8 DUP2 MSTORE PUSH1 0x20 ADD DUP10 PUSH20 0xFFFFFFFFFFFFFFFFFFFFFFFFFFFFFFFFFFFFFFFF AND DUP2 MSTORE PUSH1 0x20 ADD DUP9 PUSH1 0xFF AND DUP2 MSTORE PUSH1 0x20 ADD DUP7 DUP2 MSTORE PUSH1 0x20 ADD PUSH2 0x2A14 PUSH2 0x2C39 JUMP JUMPDEST PUSH20 0xFFFFFFFFFFFFFFFFFFFFFFFFFFFFFFFFFFFFFFFF AND DUP2 MSTORE PUSH1 0x20 ADD TIMESTAMP DUP2 MSTORE POP SWAP1 DUP1 PUSH1 0x1 DUP2 SLOAD ADD DUP1 DUP3 SSTORE DUP1 SWAP2 POP POP PUSH1 0x1 SWAP1 SUB SWAP1 PUSH1 0x0 MSTORE PUSH1 0x20 PUSH1 0x0 KECCAK256 SWAP1 PUSH1 0x6 MUL ADD PUSH1 0x0 SWAP1 SWAP2 SWAP1 SWAP2 SWAP1 SWAP2 POP PUSH1 0x0 DUP3 ADD MLOAD DUP2 PUSH1 0x0 ADD PUSH1 0x0 PUSH2 0x100 EXP DUP2 SLOAD DUP2 PUSH20 0xFFFFFFFFFFFFFFFFFFFFFFFFFFFFFFFFFFFFFFFF MUL NOT AND SWAP1 DUP4 PUSH20 0xFFFFFFFFFFFFFFFFFFFFFFFFFFFFFFFFFFFFFFFF AND MUL OR SWAP1 SSTORE POP PUSH1 0x20 DUP3 ADD MLOAD DUP2 PUSH1 0x1 ADD SSTORE PUSH1 0x40 DUP3 ADD MLOAD DUP2 PUSH1 0x2 ADD PUSH1 0x0 PUSH2 0x100 EXP DUP2 SLOAD DUP2 PUSH20 0xFFFFFFFFFFFFFFFFFFFFFFFFFFFFFFFFFFFFFFFF MUL NOT AND SWAP1 DUP4 PUSH20 0xFFFFFFFFFFFFFFFFFFFFFFFFFFFFFFFFFFFFFFFF AND MUL OR SWAP1 SSTORE POP PUSH1 0x60 DUP3 ADD MLOAD DUP2 PUSH1 0x2 ADD PUSH1 0x14 PUSH2 0x100 EXP DUP2 SLOAD DUP2 PUSH1 0xFF MUL NOT AND SWAP1 DUP4 PUSH1 0xFF AND MUL OR SWAP1 SSTORE POP PUSH1 0x80 DUP3 ADD MLOAD DUP2 PUSH1 0x3 ADD SSTORE PUSH1 0xA0 DUP3 ADD MLOAD DUP2 PUSH1 0x4 ADD PUSH1 0x0 PUSH2 0x100 EXP DUP2 SLOAD DUP2 PUSH20 0xFFFFFFFFFFFFFFFFFFFFFFFFFFFFFFFFFFFFFFFF MUL NOT AND SWAP1 DUP4 PUSH20 0xFFFFFFFFFFFFFFFFFFFFFFFFFFFFFFFFFFFFFFFF AND MUL OR SWAP1 SSTORE POP PUSH1 0xC0 DUP3 ADD MLOAD DUP2 PUSH1 0x5 ADD SSTORE POP POP PUSH2 0x2B7A PUSH2 0x2C39 JUMP JUMPDEST PUSH20 0xFFFFFFFFFFFFFFFFFFFFFFFFFFFFFFFFFFFFFFFF AND PUSH32 0xFF0C92C63B7EEE4D6EF05AFDF24FE4ED28EA37F6CBB91962EC869E642D8A02A PUSH1 0x1 PUSH1 0x8 DUP1 SLOAD SWAP1 POP PUSH2 0x2BC3 SWAP2 SWAP1 PUSH2 0x41DD JUMP JUMPDEST DUP9 DUP11 DUP10 PUSH1 0x40 MLOAD PUSH2 0x2BD6 SWAP5 SWAP4 SWAP3 SWAP2 SWAP1 PUSH2 0x4065 JUMP JUMPDEST PUSH1 0x40 MLOAD DUP1 SWAP2 SUB SWAP1 LOG2 PUSH1 0x1 PUSH1 0x8 DUP1 SLOAD SWAP1 POP PUSH2 0x2BF0 SWAP2 SWAP1 PUSH2 0x41DD JUMP JUMPDEST SWAP2 POP POP SWAP6 SWAP5 POP POP POP POP POP JUMP JUMPDEST PUSH1 0x2 SLOAD DUP2 JUMP JUMPDEST PUSH1 0x0 PUSH1 0x14 PUSH1 0x0 CALLDATASIZE SWAP1 POP LT ISZERO DUP1 ISZERO PUSH2 0x2C1E JUMPI POP PUSH2 0x2C1D CALLER PUSH2 0x1985 JUMP JUMPDEST JUMPDEST ISZERO PUSH2 0x2C32 JUMPI PUSH1 0x14 CALLDATASIZE SUB CALLDATALOAD PUSH1 0x60 SHR SWAP1 POP PUSH2 0x2C36 JUMP JUMPDEST CALLER SWAP1 POP JUMPDEST SWAP1 JUMP JUMPDEST PUSH1 0x0 PUSH2 0x2C43 PUSH2 0x2C02 JUMP JUMPDEST SWAP1 POP SWAP1 JUMP JUMPDEST PUSH2 0x2C50 PUSH2 0x2C39 JUMP JUMPDEST PUSH20 0xFFFFFFFFFFFFFFFFFFFFFFFFFFFFFFFFFFFFFFFF AND PUSH2 0x2C6E PUSH2 0x1AAF JUMP JUMPDEST PUSH20 0xFFFFFFFFFFFFFFFFFFFFFFFFFFFFFFFFFFFFFFFF AND EQ PUSH2 0x2CC4 JUMPI PUSH1 0x40 MLOAD PUSH32 0x8C379A000000000000000000000000000000000000000000000000000000000 DUP2 MSTORE PUSH1 0x4 ADD PUSH2 0x2CBB SWAP1 PUSH2 0x3F2A JUMP JUMPDEST PUSH1 0x40 MLOAD DUP1 SWAP2 SUB SWAP1 REVERT JUMPDEST JUMP JUMPDEST PUSH1 0x0 PUSH32 0x19457468657265756D205369676E6564204D6573736167653A0A333200000000 PUSH1 0x0 MSTORE DUP2 PUSH1 0x1C MSTORE PUSH1 0x3C PUSH1 0x0 KECCAK256 SWAP1 POP SWAP2 SWAP1 POP JUMP JUMPDEST PUSH1 0x0 DUP1 PUSH2 0x2D09 DUP5 DUP5 PUSH2 0x2E1E JUMP JUMPDEST SWAP1 POP DUP1 SWAP2 POP POP SWAP3 SWAP2 POP POP JUMP JUMPDEST PUSH1 0x0 PUSH1 0x1 PUSH1 0x0 SWAP1 SLOAD SWAP1 PUSH2 0x100 EXP SWAP1 DIV PUSH20 0xFFFFFFFFFFFFFFFFFFFFFFFFFFFFFFFFFFFFFFFF AND SWAP1 POP DUP2 PUSH1 0x1 PUSH1 0x0 PUSH2 0x100 EXP DUP2 SLOAD DUP2 PUSH20 0xFFFFFFFFFFFFFFFFFFFFFFFFFFFFFFFFFFFFFFFF MUL NOT AND SWAP1 DUP4 PUSH20 0xFFFFFFFFFFFFFFFFFFFFFFFFFFFFFFFFFFFFFFFF AND MUL OR SWAP1 SSTORE POP DUP2 PUSH20 0xFFFFFFFFFFFFFFFFFFFFFFFFFFFFFFFFFFFFFFFF AND DUP2 PUSH20 0xFFFFFFFFFFFFFFFFFFFFFFFFFFFFFFFFFFFFFFFF AND PUSH32 0x8BE0079C531659141344CD1FD0A4F28419497F9722A3DAAFE3B4186F6B6457E0 PUSH1 0x40 MLOAD PUSH1 0x40 MLOAD DUP1 SWAP2 SUB SWAP1 LOG3 POP POP JUMP JUMPDEST DUP1 PUSH1 0x0 DUP1 PUSH2 0x100 EXP DUP2 SLOAD DUP2 PUSH20 0xFFFFFFFFFFFFFFFFFFFFFFFFFFFFFFFFFFFFFFFF MUL NOT AND SWAP1 DUP4 PUSH20 0xFFFFFFFFFFFFFFFFFFFFFFFFFFFFFFFFFFFFFFFF AND MUL OR SWAP1 SSTORE POP POP JUMP JUMPDEST PUSH1 0x0 DUP1 PUSH1 0x0 PUSH2 0x2E2D DUP6 DUP6 PUSH2 0x2E45 JUMP JUMPDEST SWAP2 POP SWAP2 POP PUSH2 0x2E3A DUP2 PUSH2 0x2E97 JUMP JUMPDEST DUP2 SWAP3 POP POP POP SWAP3 SWAP2 POP POP JUMP JUMPDEST PUSH1 0x0 DUP1 PUSH1 0x41 DUP4 MLOAD EQ ISZERO PUSH2 0x2E87 JUMPI PUSH1 0x0 DUP1 PUSH1 0x0 PUSH1 0x20 DUP7 ADD MLOAD SWAP3 POP PUSH1 0x40 DUP7 ADD MLOAD SWAP2 POP PUSH1 0x60 DUP7 ADD MLOAD PUSH1 0x0 BYTE SWAP1 POP PUSH2 0x2E7B DUP8 DUP3 DUP6 DUP6 PUSH2 0x3135 JUMP JUMPDEST SWAP5 POP SWAP5 POP POP POP POP PUSH2 0x2E90 JUMP JUMPDEST PUSH1 0x0 PUSH1 0x2 SWAP2 POP SWAP2 POP JUMPDEST SWAP3 POP SWAP3 SWAP1 POP JUMP JUMPDEST PUSH1 0x0 PUSH1 0x4 DUP2 GT ISZERO PUSH2 0x2ED1 JUMPI PUSH32 0x4E487B7100000000000000000000000000000000000000000000000000000000 PUSH1 0x0 MSTORE PUSH1 0x21 PUSH1 0x4 MSTORE PUSH1 0x24 PUSH1 0x0 REVERT JUMPDEST DUP2 PUSH1 0x4 DUP2 GT ISZERO PUSH2 0x2F0A JUMPI PUSH32 0x4E487B7100000000000000000000000000000000000000000000000000000000 PUSH1 0x0 MSTORE PUSH1 0x21 PUSH1 0x4 MSTORE PUSH1 0x24 PUSH1 0x0 REVERT JUMPDEST EQ ISZERO PUSH2 0x2F15 JUMPI PUSH2 0x3132 JUMP JUMPDEST PUSH1 0x1 PUSH1 0x4 DUP2 GT ISZERO PUSH2 0x2F4F JUMPI PUSH32 0x4E487B7100000000000000000000000000000000000000000000000000000000 PUSH1 0x0 MSTORE PUSH1 0x21 PUSH1 0x4 MSTORE PUSH1 0x24 PUSH1 0x0 REVERT JUMPDEST DUP2 PUSH1 0x4 DUP2 GT ISZERO PUSH2 0x2F88 JUMPI PUSH32 0x4E487B7100000000000000000000000000000000000000000000000000000000 PUSH1 0x0 MSTORE PUSH1 0x21 PUSH1 0x4 MSTORE PUSH1 0x24 PUSH1 0x0 REVERT JUMPDEST EQ ISZERO PUSH2 0x2FC9 JUMPI PUSH1 0x40 MLOAD PUSH32 0x8C379A000000000000000000000000000000000000000000000000000000000 DUP2 MSTORE PUSH1 0x4 ADD PUSH2 0x2FC0 SWAP1 PUSH2 0x3E0A JUMP JUMPDEST PUSH1 0x40 MLOAD DUP1 SWAP2 SUB SWAP1 REVERT JUMPDEST PUSH1 0x2 PUSH1 0x4 DUP2 GT ISZERO PUSH2 0x3003 JUMPI PUSH32 0x4E487B7100000000000000000000000000000000000000000000000000000000 PUSH1 0x0 MSTORE PUSH1 0x21 PUSH1 0x4 MSTORE PUSH1 0x24 PUSH1 0x0 REVERT JUMPDEST DUP2 PUSH1 0x4 DUP2 GT ISZERO PUSH2 0x303C JUMPI PUSH32 0x4E487B7100000000000000000000000000000000000000000000000000000000 PUSH1 0x0 MSTORE PUSH1 0x21 PUSH1 0x4 MSTORE PUSH1 0x24 PUSH1 0x0 REVERT JUMPDEST EQ ISZERO PUSH2 0x307D JUMPI PUSH1 0x40 MLOAD PUSH32 0x8C379A000000000000000000000000000000000000000000000000000000000 DUP2 MSTORE PUSH1 0x4 ADD PUSH2 0x3074 SWAP1 PUSH2 0x3E2A JUMP JUMPDEST PUSH1 0x40 MLOAD DUP1 SWAP2 SUB SWAP1 REVERT JUMPDEST PUSH1 0x3 PUSH1 0x4 DUP2 GT ISZERO PUSH2 0x30B7 JUMPI PUSH32 0x4E487B7100000000000000000000000000000000000000000000000000000000 PUSH1 0x0 MSTORE PUSH1 0x21 PUSH1 0x4 MSTORE PUSH1 0x24 PUSH1 0x0 REVERT JUMPDEST DUP2 PUSH1 0x4 DUP2 GT ISZERO PUSH2 0x30F0 JUMPI PUSH32 0x4E487B7100000000000000000000000000000000000000000000000000000000 PUSH1 0x0 MSTORE PUSH1 0x21 PUSH1 0x4 MSTORE PUSH1 0x24 PUSH1 0x0 REVERT JUMPDEST EQ ISZERO PUSH2 0x3131 JUMPI PUSH1 0x40 MLOAD PUSH32 0x8C379A000000000000000000000000000000000000000000000000000000000 DUP2 MSTORE PUSH1 0x4 ADD PUSH2 0x3128 SWAP1 PUSH2 0x3E8A JUMP JUMPDEST PUSH1 0x40 MLOAD DUP1 SWAP2 SUB SWAP1 REVERT JUMPDEST JUMPDEST POP JUMP JUMPDEST PUSH1 0x0 DUP1 PUSH32 0x7FFFFFFFFFFFFFFFFFFFFFFFFFFFFFFF5D576E7357A4501DDFE92F46681B20A0 DUP4 PUSH1 0x0 SHR GT ISZERO PUSH2 0x3170 JUMPI PUSH1 0x0 PUSH1 0x3 SWAP2 POP SWAP2 POP PUSH2 0x320F JUMP JUMPDEST PUSH1 0x0 PUSH1 0x1 DUP8 DUP8 DUP8 DUP8 PUSH1 0x40 MLOAD PUSH1 0x0 DUP2 MSTORE PUSH1 0x20 ADD PUSH1 0x40 MSTORE PUSH1 0x40 MLOAD PUSH2 0x3195 SWAP5 SWAP4 SWAP3 SWAP2 SWAP1 PUSH2 0x3DAA JUMP JUMPDEST PUSH1 0x20 PUSH1 0x40 MLOAD PUSH1 0x20 DUP2 SUB SWAP1 DUP1 DUP5 SUB SWAP1 DUP6 GAS STATICCALL ISZERO DUP1 ISZERO PUSH2 0x31B7 JUMPI RETURNDATASIZE PUSH1 0x0 DUP1 RETURNDATACOPY RETURNDATASIZE PUSH1 0x0 REVERT JUMPDEST POP POP POP PUSH1 0x20 PUSH1 0x40 MLOAD SUB MLOAD SWAP1 POP PUSH1 0x0 PUSH20 0xFFFFFFFFFFFFFFFFFFFFFFFFFFFFFFFFFFFFFFFF AND DUP2 PUSH20 0xFFFFFFFFFFFFFFFFFFFFFFFFFFFFFFFFFFFFFFFF AND EQ ISZERO PUSH2 0x3206 JUMPI PUSH1 0x0 PUSH1 0x1 SWAP3 POP SWAP3 POP POP PUSH2 0x320F JUMP JUMPDEST DUP1 PUSH1 0x0 SWAP3 POP SWAP3 POP POP JUMPDEST SWAP5 POP SWAP5 SWAP3 POP POP POP JUMP JUMPDEST PUSH1 0x0 PUSH2 0x322B PUSH2 0x3226 DUP5 PUSH2 0x40CF JUMP JUMPDEST PUSH2 0x40AA JUMP JUMPDEST SWAP1 POP DUP3 DUP2 MSTORE PUSH1 0x20 DUP2 ADD DUP5 DUP5 DUP5 ADD GT ISZERO PUSH2 0x3243 JUMPI PUSH1 0x0 DUP1 REVERT JUMPDEST PUSH2 0x324E DUP5 DUP3 DUP6 PUSH2 0x42AE JUMP JUMPDEST POP SWAP4 SWAP3 POP POP POP JUMP JUMPDEST PUSH1 0x0 DUP2 CALLDATALOAD SWAP1 POP PUSH2 0x3265 DUP2 PUSH2 0x477D JUMP JUMPDEST SWAP3 SWAP2 POP POP JUMP JUMPDEST PUSH1 0x0 DUP2 CALLDATALOAD SWAP1 POP PUSH2 0x327A DUP2 PUSH2 0x4794 JUMP JUMPDEST SWAP3 SWAP2 POP POP JUMP JUMPDEST PUSH1 0x0 DUP2 MLOAD SWAP1 POP PUSH2 0x328F DUP2 PUSH2 0x4794 JUMP JUMPDEST SWAP3 SWAP2 POP POP JUMP JUMPDEST PUSH1 0x0 DUP1 DUP4 PUSH1 0x1F DUP5 ADD SLT PUSH2 0x32A7 JUMPI PUSH1 0x0 DUP1 REVERT JUMPDEST DUP3 CALLDATALOAD SWAP1 POP PUSH8 0xFFFFFFFFFFFFFFFF DUP2 GT ISZERO PUSH2 0x32C0 JUMPI PUSH1 0x0 DUP1 REVERT JUMPDEST PUSH1 0x20 DUP4 ADD SWAP2 POP DUP4 PUSH1 0x20 DUP3 MUL DUP4 ADD GT ISZERO PUSH2 0x32D8 JUMPI PUSH1 0x0 DUP1 REVERT JUMPDEST SWAP3 POP SWAP3 SWAP1 POP JUMP JUMPDEST PUSH1 0x0 DUP2 MLOAD SWAP1 POP PUSH2 0x32EE DUP2 PUSH2 0x47AB JUMP JUMPDEST SWAP3 SWAP2 POP POP JUMP JUMPDEST PUSH1 0x0 DUP2 CALLDATALOAD SWAP1 POP PUSH2 0x3303 DUP2 PUSH2 0x47C2 JUMP JUMPDEST SWAP3 SWAP2 POP POP JUMP JUMPDEST PUSH1 0x0 DUP2 CALLDATALOAD SWAP1 POP PUSH2 0x3318 DUP2 PUSH2 0x47D9 JUMP JUMPDEST SWAP3 SWAP2 POP POP JUMP JUMPDEST PUSH1 0x0 DUP1 DUP4 PUSH1 0x1F DUP5 ADD SLT PUSH2 0x3330 JUMPI PUSH1 0x0 DUP1 REVERT JUMPDEST DUP3 CALLDATALOAD SWAP1 POP PUSH8 0xFFFFFFFFFFFFFFFF DUP2 GT ISZERO PUSH2 0x3349 JUMPI PUSH1 0x0 DUP1 REVERT JUMPDEST PUSH1 0x20 DUP4 ADD SWAP2 POP DUP4 PUSH1 0x1 DUP3 MUL DUP4 ADD GT ISZERO PUSH2 0x3361 JUMPI PUSH1 0x0 DUP1 REVERT JUMPDEST SWAP3 POP SWAP3 SWAP1 POP JUMP JUMPDEST PUSH1 0x0 DUP3 PUSH1 0x1F DUP4 ADD SLT PUSH2 0x3379 JUMPI PUSH1 0x0 DUP1 REVERT JUMPDEST DUP2 CALLDATALOAD PUSH2 0x3389 DUP5 DUP3 PUSH1 0x20 DUP7 ADD PUSH2 0x3218 JUMP JUMPDEST SWAP2 POP POP SWAP3 SWAP2 POP POP JUMP JUMPDEST PUSH1 0x0 DUP2 CALLDATALOAD SWAP1 POP PUSH2 0x33A1 DUP2 PUSH2 0x47F0 JUMP JUMPDEST SWAP3 SWAP2 POP POP JUMP JUMPDEST PUSH1 0x0 DUP2 MLOAD SWAP1 POP PUSH2 0x33B6 DUP2 PUSH2 0x47F0 JUMP JUMPDEST SWAP3 SWAP2 POP POP JUMP JUMPDEST PUSH1 0x0 DUP2 CALLDATALOAD SWAP1 POP PUSH2 0x33CB DUP2 PUSH2 0x4807 JUMP JUMPDEST SWAP3 SWAP2 POP POP JUMP JUMPDEST PUSH1 0x0 PUSH1 0x20 DUP3 DUP5 SUB SLT ISZERO PUSH2 0x33E3 JUMPI PUSH1 0x0 DUP1 REVERT JUMPDEST PUSH1 0x0 PUSH2 0x33F1 DUP5 DUP3 DUP6 ADD PUSH2 0x3256 JUMP JUMPDEST SWAP2 POP POP SWAP3 SWAP2 POP POP JUMP JUMPDEST PUSH1 0x0 PUSH1 0x20 DUP3 DUP5 SUB SLT ISZERO PUSH2 0x340C JUMPI PUSH1 0x0 DUP1 REVERT JUMPDEST PUSH1 0x0 PUSH2 0x341A DUP5 DUP3 DUP6 ADD PUSH2 0x326B JUMP JUMPDEST SWAP2 POP POP SWAP3 SWAP2 POP POP JUMP JUMPDEST PUSH1 0x0 PUSH1 0x20 DUP3 DUP5 SUB SLT ISZERO PUSH2 0x3435 JUMPI PUSH1 0x0 DUP1 REVERT JUMPDEST PUSH1 0x0 PUSH2 0x3443 DUP5 DUP3 DUP6 ADD PUSH2 0x3280 JUMP JUMPDEST SWAP2 POP POP SWAP3 SWAP2 POP POP JUMP JUMPDEST PUSH1 0x0 DUP1 PUSH1 0x0 DUP1 PUSH1 0x0 DUP1 PUSH1 0x0 DUP1 PUSH1 0xA0 DUP10 DUP12 SUB SLT ISZERO PUSH2 0x3468 JUMPI PUSH1 0x0 DUP1 REVERT JUMPDEST PUSH1 0x0 PUSH2 0x3476 DUP12 DUP3 DUP13 ADD PUSH2 0x3256 JUMP JUMPDEST SWAP9 POP POP PUSH1 0x20 PUSH2 0x3487 DUP12 DUP3 DUP13 ADD PUSH2 0x3256 JUMP JUMPDEST SWAP8 POP POP PUSH1 0x40 DUP10 ADD CALLDATALOAD PUSH8 0xFFFFFFFFFFFFFFFF DUP2 GT ISZERO PUSH2 0x34A4 JUMPI PUSH1 0x0 DUP1 REVERT JUMPDEST PUSH2 0x34B0 DUP12 DUP3 DUP13 ADD PUSH2 0x3295 JUMP JUMPDEST SWAP7 POP SWAP7 POP POP PUSH1 0x60 DUP10 ADD CALLDATALOAD PUSH8 0xFFFFFFFFFFFFFFFF DUP2 GT ISZERO PUSH2 0x34CF JUMPI PUSH1 0x0 DUP1 REVERT JUMPDEST PUSH2 0x34DB DUP12 DUP3 DUP13 ADD PUSH2 0x3295 JUMP JUMPDEST SWAP5 POP SWAP5 POP POP PUSH1 0x80 DUP10 ADD CALLDATALOAD PUSH8 0xFFFFFFFFFFFFFFFF DUP2 GT ISZERO PUSH2 0x34FA JUMPI PUSH1 0x0 DUP1 REVERT JUMPDEST PUSH2 0x3506 DUP12 DUP3 DUP13 ADD PUSH2 0x331E JUMP JUMPDEST SWAP3 POP SWAP3 POP POP SWAP3 SWAP6 SWAP9 POP SWAP3 SWAP6 SWAP9 SWAP1 SWAP4 SWAP7 POP JUMP JUMPDEST PUSH1 0x0 DUP1 PUSH1 0x0 DUP1 PUSH1 0x0 PUSH1 0x80 DUP7 DUP9 SUB SLT ISZERO PUSH2 0x3530 JUMPI PUSH1 0x0 DUP1 REVERT JUMPDEST PUSH1 0x0 PUSH2 0x353E DUP9 DUP3 DUP10 ADD PUSH2 0x3256 JUMP JUMPDEST SWAP6 POP POP PUSH1 0x20 PUSH2 0x354F DUP9 DUP3 DUP10 ADD PUSH2 0x3256 JUMP JUMPDEST SWAP5 POP POP PUSH1 0x40 PUSH2 0x3560 DUP9 DUP3 DUP10 ADD PUSH2 0x3392 JUMP JUMPDEST SWAP4 POP POP PUSH1 0x60 DUP7 ADD CALLDATALOAD PUSH8 0xFFFFFFFFFFFFFFFF DUP2 GT ISZERO PUSH2 0x357D JUMPI PUSH1 0x0 DUP1 REVERT JUMPDEST PUSH2 0x3589 DUP9 DUP3 DUP10 ADD PUSH2 0x331E JUMP JUMPDEST SWAP3 POP SWAP3 POP POP SWAP3 SWAP6 POP SWAP3 SWAP6 SWAP1 SWAP4 POP JUMP JUMPDEST PUSH1 0x0 DUP1 PUSH1 0x0 DUP1 PUSH1 0x0 DUP1 PUSH1 0xA0 DUP8 DUP10 SUB SLT ISZERO PUSH2 0x35B1 JUMPI PUSH1 0x0 DUP1 REVERT JUMPDEST PUSH1 0x0 PUSH2 0x35BF DUP10 DUP3 DUP11 ADD PUSH2 0x3256 JUMP JUMPDEST SWAP7 POP POP PUSH1 0x20 PUSH2 0x35D0 DUP10 DUP3 DUP11 ADD PUSH2 0x3256 JUMP JUMPDEST SWAP6 POP POP PUSH1 0x40 PUSH2 0x35E1 DUP10 DUP3 DUP11 ADD PUSH2 0x3392 JUMP JUMPDEST SWAP5 POP POP PUSH1 0x60 PUSH2 0x35F2 DUP10 DUP3 DUP11 ADD PUSH2 0x3392 JUMP JUMPDEST SWAP4 POP POP PUSH1 0x80 DUP8 ADD CALLDATALOAD PUSH8 0xFFFFFFFFFFFFFFFF DUP2 GT ISZERO PUSH2 0x360F JUMPI PUSH1 0x0 DUP1 REVERT JUMPDEST PUSH2 0x361B DUP10 DUP3 DUP11 ADD PUSH2 0x331E JUMP JUMPDEST SWAP3 POP SWAP3 POP POP SWAP3 SWAP6 POP SWAP3 SWAP6 POP SWAP3 SWAP6 JUMP JUMPDEST PUSH1 0x0 DUP1 PUSH1 0x40 DUP4 DUP6 SUB SLT ISZERO PUSH2 0x363D JUMPI PUSH1 0x0 DUP1 REVERT JUMPDEST PUSH1 0x0 PUSH2 0x364B DUP6 DUP3 DUP7 ADD PUSH2 0x3256 JUMP JUMPDEST SWAP3 POP POP PUSH1 0x20 PUSH2 0x365C DUP6 DUP3 DUP7 ADD PUSH2 0x3392 JUMP JUMPDEST SWAP2 POP POP SWAP3 POP SWAP3 SWAP1 POP JUMP JUMPDEST PUSH1 0x0 DUP1 PUSH1 0x0 DUP1 PUSH1 0x0 PUSH1 0xA0 DUP7 DUP9 SUB SLT ISZERO PUSH2 0x367E JUMPI PUSH1 0x0 DUP1 REVERT JUMPDEST PUSH1 0x0 PUSH2 0x368C DUP9 DUP3 DUP10 ADD PUSH2 0x3256 JUMP JUMPDEST SWAP6 POP POP PUSH1 0x20 PUSH2 0x369D DUP9 DUP3 DUP10 ADD PUSH2 0x33BC JUMP JUMPDEST SWAP5 POP POP PUSH1 0x40 PUSH2 0x36AE DUP9 DUP3 DUP10 ADD PUSH2 0x3392 JUMP JUMPDEST SWAP4 POP POP PUSH1 0x60 PUSH2 0x36BF DUP9 DUP3 DUP10 ADD PUSH2 0x3392 JUMP JUMPDEST SWAP3 POP POP PUSH1 0x80 PUSH2 0x36D0 DUP9 DUP3 DUP10 ADD PUSH2 0x3256 JUMP JUMPDEST SWAP2 POP POP SWAP3 SWAP6 POP SWAP3 SWAP6 SWAP1 SWAP4 POP JUMP JUMPDEST PUSH1 0x0 PUSH1 0x20 DUP3 DUP5 SUB SLT ISZERO PUSH2 0x36EF JUMPI PUSH1 0x0 DUP1 REVERT JUMPDEST PUSH1 0x0 PUSH2 0x36FD DUP5 DUP3 DUP6 ADD PUSH2 0x32DF JUMP JUMPDEST SWAP2 POP POP SWAP3 SWAP2 POP POP JUMP JUMPDEST PUSH1 0x0 PUSH1 0x20 DUP3 DUP5 SUB SLT ISZERO PUSH2 0x3718 JUMPI PUSH1 0x0 DUP1 REVERT JUMPDEST PUSH1 0x0 PUSH2 0x3726 DUP5 DUP3 DUP6 ADD PUSH2 0x3309 JUMP JUMPDEST SWAP2 POP POP SWAP3 SWAP2 POP POP JUMP JUMPDEST PUSH1 0x0 PUSH1 0x20 DUP3 DUP5 SUB SLT ISZERO PUSH2 0x3741 JUMPI PUSH1 0x0 DUP1 REVERT JUMPDEST PUSH1 0x0 PUSH2 0x374F DUP5 DUP3 DUP6 ADD PUSH2 0x3392 JUMP JUMPDEST SWAP2 POP POP SWAP3 SWAP2 POP POP JUMP JUMPDEST PUSH1 0x0 PUSH1 0x20 DUP3 DUP5 SUB SLT ISZERO PUSH2 0x376A JUMPI PUSH1 0x0 DUP1 REVERT JUMPDEST PUSH1 0x0 PUSH2 0x3778 DUP5 DUP3 DUP6 ADD PUSH2 0x33A7 JUMP JUMPDEST SWAP2 POP POP SWAP3 SWAP2 POP POP JUMP JUMPDEST PUSH1 0x0 DUP1 PUSH1 0x0 DUP1 PUSH1 0x80 DUP6 DUP8 SUB SLT ISZERO PUSH2 0x3797 JUMPI PUSH1 0x0 DUP1 REVERT JUMPDEST PUSH1 0x0 PUSH2 0x37A5 DUP8 DUP3 DUP9 ADD PUSH2 0x3392 JUMP JUMPDEST SWAP5 POP POP PUSH1 0x20 PUSH2 0x37B6 DUP8 DUP3 DUP9 ADD PUSH2 0x3256 JUMP JUMPDEST SWAP4 POP POP PUSH1 0x40 PUSH2 0x37C7 DUP8 DUP3 DUP9 ADD PUSH2 0x32F4 JUMP JUMPDEST SWAP3 POP POP PUSH1 0x60 DUP6 ADD CALLDATALOAD PUSH8 0xFFFFFFFFFFFFFFFF DUP2 GT ISZERO PUSH2 0x37E4 JUMPI PUSH1 0x0 DUP1 REVERT JUMPDEST PUSH2 0x37F0 DUP8 DUP3 DUP9 ADD PUSH2 0x3368 JUMP JUMPDEST SWAP2 POP POP SWAP3 SWAP6 SWAP2 SWAP5 POP SWAP3 POP JUMP JUMPDEST PUSH2 0x3805 DUP2 PUSH2 0x4211 JUMP JUMPDEST DUP3 MSTORE POP POP JUMP JUMPDEST PUSH2 0x381C PUSH2 0x3817 DUP3 PUSH2 0x4211 JUMP JUMPDEST PUSH2 0x4337 JUMP JUMPDEST DUP3 MSTORE POP POP JUMP JUMPDEST PUSH2 0x382B DUP2 PUSH2 0x4235 JUMP JUMPDEST DUP3 MSTORE POP POP JUMP JUMPDEST PUSH2 0x383A DUP2 PUSH2 0x4241 JUMP JUMPDEST DUP3 MSTORE POP POP JUMP JUMPDEST PUSH2 0x3849 DUP2 PUSH2 0x424B JUMP JUMPDEST DUP3 MSTORE POP POP JUMP JUMPDEST PUSH1 0x0 PUSH2 0x385B DUP4 DUP6 PUSH2 0x4111 JUMP JUMPDEST SWAP4 POP PUSH2 0x3868 DUP4 DUP6 DUP5 PUSH2 0x42AE JUMP JUMPDEST DUP3 DUP5 ADD SWAP1 POP SWAP4 SWAP3 POP POP POP JUMP JUMPDEST PUSH1 0x0 PUSH2 0x3881 PUSH1 0x18 DUP4 PUSH2 0x411C JUMP JUMPDEST SWAP2 POP PUSH2 0x388C DUP3 PUSH2 0x43D7 JUMP JUMPDEST PUSH1 0x20 DUP3 ADD SWAP1 POP SWAP2 SWAP1 POP JUMP JUMPDEST PUSH1 0x0 PUSH2 0x38A4 PUSH1 0x1F DUP4 PUSH2 0x411C JUMP JUMPDEST SWAP2 POP PUSH2 0x38AF DUP3 PUSH2 0x4400 JUMP JUMPDEST PUSH1 0x20 DUP3 ADD SWAP1 POP SWAP2 SWAP1 POP JUMP JUMPDEST PUSH1 0x0 PUSH2 0x38C7 PUSH1 0x26 DUP4 PUSH2 0x411C JUMP JUMPDEST SWAP2 POP PUSH2 0x38D2 DUP3 PUSH2 0x4429 JUMP JUMPDEST PUSH1 0x40 DUP3 ADD SWAP1 POP SWAP2 SWAP1 POP JUMP JUMPDEST PUSH1 0x0 PUSH2 0x38EA PUSH1 0xF DUP4 PUSH2 0x411C JUMP JUMPDEST SWAP2 POP PUSH2 0x38F5 DUP3 PUSH2 0x4478 JUMP JUMPDEST PUSH1 0x20 DUP3 ADD SWAP1 POP SWAP2 SWAP1 POP JUMP JUMPDEST PUSH1 0x0 PUSH2 0x390D PUSH1 0x22 DUP4 PUSH2 0x411C JUMP JUMPDEST SWAP2 POP PUSH2 0x3918 DUP3 PUSH2 0x44A1 JUMP JUMPDEST PUSH1 0x40 DUP3 ADD SWAP1 POP SWAP2 SWAP1 POP JUMP JUMPDEST PUSH1 0x0 PUSH2 0x3930 PUSH1 0x9 DUP4 PUSH2 0x411C JUMP JUMPDEST SWAP2 POP PUSH2 0x393B DUP3 PUSH2 0x44F0 JUMP JUMPDEST PUSH1 0x20 DUP3 ADD SWAP1 POP SWAP2 SWAP1 POP JUMP JUMPDEST PUSH1 0x0 PUSH2 0x3953 PUSH1 0xE DUP4 PUSH2 0x411C JUMP JUMPDEST SWAP2 POP PUSH2 0x395E DUP3 PUSH2 0x4519 JUMP JUMPDEST PUSH1 0x20 DUP3 ADD SWAP1 POP SWAP2 SWAP1 POP JUMP JUMPDEST PUSH1 0x0 PUSH2 0x3976 PUSH1 0x10 DUP4 PUSH2 0x411C JUMP JUMPDEST SWAP2 POP PUSH2 0x3981 DUP3 PUSH2 0x4542 JUMP JUMPDEST PUSH1 0x20 DUP3 ADD SWAP1 POP SWAP2 SWAP1 POP JUMP JUMPDEST PUSH1 0x0 PUSH2 0x3999 PUSH1 0x2A DUP4 PUSH2 0x411C JUMP JUMPDEST SWAP2 POP PUSH2 0x39A4 DUP3 PUSH2 0x456B JUMP JUMPDEST PUSH1 0x40 DUP3 ADD SWAP1 POP SWAP2 SWAP1 POP JUMP JUMPDEST PUSH1 0x0 PUSH2 0x39BC PUSH1 0x20 DUP4 PUSH2 0x411C JUMP JUMPDEST SWAP2 POP PUSH2 0x39C7 DUP3 PUSH2 0x45BA JUMP JUMPDEST PUSH1 0x20 DUP3 ADD SWAP1 POP SWAP2 SWAP1 POP JUMP JUMPDEST PUSH1 0x0 PUSH2 0x39DF PUSH1 0x15 DUP4 PUSH2 0x411C JUMP JUMPDEST SWAP2 POP PUSH2 0x39EA DUP3 PUSH2 0x45E3 JUMP JUMPDEST PUSH1 0x20 DUP3 ADD SWAP1 POP SWAP2 SWAP1 POP JUMP JUMPDEST PUSH1 0x0 PUSH2 0x3A02 PUSH1 0x2E DUP4 PUSH2 0x411C JUMP JUMPDEST SWAP2 POP PUSH2 0x3A0D DUP3 PUSH2 0x460C JUMP JUMPDEST PUSH1 0x40 DUP3 ADD SWAP1 POP SWAP2 SWAP1 POP JUMP JUMPDEST PUSH1 0x0 PUSH2 0x3A25 PUSH1 0x11 DUP4 PUSH2 0x4100 JUMP JUMPDEST SWAP2 POP PUSH2 0x3A30 DUP3 PUSH2 0x465B JUMP JUMPDEST PUSH1 0x20 DUP3 ADD SWAP1 POP SWAP2 SWAP1 POP JUMP JUMPDEST PUSH1 0x0 PUSH2 0x3A48 PUSH1 0x1A DUP4 PUSH2 0x411C JUMP JUMPDEST SWAP2 POP PUSH2 0x3A53 DUP3 PUSH2 0x4684 JUMP JUMPDEST PUSH1 0x20 DUP3 ADD SWAP1 POP SWAP2 SWAP1 POP JUMP JUMPDEST PUSH1 0x0 PUSH2 0x3A6B PUSH1 0x0 DUP4 PUSH2 0x4100 JUMP JUMPDEST SWAP2 POP PUSH2 0x3A76 DUP3 PUSH2 0x46AD JUMP JUMPDEST PUSH1 0x0 DUP3 ADD SWAP1 POP SWAP2 SWAP1 POP JUMP JUMPDEST PUSH1 0x0 PUSH2 0x3A8E PUSH1 0x16 DUP4 PUSH2 0x411C JUMP JUMPDEST SWAP2 POP PUSH2 0x3A99 DUP3 PUSH2 0x46B0 JUMP JUMPDEST PUSH1 0x20 DUP3 ADD SWAP1 POP SWAP2 SWAP1 POP JUMP JUMPDEST PUSH1 0x0 PUSH2 0x3AB1 PUSH1 0x1A DUP4 PUSH2 0x411C JUMP JUMPDEST SWAP2 POP PUSH2 0x3ABC DUP3 PUSH2 0x46D9 JUMP JUMPDEST PUSH1 0x20 DUP3 ADD SWAP1 POP SWAP2 SWAP1 POP JUMP JUMPDEST PUSH1 0x0 PUSH2 0x3AD4 PUSH1 0x13 DUP4 PUSH2 0x411C JUMP JUMPDEST SWAP2 POP PUSH2 0x3ADF DUP3 PUSH2 0x4702 JUMP JUMPDEST PUSH1 0x20 DUP3 ADD SWAP1 POP SWAP2 SWAP1 POP JUMP JUMPDEST PUSH1 0x0 PUSH2 0x3AF7 PUSH1 0x19 DUP4 PUSH2 0x411C JUMP JUMPDEST SWAP2 POP PUSH2 0x3B02 DUP3 PUSH2 0x472B JUMP JUMPDEST PUSH1 0x20 DUP3 ADD SWAP1 POP SWAP2 SWAP1 POP JUMP JUMPDEST PUSH1 0x0 PUSH2 0x3B1A PUSH1 0x1C DUP4 PUSH2 0x411C JUMP JUMPDEST SWAP2 POP PUSH2 0x3B25 DUP3 PUSH2 0x4754 JUMP JUMPDEST PUSH1 0x20 DUP3 ADD SWAP1 POP SWAP2 SWAP1 POP JUMP JUMPDEST PUSH2 0x3B39 DUP2 PUSH2 0x4297 JUMP JUMPDEST DUP3 MSTORE POP POP JUMP JUMPDEST PUSH2 0x3B48 DUP2 PUSH2 0x42A1 JUMP JUMPDEST DUP3 MSTORE POP POP JUMP JUMPDEST PUSH1 0x0 PUSH2 0x3B5A DUP3 DUP5 PUSH2 0x380B JUMP JUMPDEST PUSH1 0x14 DUP3 ADD SWAP2 POP DUP2 SWAP1 POP SWAP3 SWAP2 POP POP JUMP JUMPDEST PUSH1 0x0 PUSH2 0x3B76 DUP3 DUP5 DUP7 PUSH2 0x384F JUMP JUMPDEST SWAP2 POP DUP2 SWAP1 POP SWAP4 SWAP3 POP POP POP JUMP JUMPDEST PUSH1 0x0 PUSH1 0x20 DUP3 ADD SWAP1 POP PUSH2 0x3B97 PUSH1 0x0 DUP4 ADD DUP5 PUSH2 0x37FC JUMP JUMPDEST SWAP3 SWAP2 POP POP JUMP JUMPDEST PUSH1 0x0 PUSH1 0x40 DUP3 ADD SWAP1 POP PUSH2 0x3BB2 PUSH1 0x0 DUP4 ADD DUP6 PUSH2 0x37FC JUMP JUMPDEST PUSH2 0x3BBF PUSH1 0x20 DUP4 ADD DUP5 PUSH2 0x37FC JUMP JUMPDEST SWAP4 SWAP3 POP POP POP JUMP JUMPDEST PUSH1 0x0 PUSH1 0x60 DUP3 ADD SWAP1 POP PUSH2 0x3BDB PUSH1 0x0 DUP4 ADD DUP7 PUSH2 0x37FC JUMP JUMPDEST PUSH2 0x3BE8 PUSH1 0x20 DUP4 ADD DUP6 PUSH2 0x37FC JUMP JUMPDEST PUSH2 0x3BF5 PUSH1 0x40 DUP4 ADD DUP5 PUSH2 0x3B30 JUMP JUMPDEST SWAP5 SWAP4 POP POP POP POP JUMP JUMPDEST PUSH1 0x0 PUSH1 0x80 DUP3 ADD SWAP1 POP PUSH2 0x3C12 PUSH1 0x0 DUP4 ADD DUP7 PUSH2 0x37FC JUMP JUMPDEST PUSH2 0x3C1F PUSH1 0x20 DUP4 ADD DUP6 PUSH2 0x37FC JUMP JUMPDEST PUSH2 0x3C2C PUSH1 0x40 DUP4 ADD DUP5 PUSH2 0x3B30 JUMP JUMPDEST DUP2 DUP2 SUB PUSH1 0x60 DUP4 ADD MSTORE PUSH2 0x3C3D DUP2 PUSH2 0x3A18 JUMP JUMPDEST SWAP1 POP SWAP5 SWAP4 POP POP POP POP JUMP JUMPDEST PUSH1 0x0 PUSH1 0xA0 DUP3 ADD SWAP1 POP PUSH2 0x3C5C PUSH1 0x0 DUP4 ADD DUP8 PUSH2 0x37FC JUMP JUMPDEST PUSH2 0x3C69 PUSH1 0x20 DUP4 ADD DUP7 PUSH2 0x37FC JUMP JUMPDEST PUSH2 0x3C76 PUSH1 0x40 DUP4 ADD DUP6 PUSH2 0x3B30 JUMP JUMPDEST PUSH2 0x3C83 PUSH1 0x60 DUP4 ADD DUP5 PUSH2 0x3B30 JUMP JUMPDEST DUP2 DUP2 SUB PUSH1 0x80 DUP4 ADD MSTORE PUSH2 0x3C94 DUP2 PUSH2 0x3A18 JUMP JUMPDEST SWAP1 POP SWAP6 SWAP5 POP POP POP POP POP JUMP JUMPDEST PUSH1 0x0 PUSH1 0xA0 DUP3 ADD SWAP1 POP PUSH2 0x3CB4 PUSH1 0x0 DUP4 ADD DUP8 PUSH2 0x37FC JUMP JUMPDEST PUSH2 0x3CC1 PUSH1 0x20 DUP4 ADD DUP7 PUSH2 0x37FC JUMP JUMPDEST PUSH2 0x3CCE PUSH1 0x40 DUP4 ADD DUP6 PUSH2 0x3B30 JUMP JUMPDEST PUSH2 0x3CDB PUSH1 0x60 DUP4 ADD DUP5 PUSH2 0x3B30 JUMP JUMPDEST DUP2 DUP2 SUB PUSH1 0x80 DUP4 ADD MSTORE PUSH2 0x3CEC DUP2 PUSH2 0x3A5E JUMP JUMPDEST SWAP1 POP SWAP6 SWAP5 POP POP POP POP POP JUMP JUMPDEST PUSH1 0x0 PUSH1 0x40 DUP3 ADD SWAP1 POP PUSH2 0x3D0C PUSH1 0x0 DUP4 ADD DUP6 PUSH2 0x37FC JUMP JUMPDEST PUSH2 0x3D19 PUSH1 0x20 DUP4 ADD DUP5 PUSH2 0x3B30 JUMP JUMPDEST SWAP4 SWAP3 POP POP POP JUMP JUMPDEST PUSH1 0x0 PUSH1 0xE0 DUP3 ADD SWAP1 POP PUSH2 0x3D35 PUSH1 0x0 DUP4 ADD DUP11 PUSH2 0x37FC JUMP JUMPDEST PUSH2 0x3D42 PUSH1 0x20 DUP4 ADD DUP10 PUSH2 0x3B30 JUMP JUMPDEST PUSH2 0x3D4F PUSH1 0x40 DUP4 ADD DUP9 PUSH2 0x37FC JUMP JUMPDEST PUSH2 0x3D5C PUSH1 0x60 DUP4 ADD DUP8 PUSH2 0x3B3F JUMP JUMPDEST PUSH2 0x3D69 PUSH1 0x80 DUP4 ADD DUP7 PUSH2 0x3B30 JUMP JUMPDEST PUSH2 0x3D76 PUSH1 0xA0 DUP4 ADD DUP6 PUSH2 0x37FC JUMP JUMPDEST PUSH2 0x3D83 PUSH1 0xC0 DUP4 ADD DUP5 PUSH2 0x3B30 JUMP JUMPDEST SWAP9 SWAP8 POP POP POP POP POP POP POP POP JUMP JUMPDEST PUSH1 0x0 PUSH1 0x20 DUP3 ADD SWAP1 POP PUSH2 0x3DA4 PUSH1 0x0 DUP4 ADD DUP5 PUSH2 0x3822 JUMP JUMPDEST SWAP3 SWAP2 POP POP JUMP JUMPDEST PUSH1 0x0 PUSH1 0x80 DUP3 ADD SWAP1 POP PUSH2 0x3DBF PUSH1 0x0 DUP4 ADD DUP8 PUSH2 0x3831 JUMP JUMPDEST PUSH2 0x3DCC PUSH1 0x20 DUP4 ADD DUP7 PUSH2 0x3B3F JUMP JUMPDEST PUSH2 0x3DD9 PUSH1 0x40 DUP4 ADD DUP6 PUSH2 0x3831 JUMP JUMPDEST PUSH2 0x3DE6 PUSH1 0x60 DUP4 ADD DUP5 PUSH2 0x3831 JUMP JUMPDEST SWAP6 SWAP5 POP POP POP POP POP JUMP JUMPDEST PUSH1 0x0 PUSH1 0x20 DUP3 ADD SWAP1 POP PUSH2 0x3E04 PUSH1 0x0 DUP4 ADD DUP5 PUSH2 0x3840 JUMP JUMPDEST SWAP3 SWAP2 POP POP JUMP JUMPDEST PUSH1 0x0 PUSH1 0x20 DUP3 ADD SWAP1 POP DUP2 DUP2 SUB PUSH1 0x0 DUP4 ADD MSTORE PUSH2 0x3E23 DUP2 PUSH2 0x3874 JUMP JUMPDEST SWAP1 POP SWAP2 SWAP1 POP JUMP JUMPDEST PUSH1 0x0 PUSH1 0x20 DUP3 ADD SWAP1 POP DUP2 DUP2 SUB PUSH1 0x0 DUP4 ADD MSTORE PUSH2 0x3E43 DUP2 PUSH2 0x3897 JUMP JUMPDEST SWAP1 POP SWAP2 SWAP1 POP JUMP JUMPDEST PUSH1 0x0 PUSH1 0x20 DUP3 ADD SWAP1 POP DUP2 DUP2 SUB PUSH1 0x0 DUP4 ADD MSTORE PUSH2 0x3E63 DUP2 PUSH2 0x38BA JUMP JUMPDEST SWAP1 POP SWAP2 SWAP1 POP JUMP JUMPDEST PUSH1 0x0 PUSH1 0x20 DUP3 ADD SWAP1 POP DUP2 DUP2 SUB PUSH1 0x0 DUP4 ADD MSTORE PUSH2 0x3E83 DUP2 PUSH2 0x38DD JUMP JUMPDEST SWAP1 POP SWAP2 SWAP1 POP JUMP JUMPDEST PUSH1 0x0 PUSH1 0x20 DUP3 ADD SWAP1 POP DUP2 DUP2 SUB PUSH1 0x0 DUP4 ADD MSTORE PUSH2 0x3EA3 DUP2 PUSH2 0x3900 JUMP JUMPDEST SWAP1 POP SWAP2 SWAP1 POP JUMP JUMPDEST PUSH1 0x0 PUSH1 0x20 DUP3 ADD SWAP1 POP DUP2 DUP2 SUB PUSH1 0x0 DUP4 ADD MSTORE PUSH2 0x3EC3 DUP2 PUSH2 0x3923 JUMP JUMPDEST SWAP1 POP SWAP2 SWAP1 POP JUMP JUMPDEST PUSH1 0x0 PUSH1 0x20 DUP3 ADD SWAP1 POP DUP2 DUP2 SUB PUSH1 0x0 DUP4 ADD MSTORE PUSH2 0x3EE3 DUP2 PUSH2 0x3946 JUMP JUMPDEST SWAP1 POP SWAP2 SWAP1 POP JUMP JUMPDEST PUSH1 0x0 PUSH1 0x20 DUP3 ADD SWAP1 POP DUP2 DUP2 SUB PUSH1 0x0 DUP4 ADD MSTORE PUSH2 0x3F03 DUP2 PUSH2 0x3969 JUMP JUMPDEST SWAP1 POP SWAP2 SWAP1 POP JUMP JUMPDEST PUSH1 0x0 PUSH1 0x20 DUP3 ADD SWAP1 POP DUP2 DUP2 SUB PUSH1 0x0 DUP4 ADD MSTORE PUSH2 0x3F23 DUP2 PUSH2 0x398C JUMP JUMPDEST SWAP1 POP SWAP2 SWAP1 POP JUMP JUMPDEST PUSH1 0x0 PUSH1 0x20 DUP3 ADD SWAP1 POP DUP2 DUP2 SUB PUSH1 0x0 DUP4 ADD MSTORE PUSH2 0x3F43 DUP2 PUSH2 0x39AF JUMP JUMPDEST SWAP1 POP SWAP2 SWAP1 POP JUMP JUMPDEST PUSH1 0x0 PUSH1 0x20 DUP3 ADD SWAP1 POP DUP2 DUP2 SUB PUSH1 0x0 DUP4 ADD MSTORE PUSH2 0x3F63 DUP2 PUSH2 0x39D2 JUMP JUMPDEST SWAP1 POP SWAP2 SWAP1 POP JUMP JUMPDEST PUSH1 0x0 PUSH1 0x20 DUP3 ADD SWAP1 POP DUP2 DUP2 SUB PUSH1 0x0 DUP4 ADD MSTORE PUSH2 0x3F83 DUP2 PUSH2 0x39F5 JUMP JUMPDEST SWAP1 POP SWAP2 SWAP1 POP JUMP JUMPDEST PUSH1 0x0 PUSH1 0x20 DUP3 ADD SWAP1 POP DUP2 DUP2 SUB PUSH1 0x0 DUP4 ADD MSTORE PUSH2 0x3FA3 DUP2 PUSH2 0x3A3B JUMP JUMPDEST SWAP1 POP SWAP2 SWAP1 POP JUMP JUMPDEST PUSH1 0x0 PUSH1 0x20 DUP3 ADD SWAP1 POP DUP2 DUP2 SUB PUSH1 0x0 DUP4 ADD MSTORE PUSH2 0x3FC3 DUP2 PUSH2 0x3A81 JUMP JUMPDEST SWAP1 POP SWAP2 SWAP1 POP JUMP JUMPDEST PUSH1 0x0 PUSH1 0x20 DUP3 ADD SWAP1 POP DUP2 DUP2 SUB PUSH1 0x0 DUP4 ADD MSTORE PUSH2 0x3FE3 DUP2 PUSH2 0x3AA4 JUMP JUMPDEST SWAP1 POP SWAP2 SWAP1 POP JUMP JUMPDEST PUSH1 0x0 PUSH1 0x20 DUP3 ADD SWAP1 POP DUP2 DUP2 SUB PUSH1 0x0 DUP4 ADD MSTORE PUSH2 0x4003 DUP2 PUSH2 0x3AC7 JUMP JUMPDEST SWAP1 POP SWAP2 SWAP1 POP JUMP JUMPDEST PUSH1 0x0 PUSH1 0x20 DUP3 ADD SWAP1 POP DUP2 DUP2 SUB PUSH1 0x0 DUP4 ADD MSTORE PUSH2 0x4023 DUP2 PUSH2 0x3AEA JUMP JUMPDEST SWAP1 POP SWAP2 SWAP1 POP JUMP JUMPDEST PUSH1 0x0 PUSH1 0x20 DUP3 ADD SWAP1 POP DUP2 DUP2 SUB PUSH1 0x0 DUP4 ADD MSTORE PUSH2 0x4043 DUP2 PUSH2 0x3B0D JUMP JUMPDEST SWAP1 POP SWAP2 SWAP1 POP JUMP JUMPDEST PUSH1 0x0 PUSH1 0x20 DUP3 ADD SWAP1 POP PUSH2 0x405F PUSH1 0x0 DUP4 ADD DUP5 PUSH2 0x3B30 JUMP JUMPDEST SWAP3 SWAP2 POP POP JUMP JUMPDEST PUSH1 0x0 PUSH1 0x80 DUP3 ADD SWAP1 POP PUSH2 0x407A PUSH1 0x0 DUP4 ADD DUP8 PUSH2 0x3B30 JUMP JUMPDEST PUSH2 0x4087 PUSH1 0x20 DUP4 ADD DUP7 PUSH2 0x3B3F JUMP JUMPDEST PUSH2 0x4094 PUSH1 0x40 DUP4 ADD DUP6 PUSH2 0x37FC JUMP JUMPDEST PUSH2 0x40A1 PUSH1 0x60 DUP4 ADD DUP5 PUSH2 0x3B30 JUMP JUMPDEST SWAP6 SWAP5 POP POP POP POP POP JUMP JUMPDEST PUSH1 0x0 PUSH2 0x40B4 PUSH2 0x40C5 JUMP JUMPDEST SWAP1 POP PUSH2 0x40C0 DUP3 DUP3 PUSH2 0x42BD JUMP JUMPDEST SWAP2 SWAP1 POP JUMP JUMPDEST PUSH1 0x0 PUSH1 0x40 MLOAD SWAP1 POP SWAP1 JUMP JUMPDEST PUSH1 0x0 PUSH8 0xFFFFFFFFFFFFFFFF DUP3 GT ISZERO PUSH2 0x40EA JUMPI PUSH2 0x40E9 PUSH2 0x438A JUMP JUMPDEST JUMPDEST PUSH2 0x40F3 DUP3 PUSH2 0x43B9 JUMP JUMPDEST SWAP1 POP PUSH1 0x20 DUP2 ADD SWAP1 POP SWAP2 SWAP1 POP JUMP JUMPDEST PUSH1 0x0 DUP3 DUP3 MSTORE PUSH1 0x20 DUP3 ADD SWAP1 POP SWAP3 SWAP2 POP POP JUMP JUMPDEST PUSH1 0x0 DUP2 SWAP1 POP SWAP3 SWAP2 POP POP JUMP JUMPDEST PUSH1 0x0 DUP3 DUP3 MSTORE PUSH1 0x20 DUP3 ADD SWAP1 POP SWAP3 SWAP2 POP POP JUMP JUMPDEST PUSH1 0x0 PUSH2 0x4138 DUP3 PUSH2 0x4297 JUMP JUMPDEST SWAP2 POP PUSH2 0x4143 DUP4 PUSH2 0x4297 JUMP JUMPDEST SWAP3 POP DUP3 PUSH32 0xFFFFFFFFFFFFFFFFFFFFFFFFFFFFFFFFFFFFFFFFFFFFFFFFFFFFFFFFFFFFFFFF SUB DUP3 GT ISZERO PUSH2 0x4178 JUMPI PUSH2 0x4177 PUSH2 0x435B JUMP JUMPDEST JUMPDEST DUP3 DUP3 ADD SWAP1 POP SWAP3 SWAP2 POP POP JUMP JUMPDEST PUSH1 0x0 PUSH2 0x418E DUP3 PUSH2 0x4297 JUMP JUMPDEST SWAP2 POP PUSH2 0x4199 DUP4 PUSH2 0x4297 JUMP JUMPDEST SWAP3 POP DUP2 PUSH32 0xFFFFFFFFFFFFFFFFFFFFFFFFFFFFFFFFFFFFFFFFFFFFFFFFFFFFFFFFFFFFFFFF DIV DUP4 GT DUP3 ISZERO ISZERO AND ISZERO PUSH2 0x41D2 JUMPI PUSH2 0x41D1 PUSH2 0x435B JUMP JUMPDEST JUMPDEST DUP3 DUP3 MUL SWAP1 POP SWAP3 SWAP2 POP POP JUMP JUMPDEST PUSH1 0x0 PUSH2 0x41E8 DUP3 PUSH2 0x4297 JUMP JUMPDEST SWAP2 POP PUSH2 0x41F3 DUP4 PUSH2 0x4297 JUMP JUMPDEST SWAP3 POP DUP3 DUP3 LT ISZERO PUSH2 0x4206 JUMPI PUSH2 0x4205 PUSH2 0x435B JUMP JUMPDEST JUMPDEST DUP3 DUP3 SUB SWAP1 POP SWAP3 SWAP2 POP POP JUMP JUMPDEST PUSH1 0x0 PUSH2 0x421C DUP3 PUSH2 0x4277 JUMP JUMPDEST SWAP1 POP SWAP2 SWAP1 POP JUMP JUMPDEST PUSH1 0x0 PUSH2 0x422E DUP3 PUSH2 0x4277 JUMP JUMPDEST SWAP1 POP SWAP2 SWAP1 POP JUMP JUMPDEST PUSH1 0x0 DUP2 ISZERO ISZERO SWAP1 POP SWAP2 SWAP1 POP JUMP JUMPDEST PUSH1 0x0 DUP2 SWAP1 POP SWAP2 SWAP1 POP JUMP JUMPDEST PUSH1 0x0 PUSH32 0xFFFFFFFF00000000000000000000000000000000000000000000000000000000 DUP3 AND SWAP1 POP SWAP2 SWAP1 POP JUMP JUMPDEST PUSH1 0x0 PUSH20 0xFFFFFFFFFFFFFFFFFFFFFFFFFFFFFFFFFFFFFFFF DUP3 AND SWAP1 POP SWAP2 SWAP1 POP JUMP JUMPDEST PUSH1 0x0 DUP2 SWAP1 POP SWAP2 SWAP1 POP JUMP JUMPDEST PUSH1 0x0 PUSH1 0xFF DUP3 AND SWAP1 POP SWAP2 SWAP1 POP JUMP JUMPDEST DUP3 DUP2 DUP4 CALLDATACOPY PUSH1 0x0 DUP4 DUP4 ADD MSTORE POP POP POP JUMP JUMPDEST PUSH2 0x42C6 DUP3 PUSH2 0x43B9 JUMP JUMPDEST DUP2 ADD DUP2 DUP2 LT PUSH8 0xFFFFFFFFFFFFFFFF DUP3 GT OR ISZERO PUSH2 0x42E5 JUMPI PUSH2 0x42E4 PUSH2 0x438A JUMP JUMPDEST JUMPDEST DUP1 PUSH1 0x40 MSTORE POP POP POP JUMP JUMPDEST PUSH1 0x0 PUSH2 0x42F9 DUP3 PUSH2 0x4297 JUMP JUMPDEST SWAP2 POP PUSH32 0xFFFFFFFFFFFFFFFFFFFFFFFFFFFFFFFFFFFFFFFFFFFFFFFFFFFFFFFFFFFFFFFF DUP3 EQ ISZERO PUSH2 0x432C JUMPI PUSH2 0x432B PUSH2 0x435B JUMP JUMPDEST JUMPDEST PUSH1 0x1 DUP3 ADD SWAP1 POP SWAP2 SWAP1 POP JUMP JUMPDEST PUSH1 0x0 PUSH2 0x4342 DUP3 PUSH2 0x4349 JUMP JUMPDEST SWAP1 POP SWAP2 SWAP1 POP JUMP JUMPDEST PUSH1 0x0 PUSH2 0x4354 DUP3 PUSH2 0x43CA JUMP JUMPDEST SWAP1 POP SWAP2 SWAP1 POP JUMP JUMPDEST PUSH32 0x4E487B7100000000000000000000000000000000000000000000000000000000 PUSH1 0x0 MSTORE PUSH1 0x11 PUSH1 0x4 MSTORE PUSH1 0x24 PUSH1 0x0 REVERT JUMPDEST PUSH32 0x4E487B7100000000000000000000000000000000000000000000000000000000 PUSH1 0x0 MSTORE PUSH1 0x41 PUSH1 0x4 MSTORE PUSH1 0x24 PUSH1 0x0 REVERT JUMPDEST PUSH1 0x0 PUSH1 0x1F NOT PUSH1 0x1F DUP4 ADD AND SWAP1 POP SWAP2 SWAP1 POP JUMP JUMPDEST PUSH1 0x0 DUP2 PUSH1 0x60 SHL SWAP1 POP SWAP2 SWAP1 POP JUMP JUMPDEST PUSH32 0x45434453413A20696E76616C6964207369676E61747572650000000000000000 PUSH1 0x0 DUP3 ADD MSTORE POP JUMP JUMPDEST PUSH32 0x45434453413A20696E76616C6964207369676E6174757265206C656E67746800 PUSH1 0x0 DUP3 ADD MSTORE POP JUMP JUMPDEST PUSH32 0x4F776E61626C653A206E6577206F776E657220697320746865207A65726F2061 PUSH1 0x0 DUP3 ADD MSTORE PUSH32 0x6464726573730000000000000000000000000000000000000000000000000000 PUSH1 0x20 DUP3 ADD MSTORE POP JUMP JUMPDEST PUSH32 0x57524F4E47205349474E41545552450000000000000000000000000000000000 PUSH1 0x0 DUP3 ADD MSTORE POP JUMP JUMPDEST PUSH32 0x45434453413A20696E76616C6964207369676E6174757265202773272076616C PUSH1 0x0 DUP3 ADD MSTORE PUSH32 0x7565000000000000000000000000000000000000000000000000000000000000 PUSH1 0x20 DUP3 ADD MSTORE POP JUMP JUMPDEST PUSH32 0x4E6F2070726F6669740000000000000000000000000000000000000000000000 PUSH1 0x0 DUP3 ADD MSTORE POP JUMP JUMPDEST PUSH32 0x4E4F5420454E4F55474820455448000000000000000000000000000000000000 PUSH1 0x0 DUP3 ADD MSTORE POP JUMP JUMPDEST PUSH32 0x494E56414C49442043414C4C4441544100000000000000000000000000000000 PUSH1 0x0 DUP3 ADD MSTORE POP JUMP JUMPDEST PUSH32 0x5452414E53464552204641494C45442E20434845434B20414C4C4F57414E4345 PUSH1 0x0 DUP3 ADD MSTORE PUSH32 0x20262042414C414E434500000000000000000000000000000000000000000000 PUSH1 0x20 DUP3 ADD MSTORE POP JUMP JUMPDEST PUSH32 0x4F776E61626C653A2063616C6C6572206973206E6F7420746865206F776E6572 PUSH1 0x0 DUP3 ADD MSTORE POP JUMP JUMPDEST PUSH32 0x494E56414C494420434F4E545241435420545950450000000000000000000000 PUSH1 0x0 DUP3 ADD MSTORE POP JUMP JUMPDEST PUSH32 0x53454E444552204D555354205741495420414654455220534F4D4520424C4F43 PUSH1 0x0 DUP3 ADD MSTORE PUSH32 0x4B5320544F205749544844524157000000000000000000000000000000000000 PUSH1 0x20 DUP3 ADD MSTORE POP JUMP JUMPDEST PUSH32 0x496E7465726E616C207472616E73666572000000000000000000000000000000 PUSH1 0x0 DUP3 ADD MSTORE POP JUMP JUMPDEST PUSH32 0x4D5553542042452053454E44455220544F205749544844524157000000000000 PUSH1 0x0 DUP3 ADD MSTORE POP JUMP JUMPDEST POP JUMP JUMPDEST PUSH32 0x494E53554646494349454E5420414C4C4F57414E434500000000000000000000 PUSH1 0x0 DUP3 ADD MSTORE POP JUMP JUMPDEST PUSH32 0x494E53554646494349454E5420544F4B454E2042414C414E4345000000000000 PUSH1 0x0 DUP3 ADD MSTORE POP JUMP JUMPDEST PUSH32 0x48415348455320444F204E4F54204D4154434800000000000000000000000000 PUSH1 0x0 DUP3 ADD MSTORE POP JUMP JUMPDEST PUSH32 0x4445504F53495420414C52454144592057495448445241574E00000000000000 PUSH1 0x0 DUP3 ADD MSTORE POP JUMP JUMPDEST PUSH32 0x4445504F53495420494E44455820444F4553204E4F5420455849535400000000 PUSH1 0x0 DUP3 ADD MSTORE POP JUMP JUMPDEST PUSH2 0x4786 DUP2 PUSH2 0x4211 JUMP JUMPDEST DUP2 EQ PUSH2 0x4791 JUMPI PUSH1 0x0 DUP1 REVERT JUMPDEST POP JUMP JUMPDEST PUSH2 0x479D DUP2 PUSH2 0x4223 JUMP JUMPDEST DUP2 EQ PUSH2 0x47A8 JUMPI PUSH1 0x0 DUP1 REVERT JUMPDEST POP JUMP JUMPDEST PUSH2 0x47B4 DUP2 PUSH2 0x4235 JUMP JUMPDEST DUP2 EQ PUSH2 0x47BF JUMPI PUSH1 0x0 DUP1 REVERT JUMPDEST POP JUMP JUMPDEST PUSH2 0x47CB DUP2 PUSH2 0x4241 JUMP JUMPDEST DUP2 EQ PUSH2 0x47D6 JUMPI PUSH1 0x0 DUP1 REVERT JUMPDEST POP JUMP JUMPDEST PUSH2 0x47E2 DUP2 PUSH2 0x424B JUMP JUMPDEST DUP2 EQ PUSH2 0x47ED JUMPI PUSH1 0x0 DUP1 REVERT JUMPDEST POP JUMP JUMPDEST PUSH2 0x47F9 DUP2 PUSH2 0x4297 JUMP JUMPDEST DUP2 EQ PUSH2 0x4804 JUMPI PUSH1 0x0 DUP1 REVERT JUMPDEST POP JUMP JUMPDEST PUSH2 0x4810 DUP2 PUSH2 0x42A1 JUMP JUMPDEST DUP2 EQ PUSH2 0x481B JUMPI PUSH1 0x0 DUP1 REVERT JUMPDEST POP JUMP INVALID LOG2 PUSH5 0x6970667358 0x22 SLT KECCAK256 SWAP9 0x24 STATICCALL 0x5F SWAP15 SWAP2 GAS 0x2D 0xDB 0xC 0xD6 0xE0 CALLDATASIZE 0xD7 LT 0xDF GT 0xEF 0xD1 DUP12 SLOAD PUSH29 0x5A8BEA3FF1E08CF3C73164736F6C634300080200330000000000000000 "},"methodIdentifiers":{"defaultGasLimit()":"95368d2e","deposits(uint256)":"b02c43d0","estimateFee(address)":"57463d35","gasLimits(address)":"ce5ac327","getDepositCount()":"9363a141","getTrustedForwarder()":"ce1b815f","isTrustedForwarder(address)":"572b6c05","lockBlocks()":"f3e0dfc2","makeDeposit(address,uint8,uint256,uint256,address)":"f3478011","minGasPrice()":"d96ed505","onERC1155BatchReceived(address,address,uint256[],uint256[],bytes)":"bc197c81","onERC1155Received(address,address,uint256,uint256,bytes)":"f23a6e61","onERC721Received(address,address,uint256,bytes)":"150b7a02","owner()":"8da5cb5b","profit()":"66d16cc3","protocolFee()":"b0e21e8a","renounceOwnership()":"715018a6","setDefaultGasLimit(uint256)":"e32bb67b","setGasLimit(address,uint256)":"c7c8459a","setLockBlocks(uint256)":"63d83b42","setMinGasPrice(uint256)":"90ac1866","setProtocolFee(uint256)":"787dce3d","setTrustedForwarder(address)":"da742228","supportsInterface(bytes4)":"01ffc9a7","transferOwnership(address)":"f2fde38b","withdrawDeposit(uint256,address,bytes32,bytes)":"30c7a3bb","withdrawProfit(address)":"24e26241","withdrawSender(uint256)":"1f412883"}}}}}